:100000000209ED752D04752E00752F0075300F75E2
:10001000310075320075330D7A00790F7B007F0C4B
:100020008F298B2A8A2B892C7534FEE4F535F53619
:10003000E52924F4600C24FE700E75351275361017
:100040008006753577753630E5354480FD7F0212C0
:1000500008E47D807F041209C01208E07D807F0AD9
:100060001209E0E4F538F539C3E539952DE5389402
:1000700000501FAB2AAA2BA92C8539828538831200
:1000800004F3FD7F091208E40539E53970DA053813
:1000900080D6AD297F011208E4E529B40C077D80E4
:1000A0007F0D1209E07538027539587F041208680F
:1000B0008F37E539153970021538E539453860094B
:1000C000E53720E004553660E27D807F0D1209C0DF
:1000D000E539453870030201857F06120868EF5440
:1000E0001B6003020182F534E537553530E00375B6
:1000F00034FFE529640C60030201857F0A12086859
:100100008F377F0C120868EF5407FD6021E5372414
:10011000FFFFE434FFFEEF7803C333CE33CED8F9CC
:100120007C002DFFEC3EAB31AA32A933800FE537BE
:1001300075F008A4FFAB31AA32A933E5F08FF012B5
:100140000554E5377003753701E537D39412400342
:10015000753712E4F538F539C3E5399537E5389444
:100160000050227F09120868AB2EAA2FA9308539CA
:1001700082853883EF1205320539E53970DA0538A2
:1001800080D67534FE7D807F0C1209E01208E0AF46
:10019000342212091B120816120A071209CE7B001C
:1001A0007A00793A7F521207B58F08E5086011127C
:1001B000091B120816120A071209CE1209F980DE6D
:1001C0001209A87B007A00793A1205738F08E508B6
:1001D00070CC7B007A00793A1205EE8F08E5087042
:1001E000BD75110075120075133A7BFF7A0A7922EA
:1001F0007D017F601206698F08E50870A17BFF7A98
:100200000A790E7F011203B18F08E50870907B0018
:100210007A00793A7F521207B58F08E508600E120E
:10022000091B120816120A071209CE80E17B007A18
:1002300000793A1205738F08E50870D27B007A00C6
:10024000793A1205EE8F08E50870C3751100751232
:100250000075133A7BFF7A0A79227D017F601206CE
:10026000698F08E50870A77BFF7A0A791E7D017FF8
:10027000C01202B08F08E50870947D027F0112065B
:10028000DE8F08E50870877B007A00793A7F0712D5
:1002900007528F08E508600302020E1208A3120934
:1002A00047120A0012094A120947120A0002020EF6
:1002B0008D0C8B0D8A0E890F8F12850C13752800FB
:1002C000752900752A147B007A0079127D021204C8
:1002D0007D752D04752E00752F0075301275310057
:1002E0007532007533107B007A0079127F0C120092
:1002F00020EF7010E511640445107008E512540FEA
:10030000640A60027FFEEF7057FEAB0DAA0EA90FC4
:100310008E827583001204F3FD74122EF8A6050E6A
:10032000BE10E7752800752900752A167B007A0033
:1003300079127D0412047DE4F510F511752D06F592
:100340002E752F00753012F531753200753310FBA4
:100350007A0079127F0C120020EF64FE6002E4FF45
:10036000EF704D7512B0850C13F528752900752AAC
:1003700014FB7A0079127D0212047D752D04752E0E
:1003800000752F007530127531007532007533100D
:100390007B007A0079127F0C120020EF7010E511BB
:1003A000640445107008E512540F640A60027FFE71
:1003B000228B0C8A0D890E7511A08F12752800757D
:1003C0002900752A137B007A0079117D0212047DC1
:1003D000752D04752E00752F00753011753100755F
:1003E000320075330F7B007A0079117F0C120020E8
:1003F000EF7010E5106404450F7008E511540F64A8
:100400000A60027FFEEF7063FEAB0CAA0DA90E8E90
:10041000827583001204F3FD74112EF8A6050EBE3A
:1004200010E7752800752900752A217B007A00796C
:10043000117D1012047D752D12752E00752F00751B
:10044000301175310075320075330F7B007A0079F9
:10045000117F0C120020EF7010E5106404450F703E
:1004600008E511540F640A60027FFE2275280075AA
:100470002900752A117A00790F7B007D028B248A6E
:100480002589268D277D047F051209C01208E07D8D
:10049000807F0A1209E0E4F52BE52BC3952750195C
:1004A000AB24AA25A926852B827583001204F3FDAF
:1004B0007F091208E4052B80E07D037F011208E428
:1004C000752BFF7F05120868152BE52B6004EF30B4
:1004D000E2F17F22120868AB28AA29A92AEF1205A7
:1004E000207F21120868AB28AA29A92A900001EFD1
:1004F000020532BB010CE58229F582E5833AF583DA
:10050000E0225006E92582F8E622BBFE06E92582B4
:10051000F8E222E58229F582E5833AF583E4932225
:10052000BB010689828A83F0225002F722BBFE01BA
:10053000F322F8BB010DE58229F582E5833AF583C4
:10054000E8F0225006E92582C8F622BBFE05E9251F
:1005500082C8F222BB010A89828A83F0E5F0A3F007
:10056000225006F709A7F01922BBFE06F3E5F009B1
:10057000F319228B0C8A0D890EE4F5101209BCE4E4
:10058000FD7F0D1208E47D807F0E1209C075139364
:10059000751420752D02752E00752F00753013759A
:1005A00031007532007533117B007A0079137F0CAE
:1005B0001200208F0FE50F702BFF74132FF8E6AB9E
:1005C0000CAA0DA90E8F8275830012053274132FA9
:1005D000F8E662100FBF04E274132FF8E6651060AE
:1005E00003750FFE7D807F0E1209E0AF0F228B0C8A
:1005F0008A0D890E751193751270E4F517FFAB0C17
:10060000AA0DA90E8F827583001204F3FE74132FB6
:10061000F8A6068F827583001204F362170FBF04D9
:10062000DD752800752900752A187B007A0079117C
:100630007D0712047D1209BC752D09752E00752FDA
:100640000075301175310075320075330F7B007AFB
:100650000079117F0C120020EF700BE51064184533
:100660000F7003FF80027FFE228B0E8A0F89108F8E
:10067000178D18E4FFAB0EAA0FA9108F82758300A7
:100680001204F3FE74192FF8A6060FBF06E7E4FF65
:10069000AB11AA12A9138F827583001204F3FE74A2
:1006A0001F2FF8A6060FBF06E7752D0C752E0075D7
:1006B0002F007530177531007532007533157B00CA
:1006C0007A0079177F0E1200208F14E51470097FCD
:1006D00008120868EF20E3037514FEAF14228D0C96
:1006E000750FC28F1012046C120003EF7010E50E2C
:1006F0006404450D7008E50F540F640A60027FFE24
:10070000EF7027F50FF510F511F512F52875290092
:10071000752A13FB7A00790F7D0412047D752D066E
:10072000120006EF64FE6002E4FFEF60037FFE222A
:10073000750FB0850C1012046C120003EF7010E5F9
:100740000E6404450D7008E50F540F640A60027FC3
:10075000FE228B0C8A0D890E7511308F12752800C0
:10076000752900752A137A007911120479752D0400
:10077000752E00752F0075301175310075320075BA
:10078000330F7B007A0079117F0C120020EF70226A
:10079000E5106490450F701AFE74112EF8E6AB0C4C
:1007A000AA0DA90E8E827583001205320EBE10E9C5
:1007B00080027FFE228F0C8B0D8A0E890F1209BCDE
:1007C0007D077F0D1208E47D037F141209E0850C7C
:1007D00012752D01752E00752F00753012753100C0
:1007E0007532007533107A00791212001CEF7023F5
:1007F000E51164104510701BAB0DAA0EA90FE51290
:10080000120520AB0DAA0EA90F900001E5131205E9
:100810003280027FFE22D2A500C2A500D2A57F0AA7
:100820007E0012098A7D0F7F011208E4007D3D7F62
:10083000111208E47D1E7F2D1208E4E4FD7F2C12C6
:1008400008E47D8D7F2A1208E47D3E7F2B1208E4A8
:100850007D407F151208E47F15120868BF40FD7FB8
:100860000022AC07AB05E4FEE4FEC2A6C2A4EF255D
:10087000E0547E4480FF7D08EFC330E701D392A7A8
:10088000D2A6EF25E0FFC2A6DDEE7D08D2A6EE25BA
:10089000E0FEA280E4334206C2A6DDF0D2A4D2A6D6
:1008A000AF0622750F50E4F510F528752900752A5A
:1008B00011FB7A00790F7D0212047D752D04752ECF
:1008C00000752F0075300F75310075320075330DCE
:1008D0007B007A00790F7F0C1200208F0C7F0022A2
:1008E000E4FD7F01C2A6C2A4EF25E0547EFF7E088E
:1008F000EFC330E701D392A7D2A6EF25E0FFC2A64F
:10090000DEEE7E08EDC330E701D392A7D2A6ED2537
:10091000E0FDC2A6DEEED2A4D2A6227580FF7590BD
:10092000FF75B0FF75A0FF758921759850758DFD15
:10093000758BFDE4F58CF58AD28CD2A9D28ED29932
:10094000D2AFD2ACD298221209F97F647E00D3EFE5
:100950009400EE940040147D7D7C00ED1D70011C20
:10096000ED4C70F7EF1F70E61E80E322D3EF94008A
:10097000EE940040147D6E7C00ED1D70011CED4C6A
:1009800070F7EF1F70E61E80E322D3EF9400EE9421
:100990000040147D6E7C00ED1D70011CED4C70F765
:1009A000EF1F70E61E80E3221209F97FE87E031232
:1009B000096C120A007FE87E0302096C7D087F083B
:1009C000120862AE07AF04EBF45EFD0208E47F1488
:1009D000120868EF540370077D037F141209E022A8
:1009E000120862AE07AF04EB4EFD0208E4787FE424
:1009F000F6D8FD75814D020192C2B3C2CFC2CD229D
:100A0000D2B3D2CFD2CD227D037F140209C01234DB
:100A10005678EDCBA9871234567801FE01FE00000E
:080A20000001FFFFFFFFFFFFD3
:00000001FF
