:10000000021C9EE490011EF0D2B4220209CAE490C0
:1000100000AFF01224569000AFE004F0E0C3940566
:1000200040F1220221B2900146E075F00AA4FF904F
:100030000145E075F064A42FFF900147E02F900088
:10004000AFF0E49000B4F0A3F0A3F0A3F0A3F0A30A
:10005000F0900034E060030201AEA3E064066003A8
:100060000201AE900033E0640860030201AE7B0140
:100070007A007934E024FEFDE434FFFC121F229064
:1000800000B2EEF0A3EFF0900033E02432F582E40A
:100090003400F583E0FF9000B0E4F0A3EFF09000AF
:1000A00033E02433F582E43400F583E0FE9000B1C0
:1000B000E02400F09000B0E03EF0E0FEA3E0FFA3FB
:1000C000E06E7003A3E06F6003020446900037E027
:1000D00070061223DC020446900037E0640170438E
:1000E00090011FE0640270030204467401F0900066
:1000F00039E075F06484900122F0900039E075F0E9
:100100006484E5F075F00A84900123F0900039E0F2
:1001100075F00A84900124E5F0F09000F474B4F0D6
:10012000020446900037E0B4110B12223BE4900128
:100130001FF0020446900037E0B4201E900039E022
:1001400090011EF0E4900120F090011EE090013A31
:10015000F0D394034052E4F0804E900037E0B42195
:1001600013900039E0900144F0E0D394054003740B
:1001700005F08034900037E0B42212900039E0900E
:100180000139F0E0D394014002E4F0801B90003785
:10019000E064236003020446900039E090013BF0E4
:1001A000E0D394014002E4F0121C100204469000D7
:1001B000AFE0FF900034E06F60030204467B017AF9
:1001C000007934900033E024FEFDE434FFFC121F7C
:1001D000229000B2EEF0A3EFF0900033E02432F56D
:1001E00082E43400F583E0FF9000B0E4F0A3EFF088
:1001F000900033E02433F582E43400F583E0FE9090
:1002000000B1E02400F09000B0E03EF0E0FEA3E09A
:10021000FFA3E06E7003A3E06F600302044690004A
:1002200035E024FA604424F670030203CC240D6008
:1002300003020446900038E0700BA3E0B4010612FC
:100240002167020446900038E07007A3E0B403027F
:100250008012900038E06003020446A3E064056069
:1002600003020446121090020446900033E0640832
:100270006003020446122412900037E07006122236
:100280003B020446900037E064016004E0B40206DB
:10029000120003020446900037E0B40508E4900120
:1002A00048F0020446900037E0B41008E490015191
:1002B000F0020446900037E0C3941150030203A2F9
:1002C000E0D3941A40030203A2E024EF9000B4F0BC
:1002D000900039E0C41354079000B5F0E07F00604F
:1002E000027F019000B4E0FE75F007A42469F58256
:1002F000E43400F583EFF0900039E0131313540356
:1003000014602014603314604724037058EE75F0B5
:1003100007A4246AF582E43400F583E4F0A374644E
:10032000F08042EE75F007A4246AF582E43400F50B
:1003300083E4F0A374C8F0802CEE75F007A4246A5F
:10034000F582E43400F5837401F0A374F4F08015B1
:10035000EE75F007A4246AF582E43400F583740393
:10036000F0A374E8F0900039E05407FF9000B4E087
:10037000FE75F007A4246CF582E43400F583EFF0F9
:10038000EE75F007A4246DF582E43400F583E4F003
:10039000EE75F007A4246EF582E43400F583E402E0
:1003A0000443900037E06420600302044690003963
:1003B000E07007900125F0020446900039E06401E6
:1003C000600302044690012504F0807A900033E037
:1003D00024F5FF90003CE06F706CE0D394145066FD
:1003E000121FD190003AE0C413540790011EF09000
:1003F000003AE0131313540314601514601D1460C5
:10040000262403702290011BE4F0A37450F0802195
:1004100090011BE4F0A374A0F0801690011B7401FE
:10042000F0A37440F0800A90011B7402F0A3748062
:10043000F090003AE05407900120F0E4900121F0A0
:10044000900126F0A3F0E49000B7F09000B7E0FF31
:10045000C39432501474342FF582E43400F583E4ED
:10046000F09000B7E004F080E2E4900033F09000F8
:1004700067F07F0122900069E06401704690006C93
:10048000E07004D293803E90006DE07017A3E0709E
:1004900002A3E07030D29390006D04F0E4FFFE12EE
:1004A0000B4F801590006EE07002A3E07017C293AE
:1004B00090006DF0FFFE120CCE90006EEEF0A3EFF8
:1004C000F08002C293900070E06401704790007366
:1004D000E07004D294803F900074E07017A3E07045
:1004E00002A3E07031D29490007404F0FF7E0012F9
:1004F0000B4F8016900075E07002A3E07018C29454
:10050000900074F07F01FE120CCE900075EEF0A307
:10051000EFF08002C294900077E064017048900090
:100520007AE07004D295804090007BE07018A3E0E0
:100530007002A3E07032D29590007B04F07F027EBF
:1005400000120B4F801690007CE07002A3E0701840
:10055000C29590007BF07F02FE120CCE90007CEEE4
:10056000F0A3EFF08002C29590007EE06401704835
:10057000900081E07004D2968040900082E0701874
:10058000A3E07002A3E07032D29690008204F07F64
:10059000037E00120B4F8016900083E07002A3E0F0
:1005A0007018C296900082F07F03FE120CCE90006D
:1005B00083EEF0A3EFF08002C296900085E0640124
:1005C0007048900088E07004D2978040900089E0E5
:1005D0007018A3E07002A3E07032D29790008904F3
:1005E000F07F047E00120B4F801690008AE07002AC
:1005F000A3E07018C297900089F07F04FE120CCE21
:1006000090008AEEF0A3EFF08002C29790008CE099
:100610006401704890008FE07004D28280409000A6
:1006200090E07018A3E07002A3E07032D2829000D4
:100630009004F07F057E00120B4F8016900091E031
:100640007002A3E07018C282900090F07F05FE1245
:100650000CCE900091EEF0A3EFF08002C2829000E9
:1006600093E064017048900096E07004D28380406B
:10067000900097E07018A3E07002A3E07032D2837C
:1006800090009704F07F067E00120B4F80169000BA
:1006900098E07002A3E07018C283900097F07F0684
:1006A000FE120CCE900098EEF0A3EFF08002C28311
:1006B00090009AE06401704890009DE07004D29030
:1006C000804090009EE07018A3E07002A3E07032BA
:1006D000D29090009E04F07F077E00120B4F801690
:1006E00090009FE07002A3E07018C29090009EF00E
:1006F0007F07FE120CCE90009FEEF0A3EFF0800279
:10070000C2909000A1E0640170489000A4E07004E1
:10071000D29180409000A5E07018A3E07002A3E0A1
:100720007032D2919000A504F07F087E00120B4F2A
:1007300080169000A6E07002A3E07018C2919000AD
:10074000A5F07F08FE120CCE9000A6EEF0A3EFF00D
:100750008002C2919000A8E0640170469000ABE076
:100760007003D292229000ACE07018A3E07002A354
:10077000E07031D2929000AC04F07F097E00120B41
:100780004F80169000ADE07002A3E07017C2929007
:1007900000ACF07F09FE120CCE9000ADEEF0A3EF9E
:1007A000F022C292229000E6F0A37401F0A374003C
:1007B000F0A374C5F0A37401F0A37400F0A374C394
:1007C000F07A0079C57B017F0C9000E3EBF0A3EA9F
:1007D000F0A3E9F09000E2EFF09000ED74FEF0E499
:1007E000A3F0A3F0EF24F4601024FE70169000EE46
:1007F0007412F0A37410F0800A9000EE7477F0A3E6
:100800007430F09000EEE04480FD7F021222737D90
:10081000807F04122422E4FD7F011222737D807FF9
:100820000A12243DE49000F1F0A3F09000E6E0FF0E
:100830009000F1E0FCA3E0FDC39FEC9400502890F1
:1008400000E3E0FBA3E0FAA3E0F98D828C83120EB3
:1008500066FD7F091222739000F2E004F070CC90E4
:1008600000F1E004F080C49000E2E0FD7F0112227C
:10087000739000E2E0B40C077D807F0D12243D9060
:1008800000F17402F0A37458F07F0412220090006B
:10089000F0EFF09000F2E024FFF09000F1E034FF80
:1008A000F0E07002A3E060119000F0E0FF20E009AA
:1008B0009000EFE0FEEF5E60D07D807F0D1224227D
:1008C0009000F1E07002A3E070030209B67F061207
:1008D0002200EF541B60030209B09000EDF0A3E08A
:1008E000FF9000F0E05F30E0069000ED74FFF090C4
:1008F00000E2E0640C60030209B67F0A1222009055
:1009000000F0EFF07F0C122200EF5407FD602990F9
:1009100000F0E024FFFFE434FFFEEF7803C333CEA2
:1009200033CED8F97C002DFFEC3EF99000EAE0FBD5
:10093000A3E0FAA3E0C980169000F0E075F008A4E7
:10094000FF9000EAE0FBA3E0FAA3E0F9E5F08FF006
:10095000120F5A9000F0E0700204F09000F0E0D323
:10096000941240037412F0E49000F1F0A3F09000B0
:10097000F0E0FFC39000F2E09F9000F1E09400509F
:10098000357F091222009000E7E0FBA3E0FAA3E024
:10099000F99000F1E0FCA3E0F5828C83EF120EA544
:1009A0009000F2E004F070C69000F1E004F080BE28
:1009B0009000ED74FEF07D807F0C12243DE4FD7FFD
:1009C000011222739000EDE0FF22C0E0C0F0C0836E
:1009D000C082C0D075D000C000C001C002C003C03A
:1009E00004C005C006C0079000F3E4F0758CFC75E8
:1009F0008A66D390014EE0940190014DE09400404E
:100A000013A3E024FFF090014DE034FFF012246FB7
:100A1000C2B4801790014DE07004A3E06401700B34
:100A200090014DF0A3F0122476D2B4900033E06030
:100A30000D900066E0FF14F0EF7003A304F0900047
:100A4000F4E0D394014003E014F09000F4E0FFD30D
:100A500094004002C2CCEFD394024002C2B4EFB47F
:100A60000202D2B4EFD39496400280429000F4E0A8
:100A7000FFD394965007EF9473400280459000F4A2
:100A8000E0FFD394735007EF94554002802090000C
:100A9000F4E0FFD394555007EF9432400280239046
:100AA00000F4E0FFD39432500AEF9414400512246E
:100AB0006F80129000F4E0FFD394145008EF940379
:100AC0004003122476900126E07002A3E0600E90AD
:100AD0000127E024FFF0900126E034FFF09000F3BE
:100AE000E4F09000F3E0FFC36480948A5046EF3353
:100AF00095E0FE90006E75F007EF120F79EE75F03D
:100B000007A42583F583E0FCA3E0D39400EC9400D4
:100B1000401A90006E75F007EF120F79EE75F0072E
:100B2000A42583F58374FFF5F0120F2E9000F3E0F7
:100B300004F080AED007D006D005D004D003D00298
:100B4000D001D000D0D0D082D083D0F0D0E032908D
:100B5000006A75F007EF120F79EE75F007A4258390
:100B6000F583E0FDA3E09000AFCDF0A3EDF09000A1
:100B70006C75F007EF120F79EE75F007A42583F579
:100B800083E014B407004003020CC5900B9975F084
:100B900003A4C58325F0C58373020BAE020BCF02FD
:100BA0000BF5020C1B020C41020C6B020C9790001F
:100BB0006A75F007EF120F79EE75F007A42583F53B
:100BC00083E0C313FFA3E0139000AFCF020CC190EA
:100BD000006A75F007EF120F79EE75F007A4258310
:100BE000F583E0FEA3E0FF7C007D03120ED99000A8
:100BF000AFEE020CC190006A75F007EF120F79EEAC
:100C000075F007A42583F583E0FEA3E0FF7C007D5B
:100C100006120ED99000AFEE020CC190006A75F07A
:100C200007EF120F79EE75F007A42583F583E0FE38
:100C3000A3E0FF7C007D0B120ED99000AFEE020CFA
:100C4000C190006A75F007EF120F79EE75F007A4F6
:100C50002583F583E0FEA3E0FF7C007D03120ED91F
:100C6000EF25E0FFEE339000AF805690006A75F0FC
:100C700007EF120F79EE75F007A42583F583E0FEE8
:100C8000A3E0FF7C007D06120ED97C007D05120ECC
:100C9000C79000AFEE802A90006A75F007EF120F40
:100CA00079EE75F007A42583F583E0FEA3E0FF7CD1
:100CB000007D0B120ED97C007D0A120EC79000AF8A
:100CC000EEF0A3EFF09000AFE0FEA3E0FF22900073
:100CD0006A75F007EF120F79EE75F007A42583F51A
:100CE00083E0FDA3E09000AFCDF0A3EDF090006CA9
:100CF00075F007EF120F79EE75F007A42583F583E1
:100D0000E014B407004003020E44900D1875F00380
:100D1000A4C58325F0C58373020D2D020DC0020DFD
:100D2000EA020E16020D4E020D74020D9A90006A30
:100D300075F007EF120F79EE75F007A42583F583A0
:100D4000E0C313FFA3E0139000AFCF020E4090006A
:100D50006A75F007EF120F79EE75F007A42583F599
:100D600083E0FEA3E0FF7C007D03120ED99000AF6C
:100D7000EE020E4090006A75F007EF120F79EE75E3
:100D8000F007A42583F583E0FEA3E0FF7C007D0649
:100D9000120ED99000AFEE020E4090006A75F00777
:100DA000EF120F79EE75F007A42583F583E0FEA31B
:100DB000E0FF7C007D0B120ED99000AFEE020E40DA
:100DC00090006A75F007EF120F79EE75F007A42511
:100DD00083F583E0FEA3E0FF7C007D03120ED9EFD4
:100DE00025E0FFEE339000AF805690006A75F00763
:100DF000EF120F79EE75F007A42583F583E0FEA3CB
:100E0000E0FF7C007D06120ED97C007D05120EC726
:100E10009000AFEE802A90006A75F007EF120F790C
:100E2000EE75F007A42583F583E0FEA3E0FF7C00C8
:100E30007D0B120ED97C007D0A120EC79000AFEE1A
:100E4000F0A3EFF09000AFE0FEA3E0FF22BB0106AD
:100E500089828A83E0225002E722BBFE02E32289D4
:100E6000828A83E49322BB010CE58229F582E58323
:100E70003AF583E0225006E92582F8E622BBFE0619
:100E8000E92582F8E222E58229F582E5833AF583B5
:100E9000E49322BB010689828A83F0225002F72262
:100EA000BBFE01F322F8BB010DE58229F582E58343
:100EB0003AF583E8F0225006E92582C8F622BBFE07
:100EC00005E92582C8F222EF8DF0A4A8F0CF8CF0BE
:100ED000A428CE8DF0A42EFE22BC000BBE0029EF6C
:100EE0008DF084FFADF022E4CCF875F008EF2FFF11
:100EF000EE33FEEC33FCEE9DEC984005FCEE9DFEDF
:100F00000FD5F0E9E4CEFD22EDF8F5F0EE8420D225
:100F10001CFEADF075F008EF2FFFED33FD40079894
:100F20005006D5F0F222C398FD0FD5F0EA22C5F0A5
:100F3000F8A3E028F0C5F0F8E58215827002158369
:100F4000E038F022A3F8E0C5F025F0F0E582158244
:100F500070021583E0C838F0E822BB010A89828A52
:100F600083F0E5F0A3F0225006F709A7F01922BBA1
:100F7000FE06F3E5F009F31922A42582F582E5F0D7
:100F80003583F583229000B4EFF0C3940540037FCE
:100F9000FF229026D5E493FE740193AA06F99000EF
:100FA000C7E4F0A3EAF0A3E9F0A37405F07B017AAB
:100FB0000079B5121F7D9026D7E493FE740193AAA1
:100FC00006F99000C7E4F0A3EAF0A3E9F0A37405E2
:100FD000F07B017A0079BA121F7D9026D9E493FE46
:100FE000740193AA06F99000C7E4F0A3EAF0A3E91C
:100FF000F0A37405F07B017A0079BF121F7D900089
:10100000B4E0FF24BAF582E43400F583E0FE74B561
:101010002FF582E43400F583E0FFB5061C9000B4A0
:10102000E024BFF582E43400F583EFF09000B4E0F3
:1010300024B5F582E4340080529000B4E0FF24BF70
:10104000F582E43400F583E0FD74B52FF582E434D5
:1010500000F583E0FF9000B4B50519E024BAF582ED
:10106000E43400F583EFF09000B4E024B5F582E4B9
:1010700034008017E024B5F582E43400F583EEF007
:101080009000B4E024BAF582E43400F583E0FF2256
:10109000E4FFFE900146E075F00AA4FD900145E0F2
:1010A00075F064A42DFD900147E02DFD900000F047
:1010B000A37403F0900039E024FB6028240260034D
:1010C0000211439000027401F0900151E060089019
:1010D00000037401F08005E4900003F09000327486
:1010E00004F0805F900148E06401704C7B01900047
:1010F000BD04F0A37400F0A374F5F0A37410F07AAB
:1011000001792912179B7E20900002EEF0E4FFEF98
:10111000C39E501B74F52FF582E43400F583E0FD87
:1011200074032FF582E43400F583EDF00F80E0EED8
:101130002403900032F0800BE4900002F090003223
:101140007403F07B017A007900900032E0FD7C00AE
:10115000121F22900032E02400F582E43400F5836F
:10116000EFF0EEFF900032E02401F582E43400F568
:1011700083EFF0900032E02402F07B017A007900E6
:10118000E0FD7C00021D2A9000AFEFF0A3EDF0A37C
:10119000EBF07B017A0079B57F52121AF3EF60030E
:1011A00002123F90014AF090014CE060030212638A
:1011B0007B017A0079B512133BEF60030212637B67
:1011C000017A0079B5121635EF60030212639000C0
:1011D000AFE0FFA3E0FD9000CA7401F0A37400F03B
:1011E000A374B5F09000B212184AEF70769000B078
:1011F000E0FF7B017A0079B5121B80EF70659001EA
:1012000048F0FF9000B1E0FEEFC39E501B74B52F75
:10121000F582E43400F583E0FE74292FF582E4348E
:1012200001F583EEF00F80DB12207790014C740102
:10123000F0900148F090014DE4F0A37464F0229026
:10124000014AE004F0E0B4010912211A12248412C8
:1012500023EF90014AE0D3940540087405F0E49030
:10126000014CF0229000AFEFF07A0079B0121AEF43
:10127000EF600302131690014AF090014CE0600306
:1012800002133A7B017A0079B012133BEF6003023C
:10129000133A7B017A0079B0121635EF600302131E
:1012A0003A9000AFE0FD9000CA7401F0A37400F022
:1012B000A374B0F07BFF7A2679A37F60121852EFF7
:1012C00070789000AFE0FF7BFF7A2679B51216F7B1
:1012D000EF70679000AFE0FD9000CA7401F0A37456
:1012E00000F0A374B0F07BFF7A2679A37F61121817
:1012F00052EF70469000AFE0FF7BFF7A2679C5126F
:1013000016F7EF703512207790014C7401F0A3E4CA
:10131000F0A37464F02290014AE004F0E0B4010903
:1013200012211A1224841223EF90014AE0D394056B
:1013300040087405F0E490014CF0229000C5EBF0F9
:10134000A3EAF0A3E9F0E49000C9F07D087F081259
:101350002422E4FD7F0D1222737D807F0E12242251
:101360009000CC7493F0A37420F09000E67402F027
:101370007B01A314F0A37400F0A374CCF0A3EBF0F2
:10138000A37400F0A374CAF07A0079CC7F0C120722
:10139000C99000C8EFF07058FC74CC2CF582E4348E
:1013A00000F583E0FE9000C5E0FBA3E0FAA3E0F9BE
:1013B000AF048F82758300EE120EA59000C9E0FE87
:1013C00074CC2FF582E43400F583E0FDEE6D9000DF
:1013D000C9F00CECB404C274CC2CF582E43400F5F2
:1013E00083E0FF9000C9E06F60069000C874FEF0D3
:1013F0007D807F0E12243D9000C8E0FF2290011BEB
:10140000E0FEA3E0FFFDAC06900120E014B407006D
:1014100040030214B890142375F003A4C58325F08B
:10142000C5837302143802144102144F02145D0282
:10143000146E02148602149EEEC313FCEF13FD809B
:101440007790011BE0FEA3E0FF7C007D03801A90F3
:10145000011BE0FEA3E0FF7C007D06800C90011BD9
:10146000E0FEA3E0FF7C007D0B120ED980469001C8
:101470001BE0FEA3E0FF7C007D03120ED9EF25E008
:10148000FDEE33FC803290011BE0FEA3E0FF7C0008
:101490007D06120ED97C007D05120EC780169001C4
:1014A0001BE0FEA3E0FF7C007D0B120ED97C007DCB
:1014B0000A120EC7AC06AD07AE04AF052290011BA1
:1014C000E0FEA3E0FFFDAC06900120E014B40700AD
:1014D00040030215789014E375F003A4C58325F04A
:1014E000C583730214F802152E02154602155E021A
:1014F000150102150F02151DEEC313FCEF13FD803D
:101500007790011BE0FEA3E0FF7C007D03801A9032
:10151000011BE0FEA3E0FF7C007D06800C90011B18
:10152000E0FEA3E0FF7C007D0B120ED98046900107
:101530001BE0FEA3E0FF7C007D03120ED9EF25E047
:10154000FDEE33FC803290011BE0FEA3E0FF7C0047
:101550007D06120ED97C007D05120EC78016900103
:101560001BE0FEA3E0FF7C007D0B120ED97C007D0A
:101570000A120EC7AC06AD07AE04AF0522E4FF1297
:101580000F859000AFEFF07F01120F859000B0EF54
:10159000F07F02120F859000B1EFF07F03120F85EC
:1015A0009000B2EFF07F04120F859000B3EFF0903F
:1015B00000AFE0D394007480948140037401F090F4
:1015C00000B0E0D394034002E4F09000B1E0D39483
:1015D0000540037405F09000B2E0D394014002E4AA
:1015E000F09000B3E0D394014002E4F09000AFE04B
:1015F000FF75F06484900145F0EF75F06484E5F0C8
:1016000075F00A84A3F09000AFE075F00A849001B1
:1016100047E5F0F09000B0E090013AF09000B1E0C2
:10162000900144F09000B2E0900139F09000B3E0F6
:1016300090013BF0229000C5EBF0A3EAF0A3E9F0A3
:101640009000CA7493F0A37470F0E49000D0F0FCA2
:101650009000C5E0FBA3E0FAA3E0F9AF048F827528
:101660008300120E66FE74CC2FF582E43400F583FD
:10167000EEF09000D0E0FE8F82758300120E66FDC2
:10168000EE6D9000D0F00CECB404C59000E0740155
:10169000F0A37400F0A374D1F07B017A0079CA7DC5
:1016A00007121A4E7D087F081224229000E6740962
:1016B000F0A37401F0A37400F0A374CAF0A3740142
:1016C000F0A37400F0A374C8F07B017A0079CA7F9C
:1016D0000C1207C9EF700F9000C8E07004A3E0641B
:1016E000187003FF80027FFE229000B0E0FFA3E0AD
:1016F000FBA3E0FAA3E0F99000C0EBF0A3EAF0A3AB
:10170000E9F09000C574A0F0A3EFF09000E0740140
:10171000F0A37400F0A374C7F07D02121A48740499
:101720001207A5EF70169000C3E07004A3E06404F4
:10173000700A9000C5E0540F640A60027FFEEF70EB
:1017400059FE9000C0E0FBA3E0FAA3E0F98E827599
:101750008300120E66FD74C52EF582E43400F58315
:10176000EDF00EEEB410DB9000E07401F0A3740015
:10177000F0A374D5F07D10121A4874121207A5EF69
:1017800070169000C3E07004A3E06404700A900037
:10179000C5E0540F640A60027FFE229000BAEBF0AD
:1017A000A3EAF0A3E9F0E4FD9000C0E0FFEDC39FE1
:1017B00040030218499000BAE0FBA3E0FAA3E0F965
:1017C0008D82758300120E66C4540F9000C1F0D351
:1017D00094094005E0243780069000C1E02430FCE5
:1017E000ED25E0FFE433FE9000BDE0FBA3E0FAA3AB
:1017F000E0F98F828E83EC120EA59000BAE0FBA375
:10180000E0FAA3E0F98D82758300120E66540F9002
:1018100000C1F0D394094005E0243780069000C150
:10182000E02430FCED25E0FFE433FEEF2401FFE48B
:101830003EFE9000BDE0FBA3E0FAA3E0F98F828EAC
:1018400083EC120EA50D0217A822E0FBA3E0FAA379
:10185000E0F99000C7EBF0A3EAF0A3E9F09000D024
:10186000EFF0A3EDF0E4FF9000C7E0FBA3E0FAA3E4
:10187000E0F98F82758300120E66FE74D22FF58216
:10188000E43400F583EEF00FEFB406DBE4FF9000E4
:10189000CAE0FBA3E0FAA3E0F98F82758300120E81
:1018A00066FE74D82FF582E43400F583EEF00FEF76
:1018B000B406DB9000E6740CF0A37401F0A374008E
:1018C000F0A374D0F0A37401F0A37400F0A374CE5D
:1018D000F07B017A0079D07F0E1207C99000CDEF1E
:1018E000F070097F08122200EF20E3069000CD740B
:1018F000FEF09000CDE0FF227F327E001223AEC2C8
:10190000AF1222AA1223C612157D12240112211A27
:101910001224841223EF121E62E490011AF0D2B452
:1019200012247DD2AF12248F90011AE0B4011D90D1
:1019300000B474FFF0A37426F0A374A3F07BFF7AC5
:101940002679937D087F601219A1802B90011AE0FF
:1019500070199000B274FFF0A37426F0A374A3F082
:101960007B10E4FD7F60121187800C90011AE0B4B7
:1019700002057F07121264121E001204751222DD86
:10198000900152E06003122025900067E0B4010C42
:10199000122430E4900067F0900033F012248F801E
:1019A000849000AFEFF0A3EDF0A3EBF0A3EAF0A377
:1019B000E9F07A017929121AEFEF7067900150F07F
:1019C00090014BE06003021A477B017A01792912EA
:1019D000133BEF70727B017A017929121635EF7093
:1019E000669000AFE0FFA3E0FD9000CA7401F0A391
:1019F0007401F0A37429F09000B412184AEF7047F4
:101A00001216E9EF70411216E9EF703B1216E9EF7A
:101A1000700312207790014C7401F0A3E4F0A374DA
:101A200064F022900150E004F0E0B4010912211AA0
:101A30001224841223EF900150E0D39405400874DF
:101A400005F0E490014BF0227B017A0079C590000B
:101A5000DCEBF0A3EAF0A3E9F0A3EDF07D047F0551
:101A6000122422E4FD7F011222737D807F0A12245A
:101A70003DE49000E3F09000DFE0FF9000E3E0FE43
:101A8000C39F50219000DCE0FBA3E0FAA3E0F98EB5
:101A900082758300120E66FD7F091222739000E3A7
:101AA000E004F080D17D037F011222739000E37483
:101AB000FFF07F051222009000E3E014F0E06004E4
:101AC000EF30E2EE7F221222009000E0E0FBA3E084
:101AD000FAA3E0F9EF120E937F211222009000E0AA
:101AE000E0FBA3E0FAA3E0F9900001EF020EA57B72
:101AF000017F529000C5EFF0A3EBF0A3EAF0A3E959
:101B0000F07D087F081224227D077F0D1222737D4D
:101B1000037F1412243D9000C5E09000CBF09000AC
:101B2000E67401F0A3F0A37400F0A374CBF0A374E7
:101B300001F0A37400F0A374C9F07A0079CB120706
:101B4000C5EF70399000C9E07004A3E06410702DF7
:101B50009000CBE0FE9000C6E0FBA3E0FAA3E0F922
:101B6000EE120E939000CCE0FE9000C6E0FBA3E0E6
:101B7000FAA3E0F9900001EE120EA580027FFE228A
:101B80009000C5EBF0A3EAF0A3E9F09000CA74302E
:101B9000F0A3EFF09000E07401F0A37400F0A374E0
:101BA000CCF07B017A0079CA7D02121A4E9000E6D1
:101BB0007404F0A37401F0A37400F0A374CAF0A33A
:101BC0007401F0A37400F0A374C8F07B017A00796B
:101BD000CA7F0C1207C9EF70349000C8E07004A3EC
:101BE000E064907028FE74CA2EF582E43400F58318
:101BF000E0FD9000C5E0FBA3E0FAA3E0F98E82755A
:101C00008300ED120EA50EEEB410DB80027FFE22E3
:101C1000900146E075F00AA4FF900145E075F0647C
:101C2000A42FFF900147E02F9000BBF090013AE015
:101C30009000BCF0900144E09000BDF0900139E0CC
:101C40009000BEF090013BE09000BFF09026D5E4FC
:101C500093FE740193FF12248BE49000BAF090007D
:101C6000BAE0FFC394035035EF25E024D5F582E4B4
:101C70003426F583E493FE740193AA06F99000C319
:101C8000E4F0A3EAF0A3E9F0A37405F07B017A0085
:101C900079BB1220C99000BAE004F080C122787F9D
:101CA000E4F6D8FD758107021CE50218F8E493A359
:101CB000F8E493A34003F68001F208DFF48029E4FE
:101CC00093A3F85407240CC8C333C4540F4420C84A
:101CD000834004F456800146F6DFE4800B010204E1
:101CE0000810204080901D96E47E019360BCA3FF05
:101CF000543F30E509541FFEE493A360010ECF5416
:101D0000C025E060A840B8E493A3FAE493A3F8E404
:101D100093A3C8C582C8CAC583CAF0A3C8C582C870
:101D2000CAC583CADFE9DEE780BE9000BAEBF0A344
:101D3000EAF0A3E9F0A3ECF0A3EDF0D281C2A07F1A
:101D4000017E001223AEE49000BFF09000BFE0FFE0
:101D5000D39000BEE09F9000BDE09400402C900026
:101D6000BAE0FBA3E0FAA3E0F99000BFE0F58275CA
:101D70008300120E66FF20D004C29B8002D29B1209
:101D800024609000BFE004F080C17F017E00122338
:101D9000AEC281D2A0224101520041015300410153
:101DA000510041013A00410144054101390041011E
:101DB0003B0041011E0142011B03E841012001419A
:101DC00001210041011D0141011F00410125004188
:101DD00000F400602300F500000000000000000097
:101DE00000000000000000000000000000000000F3
:101DF0000000000000000000000042014D00000053
:101E0000900148E0B401047F02805390011EE0FF7E
:101E1000604A900120E070028044900121E0701D32
:101E2000900126E07002A3E0703790011EE0FF12DF
:101E30001EC39001217401F01213FD80169001263B
:101E4000E07002A3E0701AFF121EC3E4900121F0BB
:101E50001214BD900126EEF0A3EFF022E4FF121E53
:101E6000C322E4900148F0C2A0C2A07F03121EC3A7
:101E70007FF47E011223AE7F02121EC37FF47E0127
:101E80001223AE7F01121EC37FF47E011223AE7FA8
:101E900004121EC37FF47E011223AE7F05121EC3FF
:101EA0007FF47E011223AE7F06121EC37FF47E01F3
:101EB0001223AEE4FF121EC3D2A0D2A0D2B4C281BC
:101EC00002223BEF14B407005051901ED875F00366
:101ED000A4C58325F0C58373021EED021EF4021E05
:101EE000FB021F02021F09021F10021F14D2CCD2D4
:101EF000CDC2B322D2B3D2CDC2CC22D2B3D2CCC2C5
:101F0000CD22D2CDC2B3C2CC22D2CCC2B3C2CD225A
:101F1000D2B38002C2B3C2CCC2CD22D2B3D2CCD211
:101F2000CD229000BAEBF0A3EAF0A3E9F0A3ECF025
:101F3000A3EDF07FFF7DFF9000BD74FFF5F0120F61
:101F40004445F060339000BAE0FBA3E475F0011261
:101F50000F44A9F0FA120E4D6DFB7A002493F5821E
:101F6000EA3424F583E4936FFD74932BF582EA340D
:101F700025F583E493FF80BFEFFEEDFF229000C4C0
:101F8000EBF0A3EAF0A3E9F0E49000CBF09000CAF4
:101F9000E0FFA3E0C39F50389000C7E0FBA3E0FA46
:101FA000A3E0F912233A9000C4E0FBA3E0FAA3E017
:101FB000F99000CBE0F582758300EF120EA590003A
:101FC000C8E475F001120F2E9000CBE004F080BD44
:101FD00022900146E075F00AA4FF900145E075F0FB
:101FE00064A42FFF900147E02FFF900000F0A3743E
:101FF00010F0E4A3F0A3F0A3F0A37405F07B017A42
:102000000079007D067C00121F22900006EFF0EEA2
:10201000A3F09000327408F07B017A007900E0FDB3
:102020007C00021D2AE49000AFF0A3F0A3F0900121
:1020300025E06006E4900152F02290011FE0B40117
:102040002B900122E0900145F0900123E0900146A1
:10205000F0900124E0900147F0121C1090011F74D1
:1020600002F0E49000F4F090011EF022900152E0A2
:10207000147003122468229000C87450F0E4A3F096
:102080007B019000E004F0A37400F0A374CAF07A1E
:102090000079C87D02121A4E9000E67404F0A37411
:1020A00001F0A37400F0A374C8F0A37401F0A3744A
:1020B00000F0A374C6F07B017A0079C87F0C120788
:1020C000C99000C5EFF07F00229000C0EBF0A3EABA
:1020D000F0A3E9F0E49000C7F09000C6E0FFA3E0B1
:1020E000FEC39F50349000C0E0FBA3E0FAA3E0F9E8
:1020F0008E82758300120E66FD9000C3E0FBA3E0A4
:10210000FAA3E0F91223649000C4E475F001120F01
:102110002E9000C7E004F080C022D2A500C2A50026
:10212000D2A57F017E001223AE7D0F7F01122273A4
:10213000007D3D7F111222737D1E7F2D122273E4DC
:10214000FD7F2C1222737D8D7F2A1222737D3E7FAC
:102150002B1222737D407F151222737F2D122200D5
:10216000EFB41EFC7F0022900146E075F00AA4FF48
:10217000900145E075F064A42FFF900147E02FFF28
:10218000900000F0A37403F0E4A3F07B017A0079DF
:10219000007D03FC121F22900003EFF0EEA3F090ED
:1021A00000327405F07B017A007900E0FD7C0002CA
:1021B0001D2AC0E0C083C082C0D075D000C00730E7
:1021C000982DC298900033E0C3943250229000675B
:1021D000E06401601A900033E0FF04F074342FF5DE
:1021E00082E43400F583E599F09000667404F0D041
:1021F00007D0D0D082D083D0E032AC07AB05E4FE6C
:10220000E4FEC2A6C2A4EF25E0547E4480FF7D0810
:10221000EFC330E701D392A7D2A6EF25E0FFC2A615
:10222000DDEE7D08D2A6EE25E0FEA280E4334EFE70
:10223000C2A6DDF0D2A4D2A6AF0622E490011EF021
:10224000D2B4900151F0900148F0900069F09000F4
:1022500070F0900077F090007EF0900085F0900094
:102260008CF0900093F090009AF09000A1F0900014
:10227000A8F022C2A6C2A4EF25E0547EFF7E08EF9C
:10228000C330E701D392A7D2A6EF25E0FFC2A6DEB6
:10229000EE7E08EDC330E701D392A7D2A6ED25E08C
:1022A000FDC2A6DEEED2A4D2A62243940E75910002
:1022B0007592FFC281C293C294C295C296C297C260
:1022C00082C283C290C291C292122476D2B4E490A8
:1022D0000148F0900128F0538EDFF59722E4900139
:1022E00052F0A3E0B4010FA2B54003D38001C34074
:1022F00005E4900153F0900153E0701120B50E12E7
:10230000000E20B5089001527401F0A3F022E58977
:10231000540F4420F5897598D075B81053877F43C2
:102320008E40538EFE758BF7758DF7C2ABD28ED271
:10233000ACE5A2543F4440F5A222E4F5C275C78340
:1023400075C501AF019000CCEAF0A3EFF09000CC8E
:10235000E0F5C3A3E0F5C475C65A75C6A5001224FE
:102360004AAFC22275C78375C502AF019000C8EAA3
:10237000F0A3EFF09000C8E0F5C3A3E0F5C4AF050B
:102380008FC275C65A75C6A50002244A75C78375E3
:10239000C5039000C0EEF0A3EFF09000C0E0F5C3DD
:1023A000A3E0F5C475C65A75C6A50002244AAD0758
:1023B000AC06D3ED9400EC9400400A122456ED1DB7
:1023C00070F01C80ED22538E7F5389F04389017594
:1023D0008A66758CFCC28DD28CD2A92212223BE473
:1023E00090011FF0900145F0A3F0A3F0021C107FB4
:1023F00014122200EF540370077D037F1412243D52
:102400002212230EE4900033F0900067F0900066F3
:10241000F0227B017A007934900033E0FD7C0002E9
:102420001D2A1221FAAE07AF04EBF45EFD022273FF
:10243000900033E0C394064003120026221221FAD2
:10244000AE07AF04EB4EFD022273E4F5C7F5C5F508
:10245000C6F5C3F5C422007F0B7EBEDEFEDFFC2284
:102460008F993099FDC299229001517401F022C2D6
:10247000B3C2CCC2CD22D2B3D2CCD2CD2275C10749
:1024800043C120227D037F1402242212238C224385
:10249000C1102200C1814001C0804101C0804100C3
:1024A000C1814001C0804100C1814000C181400123
:1024B000C0804101C0804100C1814000C181400114
:1024C000C0804100C1814001C0804101C080410005
:1024D000C1814001C0804100C1814000C1814001F3
:1024E000C0804100C1814001C0804101C0804100E5
:1024F000C1814000C1814001C0804101C0804100D4
:10250000C1814001C0804100C1814000C1814001C2
:10251000C0804101C0804100C1814000C1814001B3
:10252000C0804100C1814001C0804101C0804100A4
:10253000C1814000C1814001C0804101C080410093
:10254000C1814001C0804100C1814000C181400182
:10255000C0804100C1814001C0804101C080410074
:10256000C1814001C0804100C1814000C181400162
:10257000C0804101C0804100C1814000C181400153
:10258000C0804100C1814001C0804101C080410044
:10259000C1814000C0C101C30302C2C60607C7050E
:1025A000C5C404CC0C0DCD0FCFCE0E0ACACB0BC9BF
:1025B0000908C8D81819D91BDBDA1A1EDEDF1FDD9F
:1025C0001D1CDC14D4D515D71716D6D21213D3116F
:1025D000D1D010F03031F133F3F23236F6F737F56F
:1025E0003534F43CFCFD3DFF3F3EFEFA3A3BFB39FF
:1025F000F9F83828E8E929EB2B2AEAEE2E2FEF2DFF
:10260000EDEC2CE42425E527E7E62622E2E323E1AE
:102610002120E0A06061A163A3A26266A6A767A5CE
:102620006564A46CACAD6DAF6F6EAEAA6A6BAB693E
:10263000A9A86878B8B979BB7B7ABABE7E7FBF7D1E
:10264000BDBC7CB47475B577B7B67672B2B373B1EE
:102650007170B0509091519353529296565797552E
:102660009594549C5C5D9D5F9F9E5E5A9A9B5B997E
:10267000595898884849894B8B8A4A4E8E8F4F8D7E
:102680004D4C8C448485458747468682424383412E
:1026900081804012345678EDCBA9871234567801E8
:1026A000FE01FEFFFFFFFFFFFF0707070707070801
:1026B0000808080808FFFFFFFFFFFF08778F69FF82
:1026C000FFFFFFFFFF07070707070708778F690866
:1026D0000808080808000000100020060008000A8A
:0526E000000C000E00DB
:00000001FF
