:03000000022230A9
:0C223000787FE4F6D8FD7581200222774B
:100D510000C1814001C0804101C0804100C181408A
:100D610001C0804100C1814000C1814001C080417A
:100D710001C0804100C1814000C1814001C080416A
:100D810000C1814001C0804101C0804100C181405A
:100D910001C0804100C1814000C1814001C080414A
:100DA10000C1814001C0804101C0804100C181403A
:100DB10000C1814001C0804101C0804100C181402A
:100DC10001C0804100C1814000C1814001C080411A
:100DD10001C0804100C1814000C1814001C080410A
:100DE10000C1814001C0804101C0804100C18140FA
:100DF10000C1814001C0804101C0804100C18140EA
:100E010001C0804100C1814000C1814001C08041D9
:100E110000C1814001C0804101C0804100C18140C9
:100E210001C0804100C1814000C1814001C08041B9
:100E310001C0804100C1814000C1814001C08041A9
:100E410000C1814001C0804101C0804100C1814099
:100E510000C0C101C30302C2C60607C705C5C40459
:100E6100CC0C0DCD0FCFCE0E0ACACB0BC90908C8C9
:100E7100D81819D91BDBDA1A1EDEDF1FDD1D1CDCB9
:100E810014D4D515D71716D6D21213D311D1D01029
:100E9100F03031F133F3F23236F6F737F53534F419
:100EA1003CFCFD3DFF3F3EFEFA3A3BFB39F9F83889
:100EB10028E8E929EB2B2AEAEE2E2FEF2DEDEC2C79
:100EC100E42425E527E7E62622E2E323E12120E0E9
:100ED100A06061A163A3A26266A6A767A56564A4D9
:100EE1006CACAD6DAF6F6EAEAA6A6BAB69A9A86849
:100EF10078B8B979BB7B7ABABE7E7FBF7DBDBC7C39
:100F0100B47475B577B7B67672B2B373B17170B0A8
:100F11005090915193535292965657975595945498
:100F21009C5C5D9D5F9F9E5E5A9A9B5B9959589808
:100F3100884849894B8B8A4A4E8E8F4F8D4D4C8CF8
:100F41004484854587474686824243834181804068
:1026A900900271EBF0A3EAF0A3E9F0A3ECF0A3ED3B
:0126B900F030
:1026BA007FFF7DFF90027474FFF5F01214C345F09A
:1026CA006025900271E0FBA3E475F0011214C3A91E
:1026DA00F0FA1213CC6DFB7A00900D51936FFDEB5B
:0B26EA00900E5193FF80CDEFFEEDFF3E
:0126F50022C2
:102B0500000000100020060008000A000C000E005E
:10294A00E4F5C275C78375C501AF01900284EAF048
:10295A00A3EFF0900284E0F5C3A3E0F5C475C65A6C
:09296A0075C6A500122B4EAFC288
:012973002241
:10299E0075C78375C502AF01900286EAF0A3EFF00A
:1029AE00900286E0F5C3A3E0F5C4AF058FC275C6ED
:0829BE005A75C6A500022B4E5C
:1029EA0075C78375C503900288EEF0A3EFF09002D5
:1029FA0088E0F5C3A3E0F5C475C65A75C6A50002FA
:022A0A002B4E51
:0C2B4E00E4F5C7F5C5F5C6F5C3F5C422D3
:0B24C20090025BEBF0A3EAF0A3E9F04E
:1024CD00E4900262F0900261E0FFA3E0C39F5038F8
:1024DD0090025EE0FBA3E0FAA3E0F912294A900214
:1024ED005BE0FBA3E0FAA3E0F9900262E0F58275F0
:1024FD008300EF12142490025FE475F0011214AD05
:08250D00900262E004F080BDC1
:0125150022A3
:0B25BC00900263EBF0A3EAF0A3E9F04B
:1025C700E490026AF0900269E0FFA3E0FEC39F5027
:1025D70034900263E0FBA3E0FAA3E0F98E827583EF
:1025E700001213E5FD900266E0FBA3E0FAA3E0F911
:1025F70012299E900267E475F0011214AD90026AE9
:05260700E004F080C0BA
:01260C0022AB
:04003E001229EA2277
:10163600900240EFF0C3940540037FFF22902B05F4
:10164600E493FE740193AA06F990025EE4F0A3EA1D
:10165600F0A3E9F0A37405F07B017A027941122424
:10166600C2902B07E493FE740193AA06F990025EDA
:10167600E4F0A3EAF0A3E9F0A37405F07B017A0293
:1016860079461224C2902B09E493FE740193AA06AC
:10169600F990025EE4F0A3EAF0A3E9F0A37405F082
:1016A6007B017A02794B1224C2900240E0FF244665
:1016B600F582E43402F583E0FE74412FF582E434CA
:1016C60002F583E0FFB5061C900240E0244BF5824C
:1016D600E43402F583EFF0900240E02441F582E421
:1016E60034028052900240E0FF244BF582E434023B
:1016F600F583E0FD74412FF582E43402F583E0FFC3
:10170600900240B50519E02446F582E43402F583DB
:10171600EFF0900240E02441F582E434028017E0C5
:101726002441F582E43402F583EEF0900240E02491
:0A17360046F582E43402F583E0FF7B
:011740002286
:10211500900188E075F00AA4FF900187E075F064EE
:10212500A42FFF900189E02F90026CF09000D4E07D
:1021350090026DF0900186E090026EF09000D3E081
:1021450090026FF0900155E0900270F0902B05E43D
:1021550093FE740193FF12003EE490026BF090022F
:102165006BE0FFC394035035EF25E02405F582E4C9
:10217500342BF583E493FE740193AA06F990026665
:10218500E4F0A3EAF0A3E9F0A37405F07B017A0279
:0D219500796C1225BC90026BE004F080C153
:0121A200221A
:101D1800E4FF121636900276EFF07F011216369025
:101D28000277EFF07F02121636900278EFF07F0309
:101D3800121636900279EFF07F0412163690027A66
:101D4800EFF0900276E0D39400748094814003749D
:101D580001F0900277E0D394034002E4F090027817
:101D6800E0D3940540037405F0900279E0D3940120
:101D78004002E4F090027AE0D394014002E4F0904B
:101D88000276E0FF75F06484900187F0EF75F064E7
:101D980084E5F075F00A84A3F0900276E075F00A05
:101DA80084900189E5F0F0900277E09000D4F090FB
:101DB8000278E0900186F0900279E09000D3F090EC
:071DC800027AE0900155F0E2
:011DCF0022F1
:0C183C0041027F004102800041027E005A
:102A8200E4900290F0122B5A900290E004F0E0C31E
:042A9200940540F176
:012A9600221D
:1028BD00E490027FF0A3E0B4010FA2A04003D38007
:1028CD0001C34005E4900280F0900280E070112079
:1028DD00A00E122A8220A00890027F7401F0A3F0AE
:0128ED0022C8
:072B6E0090027E7401F022C9
:10260D00E490027BF0A3F0A3F09001B8E06006E443
:10261D0090027FF022900191E0B401279001B1E08A
:10262D00900187F09001B2E0900188F09001B3E045
:10263D00900189F01221159001917402F090019092
:0D264D0004F02290027FE0147003122B6E47
:01265A00225D
:101848004100D400410186054100D3004101550003
:10185800608000D5C0F9A4B0999282F880908883FE
:10186800C6A1868EFF8BFFF1FFC7FFABA38CFFFFDE
:101878009287C1E3FF89FFFFBFDFFEFDFBF7EF8F14
:10188800BFBF7FFFC0F9A4B0999282F880904079D9
:1018980024301912FF8883C6A1868EC289F9E1BF58
:1018A800C78FABA38C98AF9287C1E39CFF91A4002C
:1018B800FF027800108883A7A1868EC289FBE1BF4A
:1018C800C78FABA38C98AF9287C1E39CFF91A4BF4D
:0418D800BFBFBFBF10
:0E2B2500D2A7C2A5C2A6C2A7E4900185F022E5
:1029C600900185E0FF7007C296D2B4D29422EFB48C
:1029D6000107D296C2B4D29422EFB40206D296D29E
:0329E600B4C294E4
:0129E90022CB
:102A0C00C2A6E4FEEF30E704D2C48002C2C4C2A561
:102A1C0000D2A5EF25E0FF0EEEB408E8D2A60229FD
:012A2C00C6E3
:102467009001BBE06054E49001BBF0900185E0FF70
:1024770025E0240FF8E66401702BEF25E0240EF821
:10248700E6C394804008E025E0240EF8767F9001AB
:1024970085E025E0240EF8E624D5F582E43400F53E
:1024A70083E0FD80027DFFAF05122A0C900185E0D5
:0A24B70004F0E0C394034002E4F0D7
:0124C10022F8
:101AD90090018CE0FEA3E0FFFDAC06900194E014B8
:101AE900B407004003021B94901AFF75F003A4C5C4
:101AF9008325F0C58373021B14021B1D021B2B02D5
:101B09001B39021B4A021B62021B7AEEC313FCEF4C
:101B190013FD807790018CE0FEA3E0FF7C007D033C
:101B2900801A90018CE0FEA3E0FF7C007D06800C0A
:101B390090018CE0FEA3E0FF7C007D0B121458801D
:101B49004690018CE0FEA3E0FF7C007D031214584F
:101B5900EF25E0FDEE33FC803290018CE0FEA3E03E
:101B6900FF7C007D061214587C007D051214468006
:101B79001690018CE0FEA3E0FF7C007D0B12145847
:0F1B89007C007D0A121446AC06AD07AE04AF0512
:011B9800222A
:101B990090018CE0FEA3E0FFFDAC06900194E014F7
:101BA900B407004003021C54901BBF75F003A4C581
:101BB9008325F0C58373021BD4021C0A021C22026E
:101BC9001C3A021BDD021BEB021BF9EEC313FCEFEF
:101BD90013FD807790018CE0FEA3E0FF7C007D037C
:101BE900801A90018CE0FEA3E0FF7C007D06800C4A
:101BF90090018CE0FEA3E0FF7C007D0B121458805D
:101C09004690018CE0FEA3E0FF7C007D031214588E
:101C1900EF25E0FDEE33FC803290018CE0FEA3E07D
:101C2900FF7C007D061214587C007D051214468045
:101C39001690018CE0FEA3E0FF7C007D0B12145886
:0F1C49007C007D0A121446AC06AD07AE04AF0551
:011C58002269
:1010F40090015775F007EF1214F8EE75F007A42568
:1011040083F583E0FCA3E0FD90028AECF0A3EDF00C
:1011140090015975F007EF1214F8EE75F007A42545
:1011240083F583E014B40700400302125790113F83
:1011340075F003A4C58325F0C5837302115402110D
:10114400610211870211AD0211D30211FD021229AD
:10115400ECC313FFED1390028ACF02125390015790
:1011640075F007EF1214F8EE75F007A42583F583E4
:10117400E0FEA3E0FF7C007D0312145890028AEE87
:1011840002125390015775F007EF1214F8EE75F040
:1011940007A42583F583E0FEA3E0FF7C007D06120F
:1011A400145890028AEE02125390015775F007EF1B
:1011B4001214F8EE75F007A42583F583E0FEA3E08E
:1011C400FF7C007D0B12145890028AEE0212539099
:1011D400015775F007EF1214F8EE75F007A4258394
:1011E400F583E0FEA3E0FF7C007D03121458EF2595
:1011F400E0FFEE3390028A805690015775F007EFB6
:101204001214F8EE75F007A42583F583E0FEA3E03D
:10121400FF7C007D061214587C007D051214469054
:10122400028AEE802A90015775F007EF1214F8EE47
:1012340075F007A42583F583E0FEA3E0FF7C007D21
:101244000B1214587C007D0A12144690028AEEF0A8
:0B125400A3EFF090028AE0FEA3E0FF91
:01125F00226C
:1012600090015775F007EF1214F8EE75F007A425FA
:1012700083F583E0FCA3E0FD90028CECF0A3EDF09D
:1012800090015975F007EF1214F8EE75F007A425D8
:1012900083F583E014B4070040030213C39012AB3C
:1012A00075F003A4C58325F0C583730212C0021331
:1012B0003F0213690213950212CD0212F3021319B1
:1012C000ECC313FFED1390028CCF0213BF900157B4
:1012D00075F007EF1214F8EE75F007A42583F58377
:1012E000E0FEA3E0FF7C007D0312145890028CEE18
:1012F0000213BF90015775F007EF1214F8EE75F066
:1013000007A42583F583E0FEA3E0FF7C007D0612A1
:10131000145890028CEE0213BF90015775F007EF3E
:101320001214F8EE75F007A42583F583E0FEA3E020
:10133000FF7C007D0B12145890028CEE0213BF90BC
:10134000015775F007EF1214F8EE75F007A4258326
:10135000F583E0FEA3E0FF7C007D03121458EF2527
:10136000E0FFEE3390028C805690015775F007EF46
:101370001214F8EE75F007A42583F583E0FEA3E0D0
:10138000FF7C007D061214587C007D0512144690E7
:10139000028CEE802A90015775F007EF1214F8EED8
:1013A00075F007A42583F583E0FEA3E0FF7C007DB4
:1013B0000B1214587C007D0A12144690028CEEF039
:0B13C000A3EFF090028CE0FEA3E0FF22
:0113CB0022FF
:102348009000D1E0B401047F028053900190E0FF37
:10235800604A900194E070028044900195E0701DFD
:102368009001B9E07002A3E07037900190E0FF128D
:1023780023AA9001957401F0121AD980169001B918
:10238800E07002A3E0701AFF1223AAE4900195F00E
:10239800121B999001B9EEF0A3EFF022E4FF12238B
:0223A800AA2267
:100B3900900156E06401704C900159E07006D28230
:100B4900D2A2804490015AE07019A3E07002A3E098
:100B59007036D282D2A290015A04F0E4FFFE12103C
:100B6900F4801790015BE07002A3E0701BC282C29F
:100B7900A290015AF0FFFE12126090015BEEF0A301
:100B8900EFF08004C282C2A290015DE06401704D61
:100B9900900160E07006D280D2B68045900161E094
:100BA9007019A3E07002A3E07037D280D2B6900129
:100BB9006104F0FF7E001210F48018900162E07069
:100BC90002A3E0701CC280C2B6900161F07F01FEF1
:100BD900121260900162EEF0A3EFF08004C280C2AD
:100BE900B6900164E06401704E900167E07006D22E
:100BF90081D2A38046900168E0701AA3E07002A335
:100C0900E07038D281D2A390016804F07F027E009F
:100C19001210F48018900169E07002A3E0701CC200
:100C290081C2A3900168F07F02FE121260900169EF
:100C3900EEF0A3EFF08004C281C2A390016BE064DF
:100C490001704E90016EE07006D283D2B780469053
:100C5900016FE0701AA3E07002A3E07038D283D26A
:100C6900B790016F04F07F037E001210F480189092
:100C79000170E07002A3E0701CC283C2B790016FDB
:100C8900F07F03FE121260900170EEF0A3EFF08086
:100C990004C283C2B7900172E06401704E9001757D
:100CA900E07006D290D2A18046900176E0701AA336
:100CB900E07002A3E07038D290D2A190017604F0DE
:100CC9007F047E001210F48018900177E07002A36F
:100CD900E0701CC290C2A1900176F07F04FE12124E
:100CE90060900177EEF0A3EFF08004C290C2A1906A
:100CF9000179E06401704C90017CE07005D291D2D9
:100D0900972290017DE0701AA3E07002A3E070378A
:100D1900D291D29790017D04F07F057E001210F4E4
:100D2900801890017EE07002A3E0701BC291C29707
:100D390090017DF07F05FE12126090017EEEF0A316
:080D4900EFF022C291C29722D3
:1023AA00EF14B4070050519023BF75F003A4C583FE
:1023BA0025F0C583730223D40223DB0223E202231E
:1023CA00E90223F00223F70223FBD285D286C284D4
:1023DA0022D284D286C28522D284D285C28622D2D1
:1023EA0086C284C28522D285C284C28622D28480D1
:0F23FA0002C284C285C28622D284D285D28622B4
:102A2D00E490019BF0FFEF25E0240EF8E4F6EF258E
:102A3D00E0240FF8E4F60FEFB403EBE4900190F00F
:012A4D002266
:1006D600E4FFFEFDFCEF25E0240FF8E4F60FBF0073
:1006E600010EEF64034E70ED9000D1E064016003EB
:1006F600020800FC7D0290009DE024FFFFE434FF29
:10070600FEC3EE648094805003020911EC64809469
:10071600805003020911749E2FF58274003EF58302
:10072600E0C39430401F749E2FF58274003EF5831B
:10073600E0D39439500F749E2FF58274003EF583F2
:10074600E024D0805C749E2FF58274003EF583E031
:10075600C39441401F749E2FF58274003EF583E0DA
:10076600D3945A500F749E2FF58274003EF583E0A1
:1007760024C9802D749E2FF58274003EF583E0C354
:100786009461402B749E2FF58274003EF583E0D36E
:10079600947A501B749E2FF58274003EF583E024F4
:1007A600A9FBAA05EA25E0240EF8A603EA80197437
:1007B6009E2FF58274003EF583E0B42D12AB05EB57
:1007C60025E0240EF8767FEB25E0240FF8760174F9
:1007D6009E2FF58274003EF583E0640D6014749ECE
:1007E6002FF58274003EF583E0640A6005ED1D7006
:1007F600011CEF1F70011E02070790019BE0D394B6
:100806000050030209117C007D02E024FFFFE4345E
:10081600FFFEC3EE648094805003020911EC6480ED
:1008260094805003020911749C2FF58274013EF5E1
:1008360083E0C39430401F749C2FF58274013EF50B
:1008460083E0D39439500F749C2FF58274013EF5E2
:1008560083E024D0805C749C2FF58274013EF5837E
:10086600E0C39441401F749C2FF58274013EF583CA
:10087600E0D3945A500F749C2FF58274013EF58391
:10088600E024C9802D749C2FF58274013EF583E027
:10089600C39461402B749C2FF58274013EF583E06E
:1008A600D3947A501B749C2FF58274013EF583E035
:1008B60024A9FBAA05EA25E0240EF8A603EA801976
:1008C600749C2FF58274013EF583E0B42D12AB05BE
:1008D600EB25E0240EF8767FEB25E0240FF8760171
:1008E600749E2FF58274003EF583E0640D601474E7
:1008F6009E2FF58274003EF583E0640A6005ED1DC7
:0B09060070011CEF1F70011E0208189A
:0109110022C3
:102A4E009001B1E0780EF6A3E07810F6A3E07812CC
:0E2A5E00F6780F760178117601781376012252
:032B7C00C2CD22A5
:032B7F00D2CD2292
:10281100122B7C7F1E7E00120026122B7F7F237ECF
:1028210000120026122B7C7F1E7E00120026122B26
:102831007F7F197E00120026122B7C7F1E7E0012E4
:0C2841000026122B7F7F197E000200266B
:102A6C0012345678EDCBA9871234567801FE01FE4C
:062A7C00FFFFFFFFFFFF5A
:1018DC00410198004101B000420192000041019980
:1018EC00004101900142018C03E841019401410146
:1018FC00950041018E014101910041019700410188
:10190C0096004201D600004201BE00004201C00018
:10191C000041018F004201BC00004201B4000042B2
:08192C0001B600004101B80002
:101FE20012291E12265B122B75122AD17B017A014D
:101FF20079C27F521221A39001D8EFF06011122909
:102002001E12265B122B75122AD1122B7C80DD7BCD
:10201200017A0179C2121A179001D8EFF070CD7BC4
:10202200017A0179C2121E889001D8EFF070BD903A
:1020320001EA7401F0A37401F0A374C2F07BFF7A89
:102042002A797C7D017F60121F3C9001D8EFF070ED
:102052009B7BFF7A2A796C7F011217419001D8EF9E
:10206200F070899001DF74FFF0A3742AF0A3747CEE
:0C207200F07B107D037F6012207E80E771
:10291E007580FF7590FF75B0FF75A0FF75892175E5
:10292E009850758DFD758BFDE4F58CF58AD28CD2A1
:0C293E00A9D28ED299D2AFD2ACD298228E
:10193500E4FF900188E075F00AA4FE900187E07548
:10194500F064A42EFE900189E02EFE900000F0A325
:101955007403F0900039E024FB60252402706F9039
:1019650000027401F090027EE060089000037401AB
:10197500F08005E4900003F09000327404F0804E8E
:101985009000D1E06401703B90009DE0900002F072
:10199500E4FF90009DE0FEEFC39E501B749E2FF563
:1019A50082E43400F583E0FE74032FF582E434000D
:1019B500F583EEF00F80DB90009DE024039000326C
:1019C500F0800BE4900002F09000327403F07B018C
:1019D5007A007900900032E0FD7C001226A9900083
:1019E50032E02400F582E43400F583EFF0EEFF9059
:1019F5000032E02401F582E43400F583EFF0900035
:101A050032E02402F07B017A007900E0FD7C0002DF
:021A1500297432
:1026F600900188E075F00AA4FF900187E075F06408
:10270600A42FFF900189E02FFF900000F0A374032F
:10271600F0E4A3F07B017A0079007D03FC1226A980
:10272600900003EFF0EEA3F09000327405F07B0109
:0B2736007A007900E0FD7C00022974AD
:102B15007B017A007934900033E0FD7C0002297452
:10251600900188E075F00AA4FF900187E075F064E9
:10252600A42FFF900189E02FFF900000F0A3741004
:10253600F0E4A3F0A3F0A3F0A37405F07B017A0006
:1025460079007D067C001226A9900006EFF0EEA326
:10255600F09000327408F07B017A007900E0FD7C8F
:0425660000022974D2
:102AAB00122789E4900191F0900187F0A3F0A3F035
:032ABB00022115E0
:10004600900188E075F00AA4FF900187E075F064DE
:10005600A42FFF900189E02F900250F0E490025502
:10006600F0A3F0A3F0A3F0A3F0A3F0900034E060B7
:10007600030203BBA3E0640660030203BB900033E4
:10008600E0640860030203BBC2C1C2C67B017A00FA
:100096007934E024FEFDE434FFFC1226A9900253D5
:1000A600EEF0A3EFF0E4900253F0A3F0900033E0FB
:1000B6002432F582E43400F583E0FF900251E4F047
:1000C600A3EFF0900033E02433F582E43400F583A7
:1000D600E0FE900252E02400F0900251E03EF0E093
:1000E600FEA3E0FFA3E06E7003A3E06F60030206C9
:1000F600A3900037E07006122AAB0206A3900037E1
:10010600E06401704D900191E0640270030206A361
:100116007401F0900039E075F064849001B1F090BC
:100126000039E075F06484E5F075F00A849001B258
:10013600F0900039E075F00A849001B3E5F0F0E440
:10014600900194F09001907402F09001B014F002C6
:1001560006A3900037E0641060030202CFA3E0FE1E
:10016600A3E07C002400FFEC3E900259F0A3EFF0E0
:10017600900259E0FEA3E0FF4E700F900187E078F1
:100186000EF6A3E07810F6A38058BE2710BF110D17
:10019600780E760F781076019000D480459002593B
:1001A600E0FEA3E0FFBE2710BF120D780E760F7893
:1001B600107602900186802ABE2710BF130D780E96
:1001C600760F781076039000D38017900259E0B42A
:1001D6002716A3E0B41411780E760F7810760490E3
:1001E6000155E07812F68052900259E0FAA3E0FB3E
:1001F6007C037DE8FFAE021214587E007F64CFCDEB
:10020600CFCECCCE121458780EA6077C007D64AFF4
:1002160003AE021214587E007F0ACFCDCFCECCCECD
:100226001214587810A607900259E0FEA3E0FF7C4E
:10023600007D0A1214587812A605780F76017811F7
:100246007601781376017F051223AA7FE87E0312D2
:100256000026E4900194F0900255F0900255E0FFDC
:10026600C3940640030206A3EF75F007A42456F5CF
:1002760082E43401F5837401F0EF75F007A4245786
:10028600F582E43401F5837403F0A374E8F0EF75A6
:10029600F007A42459F582E43401F5837403F0EFE2
:1002A60075F007A4245AF582E43401F583E4F0EFEF
:1002B60075F007A4245BF582E43401F583E4F0A32A
:1002C600F0900255E004F08092900037E0B4110BF4
:1002D600122789E4900191F00206A3900037E064AA
:1002E600207037780E760F78107601900039E07816
:1002F60012F6780F76017811760178137601E09080
:100306000190F0E4900194F0900190E09000D4F018
:10031600D394034036E4F00203B5900037E064213D
:10032600702B780E760F78107602900039E07812EE
:10033600F6780F76017811760178137601E0900150
:1003460086F0E0D3940540037405F0806290003790
:10035600E06422702A780E760F78107603900039C2
:10036600E07812F6780F7601781176017813760127
:10037600E09000D3F0E0D394014002E4F0803090A6
:100386000037E06423702B780E760F781076049091
:100396000039E07812F6780F760178117601781335
:1003A6007601E0900155F0E0D394014002E4F012AA
:1003B60021150206A3900250E0FF900034E06F6022
:1003C600030206A7C2C1C2C67B017A007934900037
:1003D60033E024FEFDE434FFFC1226A9900253EE1E
:1003E600F0A3EFF0900033E02432F582E43400F518
:1003F60083E0FF900251E4F0A3EFF0900033E02495
:1004060033F582E43400F583E0FE900252E02400E6
:10041600F0900251E03EF0E0FEA3E0FFA3E06E7034
:1004260003A3E06F60030206A3900035E024FA60A0
:100436004424F670030205E2240D60030206A3902D
:100446000038E0700BA3E0B401061226F60206A3FC
:10045600900038E07007A3E0B403028012900038E1
:10046600E060030206A3A3E0640560030206A3128C
:1004760019350206A3900033E0640860030206A360
:10048600122B15900037E0700512278980349000F2
:1004960037E064016004E0B40205122A2D8023903F
:1004A6000037E0B40510E49000D1F090009DF09084
:1004B60001B004F0800C900037E0B41005E490021F
:1004C6007EF0900037E0B42020900039E07007906D
:1004D60001B8F00206A3900039E064016003020649
:1004E600A39001B804F00206A3900037E0C394116C
:1004F60050030206A3E0D3941640030206A3E024A9
:10050600EF900255F0900039E0C41354079002565C
:10051600F0E060047F0180027F00900255E0FE75E6
:10052600F007A42456F582E43401F583EFF0900039
:1005360039E0131313540314602014603314604716
:1005460024037058EE75F007A42457F582E43401AD
:10055600F583E4F0A37450F08042EE75F007A4240E
:1005660057F582E43401F583E4F0A374A0F0802CFF
:10057600EE75F007A42457F582E43401F58374017F
:10058600F0A37440F08015EE75F007A42457F582A9
:10059600E43401F5837402F0A37480F0900039E02E
:1005A6005407FF900255E0FE75F007A42459F58222
:1005B600E43401F583EFF0EE75F007A4245AF582D2
:1005C600E43401F583E4F0EE75F007A4245BF582CC
:1005D600E43401F583E4F0A3F00206A3900033E0CF
:1005E60024F5FF90003CE06F60030206A3E0D3947D
:1005F6001440030206A312251690003AE0C41354D1
:1006060007900190F090003AE0131313540314601E
:100616001514601D1460262403702290018CE4F0EA
:10062600A37450F0802190018CE4F0A374A0F080B4
:100636001690018C7401F0A37440F0800A90018C2E
:100646007402F0A37480F090003AE054079001948D
:10065600F0E4900195F09001B9F0A3F090003CE031
:1006660090019BF0E4900257F090019BE0FF90020E
:1006760057E0FEC39F5020743D2EF582E43400F50A
:1006860083E0FF749C2EF582E43401F583EFF0904D
:100696000257E004F080D29001B07401F0D2C1D2CA
:1006A600C6E4900258F0900258E0FFC3943250140A
:1006B60074342FF582E43400F583E4F0900258E0B8
:0F06C60004F080E2E4900033F0900067F07F01D1
:0106D5002202
:102A9700E490028EF0A3F0900033E0C39406400365
:032AA700120046D4
:012AAA002209
:1000030053877F759850438E40538EFE53890F4319
:0F0013008920758BDC758DDCC2ABD28ED2AF220B
:102AE300120003E4900033F0900067F0900066F06A
:012AF30022C0
:0300230002274170
:10274100C0E0C083C082C0D075D000C00730982DD2
:10275100C298900033E0C394325022900067E06445
:1027610001601A900033E0FF04F074342FF582E425
:102771003400F583E599F09000667402F0D007D03B
:08278100D0D082D083D0E032F9
:10297400C2C6D2A4D3ED9400EC940040181213CC38
:10298400F5993099FDC299740129F9E43AFAED1DDB
:0A29940070E21C80DFC2A4D2C6224C
:1028EE00759A5A900180E014601C14600C146011EB
:1028FE0024037012759CB88010759CEE43878080FF
:10290E0008759CF78003759CDC758E1475AF0122DB
:102AF4001228EEE490009DF09000D1F09000D0F008
:012B040022AE
:030043000224098B
:10240900C0E0C083C082C0D075D000C0079000D1A1
:10241900E0B4010AE4F090009DF0900069F0E59ABB
:1024290030E026539AFE90009DE0C39432502490E8
:10243900009DE0FF04F0749E2FF582E43400F583DB
:10244900E59BF09000D07402F0E59A30E105539ACB
:0E245900FDC200D007D0D0D082D083D0E032B8
:102ABE00E58954F04401F589758CFC758A17D2A905
:032ACE00D28C2285
:092B5A00007F0B7EBEDEFEDFFCF5
:012B6300224F
:10002600AD07AC06D3ED9400EC9400400A122B5AAF
:08003600ED1D70F01C80ED22AD
:0A2B640025262728292A24563C3292
:10288800E4F591759280F59575960EF5B175B2C01F
:1028980075BB70C282C280C281C283C290C291C21B
:1028A800A2C2B6C2A3C2B7C2A1C2979001BBF053DD
:0528B8008EDFF5972200
:100F5100E4900291F0900291E0FFC39403501FE0EE
:100F6100FE902B6B93FDEE25E0240EF8A605EF25F0
:100F7100E0240FF87601900291E004F080D77F2001
:100F81007E03120026E4900291F0E4FF900291E0CA
:100F9100902B6493FEEF25E0240EF8A6060FEFB424
:100FA10003EA7F2C7E01120026900291E004F0E01A
:100FB100C3940740D5E4900291F0900291E0FFC301
:100FC10094035015EF25E0240EF87608EF25E02470
:100FD1000FF87601E004F080E1E490019BF09000CD
:100FE100D1F090009DF0C2C1C2C6900187E0780E99
:100FF100F6A3E07810F6A3E07812F67F011223AA97
:101001007FF47E011200267F021223AA7FF47E0163
:101011001200267F031223AA7FF47E01120026E428
:10102100900291F0900291E0FFC39403500DEF25DF
:10103100E0240EF87620E004F080E97F041223AA70
:101041007FF47E011200267F051223AA7FF47E0120
:101051001200267F061223AA7FF47E01120026E4E5
:10106100FF1223AAD282D2A2D283D2B7780E760FF0
:10107100781076019000D4E07812F67FE87E0312B2
:101081000026C282C2A2C283C2B7D280D2B6D29097
:10109100D2A1780E760F78107602900186E0781250
:1010A100F67FE87E03120026C280C2B6C290C2A1BA
:1010B100D281D2A3D291D297780E760F781076038F
:1010C1009000D3E07812F67FE87E03120026C281F9
:1010D100C2A3C291C297780E760F78107604900160
:1010E10055E07812F67FE87E03120026D2C1D2C6FF
:0310F1000227894A
:10278900E490019BF0FFEF25E0240EF8E4F6EF2535
:10279900E0240FF8E4F60FEFB403EBE4900190F0B6
:1027A90090027EF09000D1F090009DF0900156F0DB
:1027B90090015DF0900164F090016BF0900172F06E
:0427C900900179F012
:0127CD0022E9
:0B207E009001DCEFF0A3EDF0A3EBF00D
:102089007B017A0179C27F521221A3EF7069900214
:1020990081F090019AE070737B017A0179C2121A7A
:1020A90017EF70677B017A0179C2121E88EF705BA6
:1020B9009001DCE0FFA3E0FD9001EA7401F0A37454
:1020C90001F0A374C2F09001DFE0FBA3E0FAA3E002
:1020D900F9121F3CEF70349001DDE0FF7B017A01BA
:1020E90079C21222BCEF702312281112256A9001BD
:1020F9009A7401F0022811900281E004F0E0D3946F
:0B2109000540087405F0E490019AF016
:0121140022A8
:0E21A3009001E5EFF0A3EBF0A3EAF0A3E9F062
:1021B1007D087F08122B337D077F0D12284D7D038B
:1021C1007F14122B419001E5E09001EBF0900206A3
:1021D1007401F0A3F0A37401F0A374EBF0A37401F4
:1021E100F0A37401F0A374E9F07A0179EB120934D8
:1021F100EF70399001E9E07004A3E06410702D9054
:1022010001EBE0FE9001E6E0FBA3E0FAA3E0F9EECA
:102211001214129001ECE0FE9001E6E0FBA3E0FA5B
:0E222100A3E0F9900001EE12142480027FFE6B
:01222F00228C
:0B1A17009001E5EBF0A3EAF0A3E9F07A
:101A2200E49001E9F07D087F08122B33E4FD7F0D7D
:101A320012284D7D807F0E122B339001EC7493F0AF
:101A4200A37420F09002067402F07B01A314F0A3A9
:101A52007401F0A374ECF0A3EBF0A37401F0A3748F
:101A6200EAF07A0179EC7F0C1209389001E8EFF084
:101A72007058FC74EC2CF582E43401F583E0FE909E
:101A820001E5E0FBA3E0FAA3E0F9AF048F827583DE
:101A920000EE1214249001E9E0FE74EC2FF582E4CA
:101AA2003401F583E0FDEE6D9001E9F00CECB40435
:101AB200C274EC2CF582E43401F583E0FF9001E975
:101AC200E06F60069001E874FEF07D807F0E122BBD
:061AD200419001E8E0FF75
:011AD80022EB
:0B1E88009001E5EBF0A3EAF0A3E9F005
:101E93009001EA7493F0A37470F0E49001F0F0FC05
:101EA3009001E5E0FBA3E0FAA3E0F9AF048F8275AC
:101EB30083001213E5FE74EC2FF582E43401F583FD
:101EC300EEF09001F0E0FE8F827583001213E5FDC2
:101ED300EE6D9001F0F00CECB404C59002007401B7
:101EE300F0A37401F0A374F1F07B017A0179EA7D28
:101EF30007121DE77D087F08122B33900206740931
:101F0300F0A37401F0A37401F0A374EAF0A37401C5
:101F1300F0A37401F0A374E8F07B017A0179EA7FFE
:101F23000C120938EF700F9001E8E07004A3E0642D
:081F3300187003FF80027FFE1D
:011F3B002283
:0B1F3C009001E7EBF0A3EAF0A3E9F04E
:101F47009001F0EFF0A3EDF0E4FF9001E7E0FBA3D1
:101F5700E0FAA3E0F98F827583001213E5FE74F2AD
:101F67002FF582E43401F583EEF00FEFB406DBE4DE
:101F7700FF9001EAE0FBA3E0FAA3E0F98F82758303
:101F8700001213E5FE74F82FF582E43401F583EEB1
:101F9700F00FEFB406DB900206740CF0A37401F0A7
:101FA700A37401F0A374F0F0A37401F0A37401F01B
:101FB700A374EEF07B017A0179F07F0E1209389055
:101FC70001EDEFF070097F081227D4EF20E30690A8
:0A1FD70001ED74FEF09001EDE0FF53
:011FE10022DD
:0B22BC009001E5EBF0A3EAF0A3E9F0CD
:1022C7009001EA7430F0A3EFF09002007401F0A3DC
:1022D7007401F0A374ECF07A0179EA121DE390021D
:1022E700067404F0A37401F0A37401F0A374EAF078
:1022F700A37401F0A37401F0A374E8F07B017A01E1
:1023070079EA7F0C120938EF70349001E8E0700425
:10231700A3E064907028FE74EA2EF582E43401F598
:1023270083E0FD9001E5E0FBA3E0FAA3E0F98E82EC
:10233700758300ED1214240EEEB410DB80027FFECD
:012347002273
:0B1741009001DCEBF0A3EAF0A3E9F05C
:10174C009001E174A0F0A3EFF09002007401F0A3FB
:10175C007401F0A374E3F07B017A0179E17D02124C
:10176C001DE79002067404F0A37401F0A37401F059
:10177C00A374E1F0A37401F0A37401F0A374DFF07F
:10178C007B017A0179E17F0C120938EF7016900118
:10179C00DFE07004A3E06404700A9001E1E0540FF0
:1017AC00640A60027FFEEF600302183BFE9001DCCE
:1017BC00E0FBA3E0FAA3E0F98E827583001213E537
:1017CC00FD74E12EF582E43401F583EDF00EEEB4F8
:1017DC0010DB9002007401F0A37401F0A374F1F01B
:1017EC007B017A0179E17D10121DE79002067412DB
:1017FC00F0A37401F0A37401F0A374E1F0A37401DD
:10180C00F0A37401F0A374DFF07B017A0179E17F1E
:10181C000C120938EF70169001DFE07004A3E0643D
:0F182C0004700A9001E1E0540F640A60027FFE2D
:01183B00228A
:101C5900900214EBF0A3EAF0A3E9F0900213EDF07F
:101C6900900219EFF0A3ED121DD0120912EF7016B0
:101C7900900217E07004A3E06404700A900219E06E
:101C8900540F640A60027FFEEF7052FE900214E066
:101C9900FBA3E0FAA3E0F98E827583001213E5FD38
:101CA90074192EF582E43402F583EDF00EEEB410CA
:101CB900DB9002007401F0A37402F0A3741DF07BA1
:101CC900017A0279197D04121DE7E4900217F0A345
:101CD900F07406120914EF64FE6002E4FFEF702E3F
:101CE90090021974B0F0900213E090021A121DD0FC
:101CF900120912EF7016900217E07004A3E0640451
:0E1D0900700A900219E0540F640A60027FFE17
:011D170022A9
:0515040090022BEDF048
:1015090090022E74C2F0A3EFF09002007401F0A3D0
:101519007402F0A37430F07B017A02792E7D0212F5
:101529001DE79002067404F0A37401F0A37402F09D
:10153900A3742EF0A37401F0A37402F0A3742CF029
:101549007B017A02792E7F0C120938EF701690020E
:101559002CE07004A3E06404700A90022EE0540F9A
:10156900640A60027FFEEF705290022EF0A3F0A38E
:10157900F0A3F07B0190020004F0A37402F0A374BD
:1015890032F07A02792E7D04121DE7900206740664
:10159900F0A37401F0A37402F0A3742EF0A37401F4
:1015A900F0A37402F0A3742CF07B017A02792E7FE8
:1015B9000C120938EF64FE6002E4FFEF60037FFE5E
:1015C9002290022E74B0F090022BE090022FF0903E
:1015D90002007401F0A37402F0A37430F07B017A65
:1015E90002792E7D02121DE79002067404F0A3749D
:1015F90001F0A37402F0A3742EF0A37401F0A37494
:1016090002F0A3742CF07B017A02792E7F0C120967
:1016190038EF701690022CE07004A3E06404700A9D
:0C16290090022EE0540F640A60027FFE65
:011635002292
:10256A009001E87450F0E4A3F07B0190020004F0BB
:10257A00A37401F0A374EAF07A0179E87D02121DCE
:10258A00E79002067404F0A37401F0A37401F0A3A7
:10259A0074E8F0A37401F0A37401F0A374E6F07B6D
:1025AA00017A0179E87F0C1209389001E5EFF07F92
:0125BA000020
:0125BB0022FD
:101DD000F09002007401F0A37402F0A3741BF07A77
:071DE0000279197B017D026D
:0E1DE7009001FCEBF0A3EAF0A3E9F0A3EDF00D
:101DF5007D047F05122B33E4FD7F0112284D7D8084
:101E05007F0A122B41E4900203F09001FFE0FF905E
:101E15000203E0FEC39F50219001FCE0FBA3E0FA22
:101E2500A3E0F98E827583001213E5FD7F09122860
:101E35004D900203E004F080D17D037F0112284D0F
:101E450090020374FFF07F051227D4900203E0147B
:101E5500F0E06004EF30E2EE7F221227D49002001A
:101E6500E0FBA3E0FAA3E0F9EF1214127F21122799
:101E7500D4900200E0FBA3E0FAA3E0F9900001EFA3
:031E850002142420
:10265B00D2A500C2A500D2A57F017E001200267D67
:10266B000F7F0112284D007D3D7F1112284D7D1EDD
:10267B007F2D12284DE4FD7F2C12284D7D8D7F2A56
:10268B0012284D7D3E7F2B12284D7D407F15122841
:0D269B004D7F2D1227D49001DCEFF07F0061
:0126A800220F
:100912007404900206F0A37401F0A37402F0A374AD
:1009220019F0A37401F0A37402F0A37417F07A0211
:0609320079197B017F0C26
:10093800900203EBF0A3EAF0A3E9F0900202EFF0D3
:1009480090020D74FEF0E4A3F0A3F0EF24F460101D
:1009580024FE701690020E7412F0A37410F0800A30
:1009680090020E7477F0A37430F090020EE0448089
:10097800FD7F0212284D7D807F04122B33E4FD7F1A
:100988000112284D7D807F0A122B41E4900211F05C
:10099800A3F0900206E0FF900211E0FCA3E0FDC383
:1009A8009FEC94005028900203E0FBA3E0FAA3E038
:1009B800F98D828C831213E5FD7F0912284D900270
:1009C80012E004F070CC900211E004F080C49002B0
:1009D80002E0FD7F0112284D900202E0B40C077D71
:1009E800807F0D122B419002117402F0A37458F00D
:1009F8007F041227D4900210EFF0900212E024FF37
:100A0800F0900211E034FFF0E07002A3E060119072
:100A18000210E0FF20E00990020FE0FEEF5E60D0D8
:100A28007D807F0D122B33900211E07002A3E070DD
:100A380003020B257F061227D4EF541B6003020B19
:100A48001F90020DF0A3E0FF900210E05F30E00677
:100A580090020D74FFF0900202E0640C6003020B38
:100A6800257F0A1227D4900210EFF07F0C1227D4AA
:100A7800EF5407FD6029900210E024FFFFE434FFE3
:100A8800FEEF7803C333CE33CED8F97C002DFFECCC
:100A98003EF990020AE0FBA3E0FAA3E0C9801690B1
:100AA8000210E075F008A4FF90020AE0FBA3E0FA48
:100AB800A3E0F9E5F08FF01214D9900210E070026B
:100AC80004F0900210E0D3941240037412F0E49002
:100AD8000211F0A3F0900210E0FFC3900212E09F11
:100AE800900211E0940050357F091227D490020734
:100AF800E0FBA3E0FAA3E0F9900211E0FCA3E0F523
:100B0800828C83EF121424900212E004F070C690D5
:100B18000211E004F080BE90020D74FEF07D807F2B
:100B28000C122B41E4FD7F0112284D90020DE0FFCD
:010B3800229A
:102AD1007F141227D4EF540370077D037F14122B48
:012AE10041B3
:012AE20022D1
:072B75007D037F14022B33E6
:10284D00C2A6C2A4EF25E0547EFF7E08EF30E70359
:10285D00D38001C392A7D2A6EF25E0FFC2A6DEEC7E
:10286D007E08ED30E703D38001C392A7D2A6ED25F4
:0A287D00E0FDC2A6DEECD2A4D2A654
:01288700222E
:0627CE00AC07AB05E4FEC0
:1027D400E4FEC2A6C2A4EF25E0547E4480FF7D0837
:1027E400EF30E703D38001C392A7D2A6EF25E0FF21
:1027F400C2A6DDEC7D08D2A6EE25E0FEA280E4337D
:0C2804004EFEC2A6DDF0D2A4D2A6AF06A4
:0128100022A5
:0D2B41001227CEAE07AF04EB4EFD02284D6B
:0E2B33001227CEAE07AF04EBF45EFD02284D74
:10223C00021FE2E493A3F8E493A34003F68001F2B7
:10224C0008DFF48029E493A3F85407240CC8C333A3
:10225C00C4540F4420C8834004F456800146F6DF72
:10226C00E4800B010204081020408090183CE47EAE
:10227C00019360BCA3FF543F30E509541FFEE49367
:10228C00A360010ECF54C025E060A840B8E493A32E
:10229C00FAE493A3F8E493A3C8C582C8CAC583CA59
:1022AC00F0A3C8C582C8CAC583CADFE9DEE780BE11
:0119340000B2
:1013CC00BB010689828A83E0225002E722BBFE021F
:0913DC00E32289828A83E4932252
:1013E500BB010CE58229F582E5833AF583E02250BD
:1013F50006E92582F8E622BBFE06E92582F8E22207
:0D140500E58229F582E5833AF583E4932220
:10141200BB010689828A83F0225002F722BBFE01B9
:02142200F322B3
:10142400F8BB010DE58229F582E5833AF583E8F0FE
:10143400225006E92582C8F622BBFE05E92582C8AA
:02144400F22292
:10144600EF8DF0A4A8F0CF8CF0A428CE8DF0A42EBA
:02145600FE2274
:10145800BC000BBE0029EF8DF084FFADF022E4CC78
:10146800F875F008EF2FFFEE33FEEC33FCEE9DEC41
:10147800984005FCEE9DFE0FD5F0E9E4CEFD22ED87
:10148800F8F5F0EE8420D21CFEADF075F008EF2FD1
:10149800FFED33FD4007985006D5F0F222C398FDC2
:0514A8000FD5F0EA225F
:1014AD00C5F0F8A3E028F0C5F0F8E58215827002CA
:0614BD001583E038F02267
:1014C300A3F8E0C5F025F0F0E582158270021583DC
:0614D300E0C838F0E82239
:1014D900BB010A89828A83F0E5F0A3F0225006F75E
:0F14E90009A7F01922BBFE06F3E5F009F319225B
:0C14F800A42582F582E5F03583F58322FF
:00000001FF
