:0A0000000217EC9001E27401F022F7
:10000B000211B8E49001C3F0121ECE9001C3E004BC
:10001B00F0E0C3940540F122021BDFAD07AC06D321
:10002B00ED9400EC9400400A121ECEED1D70F01CF6
:07003B0080ED22121DC62218
:10004300021939900188E075F00AA4FF900187E056
:1000530075F064A42FFF900189E02F9001C5F0E4AF
:100063009001CAF0A3F0A3F0A3F0A3F0A3F09000D3
:1000730034E060030203BEA3E0640660030203BE30
:10008300900033E0640860030203BEC2C1C2C67BB2
:10009300017A007934E024FEFDE434FFFC12199761
:1000A3009001C8EEF0A3EFF0E49001C8F0A3F09044
:1000B3000033E02432F582E43400F583E0FF90015D
:1000C300C6E4F0A3EFF0900033E02433F582E43488
:1000D30000F583E0FE9001C7E02400F09001C6E044
:1000E3003EF0E0FEA3E0FFA3E06E7003A3E06F60C9
:1000F300030206A4900037E07006121E5C0206A4F9
:10010300900037E06401704D900191E06402700348
:100113000206A47401F0900039E075F06484900144
:10012300B0F0900039E075F06484E5F075F00A846E
:100133009001B1F0900039E075F00A849001B2E5C6
:10014300F0F0E4900194F09001907402F09001AF0C
:1001530014F00206A4900037E0641060030202CF9B
:10016300A3E0FEA3E07C002400FFEC3E9001CEF070
:10017300A3EFF09001CEE0FEA3E0FF4E700F9001DD
:1001830087E0780EF6A3E07810F6A38058BE271018
:10019300BF110D780E760F781076019000D480454C
:1001A3009001CEE0FEA3E0FFBE2710BF120D780E34
:1001B300760F78107602900186802ABE2710BF132F
:1001C3000D780E760F781076039000D38017900188
:1001D300CEE0B42716A3E0B41411780E760F78108E
:1001E3007604900155E07812F680529001CEE0FA41
:1001F300A3E0FB7C037DE8FFAE0212112B7E007FA0
:1002030064CFCDCFCECCCE12112B780EA6077C00B7
:100213007D64AF03AE0212112B7E007F0ACFCDCFD8
:10022300CECCCE12112B7810A6079001CEE0FEA300
:10023300E0FF7C007D0A12112B7812A605780F7659
:100243000178117601781376017F051218DA7FE8B9
:100253007E03120026E4900194F09001CAF090010D
:10026300CAE0FFC3940640030206A4EF75F007A497
:100273002456F582E43401F5837401F0EF75F00739
:10028300A42457F582E43401F5837403F0A374E8DE
:10029300F0EF75F007A42459F582E43401F5837473
:1002A30003F0EF75F007A4245AF582E43401F583D3
:1002B300E4F0EF75F007A4245BF582E43401F583E1
:1002C300E4F0A3F09001CAE004F08092900037E0DC
:1002D300B4110B121C27E4900191F00206A49000C4
:1002E30037E064207037780E760F7810760190002F
:1002F30039E07812F6780F76017811760178137663
:1003030001E0900190F0E4900194F0900190E0906E
:1003130000D4F0D394034036E4F00203B8900037DE
:10032300E06421702B780E760F78107602900039F6
:10033300E07812F6780F760178117601781376015A
:10034300E0900186F0E0D3940540037405F08065E6
:10035300900037E06422702A780E760F78107603C7
:10036300900039E07812F6780F76017811760178EB
:10037300137601E09000D3F0E0D394014002E4F05F
:100383008033900037E0642360030206A4780E767E
:100393000F78107604900039E07812F6780F760122
:1003A3007811760178137601E0900155F0E0D3944B
:1003B300014002E4F01216D00206A49001C5E0FF4A
:1003C300900034E06F60030206A8C2C1C2C67B017D
:1003D3007A007934900033E024FEFDE434FFFC120C
:1003E30019979001C8EEF0A3EFF0900033E02432A8
:1003F300F582E43400F583E0FF9001C6E4F0A3EF57
:10040300F0900033E02433F582E43400F583E0FE1A
:100413009001C7E02400F09001C6E03EF0E0FEA3A7
:10042300E0FFA3E06E7003A3E06F60030206A490F5
:100433000035E024FA604424F670030205E3240D3A
:1004430060030206A4900038E0700BA3E0B4010639
:10045300121B940206A4900038E07007A3E0B403D3
:10046300028012900038E060030206A4A3E0640552
:1004730060030206A41213B60206A4900033E064DC
:100483000860030206A4121EA4900037E070051250
:100493001C278034900037E064016004E0B4020557
:1004A300121E098023900037E0B40510E49000D1B8
:1004B300F090009DF09001AF04F0800C900037E0C5
:1004C300B41005E49001E2F0900037E0B4202090EE
:1004D3000039E070079001B7F00206A4900039E0FC
:1004E300640160030206A49001B704F00206A4901D
:1004F3000037E0C3941150030206A4E0D3941640DE
:10050300030206A4E024EF9001CAF0900039E0C48E
:100513001354079001CBF0E07F0060027F0190014C
:10052300CAE0FE75F007A42456F582E43401F5838E
:10053300EFF0900039E01313135403146020146098
:100543003314604724037058EE75F007A42457F55D
:1005530082E43401F583E4F0A37450F08042EE7535
:10056300F007A42457F582E43401F583E4F0A3747F
:10057300A0F0802CEE75F007A42457F582E4340133
:10058300F5837401F0A37440F08015EE75F007A4B1
:100593002457F582E43401F5837402F0A37480F0E8
:1005A300900039E05407FF9001CAE0FE75F007A4FC
:1005B3002459F582E43401F583EFF0EE75F007A4D6
:1005C300245AF582E43401F583E4F0EE75F007A4D0
:1005D300245BF582E43401F583E4F0A3F00206A47E
:1005E300900033E024F5FF90003CE06F60030206C7
:1005F300A4E0D3941440030206A4121AA190003A73
:10060300E0C4135407900190F090003AE0131313E1
:10061300540314601514601D146026240370229083
:10062300018CE4F0A37450F0802190018CE4F0A3DA
:1006330074A0F0801690018C7401F0A37440F080D4
:100643000A90018C7402F0A37480F090003AE05495
:1006530007900194F0E4900195F09001B8F0A3F0B5
:1006630090003CE090019AF0E49001CCF090019A64
:10067300E0FF9001CCE0FEC39F5020743D2EF58235
:10068300E43400F583E0FF749B2EF582E43401F536
:1006930083EFF09001CCE004F080D29001AF7401BD
:1006A300F0D2C1D2C6E49001CDF09001CDE0FFC3FA
:1006B3009432501474342FF582E43400F583E4F05B
:1006C3009001CDE004F080E2E4900033F090006705
:1006D300F07F0122E4FFFEFDFCEF25E0240FF8E4A8
:1006E300F60FBF00010EEF64034E70ED9000D1E0F2
:1006F30064016003020801FC7D0290009DE024FF79
:10070300FFE434FFFEC3EE648094805003020912B9
:10071300EC648094805003020912749E2FF5827456
:10072300003EF583E0C39430401F749E2FF582741E
:10073300003EF583E0D39439500F749E2FF58274F5
:10074300003EF583E024D0805C749E2FF582740014
:100753003EF583E0C39441401F749E2FF5827400DD
:100763003EF583E0D3945A500F749E2FF5827400A4
:100773003EF583E024C9802D749E2FF58274003EDC
:10078300F583E0C39461402B749E2FF58274003E81
:10079300F583E0D3947A501B749E2FF58274003E48
:1007A300F583E024A9FBAA05EA25E0240EF8A603B5
:1007B300EA8019749E2FF58274003EF583E0B42D10
:1007C30012AB05EB25E0240EF8767FEB25E0240F32
:1007D300F87601749E2FF58274003EF583E0640D74
:1007E3006014749E2FF58274003EF583E0640A6002
:1007F30005ED1D70011CEF1F70011E02070890011B
:100803009AE0D3940050030209127C007D02E02495
:10081300FFFFE434FFFEC3EE6480948050030209BB
:1008230012EC648094805003020912749B2FF582AA
:1008330074013EF583E0C39430401F749B2FF5820F
:1008430074013EF583E0D39439500F749B2FF582E6
:1008530074013EF583E024D0805C749B2FF5827491
:10086300013EF583E0C39441401F749B2FF58274CE
:10087300013EF583E0D3945A500F749B2FF5827495
:10088300013EF583E024C9802D749B2FF58274010A
:100893003EF583E0C39461402B749B2FF582740172
:1008A3003EF583E0D3947A501B749B2FF582740139
:1008B3003EF583E024A9FBAA05EA25E0240EF8A669
:1008C30003EA8019749B2FF58274013EF583E0B42B
:1008D3002D12AB05EB25E0240EF8767FEB25E02403
:1008E3000FF87601749E2FF58274003EF583E06461
:1008F3000D6014749E2FF58274003EF583E0640A44
:100903006005ED1D70011CEF1F70011E0208192206
:10091300900156E06401704C900159E07006D28258
:10092300D2A2804490015AE07019A3E07002A3E0C0
:100933007036D282D2A290015A04F0E4FFFE120C68
:10094300CE801790015BE07002A3E0701BC282C2ED
:10095300A290015AF0FFFE120E3A90015BEEF0A353
:10096300EFF08004C282C2A290015DE06401704D89
:10097300900160E07006D280D2B68045900161E0BC
:100983007019A3E07002A3E07037D280D2B6900151
:100993006104F0FF7E00120CCE8018900162E070BB
:1009A30002A3E0701CC280C2B6900161F07F01FE19
:1009B300120E3A900162EEF0A3EFF08004C280C2FF
:1009C300B6900164E06401704E900167E07006D256
:1009D30081D2A38046900168E0701AA3E07002A35D
:1009E300E07038D281D2A390016804F07F027E00C8
:1009F300120CCE8018900169E07002A3E0701CC253
:100A030081C2A3900168F07F02FE120E3A90016941
:100A1300EEF0A3EFF08004C281C2A390016BE06407
:100A230001704E90016EE07006D283D2B78046907B
:100A3300016FE0701AA3E07002A3E07038D283D292
:100A4300B790016F04F07F037E00120CCE801890E4
:100A53000170E07002A3E0701CC283C2B790016F03
:100A6300F07F03FE120E3A900170EEF0A3EFF080D8
:100A730004C283C2B7900172E06401704E900175A5
:100A8300E07006D290D2A18046900176E0701AA35E
:100A9300E07002A3E07038D290D2A190017604F006
:100AA3007F047E00120CCE8018900177E07002A3C1
:100AB300E0701CC290C2A1900176F07F04FE120E7A
:100AC3003A900177EEF0A3EFF08004C290C2A190B8
:100AD3000179E06401704C90017CE07005D291D201
:100AE300972290017DE0701AA3E07002A3E07037B3
:100AF300D291D29790017D04F07F057E00120CCE37
:100B0300801890017EE07002A3E0701BC291C2972F
:100B130090017DF07F05FE120E3A90017EEEF0A368
:100B2300EFF022C291C29722E49001C3F09001C377
:100B3300E0FFC39403501FE0FE9020EF93FDEE25EA
:100B4300E0240EF8A605EF25E0240FF876019001C6
:100B5300C3E004F080D77F207E03120026E49001D7
:100B6300C3F0E4FF9001C3E09020E893FEEF25E09B
:100B7300240EF8A6060FEFB403EA7F2C7E011200C1
:100B8300269001C3E004F0E0C3940740D5E490014C
:100B9300C3F09001C3E0FFC394035015EF25E02495
:100BA3000EF87608EF25E0240FF87601E004F080D4
:100BB300E1E490019AF09000D1F090009DF0C2C161
:100BC300C2C6900187E0780EF6A3E07810F6A3E0A2
:100BD3007812F67F011218DA7FF47E011200267F65
:100BE300021218DA7FF47E011200267F031218DA4C
:100BF3007FF47E01120026E49001C3F09001C3E06C
:100C0300FFC39403500DEF25E0240EF87620E00493
:100C1300F080E97F041218DA7FF47E011200267F48
:100C2300051218DA7FF47E011200267F061218DA05
:100C33007FF47E01120026E4FF1218DAD282D2A2D8
:100C4300D283D2B7780E760F781076019000D4E075
:100C53007812F67FE87E03120026C282C2A2C28304
:100C6300C2B7D280D2B6D290D2A1780E760F7810C6
:100C73007602900186E07812F67FE87E0312002662
:100C8300C280C2B6C290C2A1D281D2A3D291D2975E
:100C9300780E760F781076039000D3E07812F67F03
:100CA300E87E03120026C281C2A3C291C297780EC6
:100CB300760F78107604900155E07812F67FE87E7F
:100CC30003120026D2C1D2C6021C2790015775F029
:100CD30007EF1211ACEE75F007A42583F583E0FC52
:100CE300A3E0FD9001C3ECF0A3EDF090015975F082
:100CF30007EF1211ACEE75F007A42583F583E0141A
:100D0300B407004003020E31900D1975F003A4C51A
:100D13008325F0C58373020D2E020D3B020D610284
:100D23000D87020DAD020DD7020E03ECC313FFEDC9
:100D3300139001C3CF020E2D90015775F007EF12E8
:100D430011ACEE75F007A42583F583E0FEA3E0FF65
:100D53007C007D0312112B9001C3EE020E2D900136
:100D63005775F007EF1211ACEE75F007A42583F564
:100D730083E0FEA3E0FF7C007D0612112B9001C3EC
:100D8300EE020E2D90015775F007EF1211ACEE75C0
:100D9300F007A42583F583E0FEA3E0FF7C007D0B31
:100DA30012112B9001C3EE020E2D90015775F0071F
:100DB300EF1211ACEE75F007A42583F583E0FEA3D3
:100DC300E0FF7C007D0312112BEF25E0FFEE339053
:100DD30001C3805690015775F007EF1211ACEE7501
:100DE300F007A42583F583E0FEA3E0FF7C007D06E6
:100DF30012112B7C007D051211199001C3EE802A7C
:100E030090015775F007EF1211ACEE75F007A425AA
:100E130083F583E0FEA3E0FF7C007D0B12112B7CA6
:100E2300007D0A1211199001C3EEF0A3EFF09001B7
:100E3300C3E0FEA3E0FF2290015775F007EF121104
:100E4300ACEE75F007A42583F583E0FCA3E0FD90E9
:100E530001C3ECF0A3EDF090015975F007EF121107
:100E6300ACEE75F007A42583F583E014B4070040C6
:100E730003020F9D900E8575F003A4C58325F0C56D
:100E83008373020E9A020F19020F43020F6F020EB1
:100E9300A7020ECD020EF3ECC313FFED139001C3B3
:100EA300CF020F9990015775F007EF1211ACEE7551
:100EB300F007A42583F583E0FEA3E0FF7C007D0318
:100EC30012112B9001C3EE020F9990015775F00791
:100ED300EF1211ACEE75F007A42583F583E0FEA3B2
:100EE300E0FF7C007D0612112B9001C3EE020F99E7
:100EF30090015775F007EF1211ACEE75F007A425BA
:100F030083F583E0FEA3E0FF7C007D0B12112B90A1
:100F130001C3EE020F9990015775F007EF1211AC60
:100F2300EE75F007A42583F583E0FEA3E0FF7C00C4
:100F33007D0312112BEF25E0FFEE339001C38056A2
:100F430090015775F007EF1211ACEE75F007A42569
:100F530083F583E0FEA3E0FF7C007D0612112B7C6A
:100F6300007D051211199001C3EE802A9001577577
:100F7300F007EF1211ACEE75F007A42583F583E0BB
:100F8300FEA3E0FF7C007D0B12112B7C007D0A1277
:100F930011199001C3EEF0A3EFF09001C3E0FEA39B
:100FA300E0FF229001C8EFF0C3940540037FFF22C6
:100FB3009020D8E493FE740193AA06F99001DBE430
:100FC300F0A3EAF0A3E9F0A37405F07B017A0179B9
:100FD300C9121A4D9020DAE493FE740193AA06F91C
:100FE3009001DBE4F0A3EAF0A3E9F0A37405F07B3E
:100FF300017A0179CE121A4D9020DCE493FE74013C
:1010030093AA06F99001DBE4F0A3EAF0A3E9F0A3C5
:101013007405F07B017A0179D3121A4D9001C8E06F
:10102300FF24CEF582E43401F583E0FE74C92FF585
:1010330082E43401F583E0FFB5061C9001C8E02487
:10104300D3F582E43401F583EFF09001C8E024C9BD
:10105300F582E4340180529001C8E0FF24D3F58285
:10106300E43401F583E0FD74C92FF582E43401F51E
:1010730083E0FF9001C8B50519E024CEF582E4347E
:1010830001F583EFF09001C8E024C9F582E434014F
:101093008017E024C9F582E43401F583EEF0900172
:1010A300C8E024CEF582E43401F583E0FF22BB01DE
:1010B3000689828A83E0225002E722BBFE02E322F2
:1010C30089828A83E49322BB010CE58229F582E5B8
:1010D300833AF583E0225006E92582F8E622BBFE37
:1010E30006E92582F8E222E58229F582E5833AF5CD
:1010F30083E49322F8BB010DE58229F582E5833A67
:10110300F583E8F0225006E92582C8F622BBFE05E6
:10111300E92582C8F222EF8DF0A4A8F0CF8CF0A4C9
:1011230028CE8DF0A42EFE22BC000BBE0029EF8D2D
:10113300F084FFADF022E4CCF875F008EF2FFFEE5A
:1011430033FEEC33FCEE9DEC984005FCEE9DFE0F68
:10115300D5F0E9E4CEFD22EDF8F5F0EE8420D21CC3
:10116300FEADF075F008EF2FFFED33FD400798500B
:1011730006D5F0F222C398FD0FD5F0EA22C5F0F8A8
:10118300A3E028F0C5F0F8E582158270021583E02C
:1011930038F022A3F8E0C5F025F0F0E5821582705F
:1011A300021583E0C838F0E822A42582F582E5F031
:1011B3003583F58322C0E0C0F0C083C082C0D07500
:1011C300D000C000C001C002C003C004C005C006F7
:1011D300C007E4758CFC758A179001BA04F090007F
:1011E30033E0600D900066E0FD14F0ED7003A3049E
:1011F300F090009DE060119000D0E0FD14F0ED70E0
:1012030007A304F09001AFF09001B8E07002A3E0EF
:10121300600E9001B9E024FFF09001B8E034FFF0D4
:101223007E007F0090015B75F007EF1211ACEE7545
:10123300F007A42583F583E0FCA3E0D39400EC94AA
:1012430000401A90015B75F007EF1211ACEE75F0D8
:1012530007A42583F58374FFF5F01211800FBF00F7
:10126300010EEF64064E70BC1219F290018BE0047C
:10127300F0700690018AE004F090018AE0FEA3E09A
:10128300FFD394E8EE94034004D2848002C284D353
:10129300EF94D0EE9407400790018AE4F0A3F0D0D6
:1012A30007D006D005D004D003D002D001D000D09F
:1012B300D0D082D083D0F0D0E0324101E3004101AD
:1012C300E4004101E2004100D400410186054100F0
:1012D300D30041015500608000D5C0F9A4B09992B4
:1012E30082F880908883C6A1868EFF8BFFF1FFC7AB
:1012F300FFABA38CFFFF9287C1E3FF89FFFFBFDF33
:10130300FEFDFBF7EF8FBFBF7FFFC0F9A4B099923B
:1013130082F88090407924301912FF8883C6A18611
:101323008EC289F9E1BFC78FABA38C98AF9287C1F7
:10133300E39CFF91A400FF027800108883A7A18695
:101343008EC289FBE1BFC78FABA38C98AF9287C1D5
:10135300E39CFF91A4BFBFBFBFBF41019800410100
:10136300AF00420192000041019900410190014206
:10137300018C03E8410194014101950041018E0173
:101383004101910041019700410196004201C100D2
:10139300004201BD00004201BF000041018F004235
:1013A30001BB00004201B300004201B5000041014E
:1013B300B70000E4FF900188E075F00AA4FE9001F5
:1013C30087E075F064A42EFE900189E02EFE900064
:1013D30000F0A37403F0900039E024FB602524029D
:1013E300706F9000027401F09001E2E060089000D9
:1013F300037401F08005E4900003F090003274045C
:10140300F0804E9000D1E06401703B90009DE0902D
:101413000002F0E4FF90009DE0FEEFC39E501B74BA
:101423009E2FF582E43400F583E0FE74032FF582EA
:10143300E43400F583EEF00F80DB90009DE024039D
:10144300900032F0800BE4900002F09000327403BD
:10145300F07B017A007900900032E0FD7C001219E4
:1014630097900032E02400F582E43400F583EFF036
:10147300EEFF900032E02401F582E43400F583EFBF
:10148300F0900032E02402F07B017A007900E0FD65
:101493007C00021D2C90018CE0FEA3E0FFFDAC0656
:1014A300900194E014B4070040030215539014BE56
:1014B30075F003A4C58325F0C583730214D3021406
:1014C300DC0214EA0214F802150902152102153987
:1014D300EEC313FCEF13FD807790018CE0FEA3E0D5
:1014E300FF7C007D03801A90018CE0FEA3E0FF7C6B
:1014F300007D06800C90018CE0FEA3E0FF7C007D64
:101503000B12112B804690018CE0FEA3E0FF7C00C0
:101513007D0312112BEF25E0FDEE33FC80329001A9
:101523008CE0FEA3E0FF7C007D0612112B7C007D86
:1015330005121119801690018CE0FEA3E0FF7C00D8
:101543007D0B12112B7C007D0A121119AC06AD071D
:10155300AE04AF052290018CE0FEA3E0FFFDAC06D4
:10156300900194E014B40700400302161390157E13
:1015730075F003A4C58325F0C58373021593021583
:10158300C90215E10215F902159C0215AA0215B844
:10159300EEC313FCEF13FD807790018CE0FEA3E014
:1015A300FF7C007D03801A90018CE0FEA3E0FF7CAA
:1015B300007D06800C90018CE0FEA3E0FF7C007DA3
:1015C3000B12112B804690018CE0FEA3E0FF7C0000
:1015D3007D0312112BEF25E0FDEE33FC80329001E9
:1015E3008CE0FEA3E0FF7C007D0612112B7C007DC6
:1015F30005121119801690018CE0FEA3E0FF7C0018
:101603007D0B12112B7C007D0A121119AC06AD075C
:10161300AE04AF0522E4FF120FA69001C3EFF07FE3
:1016230001120FA69001C4EFF07F02120FA69001E2
:10163300C5EFF07F03120FA69001C6EFF07F0412EF
:101643000FA69001C7EFF09001C3E0D3940074801C
:10165300948140037401F09001C4E0D394034002E9
:10166300E4F09001C5E0D3940540037405F09001C4
:10167300C6E0D394014002E4F09001C7E0D39401A3
:101683004002E4F09001C3E0FF75F06484900187A9
:10169300F0EF75F06484E5F075F00A84A3F090012F
:1016A300C3E075F00A84900189E5F0F09001C4E08D
:1016B3009000D4F09001C5E0900186F09001C6E05F
:1016C3009000D3F09001C7E0900155F0229001887B
:1016D300E075F00AA4FF900187E075F064A42FFF82
:1016E300900189E02F9001D1F09000D4E09001D2D5
:1016F300F0900186E09001D3F09000D3E09001D404
:10170300F0900155E09001D5F09020D8E493FE7459
:101713000193FF12003EE49001D0F09001D0E0FF6E
:10172300C394035035EF25E024D8F582E43420F543
:1017330083E493FE740193AA06F99001D9E4F0A31C
:10174300EAF0A3E9F0A37405F07B017A0179D112E1
:101753001AF59001D0E004F080C1227FC87E001208
:101763000026C2AF121EB4121C6C121E6F12161882
:101773009001807401F0121E93121E82120B2BC271
:10178300A4D2AFE4F59375940FF59175928390010C
:1017930091E064016004E0B4020C9001AFE0B40195
:1017A30005E4F0121E2A1218781209139001AFE013
:1017B300B40105E4F01206D7121CA19001E3E06026
:1017C30003121B46900067E0B401B87B017A0079ED
:1017D30034900033E0FD7C00121D2C121E48E4906F
:1017E3000067F0900033F0809A787FE4F6D8FD75B7
:1017F300812002183302175EE493A3F8E493A34015
:1018030003F68001F208DFF48029E493A3F8540778
:10181300240CC8C333C4540F4420C8834004F45673
:10182300800146F6DFE4800B0102040810204080AB
:101833009012BDE47E019360BCA3FF543F30E509E1
:10184300541FFEE493A360010ECF54C025E060A8AB
:1018530040B8E493A3FAE493A3F8E493A3C8C5823E
:10186300C8CAC583CAF0A3C8C582C8CAC583CADFAC
:10187300E9DEE780BE9000D1E0B401047F0280532B
:10188300900190E0FF604A900194E07002804490E0
:101893000195E0701D9001B8E07002A3E0703790ED
:1018A3000190E0FF1218DA9001957401F012149878
:1018B30080169001B8E07002A3E0701AFF1218DAE4
:1018C300E4900195F01215589001B8EEF0A3EFF0F3
:1018D30022E4FF1218DA22EF14B4070050519018D3
:1018E300EF75F003A4C58325F0C5837302190402C1
:1018F300190B0219120219190219200219270219C8
:101903002BD285D286C28422D284D286C28522D2A9
:1019130084D285C28622D286C284C28522D285C25F
:1019230084C28622D2848002C284C285C28622D225
:1019330084D285D28622C0E0C083C082C0D075D055
:1019430000C0079000D1E0B4010AE4F090009DF0DC
:10195300900069F0E59A30E026539AFE90009DE0EE
:10196300C39432502490009DE0FF04F0749E2FF541
:1019730082E43400F583E59BF09000D07402F0E537
:101983009A30E105539AFDC200D007D0D0D082D05F
:1019930083D0E0329001D0EBF0A3EAF0A3E9F0A307
:1019A300ECF0A3EDF07FFF7DFF9001D374FFF5F022
:1019B30012119645F060339001D0E0FBA3E475F07B
:1019C30001121196A9F0FA1210B16DFB7A0024D816
:1019D300F582EA341EF583E4936FFD74D82BF58208
:1019E300EA341FF583E493FF80BFEFFEEDFF2290FF
:1019F30001BAE06054E49001BAF0900185E0FF255C
:101A0300E0240FF8E66401702BEF25E0240EF8E6DE
:101A1300C394804008E025E0240EF8767F9001858A
:101A2300E025E0240EF8E624D5F582E43400F583BE
:101A3300E0FD80027DFFAF05121DE8900185E00403
:101A4300F0E0C394034002E4F0229001D8EBF0A34A
:101A5300EAF0A3E9F0E49001DFF09001DEE0FFA3F8
:101A6300E0C39F50389001DBE0FBA3E0FAA3E0F969
:101A7300121D029001D8E0FBA3E0FAA3E0F9900164
:101A8300DFE0F582758300EF1210F79001DCE47557
:101A9300F0011211809001DFE004F080BD2290017B
:101AA30088E075F00AA4FF900187E075F064A42F25
:101AB300FF900189E02FFF900000F0A37410F0E481
:101AC300A3F0A3F0A3F0A37405F07B017A007900DF
:101AD3007D067C00121997900006EFF0EEA3F090BC
:101AE30000327408F07B017A007900E0FD7C00028B
:101AF3001D2C9001D6EBF0A3EAF0A3E9F0E49001EA
:101B0300DDF09001DCE0FFA3E0FEC39F50349001C1
:101B1300D6E0FBA3E0FAA3E0F98E827583001210EE
:101B2300CAFD9001D9E0FBA3E0FAA3E0F9121D5628
:101B33009001DAE475F0011211809001DDE004F008
:101B430080C022E49001C3F0A3F0A3F09001B7E0BA
:101B53006006E49001E3F022900191E0B401279044
:101B630001B0E0900187F09001B1E0900188F0901E
:101B730001B2E0900189F01216D09001917402F045
:101B830090019004F0229001E3E01470031200032B
:101B930022900188E075F00AA4FF900187E075F0B8
:101BA30064A42FFF900189E02FFF900000F0A3743D
:101BB30003F0E4A3F07B017A0079007D03FC1219A2
:101BC30097900003EFF0EEA3F09000327405F07BE2
:101BD300017A007900E0FD7C00021D2CC0E0C08387
:101BE300C082C0D075D000C00730982DC298900035
:101BF30033E0C394325022900067E06401601A908E
:101C03000033E0FF04F074342FF582E43400F583ED
:101C1300E599F09000667402F0D007D0D0D082D05E
:101C230083D0E032E490019AF0FFEF25E0240EF830
:101C3300E4F6EF25E0240FF8E4F60FEFB403EBE44A
:101C4300900190F09001E2F09000D1F090009DF0AF
:101C5300900156F090015DF0900164F090016BF0FB
:101C6300900172F0900179F022E4F591759280F57C
:101C73009575960EF5B175B2C075BB70C282C28000
:101C8300C281C283C290C291C2A2C2B6C2A3C2B76A
:101C9300C2A1C2979001BAF0538EDFF59722E49068
:101CA30001E3F0A3E0B4010FA2A04003D38001C37A
:101CB3004005E49001E4F09001E4E0701120A00EEF
:101CC30012000E20A0089001E37401F0A3F0227526
:101CD3009A5A900180E014601C14600C1460112463
:101CE300037012759CB88010759CEE438780800842
:101CF300759CF78003759CDC758E1475AF0122E427
:101D0300F5C275C78375C501AF019001E0EAF0A381
:101D1300EFF09001E0E0F5C3A3E0F5C475C65A7592
:101D2300C6A500121EC2AFC222C2C6D2A4D3ED946E
:101D330000EC940040181210B1F5993099FDC29946
:101D4300740129F9E43AFAED1D70E21C80DFC2A4A4
:101D5300D2C62275C78375C502AF019001DEEAF0D2
:101D6300A3EFF09001DEE0F5C3A3E0F5C4AF058F68
:101D7300C275C65A75C6A500021EC2900185E0FF52
:101D83007007C296D2B4D29422EFB40107D296C29E
:101D9300B4D29422EFB40206D296D2B4C29422E50E
:101DA30089540F4420F5897598D075B81053877FEF
:101DB300438E40538EFE758BF7758DF7C2ABD28E73
:101DC300D2AC2275C78375C5039001D6EEF0A3EF9D
:101DD300F09001D6E0F5C3A3E0F5C475C65A75C605
:101DE300A500021EC2C2A6E4FEEF30E704D2C480FF
:101DF30002C2C4C2A500D2A5EF25E0FF0EEEB408CF
:101E0300E8D2A6021D7EE490019AF0FFEF25E024BC
:101E13000EF8E4F6EF25E0240FF8E4F60FEFB40331
:101E2300EBE4900190F0229001B0E0780EF6A3E08D
:101E33007810F6A3E07812F6780F76017811760120
:101E43007813760122E49001C3F0A3F0900033E00D
:101E5300C39406400312004622121C27E49001910A
:101E6300F0900187F0A3F0A3F00216D0E58954F0B7
:101E73004401F589758CFC758A17D2A9D28C22127C
:101E83001DA2E4900033F0900067F0900066F0220A
:101E9300121CD2E490009DF09000D1F09000D0F09D
:101EA300227B017A007934900033E0FD7C00021D2F
:101EB3002CD2A7C2A5C2A6C2A7E4900185F022E452
:101EC300F5C7F5C5F5C6F5C3F5C422007F0B7EBE85
:101ED300DEFEDFFC2200C1814001C0804101C080E1
:101EE3004100C1814001C0804100C1814000C181E6
:101EF3004001C0804101C0804100C1814000C181D7
:101F03004001C0804100C1814001C0804101C080C7
:101F13004100C1814001C0804100C1814000C181B5
:101F23004001C0804100C1814001C0804101C080A7
:101F33004100C1814000C1814001C0804101C08096
:101F43004100C1814001C0804100C1814000C18185
:101F53004001C0804101C0804100C1814000C18176
:101F63004001C0804100C1814001C0804101C08067
:101F73004100C1814000C1814001C0804101C08056
:101F83004100C1814001C0804100C1814000C18145
:101F93004001C0804100C1814001C0804101C08037
:101FA3004100C1814001C0804100C1814000C18125
:101FB3004001C0804101C0804100C1814000C18116
:101FC3004001C0804100C1814001C0804101C08007
:101FD3004100C1814000C0C101C30302C2C606075C
:101FE300C705C5C404CC0C0DCD0FCFCE0E0ACACB8A
:101FF3000BC90908C8D81819D91BDBDA1A1EDEDF8A
:102003001FDD1D1CDC14D4D515D71716D6D2121319
:10201300D311D1D010F03031F133F3F23236F6F779
:1020230037F53534F43CFCFD3DFF3F3EFEFA3A3BC9
:10203300FB39F9F83828E8E929EB2B2AEAEE2E2FA9
:10204300EF2DEDEC2CE42425E527E7E62622E2E359
:1020530023E12120E0A06061A163A3A26266A6A799
:1020630067A56564A46CACAD6DAF6F6EAEAA6A6B09
:10207300AB69A9A86878B8B979BB7B7ABABE7E7F09
:10208300BF7DBDBC7CB47475B577B7B67672B2B399
:1020930073B17170B05090915193535292965657B9
:1020A30097559594549C5C5D9D5F9F9E5E5A9A9B49
:1020B3005B99595898884849894B8B8A4A4E8E8F29
:1020C3004F8D4D4C8C4484854587474686824243D9
:1020D3008341818040000000100020060008000AB0
:0F20E300000C000E0025262728292A24563C32FF
:00000001FF
