:100D3600BFA8B5C4C0E0D0CD3A00255800BFA8D0A2
:100D4600F2C1D0BAC5A3BA00BFA8B6C1BFE9A3BA5B
:100D5600000A0012345678EDCBA987123456780172
:0D0D6600FE01FE00000001FFFFFFFFFFFF88
:100E0300D3EF9400EE940040147D6E7C00ED1D70D2
:0D0E1300011CED4C70F7EF1F70E61E80E330
:010E200022AF
:070E9000C2B3C2CCC2CD22A7
:070E9700D2B3D2CCD2CD2270
:100E3F00120E907FE07E2E120E03120E977FE07E31
:040E4F002E020E035E
:10035F00120DB0120C70120E9E120E657B007A00F9
:10036F0079087F52120C0F8F22E5226011120DB007
:10037F00120C70120E9E120E65120E3F80DE7BFF66
:10038F007A0D7936120065E4F52374082523F8E613
:10039F00752400F5257BFF7A0D7940852429F52AF0
:1003AF001200650523E523C3940240DE7B007A002B
:1003BF0079081209CD8F22E52270A17BFF7A0D7982
:1003CF0043120065E4F52374082523F8E67524002D
:1003DF00F5257BFF7A0D7940852429F52A120065D2
:1003EF000523E523C3940440DE7B007A00790812CD
:1003FF000A488F22E522600302036B752B00752CD0
:10040F0000752D087BFF7A0D796D7D017F60120AD3
:10041F00C38F22E522600302036B7BFF7A0D7959AC
:10042F007F0112088B8F22E522600302036B7B0092
:10043F007A0079087F52120C0F8F22E522600E127C
:10044F000DB0120C70120E9E120E6580E17B007AB9
:10045F000079081209CD8F22E52270D27B007A0035
:10046F007908120A488F22E52270C3752B00752C6C
:10047F0000752D087BFF7A0D796D7D017F60120A63
:10048F00C38F22E52270A77BFF7A0D79697D017FEB
:10049F00C01206BB8F22E52270947D027F01120BE2
:1004AF00388F22E52270877B007A0079087F02124D
:1004BF000BAC8F22E522600302043D7BFF7A0D799E
:1004CF004E120065E4F52374082523F8E675240021
:1004DF00F5257BFF7A0D7940852429F52A120065D1
:1004EF000523E523C3941040DE7BFF7A0D79571265
:1004FF000065E4F523E4FF0FBF50FC0523E523B4AB
:10050F00FAF37F647E00120E037F647E00120E03E7
:0D051F007FC87E00120E03120D7302043D12
:100DB0007580FF7590FF75B0FF75A0FF758921756F
:100DC0009850758DFD758BFDE4F58CF58AD28CD22B
:0C0DD000A9D28ED299D2AFD2ACD2982218
:100E2100D3EF9400EE940040147D6E7C00ED1D70B4
:0D0E3100011CED4C70F7EF1F70E61E80E312
:010E3E002291
:080C0F008F268B278A28892912
:100C1700120E537D077F0D120CFB7D037F14120EFE
:100C27007785262C754701754800754900754A2C4C
:100C3700754B00754C00754D2A7A00792C120545C5
:100C4700EF7023E52B6410452A701BAB27AA28A950
:100C570029E52C1207E9AB27AA28A929900001E565
:080C67002D1207FB80027FFE45
:010C6F002262
:0609CD008B268A27892811
:1009D300E4F52A120E53E4FD7F0D120CFB7D807F9C
:1009E3000E120E57752D93752E207547027548000C
:1009F300754900754A2D754B00754C00754D2B7B61
:100A0300007A00792D7F0C1205498F29E529702B77
:100A1300FF742D2FF8E6AB26AA27A9288F827583AA
:100A2300001207FB742D2FF8E6622A0FBF04E2744D
:100A33002D2FF8E6652A60037529FE7D807F0E124F
:040A43000E77AF2952
:010A4700228C
:060A48008B268A27892895
:100A4E00752B93752C70E4F531FFAB26AA27A928D8
:100A5E008F827583001207BCFE742D2FF8A6068FA9
:100A6E00827583001207BC62310FBF04DD75420030
:100A7E007543007544327B007A00792B7D0712098D
:100A8E0057120E53754709754800754900754A2B64
:100A9E00754B00754C00754D297B007A00792B7FC4
:100AAE000C120549EF700BE52A641845297003FFF7
:040ABE0080027FFE35
:010AC2002211
:060AC3008B288A29892A14
:100AC9008F318D32E4FFAB28AA29A92A8F82758339
:100AD900001207BCFE74332FF8A6060FBF06E7E421
:100AE900FFAB2BAA2CA92D8F827583001207BCFEA0
:100AF90074392FF8A6060FBF06E775470C7548002D
:100B0900754900754A31754B00754C00754D2F7B41
:100B1900007A0079317F0E1205498F2EE52E700972
:0E0B29007F08120CBAEF20E303752EFEAF2EEC
:010B3700229B
:060BAC008B268A27892830
:100BB200752B308F2C75420075430075442D7A00D9
:100BC200792B120953754704754800754900754A17
:100BD2002B754B00754C00754D297B007A00792BE3
:100BE2007F0C120549EF7022E52A64904529701A9C
:100BF200FE742B2EF8E6AB26AA27A9288E827583CF
:0C0C0200001207FB0EBE10E980027FFE0E
:010C0E0022C3
:06088B008B268A27892854
:10089100752BA08F2C75420075430075442D7B008C
:1008A1007A00792B7D021209577547047548007546
:1008B1004900754A2B754B00754C00754D297B001D
:1008C1007A00792B7F0C120549EF7010E52A640438
:1008D10045297008E52B540F640A60027FFEEF7012
:1008E10063FEAB26AA27A9288E827583001207BC56
:1008F100FD742B2EF8A6050EBE10E7754200754358
:100901000075443B7B007A00792B7D1012095775E5
:100911004712754800754900754A2B754B00754C97
:1009210000754D297B007A00792B7F0C120549EF68
:100931007010E52A640445297008E52B540F640AF8
:0409410060027FFED3
:01094500228F
:0806BB008D268B278A2889296E
:1006C3008F2C85262D75420075430075442E7B00C3
:1006D3007A00792C7D021209577547047548007515
:1006E3004900754A2C754B00754C00754D2A7B00EB
:1006F3007A00792C7F0C120549EF7010E52B640406
:10070300452A7008E52C540F640A60027FFEEF70DF
:1007130057FEAB27AA28A9298E827583001207BC2E
:10072300FD742C2EF8A6050EBE10E7754200754326
:10073300007544307B007A00792C7D04120957E45C
:10074300F52AF52B754706F548754900754A2CF5CA
:100753004B754C00754D2AFB7A00792C7F0C1205E2
:1007630049EF64FE6002E4FFEF704D752CB08526FF
:100773002DF54275430075442EFB7A00792C7D02DA
:10078300120957754704754800754900754A2C7559
:100793004B00754C00754D2A7B007A00792C7F0C39
:1007A300120549EF7010E52B6404452A7008E52C07
:0807B300540F640A60027FFE8E
:0107BB00221B
:020B38008D2608
:100B3A007529C28F2A12094612052CEF7010E52872
:100B4A00640445277008E529540F640A60027FFE91
:100B5A00EF7027F529F52AF52BF52CF54275430098
:100B6A0075442DFB7A0079297D04120957754706C9
:100B7A0012052FEF64FE6002E4FFEF60037FFE229E
:100B8A007529B085262A12094612052CEF7010E540
:100B9A0028640445277008E529540F640A60027F17
:010BAA00FE4C
:010BAB002227
:100D7300752950E4F52AF54275430075442BFB7A37
:100D83000079297D02120957754704754800754992
:100D930000754A29754B00754C00754D277B007A09
:0C0DA3000079297F0C1205498F267F0083
:010DAF002221
:1009460075420075430075442B7A0079297B007D3A
:01095600029E
:080957008B3E8A3F89408D416F
:10095F007D047F05120E57120CF77D807F0A120E51
:10096F0077E4F545E545C395415019AB3EAA3FA93C
:10097F00408545827583001207BCFD7F09120CFB71
:10098F00054580E07D037F01120CFB7545FF7F0558
:10099F00120CBA1545E5456004EF30E2F17F2212E3
:1009AF000CBAAB42AA43A944EF1207E97F21120CFC
:0E09BF00BAAB42AA43A944900001EF0207FB25
:100C7000D2A500C2A500D2A57F0A7E00120E217D5A
:100C80000F7F01120CFB007D3D7F11120CFB7D1EBE
:100C90007F2D120CFBE4FD7F2C120CFB7D8D7F2A37
:100CA000120CFB7D3E7F2B120CFB7D407F15120C3E
:040CB000FB7F0022A4
:060CB400AC07AB05E4FEF5
:100CBA00E4FEC2A6C2A4EF25E0547E4480FF7D086C
:100CCA00EF30E703D38001C392A7D2A6EF25E0FF56
:100CDA00C2A6DDEC7D08D2A6EE25E0FEA280E433B2
:0C0CEA004206C2A6DDF0D2A4D2A6AF06DE
:010CF60022DB
:040CF700E4FD7F0198
:100CFB00C2A6C2A4EF25E0547EFF7E08EF30E703C7
:100D0B00D38001C392A7D2A6EF25E0FFC2A6DEECEB
:100D1B007E08ED30E703D38001C392A7D2A6ED2561
:0A0D2B00E0FDC2A6DEECD2A4D2A6C1
:010D3500229B
:0D0E7700120CB4AE07AF04EB4EFD020CFBF5
:040E53007D087F088F
:0E0E5700120CB4AE07AF04EBF45EFD020CFB10
:10052C00754704754800754900754A29754B007567
:0D053C004C00754D277A0079297B007F0C5B
:080549008F438B448A4589466B
:10055100754EFEE4F54FF550E54324F4600C24FE9E
:10056100700E754F127550108006754F77755030AB
:10057100E54F4480FD7F02120CFB7D807F04120E4B
:1005810057120CF77D807F0A120E77E4F552F5536E
:10059100C3E5539547E5529400501FAB44AA45A9C2
:1005A100468553828552831207BCFD7F09120CFBDD
:1005B1000553E55370DA055280D6AD437F01120C25
:1005C100FBE543B40C077D807F0D120E7775520257
:1005D1007553587F04120CBA8F51E55315537002AD
:1005E1001552E55345526009E55120E0045550602C
:1005F100E27D807F0D120E57E553455270030206CE
:10060100AE7F06120CBAEF541B60030206ABF54E27
:10061100E551554F30E003754EFFE543640C60032F
:100621000206AE7F0A120CBA8F517F0C120CBAEF80
:100631005407FD6021E55124FFFFE434FFFEEF780C
:1006410003C333CE33CED8F97C002DFFEC3EAB4B48
:10065100AA4CA94D800FE55175F008A4FFAB4BAA38
:100661004CA94DE5F08FF012081DE551700375514D
:1006710001E551D394124003755112E4F552F5533B
:10068100C3E5539551E552940050227F09120CBAEB
:10069100AB48AA49A94A855382855283EF1207FBC9
:1006A1000553E55370DA055280D6754EFE7D807F85
:0906B1000C120E77120CF7AF4E8B
:0106BA00221D
:100E65007F14120CBAEF540370077D037F14120E22
:010E75007705
:010E76002259
:070E9E007D037F14020E57D3
:03000000020E8469
:0C0E8400787FE4F6D8FD75815302035F0F
:1007BC00BB010CE58229F582E5833AF583E02250F2
:1007CC0006E92582F8E622BBFE06E92582F8E2223C
:0D07DC00E58229F582E5833AF583E4932256
:1007E900BB010689828A83F0225002F722BBFE01EF
:0207F900F322E9
:1007FB00F8BB010DE58229F582E5833AF583E8F034
:10080B00225006E92582C8F622BBFE05E92582C8DF
:02081B00F222C7
:10081D00BB010A89828A83F0E5F0A3F0225006F726
:0F082D0009A7F01922BBFE06F3E5F009F3192223
:10000300E5352429F8E605352278263007027829D4
:10001300E475F00112085502083C2000EB7F2ED254
:10002300008018EF540F2490D43440D4FF30040BD5
:10003300EF24BFB41A0050032461FFE536600215B4
:10004300360539E5397002053830070D7826E47531
:10005300F001120855EF0207E9020DDC7403D20721
:100063008003E4C207F5358B268A278928E4F53611
:10007300F538F539E53660077F2012003E80F575C7
:1000830037FFC201C200C202C203C205C206C208D0
:1000930012000CFF700D3007057F0012004FAF39BF
:1000A300AE3822B4255FC2D5C20412000CFF24D09F
:1000B300B40A00501A75F00A783630D50508B6FF31
:1000C3000106C6A426F620D5047002D20380D924E3
:1000D300CFB41A00EF5004C2E5D20402024FD2019A
:1000E30080C6D20080C0D20280BCD2D580BAD205ED
:1000F30080B47F2012003E2002077401B536004011
:10010300F1120003FF12003E020077D208D20680EC
:1001130095120003FB120003FA120003F94A4B7015
:100123000679207A037BFF20022EE536602A7E00C3
:100133008E827583001207BC60060EEE653770F081
:10014300C2D5EBC0E0EAC0E0E9C0E0EE120296D00F
:10015300E0F9D0E0FAD0E0FB12083CFF60AAEBC064
:10016300E0EAC0E0E9C0E012003ED0E02401F9D0AB
:10017300E03400FAD0E0FBE5370460DCD537D98002
:10018300877BFF7A027992D202809C791080027970
:1001930008C206C2088008D2D5790A8004790AC247
:1001A300D5E537047002F537E4FAFDFEFF120003CC
:1001B300FC7B08200113120003FD7B1030000A12A0
:1001C3000003FE120003FF7B20EC3382D592D5504F
:1001D30013C3E43000069FFFE49EFEE42001039D69
:1001E300FDE49CFCE4CBF8C201EC700CCFCECDCC8B
:1001F300E824F8F870F38017C3EF33FFEE33FEED16
:1002030033FDEC33FCEB33FB994002FB0FD8E9EBF6
:10021300300105F8D0E0C448B201C0E00AEC4D4E0D
:100223004F78207B0070C2EAB5370040BCC0E012B3
:100233000298D0F0D0E0200104C4C0E0C4B201C0F1
:10024300F0120027D0F0D5F0EB0200771208650119
:100253001453018E5800E54C00E14201924F019A7C
:0F02630044019A4900FA4301A0550184460184E1
:100272004501844703405000E92D00ED2E01102B6B
:1002820000F123010E2003292A00A94800000108D9
:100292003F3F3F00790AA2D5200314300509B91067
:1002A200020404B9080104A2D52006025001042068
:1002B20002689202B536005034C0E07F2030031944
:1002C2007F30A20272067205500F1202EFC202C202
:1002D20006C205C2087F30800F300503E9C0E01274
:1002E200003E300503D0E0F9D0E0B536CC3005173A
:1002F2007F30B9100C12003E7F583004077F78809F
:1003020003B9080312003E3002057F2D02003E7F32
:10031200202008F87F2B2006F322920280CF286E3D
:10032200756C6C2900D2011200033001F8C2017809
:100332003630D50108F60200A92D50434958120063
:10034200032403B405004001E490033B9312002F01
:0D035200743A12002FD20375360402018E9A
:10083C00BB010689828A83E0225002E722BBFE02BA
:09084C00E32289828A83E49322ED
:10085500FAE6FB0808E6F925F0F618E6CA3AF622A4
:10086500D083D082F8E4937012740193700DA3A322
:1008750093F8740193F5828883E473740293686036
:06088500EFA3A3A380DF36
:100DDC00EFB40A07740D120DE7740A309811A89934
:100DEC00B8130CC2983098FDA899C298B811F63077
:070DFC0099FDC299F599224F
:00000001FF
