:100D4000BFA8B5C4C0E0D0CD3A00255800BFA8D098
:100D5000F2C1D0BAC5A3BA00BFA8B6C1BFE9A3BA51
:100D6000000A0012345678EDCBA987123456780168
:0D0D7000FE01FE00000001FFFFFFFFFFFF7E
:070E8600C284C286C285226E
:100E0D00D3EF9400EE940040147D6E7C00ED1D70C8
:0D0E1D00011CED4C70F7EF1F70E61E80E326
:010E2A0022A5
:10035F00120DBA120C7A120E8D120E5B7B007A0000
:10036F0079087F52120C198F22E5226011120DBAF3
:10037F00120C7A120E8D120E5B120E8680DE7BFF30
:10038F007A0D7940120065E4F52374082523F8E609
:10039F00752400F5257BFF7A0D794A852429F52AE6
:1003AF001200650523E523C3940240DE7B007A002B
:1003BF0079081209D78F22E52270A17BFF7A0D7978
:1003CF004D120065E4F52374082523F8E675240023
:1003DF00F5257BFF7A0D794A852429F52A120065C8
:1003EF000523E523C3940440DE7B007A00790812CD
:1003FF000A528F22E522600302036B752B00752CC6
:10040F0000752D087BFF7A0D79777D017F60120AC9
:10041F00CD8F22E522600302036B7BFF7A0D796398
:10042F007F011208958F22E522600302036B7B0088
:10043F007A0079087F52120C198F22E522600E1272
:10044F000DBA120C7A120E8D120E5B80E17B007AC0
:10045F000079081209D78F22E52270D27B007A002B
:10046F007908120A528F22E52270C3752B00752C62
:10047F0000752D087BFF7A0D79777D017F60120A59
:10048F00CD8F22E52270A77BFF7A0D79737D017FD7
:10049F00C01206C58F22E52270947D027F01120BD8
:1004AF00428F22E52270877B007A0079087F021243
:1004BF000BB68F22E522600302043D7BFF7A0D7994
:1004CF0058120065E4F52374082523F8E675240017
:1004DF00F5257BFF7A0D794A852429F52A120065C7
:1004EF000523E523C3941040DE7BFF7A0D7961125B
:1004FF000065C2A5E4F523E4FF0FBF50FCB2A605CB
:10050F0023E523B4FAF17F647E00120E0DD2A57F8E
:10051F00647E00120E0DC2A57FC87E00120E0DD292
:07052F00A5120D7D02043D41
:100DBA007580FF7590FF75B0FF75A0FF7589217565
:100DCA009850758DFD758BFDE4F58CF58AD28CD221
:0C0DDA00A9D28ED299D2AFD2ACD298220E
:100E2B00D3EF9400EE940040147D6E7C00ED1D70AA
:0D0E3B00011CED4C70F7EF1F70E61E80E308
:010E48002287
:080C19008F268B278A28892908
:100C2100120E497D077F0D120D057D037F14120EF3
:100C31006D85262C754701754800754900754A2C4C
:100C4100754B00754C00754D2A7A00792C12054FB1
:100C5100EF7023E52B6410452A701BAB27AA28A946
:100C610029E52C1207F3AB27AA28A929900001E551
:080C71002D12080580027FFE30
:010C79002258
:0609D7008B268A27892807
:1009DD00E4F52A120E49E4FD7F0D120D057D807F91
:1009ED000E120E4D752D93752E207547027548000C
:1009FD00754900754A2D754B00754C00754D2B7B57
:100A0D00007A00792D7F0C1205538F29E529702B63
:100A1D00FF742D2FF8E6AB26AA27A9288F827583A0
:100A2D0000120805742D2FF8E6622A0FBF04E27438
:100A3D002D2FF8E6652A60037529FE7D807F0E1245
:040A4D000E6DAF2952
:010A51002282
:060A52008B268A2789288B
:100A5800752B93752C70E4F531FFAB26AA27A928CE
:100A68008F827583001207C6FE742D2FF8A6068F95
:100A7800827583001207C662310FBF04DD7542001C
:100A88007543007544327B007A00792B7D07120983
:100A980061120E49754709754800754900754A2B5A
:100AA800754B00754C00754D297B007A00792B7FBA
:100AB8000C120553EF700BE52A641845297003FFE3
:040AC80080027FFE2B
:010ACC002207
:060ACD008B288A29892A0A
:100AD3008F318D32E4FFAB28AA29A92A8F8275832F
:100AE300001207C6FE74332FF8A6060FBF06E7E40D
:100AF300FFAB2BAA2CA92D8F827583001207C6FE8C
:100B030074392FF8A6060FBF06E775470C75480022
:100B1300754900754A31754B00754C00754D2F7B37
:100B2300007A0079317F0E1205538F2EE52E70095E
:0E0B33007F08120CC4EF20E303752EFEAF2ED8
:010B41002291
:060BB6008B268A27892826
:100BBC00752B308F2C75420075430075442D7A00CF
:100BCC00792B12095D754704754800754900754A03
:100BDC002B754B00754C00754D297B007A00792BD9
:100BEC007F0C120553EF7022E52A64904529701A88
:100BFC00FE742B2EF8E6AB26AA27A9288E827583C5
:0C0C0C00001208050EBE10E980027FFEF9
:010C180022B9
:060895008B268A2789284A
:10089B00752BA08F2C75420075430075442D7B0082
:1008AB007A00792B7D021209617547047548007532
:1008BB004900754A2B754B00754C00754D297B0013
:1008CB007A00792B7F0C120553EF7010E52A640424
:1008DB0045297008E52B540F640A60027FFEEF7008
:1008EB0063FEAB26AA27A9288E827583001207C642
:1008FB00FD742B2EF8A6050EBE10E775420075434E
:10090B000075443B7B007A00792B7D1012096175D1
:10091B004712754800754900754A2B754B00754C8D
:10092B0000754D297B007A00792B7F0C120553EF54
:10093B007010E52A640445297008E52B540F640AEE
:04094B0060027FFEC9
:01094F002285
:0806C5008D268B278A28892964
:1006CD008F2C85262D75420075430075442E7B00B9
:1006DD007A00792C7D021209617547047548007501
:1006ED004900754A2C754B00754C00754D2A7B00E1
:1006FD007A00792C7F0C120553EF7010E52B6404F2
:10070D00452A7008E52C540F640A60027FFEEF70D5
:10071D0057FEAB27AA28A9298E827583001207C61A
:10072D00FD742C2EF8A6050EBE10E775420075431C
:10073D00007544307B007A00792C7D04120961E448
:10074D00F52AF52B754706F548754900754A2CF5C0
:10075D004B754C00754D2AFB7A00792C7F0C1205D8
:10076D0053EF64FE6002E4FFEF704D752CB08526EB
:10077D002DF54275430075442EFB7A00792C7D02D0
:10078D00120961754704754800754900754A2C7545
:10079D004B00754C00754D2A7B007A00792C7F0C2F
:1007AD00120553EF7010E52B6404452A7008E52CF3
:0807BD00540F640A60027FFE84
:0107C5002211
:020B42008D26FE
:100B44007529C28F2A120950120536EF7010E52854
:100B5400640445277008E529540F640A60027FFE87
:100B6400EF7027F529F52AF52BF52CF5427543008E
:100B740075442DFB7A0079297D04120961754706B5
:100B8400120539EF64FE6002E4FFEF60037FFE228A
:100B94007529B085262A120950120536EF7010E522
:100BA40028640445277008E529540F640A60027F0D
:010BB400FE42
:010BB500221D
:100D7D00752950E4F52AF54275430075442BFB7A2D
:100D8D000079297D0212096175470475480075497E
:100D9D0000754A29754B00754C00754D277B007AFF
:0C0DAD000079297F0C1205538F267F006F
:010DB9002217
:1009500075420075430075442B7A0079297B007D30
:010960000294
:080961008B3E8A3F89408D4165
:100969007D047F05120E4D120D017D807F0A120E46
:100979006DE4F545E545C395415019AB3EAA3FA93C
:10098900408545827583001207C6FD7F09120D0552
:10099900054580E07D037F01120D057545FF7F0543
:1009A900120CC41545E5456004EF30E2F17F2212CF
:1009B9000CC4AB42AA43A944EF1207F37F21120CDE
:0E09C900C4AB42AA43A944900001EF02080506
:100C7A00D2A400C2A400D2A47F0A7E00120E2B7D49
:100C8A000F7F01120D05007D3D7F11120D057D1E9E
:100C9A007F2D120D05E4FD7F2C120D057D8D7F2A17
:100CAA00120D057D3E7F2B120D057D407F15120D1D
:040CBA00057F002290
:060CBE00AC07AB05E4FEEB
:100CC400E4FEC2A1C2A2EF25E0547E4480FF7D0869
:100CD400EF30E703D38001C392A0D2A1EF25E0FF58
:100CE400C2A1DDEC7D08D2A1EE25E0FEA2A3E4338F
:0C0CF4004206C2A1DDF0D2A2D2A1AF06E0
:010D000022D0
:040D0100E4FD7F018D
:100D0500C2A1C2A2EF25E0547EFF7E08EF30E703C3
:100D1500D38001C392A0D2A1EF25E0FFC2A1DEECF2
:100D25007E08ED30E703D38001C392A0D2A1ED2563
:0A0D3500E0FDC2A1DEECD2A2D2A1C3
:010D3F002291
:0D0E6D00120CBEAE07AF04EB4EFD020D05EA
:040E49007D087F0899
:0E0E4D00120CBEAE07AF04EBF45EFD020D0505
:10053600754704754800754900754A29754B00755D
:0D0546004C00754D277A0079297B007F0C51
:080553008F438B448A45894661
:10055B00754EFEE4F54FF550E54324F4600C24FE94
:10056B00700E754F127550108006754F77755030A1
:10057B00E54F4480FD7F02120D057D807F04120E36
:10058B004D120D017D807F0A120E6DE4F552F5536D
:10059B00C3E5539547E5529400501FAB44AA45A9B8
:1005AB00468553828552831207C6FD7F09120D05BE
:1005BB000553E55370DA055280D6AD437F01120D1A
:1005CB0005E543B40C077D807F0D120E6D7552024D
:1005DB007553587F04120CC48F51E5531553700299
:1005EB001552E55345526009E55120E00455506022
:1005FB00E27D807F0D120E4DE553455270030206CE
:10060B00B87F06120CC4EF541B60030206B5F54EFF
:10061B00E551554F30E003754EFFE543640C600325
:10062B000206B87F0A120CC48F517F0C120CC4EF58
:10063B005407FD6021E55124FFFFE434FFFEEF7802
:10064B0003C333CE33CED8F97C002DFFEC3EAB4B3E
:10065B00AA4CA94D800FE55175F008A4FFAB4BAA2E
:10066B004CA94DE5F08FF0120827E5517003755139
:10067B0001E551D394124003755112E4F552F55331
:10068B00C3E5539551E552940050227F09120CC4D7
:10069B00AB48AA49A94A855382855283EF120805B4
:1006AB000553E55370DA055280D6754EFE7D807F7B
:0906BB000C120E6D120D01AF4E80
:0106C4002213
:100E5B007F14120CC4EF540370077D037F14120E22
:010E6B006D19
:010E6C002263
:070E8D007D037F14020E4DEE
:03000000020E7A73
:0C0E7A00787FE4F6D8FD75815302035F19
:1007C600BB010CE58229F582E5833AF583E02250E8
:1007D60006E92582F8E622BBFE06E92582F8E22232
:0D07E600E58229F582E5833AF583E493224C
:1007F300BB010689828A83F0225002F722BBFE01E5
:02080300F322DE
:10080500F8BB010DE58229F582E5833AF583E8F029
:10081500225006E92582C8F622BBFE05E92582C8D5
:02082500F222BD
:10082700BB010A89828A83F0E5F0A3F0225006F71C
:0F08370009A7F01922BBFE06F3E5F009F3192219
:10000300E5352429F8E605352278263007027829D4
:10001300E475F00112085F0208462000EB7F2ED240
:10002300008018EF540F2490D43440D4FF30040BD5
:10003300EF24BFB41A0050032461FFE536600215B4
:10004300360539E5397002053830070D7826E47531
:10005300F00112085FEF0207F3020DE67403D20703
:100063008003E4C207F5358B268A278928E4F53611
:10007300F538F539E53660077F2012003E80F575C7
:1000830037FFC201C200C202C203C205C206C208D0
:1000930012000CFF700D3007057F0012004FAF39BF
:1000A300AE3822B4255FC2D5C20412000CFF24D09F
:1000B300B40A00501A75F00A783630D50508B6FF31
:1000C3000106C6A426F620D5047002D20380D924E3
:1000D300CFB41A00EF5004C2E5D20402024FD2019A
:1000E30080C6D20080C0D20280BCD2D580BAD205ED
:1000F30080B47F2012003E2002077401B536004011
:10010300F1120003FF12003E020077D208D20680EC
:1001130095120003FB120003FA120003F94A4B7015
:100123000679207A037BFF20022EE536602A7E00C3
:100133008E827583001207C660060EEE653770F077
:10014300C2D5EBC0E0EAC0E0E9C0E0EE120296D00F
:10015300E0F9D0E0FAD0E0FB120846FF60AAEBC05A
:10016300E0EAC0E0E9C0E012003ED0E02401F9D0AB
:10017300E03400FAD0E0FBE5370460DCD537D98002
:10018300877BFF7A027992D202809C791080027970
:1001930008C206C2088008D2D5790A8004790AC247
:1001A300D5E537047002F537E4FAFDFEFF120003CC
:1001B300FC7B08200113120003FD7B1030000A12A0
:1001C3000003FE120003FF7B20EC3382D592D5504F
:1001D30013C3E43000069FFFE49EFEE42001039D69
:1001E300FDE49CFCE4CBF8C201EC700CCFCECDCC8B
:1001F300E824F8F870F38017C3EF33FFEE33FEED16
:1002030033FDEC33FCEB33FB994002FB0FD8E9EBF6
:10021300300105F8D0E0C448B201C0E00AEC4D4E0D
:100223004F78207B0070C2EAB5370040BCC0E012B3
:100233000298D0F0D0E0200104C4C0E0C4B201C0F1
:10024300F0120027D0F0D5F0EB02007712086F010F
:100253001453018E5800E54C00E14201924F019A7C
:0F02630044019A4900FA4301A0550184460184E1
:100272004501844703405000E92D00ED2E01102B6B
:1002820000F123010E2003292A00A94800000108D9
:100292003F3F3F00790AA2D5200314300509B91067
:1002A200020404B9080104A2D52006025001042068
:1002B20002689202B536005034C0E07F2030031944
:1002C2007F30A20272067205500F1202EFC202C202
:1002D20006C205C2087F30800F300503E9C0E01274
:1002E200003E300503D0E0F9D0E0B536CC3005173A
:1002F2007F30B9100C12003E7F583004077F78809F
:1003020003B9080312003E3002057F2D02003E7F32
:10031200202008F87F2B2006F322920280CF286E3D
:10032200756C6C2900D2011200033001F8C2017809
:100332003630D50108F60200A92D50434958120063
:10034200032403B405004001E490033B9312002F01
:0D035200743A12002FD20375360402018E9A
:10084600BB010689828A83E0225002E722BBFE02B0
:09085600E32289828A83E49322E3
:10085F00FAE6FB0808E6F925F0F618E6CA3AF6229A
:10086F00D083D082F8E4937012740193700DA3A318
:10087F0093F8740193F5828883E47374029368602C
:06088F00EFA3A3A380DF2C
:100DE600EFB40A07740D120DF1740A309811A89920
:100DF600B8130CC2983098FDA899C298B811F6306D
:070E060099FDC299F5992244
:00000001FF
