:03000000021B518F
:0C1B5100787FE4F6D8FD758120021B9817
:1008760000C1814001C0804101C0804100C181406A
:1008860001C0804100C1814000C1814001C080415A
:1008960001C0804100C1814000C1814001C080414A
:1008A60000C1814001C0804101C0804100C181403A
:1008B60001C0804100C1814000C1814001C080412A
:1008C60000C1814001C0804101C0804100C181401A
:1008D60000C1814001C0804101C0804100C181400A
:1008E60001C0804100C1814000C1814001C08041FA
:1008F60001C0804100C1814000C1814001C08041EA
:1009060000C1814001C0804101C0804100C18140D9
:1009160000C1814001C0804101C0804100C18140C9
:1009260001C0804100C1814000C1814001C08041B9
:1009360000C1814001C0804101C0804100C18140A9
:1009460001C0804100C1814000C1814001C0804199
:1009560001C0804100C1814000C1814001C0804189
:1009660000C1814001C0804101C0804100C1814079
:1009760000C0C101C30302C2C60607C705C5C40439
:10098600CC0C0DCD0FCFCE0E0ACACB0BC90908C8A9
:10099600D81819D91BDBDA1A1EDEDF1FDD1D1CDC99
:1009A60014D4D515D71716D6D21213D311D1D01009
:1009B600F03031F133F3F23236F6F737F53534F4F9
:1009C6003CFCFD3DFF3F3EFEFA3A3BFB39F9F83869
:1009D60028E8E929EB2B2AEAEE2E2FEF2DEDEC2C59
:1009E600E42425E527E7E62622E2E323E12120E0C9
:1009F600A06061A163A3A26266A6A767A56564A4B9
:100A06006CACAD6DAF6F6EAEAA6A6BAB69A9A86828
:100A160078B8B979BB7B7ABABE7E7FBF7DBDBC7C18
:100A2600B47475B577B7B67672B2B373B17170B088
:100A36005090915193535292965657975595945478
:100A46009C5C5D9D5F9F9E5E5A9A9B5B99595898E8
:100A5600884849894B8B8A4A4E8E8F4F8D4D4C8CD8
:100A66004484854587474686824243834181804048
:101E94009000BBEBF0A3EAF0A3E9F0A3ECF0A3ED10
:011EA400F04D
:101EA5007FFF7DFF9000BE74FFF5F0120E6B45F0CD
:101EB50060259000BBE0FBA3E475F001120E6BA951
:101EC500F0FA120D746DFB7A00900876936FFDEBB6
:0B1ED50090097693FF80CDEFFEEDFF3B
:011EE00022DF
:10228C00000000100020060008000A000C000E00E0
:10219900E4F5C275C78375C501AF019000CDEAF0BA
:1021A900A3EFF09000CDE0F5C3A3E0F5C475C65ADE
:0921B90075C6A5001222E4AFC2B4
:0121C20022FA
:1021C30075C78375C502AF019000C9EAF0A3EFF0AC
:1021D3009000C9E0F5C3A3E0F5C4AF058FC275C68F
:0821E3005A75C6A5000222E4B2
:1021EB0075C78375C5039000C1EEF0A3EFF09000A7
:1021FB00C1E0F5C3A3E0F5C475C65A75C6A50002C8
:02220B0022E4CB
:0C22E400E4F5C7F5C5F5C6F5C3F5C42246
:0B1CFB009000C5EBF0A3EAF0A3E9F0B5
:101D0600E49000CCF09000CBE0FFA3E0C39F5038F6
:101D16009000C8E0FBA3E0FAA3E0F9122199900035
:101D2600C5E0FBA3E0FAA3E0F99000CCE0F58275EC
:101D36008300EF120DCC9000C9E475F001120E5528
:081D46009000CCE004F080BD28
:011D4E002272
:0B1DF5009000C1EBF0A3EAF0A3E9F0BE
:101E0000E49000C8F09000C7E0FFA3E0FEC39F503D
:101E1000349000C1E0FBA3E0FAA3E0F98E82758361
:101E200000120D8DFD9000C4E0FBA3E0FAA3E0F9E1
:101E30001221C39000C5E475F001120E559000C840
:051E4000E004F080C089
:011E4500227A
:04231A001221EB227F
:100EAC009000B5EFF0C3940540037FFF2290228C95
:100EBC00E493FE740193AA06F99000C8E4F0A3EA47
:100ECC00F0A3E9F0A37405F07B017A0079B6121C4B
:100EDC00FB90228EE493FE740193AA06F99000C84D
:100EEC00E4F0A3EAF0A3E9F0A37405F07B017A0027
:100EFC0079BB121CFB902290E493FE740193AA061A
:100F0C00F99000C8E4F0A3EAF0A3E9F0A37405F0AB
:100F1C007B017A0079C0121CFB9000B5E0FF24BB6A
:100F2C00F582E43400F583E0FE74B62FF582E434E8
:100F3C0000F583E0FFB5061C9000B5E024C0F582F7
:100F4C00E43400F583EFF09000B5E024B6F582E4CC
:100F5C00340080529000B5E0FF24C0F582E43400E8
:100F6C00F583E0FD74B62FF582E43400F583E0FFE1
:100F7C009000B5B50519E024BBF582E43400F58387
:100F8C00EFF09000B5E024B6F582E434008017E071
:100F9C0024B6F582E43400F583EEF09000B5E0243D
:0A0FAC00BBF582E43400F583E0FF9A
:010FB6002218
:10199F0090011FE075F00AA4FF90011EE075F0643E
:1019AF00A42FFF900120E02F9000BCF0900116E0D3
:1019BF009000BDF090011DE09000BEF0900115E089
:1019CF009000BFF0900117E09000C0F090228CE4DF
:1019DF0093FE740193FF12231AE49000BBF0900062
:1019EF00BBE0FFC394035038EF25E0248CF582E46D
:1019FF003422F583E493FE740193AA06F99000C490
:101A0F00E4F0A3EAF0A3E9F0A37405F07B017A00F8
:101A1F0079BC121DF512208A9000BBE004F080BE45
:011A2F002294
:1013A600E4FF120EAC9000B0EFF07F01120EAC908D
:1013B60000B1EFF07F02120EAC9000B2EFF07F03A7
:1013C600120EAC9000B3EFF07F04120EAC9000B496
:1013D600EFF09000B0E0D3940074809481400374E1
:1013E60001F09000B1E0D394034002E4F09000B223
:1013F600E0D3940540037405F09000B3E0D3940164
:101406004002E4F09000B4E0D394014002E4F0908E
:1014160000B0E0FF75F0648490011EF0EF75F06493
:1014260084E5F075F00A84A3F09000B0E075F00A48
:1014360084900120E5F0F09000B1E0900116F09064
:1014460000B2E090011DF09000B3E0900115F0901D
:0714560000B4E0900117F063
:01145D00226C
:0C21010041012B0041012C0041012A008B
:10000E00E49000B0F01222FB9000B0E004F0E0C3E8
:04001E00940540F114
:0100220022BB
:10213B00E490012BF0A3E0B4010FA2B54003D380D0
:10214B0001C34005E490012CF090012CE0701120AC
:10215B00B50E12000E20B50890012B7401F0A3F000
:01216B002251
:0723050090012A7401F0228F
:101E4600E49000B0F0A3F0A3F0900101E06006E496
:101E560090012BF0229000FBE0B401279000FEE0F9
:101E660090011EF09000FFE090011FF0900100E04D
:101E7600900120F012199F9000FB7402F0E490008C
:0D1E8600FAF02290012BE0147003122305E6
:011E9300222C
:10210D004101160041011D05410115004101170056
:101226009000F7E0FEA3E0FFFDAC069000FCE014A2
:10123600B4070040030212E190124C75F003A4C5F6
:101246008325F0C5837302126102126A02127802C4
:1012560012860212970212AF0212C7EEC313FCEFF8
:1012660013FD80779000F7E0FEA3E0FF7C007D038E
:10127600801A9000F7E0FEA3E0FF7C007D06800C5C
:101286009000F7E0FEA3E0FF7C007D0B120E0080CD
:10129600469000F7E0FEA3E0FF7C007D03120E00FF
:1012A600EF25E0FDEE33FC80329000F7E0FEA3E090
:1012B600FF7C007D06120E007C007D05120DEE807F
:1012C600169000F7E0FEA3E0FF7C007D0B120E00F7
:0F12D6007C007D0A120DEEAC06AD07AE04AF052D
:0112E50022E6
:1012E6009000F7E0FEA3E0FFFDAC069000FCE014E2
:1012F600B4070040030213A190130C75F003A4C5B4
:101306008325F0C5837302132102135702136F025C
:10131600138702132A021338021346EEC313FCEF97
:1013260013FD80779000F7E0FEA3E0FF7C007D03CD
:10133600801A9000F7E0FEA3E0FF7C007D06800C9B
:101346009000F7E0FEA3E0FF7C007D0B120E00800C
:10135600469000F7E0FEA3E0FF7C007D03120E003E
:10136600EF25E0FDEE33FC80329000F7E0FEA3E0CF
:10137600FF7C007D06120E007C007D05120DEE80BE
:10138600169000F7E0FEA3E0FF7C007D0B120E0036
:0F1396007C007D0A120DEEAC06AD07AE04AF056C
:0113A5002225
:101BDD00900121E0B401047F0280539000FAE0FFF0
:101BED00604A9000FCE0700280449000FDE0701DA2
:101BFD00900102E07002A3E070379000FAE0FF124E
:101C0D001C3F9000FD7401F0121226801690010207
:101C1D00E07002A3E0701AFF121C3FE49000FDF08B
:101C2D001212E6900102EEF0A3EFF022E4FF121C77
:021C3D003F2244
:101C3F00EF14B407005051901C5475F003A4C583E2
:101C4F0025F0C58373021C69021C70021C77021CED
:101C5F007E021C85021C8C021C90D2CCD2CDC2B34A
:101C6F0022D2B3D2CDC2CC22D2B3D2CCC2CD22D2C9
:101C7F00CDC2B3C2CC22D2CCC2B3C2CD22D2B3809A
:0F1C8F0002C2B3C2CCC2CD22D2B3D2CCD2CD22AC
:08000300E49000FAF0D2B422EF
:03231E00C2CD220B
:07230C00D2B3D2CCD2CD22E6
:10208A0012231E7F1E7E0012222812230C7F237E1B
:10209A000012222812231E7F1E7E001222281223DB
:1020AA000C7F197E0012222812231E7F1E7E001228
:0C20BA00222812230C7F197E000222282D
:1020480000000000000008778F69FFFFFFFFFFFF17
:1020580007070707070708778F69080808080808A7
:1020680012345678EDCBA9871234567801FE01FE5A
:10207800FFFFFFFFFFFF0707070707070808080814
:02208800080846
:10211D004100FA014200F703E84100FC014100FDD6
:0D212D00004100F9014100FB0041010100EB
:101672007F147E00122228C2AF12216C1222401265
:1016820013A69001187401F012227BC281121EE18E
:10169200122313122269121C9ED2AFE49000F6F0BC
:1016A2009000F6E0B4011D9000B574FFF0A3742021
:1016B200F0A37478F07BFF7A2079687D087F60124E
:1016C2001719802B9000F6E070199000B374FFF0A8
:1016D200A37420F0A37478F07B107D077F60120F53
:1016E200B7800C9000F6E0B402057F03121867126F
:1016F2001BDD12002612213B90012BE06003121E1B
:1017020046900067E0640170971222CAE490006775
:07171200F0900033F0808924
:03000B00021908CF
:10190800C0E0C0F0C083C082C0D075D000C000C0A5
:1019180001C002C003C004C005C006C007758CFC26
:10192800758A66900125E0B40127D3900127E094D9
:1019380000900126E094004013A3E024FFF09001FA
:1019480026E034FFF012231EC2B4800512230CD205
:10195800B4900033E0600D900066E0FF14F0EF7083
:1019680003A304F0900102E07002A3E0600E90016E
:1019780003E024FFF0900102E034FFF0D007D00626
:10198800D005D004D003D002D001D000D0D0D0826E
:07199800D083D0F0D0E03253
:10109000E4FF90011FE075F00AA4FE90011EE075C8
:1010A000F064A42EFE900120E02EFE900000F0A33C
:1010B0007403F0900039E024FB60252402706190F5
:1010C00000027401F090012AE060089000037401AE
:1010D000F08005E4900003F09000327404F080404A
:1010E000900121E06401702D9000027410F0E4FF83
:1010F00074052FF582E43401F583E0FE74032FF5C7
:1011000082E43400F583EEF00FEFB410E390003288
:101110007413F0800BE4900002F09000327403F03E
:101120007B017A007900900032E0FD7C00121E9471
:10113000900032E02400F582E43400F583EFF0EE15
:10114000FF900032E02401F582E43400F583EFF0F3
:10115000900032E02402F07B017A007900E0FD7C0F
:0411600000021F79F1
:101F2E0090011FE075F00AA4FF90011EE075F064A9
:101F3E00A42FFF900120E02FFF900000F0A3740368
:101F4E00F0E4A3F07B017A0079007D03FC121E946D
:101F5E00900003EFF0EEA3F09000327405F07B01D9
:0B1F6E007A007900E0FD7C00021F7982
:10229C007B017A007934900033E0FD7C00021F79D9
:101D4F0090011FE075F00AA4FF90011EE075F0648A
:101D5F00A42FFF900120E02FFF900000F0A374103C
:101D6F00F0E4A3F0A3F0A3F0A37405F07B017A00D5
:101D7F0079007D067C00121E94900006EFF0EEA312
:101D8F00F09000327408F07B017A007900E0FD7C5E
:041D9F0000021F79A6
:102256001222ACE49000FBF090011EF0A3F0A3F074
:0322660002199FBB
:1003560090011FE075F00AA4FF90011EE075F0649D
:10036600A42FFF900120E02F9000B0F0E49000B59C
:10037600F0A3F0A3F0A3F0A3F0A3F0900034E060A4
:100386000302046FA3E06406600302046F90003367
:10039600E06408600302046FC2A1C2A17B017A0077
:1003A6007934E024FEFDE434FFFC121E949000B381
:1003B600EEF0A3EFF0E49000B3F0A3F0900033E08A
:1003C6002432F582E43400F583E0FF9000B1E4F0D6
:1003D600A3EFF0900033E02433F582E43400F58394
:1003E600E0FE9000B2E02400F09000B1E03EF0E0C4
:1003F600FEA3E0FFA3E06E7003A3E06F70689000B9
:1004060037E0700612225602061E900037E064019D
:1004160070459000FBE06402604C7401F090003976
:10042600E075F064849000FEF0900039E075F064A9
:1004360084E5F075F00A849000FFF0900039E075CD
:10044600F00A84900100E5F0F0E49000FCF09000E2
:10045600FA7402F002061E900037E0B41108122268
:10046600ACE49000FBF002061E9000B0E0FF9000A6
:1004760034E06F6003020622C2A1C2A17B017A00AA
:100486007934900033E024FEFDE434FFFC121E9420
:100496009000B3EEF0A3EFF0E49000B3F0A3F09079
:1004A6000033E02432F582E43400F583E0FF900067
:1004B600B1E4F0A3EFF0900033E02433F582E434A6
:1004C60000F583E0FE9000B2E02400F09000B1E079
:1004D6003EF0E0FEA3E0FFA3E06E7003A3E06F60D2
:1004E6000302061E900035E024FA604424F67003E9
:1004F6000205A4240D600302061E900038E0700B6E
:10050600A3E0B40106121F2E02061E900038E0700A
:1005160007A3E0B403028012900038E060030206ED
:100526001EA3E06405600302061E12109002061E5A
:10053600900033E06408600302061E12229C9000BD
:1005460037E070051222AC802B900037E064016022
:1005560004E0B40205120003801A900037E0B405E7
:1005660007E4900121F0800C900037E0B41005E418
:1005760090012AF0900037E06420600302061E9086
:100586000039E07007900101F002061E900039E084
:100596006401600302061E90010104F0807A900057
:1005A60033E024F5FF90003CE06F706CE0D39414C8
:1005B6005066121D4F90003AE0C41354079000FA9B
:1005C600F090003AE0131313540314601514601DE1
:1005D600146026240370229000F7E4F0A37450F010
:1005E60080219000F7E4F0A374A0F080169000F745
:1005F6007401F0A37440F0800A9000F77402F0A32F
:100606007480F090003AE054079000FCF0E490000B
:10061600FDF0900102F0A3F0D2A1D2A1E49000B8BF
:10062600F09000B8E0FFC39432501474342FF58272
:10063600E43400F583E4F09000B8E004F080E2E4EE
:0A064600900033F0900067F07F0190
:010650002287
:0D22CA00900033E0C3940640031203562237
:10220D00759850538EBF538EFE53890F758BE8759D
:0B221D008DFFC2ABD28ED2ACD2AF223C
:10227B0012220DE4900033F0900067F0900066F0AE
:01228B002230
:03002300021FC1F8
:101FC100C0E0C083C082C0D075D00830982DC298BF
:101FD100900033E0C394325022900067E0640160C6
:101FE1001A900033E0FF04F074342FF582E43400DA
:101FF100F583E599F09000667402F0D0D0D082D0DC
:0420010083D0E03276
:0B22F0002099FD8F993099FDC29922C2
:0B1F79009000BBEBF0A3EAF0A3E9F03E
:101F8400D281C2A10000E4A3F09000BEE0C39DE4AE
:101F94009C50219000BBE0FBA3E0FAA3E0F9A3E08E
:101FA400F582758300120D8DFF1222F09000BEE0C1
:0C1FB40004F080D50000C281D2A1000022
:011FC00022FE
:10224000538E7F5389F0438901758A66758CFCC271
:062250008DD28CD2A92200
:0922FB00007F0B7EBEDEFEDFFC5D
:0123040022B6
:10222800AD07AC06D3ED9400EC9400400A1222FBF3
:08223800ED1D70F01C80ED2289
:10216C0043940C7591007592FFC282D283D290C2B7
:10217C0091C292C293C294C295C296C29712230C7A
:0D218C00D2B4E4900104F0538EDFF59722E9
:101C9E00E4900121F0C2A1C2A17F03121C3F7FF488
:101CAE007E011222287F02121C3F7FF47E01122237
:101CBE00287F01121C3F7FF47E011222287F04121E
:101CCE001C3F7FF47E011222287F05121C3F7FF4F9
:101CDE007E011222287F06121C3F7FF47E01122203
:0D1CEE0028E4FF121C3FD2A1D2A10222ACBB
:1022AC00E49000FAF0D2B490012AF0900121F022CF
:101719009000B0EFF0A3EDF0A3EBF0A3EAF0A3E99A
:01172900F0CF
:10172A007A017905121A30EF7067900129F0900159
:10173A0024E060030217BF7B017A01790512116464
:10174A00EF70727B017A01790512145EEF70669070
:10175A0000B0E0FFA3E0FD9000CB7401F0A3740198
:10176A00F0A37405F09000B51215C4EF7047121576
:10177A0012EF7041121512EF703B121512EF70033F
:10178A00121DA39001257401F0A3E4F0A37464F080
:10179A0022900129E004F0E0B40109121EE11223AB
:1017AA0013122269900129E0D3940540087405F0C8
:0517BA00E4900124F0A1
:0117BF002207
:051867009000B0EFF05D
:10186C007A0079B1121A30EF706D900122F090016C
:10187C0028E060030219077B017A0079B112116428
:10188C00EF70787B017A0079B112145EEF706C9076
:10189C0000B0E0FD9000CB7401F0A37400F0A374D1
:1018AC00B1F07BFF7A2079787F601215CCEF704B0A
:1018BC009000B0E0FF7BFF7A207948121520EF7082
:1018CC003AEF7037121DA39001287401F090012695
:1018DC00E4F0A37464F022900122E004F0E0B4017F
:1018EC0009121EE1122313122269900122E0D394F3
:0B18FC000540087405F0E4900128F09E
:0119070022BD
:0B0FB7009000B0EFF0A3EDF0A3EBF012
:100FC2007B017A0079B67F52121A34EF6003021065
:100FD2006B900123F0900125E0600302108F7B01EA
:100FE2007A0079B6121164EF600302108F7B017AE6
:100FF2000079B612145EEF600302108F9000B0E029
:10100200FFA3E0FD9000CB7401F0A37400F0A37481
:10101200B6F09000B31215C4EF70729000B1E0FF09
:101022007B017A0079B6121AC1EF7061FF9000B2AB
:10103200E0FEEFC39E501B74B62FF582E43400F538
:1010420083E0FE74052FF582E43401F583EEF00FA0
:1010520080DB121DA39001257401F0900121F09014
:101062000126E4F0A37464F022900123E004F0E08E
:10107200B40109121EE1122313122269900123E026
:0D108200D3940540087405F0E4900125F0BA
:01108F00223E
:041A30007B017F5265
:0E1A34009000C6EFF0A3EBF0A3EAF0A3E9F0F8
:101A42007D087F081222BC7D077F0D1220C67D0310
:101A52007F141222D79000C6E09000CCF09000E7ED
:101A62007401F0A3F0A37400F0A374CCF0A374018A
:101A7200F0A37400F0A374CAF07A0079CC12067154
:101A8200EF70399000CAE07004A3E06410702D90EA
:101A920000CCE0FE9000C7E0FBA3E0FAA3E0F9EE81
:101AA200120DBA9000CDE0FE9000C7E0FBA3E0FA71
:0E1AB200A3E0F9900001EE120DCC80027FFE41
:011AC0002203
:0B1164009000C6EBF0A3EAF0A3E9F056
:10116F00E49000CAF07D087F081222BCE4FD7F0DD9
:10117F001220C67D807F0E1222BC9000CD7493F09A
:10118F00A37420F09000E77402F07B01A314F0A386
:10119F007400F0A374CDF0A3EBF0A37400F0A3746C
:1011AF00CBF07A0079CD7F0C1206759000C9EFF065
:1011BF007058FC74CD2CF582E43400F583E0FE907A
:1011CF0000C6E0FBA3E0FAA3E0F9AF048F827583BA
:1011DF0000EE120DCC9000CAE0FE74CD2FF582E424
:1011EF003400F583E0FDEE6D9000CAF00CECB40412
:1011FF00C274CD2CF582E43400F583E0FF9000CA71
:10120F00E06F60069000C974FEF07D807F0E1222A1
:06121F00D79000C9E0FFBA
:0112250022A6
:0B145E009000C6EBF0A3EAF0A3E9F059
:101469009000CB7493F0A37470F0E49000D1F0FC79
:101479009000C6E0FBA3E0FAA3E0F9AF048F827500
:101489008300120D8DFE74CD2FF582E43400F583AF
:10149900EEF09000D1E0FE8F82758300120D8DFD74
:1014A900EE6D9000D1F00CECB404C59000E174012C
:1014B900F0A37400F0A374D2F07B017A0079CB7D9C
:1014C900071217C67D087F081222BC9000E774092D
:1014D900F0A37401F0A37400F0A374CBF0A374011A
:1014E900F0A37400F0A374C9F07B017A0079CB7F73
:1014F9000C120675EF700F9000C9E07004A3E06448
:08150900187003FF80027FFE51
:0115110022B7
:0815C400E0FBA3E0FAA3E0F94B
:0B15CC009000C8EBF0A3EAF0A3E9F0E8
:1015D7009000D1EFF0A3EDF0E4FF9000C8E0FBA38B
:1015E700E0FAA3E0F98F82758300120D8DFE74D3A4
:1015F7002FF582E43400F583EEF00FEFB406DBE459
:10160700FF9000CBE0FBA3E0FAA3E0F98F8275839C
:1016170000120D8DFE74D92FF582E43400F583EEA8
:10162700F00FEFB406DB9000E7740CF0A37401F041
:10163700A37400F0A374D1F0A37401F0A37400F0B5
:10164700A374CFF07B017A0079D17F0E12067590D3
:1016570000CEEFF070097F0812200BEF20E3069011
:0A16670000CE74FEF09000CEE0FF0C
:011671002256
:0B1AC1009000C6EBF0A3EAF0A3E9F0F0
:101ACC009000CB7430F0A3EFF09000E17401F0A320
:101ADC007400F0A374CDF07B017A0079CB7D0212F7
:101AEC0017C69000E77404F0A37401F0A37400F01F
:101AFC00A374CBF0A37401F0A37400F0A374C9F029
:101B0C007B017A0079CB7F0C120675EF7034900054
:101B1C00C9E07004A3E064907028FE74CB2EF582AB
:101B2C00E43400F583E0FD9000C6E0FBA3E0FAA3EB
:101B3C00E0F98E82758300ED120DCC0EEEB410DB45
:041B4C0080027FFE96
:011B50002272
:0E1512009000B1E0FFA3E0FBA3E0FAA3E0F934
:0B1520009000C1EBF0A3EAF0A3E9F09B
:10152B009000C674A0F0A3EFF09000E17401F0A35B
:10153B007400F0A374C8F07D021217C07404120675
:10154B0051EF70169000C4E07004A3E06404700ABD
:10155B009000C6E0540F640A60027FFEEF7059FEE4
:10156B009000C1E0FBA3E0FAA3E0F98E8275830043
:10157B00120D8DFD74C62EF582E43400F583EDF06B
:10158B000EEEB410DB9000E17401F0A37400F0A335
:10159B0074D6F07D101217C07412120651EF70162C
:1015AB009000C4E07004A3E06404700A9000C6E0ED
:0815BB00540F640A60027FFE78
:0115C3002205
:101DA3009000C97450F0E4A3F07B019000E104F0CB
:101DB300A37400F0A374CBF07A0079C97D021217E3
:101DC300C69000E77404F0A37401F0A37400F0A3B9
:101DD30074C9F0A37401F0A37400F0A374C7F07B7B
:101DE300017A0079C97F0C1206759000C6EFF07F67
:011DF30000EF
:011DF40022CC
:0617C0007B017A0079C6EE
:0E17C6009000DDEBF0A3EAF0A3E9F0A3EDF054
:1017D4007D047F051222BCE4FD7F011220C67D80BA
:1017E4007F0A1222D7E49000E4F09000E0E0FF903A
:1017F40000E4E0FEC39F50219000DDE0FBA3E0FA8B
:10180400A3E0F98E82758300120D8DFD7F091220ED
:10181400C69000E4E004F080D17D037F011220C66D
:101824009000E474FFF07F0512200B9000E4E014B4
:10183400F0E06004EF30E2EE7F2212200B9000E132
:10184400E0FBA3E0FAA3E0F9EF120DBA7F21122026
:101854000B9000E1E0FBA3E0FAA3E0F9900001EFB4
:03186400020DCCA6
:101EE100D2A500C2A500D2A57F017E001222287DC5
:101EF1000F7F011220C6007D3D7F111220C67D1E7D
:101F01007F2D1220C6E4FD7F2C1220C67D8D7F2AF5
:101F11001220C67D3E7F2B1220C67D407F151220E8
:0C1F2100C67F2D12200BEFB41EFC7F00C9
:011F2D002291
:100651009000E7F0A37401F0A37400F0A374C6F056
:10066100A37401F0A37400F0A374C4F07A0079C6F6
:040671007B017F0C7E
:100675009000E4EBF0A3EAF0A3E9F09000E3EFF0DB
:100685009000EE74FEF0E4A3F0A3F0EF24F4601004
:1006950024FE70169000EF7412F0A37410F0800A17
:1006A5009000EF7477F0A37430F09000EFE0448091
:1006B500FD7F021220C67D807F041222BCE4FD7FEF
:1006C500011220C67D807F0A1222D7E49000F2F045
:1006D500A3F09000E7E0FF9000F2E0FCA3E0FDC38B
:1006E5009FEC940050289000E4E0FBA3E0FAA3E01F
:1006F500F98D828C83120D8DFD7F091220C6900025
:10070500F3E004F070CC9000F2E004F080C49000B7
:10071500E3E0FD7F011220C69000E3E0B40C077D05
:10072500807F0D1222D79000F27402F0A37458F066
:100735007F0412200B9000F1EFF09000F3E024FF0E
:10074500F09000F2E034FFF0E07002A3E060119059
:1007550000F1E0FF20E0099000F0E0FEEF5E60D0E0
:100765007D807F0D1222BC9000F2E07002A3E07044
:10077500030208627F0612200BEF541B6003020878
:100785005C9000EEF0A3E0FF9000F1E05F30E00642
:100795009000EE74FFF09000E3E0640C6003020843
:1007A500627F0A12200B9000F1EFF07F0C12200BF4
:1007B500EF5407FD60299000F1E024FFFFE434FFCA
:1007C500FEEF7803C333CE33CED8F97C002DFFEC92
:1007D5003EF99000EBE0FBA3E0FAA3E0C980169098
:1007E50000F1E075F008A4FF9000EBE0FBA3E0FA50
:1007F500A3E0F9E5F08FF0120E819000F1E07002B0
:1008050004F09000F1E0D3941240037412F0E490E8
:1008150000F2F0A3F09000F1E0FFC39000F3E09F39
:100825009000F2E0940050357F0912200B9000E80B
:10083500E0FBA3E0FAA3E0F99000F2E0FCA3E0F509
:10084500828C83EF120DCC9000F3E004F070C6901B
:1008550000F2E004F080BE9000EE74FEF07D807F33
:100865000C1222D7E4FD7F011220C69000EEE0FFB6
:010875002260
:102269007F1412200BEF540370077D037F14122291
:01227900D78D
:01227A002241
:072313007D037F140222BCD0
:1020C600C2A6C2A4EF25E0547EFF7E08EF30E703E8
:1020D600D38001C392A7D2A6EF25E0FFC2A6DEEC0D
:1020E6007E08ED30E703D38001C392A7D2A6ED2583
:0A20F600E0FDC2A6DEECD2A4D2A6E3
:0121000022BC
:06200500AC07AB05E4FE90
:10200B00E4FEC2A6C2A4EF25E0547E4480FF7D0807
:10201B00EF30E703D38001C392A7D2A6EF25E0FFF1
:10202B00C2A6DDEC7D08D2A6EE25E0FEA280E4334D
:0C203B004EFEC2A6DDF0D2A4D2A6AF0675
:012047002276
:0D22D700122005AE07AF04EB4EFD0220C63D
:0E22BC00122005AE07AF04EBF45EFD0220C653
:100A760090006B75F007EF120EA0EE75F007A42537
:100A860083F583E0FDA3E09000B0CDF0A3EDF090F8
:100A9600006D75F007EF120EA0EE75F007A4258322
:100AA600F583E014B407004003020BEC900AC0750E
:100AB600F003A4C58325F0C58373020AD5020AF69E
:100AC600020B1C020B42020B68020B92020BBE9039
:100AD600006B75F007EF120EA0EE75F007A42583E4
:100AE600F583E0C313FFA3E0139000B0CF020BE839
:100AF60090006B75F007EF120EA0EE75F007A425B7
:100B060083F583E0FEA3E0FF7C007D03120E0090D8
:100B160000B0EE020BE890006B75F007EF120EA026
:100B2600EE75F007A42583F583E0FEA3E0FF7C00C5
:100B36007D06120E009000B0EE020BE890006B7579
:100B4600F007EF120EA0EE75F007A42583F583E0FB
:100B5600FEA3E0FF7C007D0B120E009000B0EE02BB
:100B66000BE890006B75F007EF120EA0EE75F0071C
:100B7600A42583F583E0FEA3E0FF7C007D03120E2F
:100B860000EF25E0FFEE339000B0805690006B75C5
:100B9600F007EF120EA0EE75F007A42583F583E0AB
:100BA600FEA3E0FF7C007D06120E007C007D051290
:100BB6000DEE9000B0EE802A90006B75F007EF12F4
:100BC6000EA0EE75F007A42583F583E0FEA3E0FFF3
:100BD6007C007D0B120E007C007D0A120DEE90004B
:0E0BE600B0EEF0A3EFF09000B0E0FEA3E0FF51
:010BF40022DE
:100BF50090006B75F007EF120EA0EE75F007A425B7
:100C050083F583E0FDA3E09000B0CDF0A3EDF09077
:100C1500006D75F007EF120EA0EE75F007A42583A1
:100C2500F583E014B407004003020D6B900C3F758B
:100C3500F003A4C58325F0C58373020C54020CE7A9
:100C4500020D11020D3D020C75020C9B020CC190A8
:100C5500006B75F007EF120EA0EE75F007A4258363
:100C6500F583E0C313FFA3E0139000B0CF020D6737
:100C750090006B75F007EF120EA0EE75F007A42536
:100C850083F583E0FEA3E0FF7C007D03120E009058
:100C950000B0EE020D6790006B75F007EF120EA025
:100CA500EE75F007A42583F583E0FEA3E0FF7C0045
:100CB5007D06120E009000B0EE020D6790006B7578
:100CC500F007EF120EA0EE75F007A42583F583E07B
:100CD500FEA3E0FF7C007D0B120E009000B0EE023B
:100CE5000D6790006B75F007EF120EA0EE75F0071B
:100CF500A42583F583E0FEA3E0FF7C007D03120EAF
:100D050000EF25E0FFEE339000B0805690006B7544
:100D1500F007EF120EA0EE75F007A42583F583E02A
:100D2500FEA3E0FF7C007D06120E007C007D05120F
:100D35000DEE9000B0EE802A90006B75F007EF1273
:100D45000EA0EE75F007A42583F583E0FEA3E0FF72
:100D55007C007D0B120E007C007D0A120DEE9000CA
:0E0D6500B0EEF0A3EFF09000B0E0FEA3E0FFD0
:010D7300225D
:1000260090006AE06401704690006DE07004D28230
:10003600803E90006EE07017A3E07002A3E070307F
:10004600D28290006E04F0E4FFFE120A76801590CC
:10005600006FE07002A3E07017C28290006EF0FF9E
:10006600FE120BF590006FEEF0A3EFF08002C28255
:10007600900071E064017047900074E07004D283D0
:10008600803F900075E07017A3E07002A3E0703126
:10009600D28390007504F0FF7E00120A76801690D7
:1000A6000076E07002A3E07018C283900075F07FBE
:1000B60001FE120BF5900076EEF0A3EFF08002C27F
:1000C60083900078E06401704890007BE07004D271
:1000D60090804090007CE07018A3E07002A3E0706E
:1000E60032D29090007C04F07F027E00120A768065
:1000F6001690007DE07002A3E07018C29090007C1C
:10010600F07F02FE120BF590007DEEF0A3EFF0807B
:1001160002C29090007FE064017048900082E07017
:1001260004D2918040900083E07018A3E07002A38F
:10013600E07032D29190008304F07F037E00120AB1
:10014600768016900084E07002A3E07018C2919049
:100156000083F07F03FE120BF5900084EEF0A3EF10
:10016600F08002C291900086E06401704890008998
:10017600E07004D292804090008AE07018A3E0708C
:1001860002A3E07032D29290008A04F07F047E00CF
:10019600120A76801690008BE07002A3E07018C2F7
:1001A6009290008AF07F04FE120BF590008BEEF021
:1001B600A3EFF08002C29290008DE0640170489037
:1001C6000090E07004D2938040900091E07018A3F4
:1001D600E07002A3E07032D29390009104F07F05A4
:1001E6007E00120A768016900092E07002A3E070FC
:1001F60018C293900091F07F05FE120BF5900092C5
:10020600EEF0A3EFF08002C293900094E0640170D8
:1002160048900097E07004D2948040900098E07077
:1002260018A3E07002A3E07032D29490009804F014
:100236007F067E00120A768016900099E07002A36F
:10024600E07018C294900098F07F06FE120BF590AD
:100256000099EEF0A3EFF08002C29490009BE06458
:1002660001704890009EE07004D295804090009FF7
:10027600E07018A3E07002A3E07032D29590009F60
:1002860004F07F077E00120A7680169000A0E070C8
:1002960002A3E07018C29590009FF07F07FE120B34
:1002A600F59000A0EEF0A3EFF08002C2959000A2B8
:1002B600E0640170489000A5E07004D296804090FA
:1002C60000A6E07018A3E07002A3E07032D2969008
:1002D60000A604F07F087E00120A7680169000A71A
:1002E600E07002A3E07018C2969000A6F07F08FEA8
:1002F600120BF59000A7EEF0A3EFF08002C29690E5
:1003060000A9E0640170469000ACE07003D2972229
:100316009000ADE07018A3E07002A3E07031D297B0
:100326009000AD04F07F097E00120A7680169000D8
:10033600AEE07002A3E07017C2979000ADF07F099F
:10034600FE120BF59000AEEEF0A3EFF022C297225C
:101B5D00021672E493A3F8E493A34003F68001F216
:101B6D0008DFF48029E493A3F85407240CC8C33389
:101B7D00C4540F4420C8834004F456800146F6DF58
:101B8D00E4800B0102040810204080902101E47EC6
:101B9D00019360BCA3FF543F30E509541FFEE4934D
:101BAD00A360010ECF54C025E060A840B8E493A314
:101BBD00FAE493A3F8E493A3C8C582C8CAC583CA3F
:101BCD00F0A3C8C582C8CAC583CADFE9DEE780BEF7
:01213A0000A4
:100D7400BB010689828A83E0225002E722BBFE027D
:090D8400E32289828A83E49322B0
:100D8D00BB010CE58229F582E5833AF583E022501B
:100D9D0006E92582F8E622BBFE06E92582F8E22265
:0D0DAD00E58229F582E5833AF583E493227F
:100DBA00BB010689828A83F0225002F722BBFE0118
:020DCA00F32212
:100DCC00F8BB010DE58229F582E5833AF583E8F05D
:100DDC00225006E92582C8F622BBFE05E92582C809
:020DEC00F222F1
:100DEE00EF8DF0A4A8F0CF8CF0A428CE8DF0A42E19
:020DFE00FE22D3
:100E0000BC000BBE0029EF8DF084FFADF022E4CCD6
:100E1000F875F008EF2FFFEE33FEEC33FCEE9DEC9F
:100E2000984005FCEE9DFE0FD5F0E9E4CEFD22EDE5
:100E3000F8F5F0EE8420D21CFEADF075F008EF2F2F
:100E4000FFED33FD4007985006D5F0F222C398FD20
:050E50000FD5F0EA22BD
:100E5500C5F0F8A3E028F0C5F0F8E5821582700228
:060E65001583E038F022C5
:100E6B00A3F8E0C5F025F0F0E5821582700215833A
:060E7B00E0C838F0E82297
:100E8100BB010A89828A83F0E5F0A3F0225006F7BC
:0F0E910009A7F01922BBFE06F3E5F009F31922B9
:0C0EA000A42582F582E5F03583F583225D
:00000001FF
