:101E7600000002000400060008000A000C000E0024
:101CF100E4F5C275C78375C501AF01900161EAF0D2
:101D0100A3EFF0900161E0F5C3A3E0F5C475C65AF5
:091D110075C6A500121EB2AFC296
:011D1A0022A6
:101D1B0075C78375C502AF01900161EAF0A3EFF0BF
:101D2B00900161E0F5C3A3E0F5C4AF058FC275C6A2
:081D3B005A75C6A500021EB294
:101D8B0075C78375C503900159EEF0A3EFF0900171
:101D9B0059E0F5C3A3E0F5C475C65A75C6A5000294
:021DAB001EB266
:0C1EB200E4F5C7F5C5F5C6F5C3F5C4227C
:0B1A0D00900159EBF0A3EAF0A3E9F010
:101A1800E4900160F090015FE0FFA3E0C39F5038BD
:101A280090015CE0FBA3E0FAA3E0F9121CF190013D
:101A380059E0FBA3E0FAA3E0F9900160E0F58275B4
:101A48008300EF12103290015DE475F0011210BBB3
:081A5800900160E004F080BD84
:011A60002263
:0B1AB500900159EBF0A3EAF0A3E9F068
:101AC000E4900160F090015FE0FFA3E0FEC39F504F
:101AD00034900159E0FBA3E0FAA3E0F98E8275830C
:101AE00000121005FD90015CE0FBA3E0FAA3E0F911
:101AF000121D1B90015DE475F0011210BB90016096
:051B0000E004F080C0CC
:011B050022BD
:071EBE00E493FE740193FFA1
:041EC500121D8B223D
:100CF700900149EFF0C3940540037FFF22901E76D1
:100D0700E493FE740193AA06F990015CE4F0A3EA68
:100D1700F0A3E9F0A37405F07B017A01794A121A6E
:100D27000D901E78E493FE740193AA06F990015C76
:100D3700E4F0A3EAF0A3E9F0A37405F07B017A01DC
:100D4700794F121A0D901E7AE493FE740193AA0646
:100D5700F990015CE4F0A3EAF0A3E9F0A37405F0CD
:100D67007B017A017954121A0D900149E0FF244F53
:100D7700F582E43401F583E0FE744A2FF582E4340A
:100D870001F583E0FF6E705A900149E02454F58223
:100D9700E43401F583E0FDEE6D6039900149E0240C
:100DA70054F582E43401F583EFF0901E7A121EBEEB
:100DB700901E7AE493FE740193AA06F990015CE40D
:100DC700F0A3EAF0A3E9F0A37405F07B017A0179B7
:100DD70054121AB5900149E0244AF582E43401021D
:100DE7000E9C900149E0FF2454F582E43401F58319
:100DF700E0FE744A2FF582E43401F583E0FF6E903C
:100E070001497043E0244FF582E43401F583EFF0A4
:100E1700901E78121EBE901E78E493FE740193AA6A
:100E270006F990015CE4F0A3EAF0A3E9F0A37405E6
:100E3700F07B017A01794F121AB5900149E0244AF3
:100E4700F582E43401804EE0FF244FF582E434015B
:100E5700F583E0FE744A2FF582E43401F583EEF062
:100E6700901E76121EBE901E76E493FE740193AA1E
:100E770006F990015CE4F0A3EAF0A3E9F0A3740596
:100E8700F07B017A01794A121AB5900149E0244FA3
:090E9700F582E43401F583E0FF6B
:010EA000222F
:1014F000900142E075F00AA4FF900141E075F064AC
:10150000A42FFF900143E02F900151F090010EE0D5
:10151000900152F0900140E0900153F090010DE0F5
:10152000900154F090010FE0900155F0E4900150CB
:10153000F0900150E0FFC394035047EF25E024767C
:10154000F582E4341EF583121EBE900150E025E0C2
:101550002476F582E4341EF583E493FE740193AAA5
:1015600006F990015CE4F0A3EAF0A3E9F0A37405A6
:10157000F07B017A017951121AB5900150E004F024
:0215800080AF3A
:011582002246
:10143800E4FF120CF7900144EFF07F01120CF790D3
:101448000145EFF07F02120CF7900146EFF07F03A1
:10145800120CF7900147EFF07F04120CF790014847
:10146800EFF0900144E0D3940074809481400374B9
:1014780001F0900145E0D394034002E4F090014666
:10148800E0D3940540037405F0900147E0D394013C
:101498004002E4F0900148E0D394014002E4F09067
:1014A8000144E0FF75F06484900141F0EF75F06449
:1014B80084E5F075F00A84A3F0900144E075F00A21
:1014C80084900143E5F0F0900145E090010EF09022
:1014D8000146E0900140F0900147E090010DF09046
:0714E8000148E090010FF044
:0114EF0022DA
:10160F00C0F9A4B0999282F880908883C6A1868E83
:10161F00FF8BFFF1FFC7FFABA38CFFFF9287C1E3E7
:10162F00FF89FFFFBFDFFEFDFBF7EF8FBFBF7FFF20
:10163F00C0F9A4B0999282F88090407924301912A1
:10164F00FF8883C6A1868EC289F9E1BFC78FABA37E
:10165F008C98AF9287C1E39CFF91A400FF027800A2
:10166F00108883A7A1868EC289FBE1BFC78FABA36A
:10167F008C98AF9287C1E39CFF91A4BFBFBFBFBF40
:10168F0041010E004101400541010D0041010F00D4
:0E1E9600D2A7C2A5C2A6C2A7E490013FF022C7
:101D430090013FE0FF7007C296D2B4D29422EFB461
:101D53000107D296C2B4D29422EFB40206D296D22D
:031D6300B4C29473
:011D6600225A
:101DAD00C2A6E4FEEF30E704D2C48002C2C4C2A5CD
:101DBD0000D2A5EF25E0FF0EEEB408E8121D43D2C8
:011DCD00A66F
:011DCE0022F2
:1019B800900102E0604EE4900102F090013FE0FFE8
:1019C80025E0240FF8E664017025EF25E0240EF8E1
:1019D800E6C394804008E025E0240EF8767F900165
:1019E8003FE025E0240EF8E690160F93FD80027D77
:1019F800FFAF05121DAD90013FE004F0E0C3940372
:041A08004002E4F0C4
:011A0C0022B7
:101960009000D3E0FEA3E0FFFDAC069000DCE014A5
:1019700024FC500A600A1460161460248035802FFD
:101980009000D4E025E0FD9000D3E033FC8024906B
:1019900000D3E0FEA3E0FF7C007D05121054800F11
:1019A0009000D3E0FEA3E0FF7C007D0A121054AC4F
:0719B00006AD07AE04AF0510
:0119B700220D
:1018AA009000D3E0FEA3E0FFFDAC069000DCE0244C
:1018BA00FE601014601C14602A240324F95002806C
:1018CA0035802F9000D4E025E0FD9000D3E033FC72
:1018DA0080249000D3E0FEA3E0FF7C007D05121077
:1018EA0054800F9000D3E0FEA3E0FF7C007D0A1233
:0A18FA001054AC06AD07AE04AF05B4
:0119040022C0
:10136E0090011175F007EF1210E7EE75F007A42546
:10137E0083F583E0FCA3E0FD900144ECF0A3EDF0D7
:10138E0090011375F007EF1210E7EE75F007A42524
:10139E0083F583E01424FC500A6012146037146045
:1013AE0059807E900144ECF0A3EDF0807490011111
:1013BE0075F007EF1210E7EE75F007A42583F5839D
:1013CE00A3E025E0FF0582D5820215831582E03366
:1013DE00900144804890011175F007EF1210E7EE6E
:1013EE0075F007A42583F583E0FEA3E0FF7C007D66
:1013FE0005121054900144EE802390011175F007F0
:10140E00EF1210E7EE75F007A42583F583E0FEA337
:10141E00E0FF7C007D0A121054900144EEF0A3EF21
:09142E00F0900144E0FEA3E0FF90
:011437002292
:1011D50090011175F007EF1210E7EE75F007A425E1
:1011E50083F583E0FCA3E0FD900144ECF0A3EDF072
:1011F50090011375F007EF1210E7EE75F007A425BF
:1012050083F583E024FE601814603D14605F2403B9
:1012150024F95002807E900144ECF0A3EDF0807437
:1012250090011175F007EF1210E7EE75F007A42590
:1012350083F583A3E025E0FF0582D582021583159A
:1012450082E033900144804890011175F007EF1258
:1012550010E7EE75F007A42583F583E0FEA3E0FF14
:101265007C007D05121054900144EE8023900111FD
:1012750075F007EF1210E7EE75F007A42583F583E7
:10128500E0FEA3E0FF7C007D0A121054900144EEBD
:0C129500F0A3EFF0900144E0FEA3E0FFA6
:0112A100222A
:10178B009000D1E0B401047F0280539000D8E0FFB9
:10179B00604A9000DCE0700280449000DDE0701D38
:1017AB00900100E07002A3E070379000D8E0FF12C8
:1017BB0017ED9000DD7401F0121960801690010096
:1017CB00E07002A3E0701AFF1217EDE49000DDF059
:1017DB001218AA900100EEF0A3EFF022E4FF12170B
:0217EB00ED22ED
:1008DF00900110E06401704C900113E07006D28219
:1008EF00D2A28044900114E07019A3E07002A3E03B
:1008FF007036D282D2A290011404F0E4FFFE1213DC
:10090F006E8017900115E07002A3E0701BC282C2C7
:10091F00A2900114F0FFFE1211D5900115EEF0A375
:10092F00EFF08004C282C2A2900117E06401704D03
:10093F0090011AE07006D280D2B6804590011BE07C
:10094F007019A3E07002A3E07037D280D2B6900185
:10095F001B04F0FF7E0012136E801890011CE070D4
:10096F0002A3E0701CC280C2B690011BF07F01FE93
:10097F001211D590011CEEF0A3EFF08004C280C2DB
:10098F00B690011EE06401704E900121E07006D216
:10099F0081D2A38046900122E0701AA3E07002A3D7
:1009AF00E07038D281D2A390012204F07F027E0042
:1009BF0012136E8018900123E07002A3E0701CC226
:1009CF0081C2A3900122F07F02FE1211D590012364
:1009DF00EEF0A3EFF08004C281C2A3900125E06482
:1009EF0001704E900128E07006D283D2B7804690F6
:1009FF000129E0701AA3E07002A3E07038D283D20D
:100A0F00B790012904F07F037E0012136E801890B7
:100A1F00012AE07002A3E0701CC283C2B7900129C3
:100A2F00F07F03FE1211D590012AEEF0A3EFF080B4
:100A3F0004C283C2B790012CE06401704E90012F65
:100A4F00E07006D290D2A18046900130E0701AA3D8
:100A5F00E07002A3E07038D290D2A190013004F080
:100A6F007F047E0012136E8018900131E07002A394
:100A7F00E0701CC290C2A1900130F07F04FE1211F1
:100A8F00D5900131EEF0A3EFF08004C290C2A19097
:100A9F000133E06401704C900136E07005D291D2C1
:100AAF009722900137E0701AA3E07002A3E070372D
:100ABF00D291D29790013704F07F057E0012136E0A
:100ACF008018900138E07002A3E0701BC291C297AA
:100ADF00900137F07F05FE1211D5900138EEF0A38B
:080AEF00EFF022C291C2972230
:1017ED00EF14B40700505190180275F003A4C5838F
:1017FD0025F0C5837302181702181E02182502184A
:10180D002C02183302183A02183ED285D286C284B1
:10181D0022D284D286C28522D284D285C28622D299
:10182D0086C284C28522D285C284C28622D2848099
:0F183D0002C284C285C28622D284D285D286227C
:101DCF00E49000E2F0FFEF25E0240EF8E4F6EF25B3
:101DDF00E0240FF8E4F60FEFB403EBE49000D8F033
:011DEF0022D1
:101BE700E49000E2F0FFEF25E0240EF8E4F6EF259D
:101BF700E0240FF8E4F60FEFB403EBE49000D8F01D
:101C0700900163F09000D1F090009DF0900110F0EA
:101C1700900117F090011EF0900125F090012CF033
:041C2700900133F005
:011C2B002296
:0A1EC900563C3225262728292A243A
:10169F004100E0004100F7004200DA00004100E1A4
:1016AF000042010500004100D7004100D80142006F
:1016BF00D303E84100DC014100DD004100D50141C9
:1016CF0000D9004100DF004100DE0042010B0000A5
:1016DF00420107000042010900004100D60042010B
:1016EF000300004200FB00004200FD00004100FF2C
:0116FF0000EA
:0D1EA4007F547E03EF1F70011EEF4E70F79C
:011EB100220E
:081DF000E07812F67FE87E03A3
:101DF800AD07AC06D3ED9400EC9400400A121EA483
:081E0800ED1D70F01C80ED22BD
:101C9100E4F591759280F59575960EF5B175B2C022
:101CA10075BB70C282C280C281C283C290C291C21E
:101CB100A2C2B6C2A3C2B7C2A1C297900102F022CA
:101E2E00E58954F04401F589758CF8758ACCD2A9F0
:031E3E00D28C2221
:03000B000212A23C
:1012A200C0E0C0F0C083C082C0D075D000C000C012
:0D12B20001C002C003C004C005C006C00793
:1012BF00E4758CF8758ACC90010204F0900033E04D
:1012CF00600D900066E0FD14F0ED7003A304F09044
:1012DF00009DE060119000D0E0FD14F0ED7007A3C9
:1012EF0004F09000F7F0900100E07002A3E0600EB0
:1012FF00900101E024FFF0900100E034FFF07E0048
:10130F007F0090011575F007EF1210E7EE75F007EB
:10131F00A42583F583E0FCA3E04C601A90011575BA
:10132F00F007EF1210E7EE75F007A42583F583742D
:10133F00FFF5F01210BB0FBF00010EEF64064E70E9
:04134F00C11219B8F6
:10135300D007D006D005D004D003D002D001D000EE
:0B136300D0D0D082D083D0F0D0E03298
:1006A300E4FFFEFDFCEF25E0240FF8E4F60FBF00A6
:1006B300010EEF64034E70ED9000D1E0640160031E
:1006C3000207CDFC7D0290009DE024FFFFE434FF90
:1006D300FEC3EE6480948050030208DEEC648094D1
:1006E3008050030208DE749E2FF58274003EF5836A
:1006F300E0C39430401F749E2FF58274003EF5834F
:10070300E0D39439500F749E2FF58274003EF58325
:10071300E024D0805C749E2FF58274003EF583E064
:10072300C39441401F749E2FF58274003EF583E00D
:10073300D3945A500F749E2FF58274003EF583E0D4
:1007430024C9802D749E2FF58274003EF583E0C387
:100753009461402B749E2FF58274003EF583E0D3A1
:10076300947A501B749E2FF58274003EF583E02427
:10077300A9FBAA05EA25E0240EF8A603EA8019746A
:100783009E2FF58274003EF583E0B42D12AB05EB8A
:1007930025E0240EF8767FEB25E0240FF87601742C
:1007A3009E2FF58274003EF583E0640D6014749E01
:1007B3002FF58274003EF583E0640A6005ED1D7039
:1007C300011CEF1F70011E0206D49000E2E0D394D7
:1007D3000050030208DE7C007D02E024FFFFE434C6
:1007E300FFFEC3EE6480948050030208DEEC648055
:1007F300948050030208DE74E32FF58274003EF503
:1008030083E0C39430401F74E32FF58274003EF5F8
:1008130083E0D39439500F74E32FF58274003EF5CF
:1008230083E024D0805C74E32FF58274003EF5836B
:10083300E0C39441401F74E32FF58274003EF583B7
:10084300E0D3945A500F74E32FF58274003EF5837E
:10085300E024C9802D74E32FF58274003EF583E014
:10086300C39461402B74E32FF58274003EF583E05B
:10087300D3947A501B74E32FF58274003EF583E022
:1008830024A9FBAA05EA25E0240EF8A603EA8019A9
:1008930074E32FF58274003EF583E0B42D12AB05AB
:1008A300EB25E0240EF8767FEB25E0240FF87601A4
:1008B300749E2FF58274003EF583E0640D6014741A
:1008C3009E2FF58274003EF583E0640A6005ED1DFA
:0B08D30070011CEF1F70011E0207E502
:0108DE0022F7
:101E10009000F8E0780EF6A3E07810F6A3E07812D0
:0E1E2000F6780F76017811760178137601229C
:100EA100E4FBEB901EC993FFEB25E0240EF8A607A7
:100EB100EB25E0240FF876010BEBB403E57F207EF0
:100EC10003121DF8E4FBE4FFEB901ECC93FEEF252B
:100ED100E0240EF8A6060FEFB403ED7F2C7E01127D
:100EE1001DF80BEBB407DFE4FBEB25E0240EF876ED
:100EF10008EB25E0240FF876010BEBB403EBE4904B
:100F010000E2F09000D1F090009DF0C2C1C2C69005
:100F11000141E0780EF6A3E07810F6A3E07812F62E
:100F21007F011217ED7FF47E01121DF87F02121767
:100F3100ED7FF47E01121DF87F031217ED7FF47E21
:100F410001121DF8E4FBEB25E0240EF876200BEBF3
:100F5100B403F37F041217ED7FF47E01121DF87FB5
:100F6100051217ED7FF47E01121DF87F061217EDB1
:100F71007FF47E01121DF8E4FF1217EDD282D2A296
:100F8100D283D2B7780E760F7810760190010E12C7
:100F91001DF0C282C2A2C283C2B7D280D2B6D290A1
:100FA100D2A1780E760F78107602900140121DF0D2
:100FB100C280C2B6C290C2A1D281D2A3D291D2972D
:100FC100780E760F7810760390010D121DF0C28114
:100FD100C2A3C291C297780E760F78107604900161
:0B0FE1000F121DF0D2C1D2C6021BE7A8
:10170D007F327E00121DF8C2AF121E96121C91126E
:10171D001E2E12143890013A7401F0121E65121E1D
:10172D0054D2AF120EA1C2A4E4F59375940FF591A6
:10173D007592839000D9E064016004E0B4020C90CE
:10174D0000F7E0B40105E4F0121E1012178B120819
:10175D00DF9000F7E0B40105E4F01206A3121C605F
:10176D00900164E06003121B06900067E0B401B8BD
:0E177D00120026E4900067F0900033F080AA7E
:100AF70000C1814001C0804101C0804100C18140E7
:100B070001C0804100C1814000C1814001C08041D6
:100B170001C0804100C1814000C1814001C08041C6
:100B270000C1814001C0804101C0804100C18140B6
:100B370001C0804100C1814000C1814001C08041A6
:100B470000C1814001C0804101C0804100C1814096
:100B570000C1814001C0804101C0804100C1814086
:100B670001C0804100C1814000C1814001C0804176
:100B770001C0804100C1814000C1814001C0804166
:100B870000C1814001C0804101C0804100C1814056
:100B970000C1814001C0804101C0804100C1814046
:100BA70001C0804100C1814000C1814001C0804136
:100BB70000C1814001C0804101C0804100C1814026
:100BC70001C0804100C1814000C1814001C0804116
:100BD70001C0804100C1814000C1814001C0804106
:100BE70000C1814001C0804101C0804100C18140F6
:100BF70000C0C101C30302C2C60607C705C5C404B6
:100C0700CC0C0DCD0FCFCE0E0ACACB0BC90908C825
:100C1700D81819D91BDBDA1A1EDEDF1FDD1D1CDC15
:100C270014D4D515D71716D6D21213D311D1D01085
:100C3700F03031F133F3F23236F6F737F53534F475
:100C47003CFCFD3DFF3F3EFEFA3A3BFB39F9F838E5
:100C570028E8E929EB2B2AEAEE2E2FEF2DEDEC2CD5
:100C6700E42425E527E7E62622E2E323E12120E045
:100C7700A06061A163A3A26266A6A767A56564A435
:100C87006CACAD6DAF6F6EAEAA6A6BAB69A9A868A5
:100C970078B8B979BB7B7ABABE7E7FBF7DBDBC7C95
:100CA700B47475B577B7B67672B2B373B17170B005
:100CB70050909151935352929656579755959454F5
:100CC7009C5C5D9D5F9F9E5E5A9A9B5B9959589865
:100CD700884849894B8B8A4A4E8E8F4F8D4D4C8C55
:100CE70044848545874746868242438341818040C5
:10190500900150EBF0A3EAF0A3E9F0A3ECF0A3ED0E
:01191500F0E1
:101916007FFF7DFF90015374FFF5F01210D145F063
:101926006033900150E0FBA3E475F0011210D1A9D9
:10193600F0FA120FEC6DFB7A0024F7F582EA340A0E
:10194600F583E4936FFD74F72BF582EA340BF58388
:09195600E493FF80BFEFFEEDFFFA
:01195F002265
:101D6700E589540F4420F5897598D075B8105387C5
:101D77007F438E40538EFE758BF7758DF7C2ABD2BE
:041D87008ED2AC222A
:101E5400121D67E4900033F0900067F0900066F084
:011E6400225B
:03002300021B9F1E
:101B9F00C0E0C083C082C0D075D000C00730982D80
:101BAF00C298900033E0C394325022900067E064F3
:101BBF0001601A900033E0FF04F074342FF582E4D3
:101BCF003400F583E599F09000667402F0D007D0E9
:081BDF00D0D082D083D0E032A7
:101C2C00C2C6D2A4D3ED9400EC94004022120FEC67
:101C3C00FF20D004C29B8002D29B8F993099FDC2A9
:101C4C0099740129F9E43AFAED1D70D81C80D5C2BB
:041C5C00A4D2C62226
:101CC100759A5A90013AE014601C14600C1460116A
:101CD10024037012759CB88010759CEE4387808038
:101CE10008759CF78003759CDC758E1475AF012215
:101E6500121CC1E490009DF09000D1F09000D0F0DC
:011E7500224A
:0300430002184C54
:10184C00C0E0C083C082C0D075D000C0079000D16A
:10185C00E0B4010AE4F090009DF0900069F0E59A84
:10186C0030E026539AFE90009DE0C39432502490B1
:10187C00009DE0FF04F0749E2FF582E43400F583A4
:10188C00E59BF09000D07402F0E59A30E105539A94
:0E189C00FDC200D007D0D0D082D083D0E03281
:1010F300E4FF900142E075F00AA4FE900141E0751F
:10110300F064A42EFE900143E02EFE900000F0A3B5
:101113007403F0900039E024FB60252402706F9083
:1011230000027401F0900163E06008900003740111
:10113300F08005E4900003F09000327404F0804ED8
:101143009000D1E06401703B90009DE0900002F0BC
:10115300E4FF90009DE0FEEFC39E501B749E2FF5AD
:1011630082E43400F583E0FE74032FF582E4340057
:10117300F583EEF00F80DB90009DE02403900032B6
:10118300F0800BE4900002F09000327403F07B01D6
:101193007A007900900032E0FD7C0012190590007E
:1011A30032E02400F582E43400F583EFF0EEFF90A3
:1011B3000032E02401F582E43400F583EFF090007F
:1011C30032E02402F07B017A007900E0FD7C00022A
:0211D3001C2CD2
:101B5400900142E075F00AA4FF900141E075F06441
:101B6400A42FFF900143E02FFF900000F0A3740323
:101B7400F0E4A3F07B017A0079007D03FC121905DF
:101B8400900003EFF0EEA3F09000327405F07B01B7
:0B1B94007A007900E0FD7C00021C2CB0
:101E86007B017A007934900033E0FD7C00021C2C43
:101A6100900142E075F00AA4FF900141E075F06435
:101A7100A42FFF900143E02FFF900000F0A374100A
:101A8100F0E4A3F0A3F0A3F0A37405F07B017A00C6
:101A910079007D067C00121905900006EFF0EEA397
:101AA100F09000327408F07B017A007900E0FD7C4F
:041AB10000021C2CE7
:101E4100121BE7E49000D9F0900141F0A3F0A3F058
:031E51000214F088
:10004600900142E075F00AA4FF900141E075F0646A
:10005600A42FFF900143E02F900146F0E490014B5E
:10006600F0A3F0A3F0A3F0A3F0900034E060030245
:1000760003ABA3E0640660030203AB900033E064C5
:100086000860030203ABC2C1C2C67B017A007934A1
:10009600E024FEFDE434FFFC121905900149EEF060
:1000A600A3EFF0900033E02432F582E43400F583C8
:1000B600E0FF900147E4F0A3EFF0900033E0243333
:1000C600F582E43400F583E0FE900148E02400F078
:1000D600900147E03EF0E0FEA3E0FFA3E06E700370
:1000E600A3E06F6003020693900037E07006121ECD
:1000F60041020693900037E06401704D9000D9E00C
:10010600640270030206937401F0900039E075F002
:1001160064849000F8F0900039E075F06484E5F0AE
:1001260075F00A849000F9F0900039E075F00A84C1
:100136009000FAE5F0F0E49000DCF09000D874024C
:10014600F09000F714F0020693900037E064106018
:10015600030202BFA3E0FEA3E07C002400FFEC3E06
:1001660090014EF0A3EFF090014EE0FEA3E0FF4EAB
:10017600700F900141E0780EF6A3E07810F6A380A8
:1001860058BE2710BF110D780E760F7810760190A5
:10019600010E804590014EE0FEA3E0FFBE2710BF92
:1001A600120D780E760F78107602900140802ABEE6
:1001B6002710BF130D780E760F7810760390010D79
:1001C600801790014EE0B42716A3E0B41411780E00
:1001D600760F7810760490010FE07812F680529030
:1001E600014EE0FAA3E0FB7C037DE8FFAE021210AD
:1001F600667E007F64CFCDCFCECCCE121066780E51
:10020600A6077C007D64AF03AE021210667E007FF7
:100216000ACFCDCFCECCCE1210667810A6079001AD
:100226004EE0FEA3E0FF7C007D0A1210667812A65F
:1002360005780F760178117601781376019000D84B
:100246007402F0E49000DCF090014BF090014BE07A
:10025600FFC394064003020693EF75F007A424102B
:10026600F582E43401F5837401F0EF75F007A424F8
:1002760011F582E43401F583E4F0A37450F0EF75D0
:10028600F007A42413F582E43401F5837403F0EF38
:1002960075F007A42414F582E43401F583E4F0EF45
:1002A60075F007A42415F582E43401F583E4F0A380
:1002B600F090014BE004F08093900037E0B4110B0E
:1002C600121BE7E49000D9F0020693900037E06431
:1002D600207037780E760F78107601900039E07826
:1002E60012F6780F76017811760178137601E09090
:1002F60000D8F0E49000DCF09000D8E090010EF019
:10030600D394034036E4F00203A5900037E064215D
:10031600702B780E760F78107602900039E07812FE
:10032600F6780F76017811760178137601E0900160
:1003360040F0E0D3940540037405F08062900037E6
:10034600E06422702A780E760F78107603900039D2
:10035600E07812F6780F7601781176017813760137
:10036600E090010DF0E0D394014002E4F08030907B
:100376000037E06423702B780E760F7810760490A1
:100386000039E07812F6780F760178117601781345
:100396007601E090010FF0E0D394014002E4F01200
:1003A60014F0020693900146E0FF900034E06F607F
:1003B60003020697C2C1C2C67B017A007934900057
:1003C60033E024FEFDE434FFFC121905900149EEEA
:1003D600F0A3EFF0900033E02432F582E43400F528
:1003E60083E0FF900147E4F0A3EFF0900033E024B0
:1003F60033F582E43400F583E0FE900148E0240002
:10040600F0900147E03EF0E0FEA3E0FFA3E06E704F
:1004160003A3E06F6003020693900035E024FA60C0
:100426004424F670030205D2240D6003020693905D
:100436000038E0700BA3E0B40106121B54020693C9
:10044600900038E07007A3E0B403028012900038F1
:10045600E06003020693A3E06405600302069312BC
:1004660010F3020693900033E064086003020693DB
:10047600121E86900037E07005121BE7803490004C
:1004860037E064016004E0B40205121DCF802390BA
:100496000037E0B40510E49000D1F090009DF09094
:1004A60000F704F0800C900037E0B41005E49001EA
:1004B60063F0900037E0B42020900039E070079098
:1004C60000FFF0020693900039E064016003020623
:1004D600939000FF04F0020693900037E0C3941156
:1004E6005003020693E0D394164003020693E024D9
:1004F600EF90014BF0900039E0C413540790014C83
:10050600F0E060047F0180027F0090014BE0FE7501
:10051600F007A42410F582E43401F583EFF090008F
:1005260039E0131313540314602014603314604726
:1005360024037058EE75F007A42411F582E4340103
:10054600F583E4F0A37450F08042EE75F007A4241E
:1005560011F582E43401F583E4F0A374A0F0802C55
:10056600EE75F007A42411F582E43401F5837401D5
:10057600F0A37440F08015EE75F007A42411F582FF
:10058600E43401F5837402F0A37480F0900039E03E
:100596005407FF90014BE0FE75F007A42413F58283
:1005A600E43401F583EFF0EE75F007A42414F58228
:1005B600E43401F583E4F0EE75F007A42415F58222
:1005C600E43401F583E4F0A3F0020693900033E0EF
:1005D60024F5FF90003CE06F6003020693E0D3949D
:1005E600144003020693121A6190003AE0C41354B1
:1005F600079000D8F090003AE013131354031460E8
:100606001514601D146026240370229000D3E4F0B4
:10061600A37450F080219000D3E4F0A374A0F0807E
:10062600169000D37401F0A37440F0800A9000D3B2
:100636007402F0A37480F090003AE054079000DC56
:10064600F0E49000DDF0900100F0A3F090003CE0B3
:100656009000E2F0E490014DF09000E2E0FF90019E
:100666004DE0FEC39F5020743D2EF582E43400F524
:1006760083E0FF74E32EF582E43400F583EFF09017
:10068600014DE004F080D29000F77401F0D2C1D29F
:0C069600C6E4900033F0900067F07F0194
:0106A2002235
:10002600E4900144F0A3F0900033E0C3940640034B
:030036001200466F
:0100390022A4
:0C170000410164004101650041016300EB
:10000E00E4900144F0121EA4900144E004F0E0C319
:04001E00940540F114
:0100220022BB
:101C6000E4900164F0A3E0B4010FA2A04003D3808C
:101C700001C34005E4900165F0900165E07011201A
:101C8000A00E12000E20A0089001647401F0A3F0D1
:011C90002231
:070003009001637401F0227B
:101B0600E4900144F0A3F0A3F09000FFE06006E447
:101B1600900164F0229000D9E0B401279000F8E02B
:101B2600900141F09000F9E0900142F09000FAE057
:101B3600900143F01214F09000D97402F09000D88E
:0D1B460004F022900164E01470031200030B
:011B5300226F
:0300000002158363
:0C158300787FE4F6D8FD7581200215CABF
:100FEC00BB010689828A83E0225002E722BBFE0203
:090FFC00E32289828A83E4932236
:10100500BB010CE58229F582E5833AF583E02250A0
:1010150006E92582F8E622BBFE06E92582F8E222EA
:0D102500E58229F582E5833AF583E4932204
:10103200F8BB010DE58229F582E5833AF583E8F0F4
:10104200225006E92582C8F622BBFE05E92582C8A0
:02105200F22288
:10105400EF8DF0A4A8F0CF8CF0A428CE8DF0A42EB0
:02106400FE226A
:10106600BC000BBE0029EF8DF084FFADF022E4CC6E
:10107600F875F008EF2FFFEE33FEEC33FCEE9DEC37
:10108600984005FCEE9DFE0FD5F0E9E4CEFD22ED7D
:10109600F8F5F0EE8420D21CFEADF075F008EF2FC7
:1010A600FFED33FD4007985006D5F0F222C398FDB8
:0510B6000FD5F0EA2255
:1010BB00C5F0F8A3E028F0C5F0F8E58215827002C0
:0610CB001583E038F0225D
:1010D100A3F8E0C5F025F0F0E582158270021583D2
:0610E100E0C838F0E8222F
:0C10E700A42582F582E5F03583F5832214
:10158F0002170DE493A3F8E493A34003F68001F24E
:10159F0008DFF48029E493A3F85407240CC8C3335D
:1015AF00C4540F4420C8834004F456800146F6DF2C
:1015BF00E4800B010204081020408090168FE47E17
:1015CF00019360BCA3FF543F30E509541FFEE49321
:1015DF00A360010ECF54C025E060A840B8E493A3E8
:1015EF00FAE493A3F8E493A3C8C582C8CAC583CA13
:1015FF00F0A3C8C582C8CAC583CADFE9DEE780BECB
:01170C0000DC
:00000001FF
