:10000000020E90E5352429F8E605352278263007DA
:10001000027829E475F0011208420208292000EB59
:100020007F2ED2008018EF540F2490D43440D4FF98
:1000300030040BEF24BFB41A0050032461FFE536EF
:10004000600215360539E5397002053830070D783C
:1000500026E475F001120842EF0207D6020DC374C0
:1000600003D2078003E4C207F5358B268A27892847
:10007000E4F536F538F539E53660077F2012003EA5
:1000800080F57537FFC201C200C202C203C205C2B9
:1000900006C20812000CFF700D3007057F00120029
:1000A0004FAF39AE3822B4255FC2D5C20412000C5E
:1000B000FF24D0B40A00501A75F00A783630D505FE
:1000C00008B6FF0106C6A426F620D5047002D203A6
:1000D00080D924CFB41A00EF5004C2E5D204020242
:1000E0004FD20180C6D20080C0D20280BCD2D5805F
:1000F000BAD20580B47F2012003E2002077401B5F9
:10010000360040F1120003FF12003E020077D208D1
:10011000D2068095120003FB120003FA120003F9C5
:100120004A4B700679207A037BFF20022EE5366069
:100130002A7E008E827583001207A960060EEE6586
:100140003770F0C2D5EBC0E0EAC0E0E9C0E0EE12E3
:100150000296D0E0F9D0E0FAD0E0FB120829FF6067
:10016000AAEBC0E0EAC0E0E9C0E012003ED0E02423
:1001700001F9D0E03400FAD0E0FBE5370460DCD5CB
:1001800037D980877BFF7A027992D202809C7910DE
:1001900080027908C206C2088008D2D5790A800494
:1001A000790AC2D5E537047002F537E4FAFDFEFF9F
:1001B000120003FC7B08200113120003FD7B1030AA
:1001C000000A120003FE120003FF7B20EC3382D5ED
:1001D00092D55013C3E43000069FFFE49EFEE42056
:1001E00001039DFDE49CFCE4CBF8C201EC700CCF54
:1001F000CECDCCE824F8F870F38017C3EF33FFEED0
:1002000033FEED33FDEC33FCEB33FB994002FB0F87
:10021000D8E9EB300105F8D0E0C448B201C0E00AEB
:10022000EC4D4E4F78207B0070C2EAB5370040BCE1
:10023000C0E0120298D0F0D0E0200104C4C0E0C4B5
:10024000B201C0F0120027D0F0D5F0EB0200771217
:100250000852011453018E5800E54C00E14201920E
:100260004F019A44019A4900FA4301A0550184467E
:1002700001844501844703405000E92D00ED2E0123
:10028000102B00F123010E2003292A00A9480000A9
:1002900001083F3F3F00790AA2D520031430050929
:1002A000B910020404B9080104A2D52006025001C5
:1002B000042002689202B536005034C0E07F20303E
:1002C00003197F30A20272067205500F1202EFC2AC
:1002D00002C206C205C2087F30800F300503E9C0A4
:1002E000E012003E300503D0E0F9D0E0B536CC3066
:1002F00005177F30B9100C12003E7F583004077F7D
:10030000788003B9080312003E3002057F2D0200F9
:100310003E7F202008F87F2B2006F322920280CF18
:10032000286E756C6C2900D2011200033001F8C2EE
:1003300001783630D50108F60200A92D50434958FE
:100340001200032403B405004001E490033B931220
:10035000002F743A12002FD20375360402018E1258
:100360000D97120C5D120EAA120E717B007A0079A5
:10037000087F52120BFC8F22E5226011120D97129A
:100380000C5D120EAA120E71120E9C80DE120E4B24
:100390007BFF7A0C79E2120065E4F52374082523CB
:1003A000F8E6752400F5257BFF7A0C79EC85242985
:1003B000F52A1200650523E523C3940240DE7B0085
:1003C0007A0079081209BA8F22E522709E7BFF7AA3
:1003D0000C79EF120065E4F52374082523F8E6751F
:1003E0002400F5257BFF7A0C79EC852429F52A1267
:1003F00000650523E523C3940440DE7B007A007981
:1004000008120A358F22E522600302036B752B0068
:10041000752C00752D087BFF7A0D79197D017F60A1
:10042000120AB08F22E522600302036B7BFF7A0D74
:1004300079057F011208788F22E522600302036BA1
:100440007B007A0079087F52120BFC8F22E5226034
:100450000E120D97120C5D120EAA120E7180E17B26
:10046000007A0079081209BA8F22E52270D27B0047
:100470007A007908120A358F22E52270C3752B00A5
:10048000752C00752D087BFF7A0D79197D017F6031
:10049000120AB08F22E52270A77BFF7A0D79157DB5
:1004A000017FC01206A88F22E52270947D027F0191
:1004B000120B258F22E52270877B007A0079087F56
:1004C00003120B998F22E52260030204407BFF7A1E
:1004D0000C79FA120065E4F52374082523F8E67513
:1004E0002400F5257BFF7A0C79EC852429F52A1266
:1004F00000650523E523C3941040DE7BFF7A0D7968
:1005000003120065120DEA120EA3120DED120DEA90
:10051000120EA3120D1F02044075470475480075A2
:100520004900754A29754B00754C00754D277A00B6
:1005300079297B007F0C8F438B448A458946754E11
:10054000FEE4F54FF550E54324F4600C24FE700EF4
:10055000754F127550108006754F77755030E54F06
:100560004480FD7F02120D607D807F04120E6312B5
:100570000D5C7D807F0A120E83E4F552F553C3E5CE
:10058000539547E5529400501FAB44AA45A94685B0
:1005900053828552831207A9FD7F09120D6005530E
:1005A000E55370DA055280D6AD437F01120D60E548
:1005B00043B40C077D807F0D120E83755202755374
:1005C000587F04120CA78F51E55315537002155232
:1005D000E55345526009E55120E004555060E27D45
:1005E000807F0D120E63E5534552700302069B7F18
:1005F00006120CA7EF541B6003020698F54EE55156
:10060000554F30E003754EFFE543640C600302066E
:100610009B7F0A120CA78F517F0C120CA7EF540777
:10062000FD6021E55124FFFFE434FFFEEF7803C3B2
:1006300033CE33CED8F97C002DFFEC3EAB4BAA4C29
:10064000A94D800FE55175F008A4FFAB4BAA4CA94A
:100650004DE5F08FF012080AE5517003755101E580
:1006600051D394124003755112E4F552F553C3E58A
:10067000539551E552940050227F09120CA7AB48C4
:10068000AA49A94A855382855283EF1207E8055388
:10069000E55370DA055280D6754EFE7D807F0C12D0
:1006A0000E83120D5CAF4E228D268B278A28892956
:1006B0008F2C85262D75420075430075442E7B00D6
:1006C0007A00792C7D02120944754704754800753B
:1006D0004900754A2C754B00754C00754D2A7B00FE
:1006E0007A00792C7F0C120536EF7010E52B64042C
:1006F000452A7008E52C540F640A60027FFEEF70F3
:1007000057FEAB27AA28A9298E827583001207A954
:10071000FD742C2EF8A6050EBE10E7754200754339
:10072000007544307B007A00792C7D04120944E482
:10073000F52AF52B754706F548754900754A2CF5DD
:100740004B754C00754D2AFB7A00792C7F0C1205F5
:1007500036EF64FE6002E4FFEF704D752CB0852625
:100760002DF54275430075442EFB7A00792C7D02ED
:10077000120944754704754800754900754A2C757F
:100780004B00754C00754D2A7B007A00792C7F0C4C
:10079000120536EF7010E52B6404452A7008E52C2D
:1007A000540F640A60027FFE22BB010CE58229F52A
:1007B00082E5833AF583E0225006E92582F8E622B5
:1007C000BBFE06E92582F8E222E58229F582E5836F
:1007D0003AF583E49322BB010689828A83F0225092
:1007E00002F722BBFE01F322F8BB010DE58229F5D9
:1007F00082E5833AF583E8F0225006E92582C8F6BF
:1008000022BBFE05E92582C8F222BB010A89828A41
:1008100083F0E5F0A3F0225006F709A7F01922BBF8
:10082000FE06F3E5F009F31922BB010689828A83EB
:10083000E0225002E722BBFE02E32289828A83E49F
:100840009322FAE6FB0808E6F925F0F618E6CA3A1C
:10085000F622D083D082F8E4937012740193700D65
:10086000A3A393F8740193F5828883E473740293CD
:100870006860EFA3A3A380DF8B268A278928752BC6
:10088000A08F2C75420075430075442D7B007A00C3
:10089000792B7D021209447547047548007549009B
:1008A000754A2B754B00754C00754D297B007A00FD
:1008B000792B7F0C120536EF7010E52A6404452968
:1008C0007008E52B540F640A60027FFEEF7063FE30
:1008D000AB26AA27A9288E827583001207A9FD746A
:1008E0002B2EF8A6050EBE10E77542007543007565
:1008F000443B7B007A00792B7D1012094475471226
:10090000754800754900754A2B754B00754C00758C
:100910004D297B007A00792B7F0C120536EF701081
:10092000E52A640445297008E52B540F640A600227
:100930007FFE2275420075430075442B7A007929A9
:100940007B007D028B3E8A3F89408D417D047F057F
:10095000120E63120D5C7D807F0A120E83E4F54552
:10096000E545C395415019AB3EAA3FA94085458254
:100970007583001207A9FD7F09120D60054580E00F
:100980007D037F01120D607545FF7F05120CA715D1
:1009900045E5456004EF30E2F17F22120CA7AB423F
:1009A000AA43A944EF1207D67F21120CA7AB42AA93
:1009B00043A944900001EF0207E88B268A27892883
:1009C000E4F52A120E5FE4FD7F0D120D607D807F3D
:1009D0000E120E63752D93752E2075470275480013
:1009E000754900754A2D754B00754C00754D2B7B74
:1009F000007A00792D7F0C1205368F29E529702B9E
:100A0000FF742D2FF8E6AB26AA27A9288F827583BD
:100A1000001207E8742D2FF8E6622A0FBF04E27473
:100A20002D2FF8E6652A60037529FE7D807F0E1262
:100A30000E83AF29228B268A278928752B93752C44
:100A400070E4F531FFAB26AA27A9288F82758300B1
:100A50001207A9FE742D2FF8A6068F827583001247
:100A600007A962310FBF04DD75420075430075446C
:100A7000327B007A00792B7D07120944120E5F75D4
:100A80004709754800754900754A2B754B00754C30
:100A900000754D297B007A00792B7F0C120536EF0B
:100AA000700BE52A641845297003FF80027FFE223F
:100AB0008B288A29892A8F318D32E4FFAB28AA2915
:100AC000A92A8F827583001207A9FE74332FF8A616
:100AD000060FBF06E7E4FFAB2BAA2CA92D8F82756A
:100AE00083001207A9FE74392FF8A6060FBF06E788
:100AF00075470C754800754900754A31754B00758E
:100B00004C00754D2F7B007A0079317F0E1205362F
:100B10008F2EE52E70097F08120CA7EF20E30375D6
:100B20002EFEAF2E228D267529C28F2A120933126E
:100B30000519EF7010E528640445277008E529546D
:100B40000F640A60027FFEEF7027F529F52AF52B66
:100B5000F52CF54275430075442DFB7A0079297D0B
:100B60000412094475470612051CEF64FE6002E496
:100B7000FFEF60037FFE227529B085262A12093314
:100B8000120519EF7010E528640445277008E5295F
:100B9000540F640A60027FFE228B268A27892875FB
:100BA0002B308F2C75420075430075442D7A0079E7
:100BB0002B120940754704754800754900754A2B8A
:100BC000754B00754C00754D297B007A00792B7FA1
:100BD0000C120536EF7022E52A64904529701AFE42
:100BE000742B2EF8E6AB26AA27A9288E82758300DF
:100BF0001207E80EBE10E980027FFE228F268B27A7
:100C00008A288929120E5F7D077F0D120D607D03F2
:100C10007F14120E8385262C75470175480075498F
:100C200000754A2C754B00754C00754D2A7A007979
:100C30002C120532EF7023E52B6410452A701BAB94
:100C400027AA28A929E52C1207D6AB27AA28A92963
:100C5000900001E52D1207E880027FFE22D2970066
:100C6000C29700D2977F0A7E00120E2D7D0F7F0162
:100C7000120D60007D3D7F11120D607D1E7F2D12D3
:100C80000D60E4FD7F2C120D607D8D7F2A120D60BA
:100C90007D3E7F2B120D607D407F15120D607F0021
:100CA00022AC07AB05E4FEE4FEC2A1C2A2EF25E040
:100CB000547E4480FF7D08EFC330E701D392B7D262
:100CC000A1EF25E0FFC2A1DDEE7D08D2A1EE25E077
:100CD000FEA2A3E4334206C2A1DDF0D2A2D2A1AFAC
:100CE0000622BFA8B5C4C0E0D0CD3A00255800BF49
:100CF000A8D0F2C1D0BAC5A3BA00BFA8B6C1BFE997
:100D0000A3BA000A0012345678EDCBA987123456E4
:100D10007801FE01FE00000001FFFFFFFFFFFF75ED
:100D20002950E4F52AF54275430075442BFB7A00FF
:100D300079297D02120944754704754800754900F8
:100D4000754A29754B00754C00754D277B007A005C
:100D500079297F0C1205368F267F0022E4FD7F0162
:100D6000C2A1C2A2EF25E0547EFF7E08EFC330E7A8
:100D700001D392B7D2A1EF25E0FFC2A1DEEE7E083B
:100D8000EDC330E701D392B7D2A1ED25E0FDC2A1BA
:100D9000DEEED2A2D2A1227580FF7590FF75B0FF62
:100DA00075A0FF758921759850758DFD758BFDE4D3
:100DB000F58CF58AD28CD2A9D28ED299D2AFD2AC90
:100DC000D29822EFB40A07740D120DCE740A30982F
:100DD00011A899B8130CC2983098FDA899C298B878
:100DE00011F63099FDC299F59922120E9C7F647E0E
:100DF00000D3EF9400EE940040147D7D7C00ED1D47
:100E000070011CED4C70F7EF1F70E61E80E322D3DB
:100E1000EF9400EE940040147D6E7C00ED1D700197
:100E20001CED4C70F7EF1F70E61E80E322D3EF94A9
:100E300000EE940040147D6E7C00ED1D70011CEDF1
:100E40004C70F7EF1F70E61E80E322120E9C7FE8C5
:100E50007E03120E0F120EA37FE87E03020E0F7D9B
:100E6000087F08120CA1AE07AF04EBF45EFD020D83
:100E7000607F14120CA7EF540370077D037F1412D8
:100E80000E8322120CA1AE07AF04EB4EFD020D60E3
:100E9000787FE4F6D8FD75815302035FC284C28671
:100EA000C28522D284D286D285227D037F14020E8F
:010EB00063DE
:00000001FF
