:0300000002289043
:0C289000787FE4F6D8FD7581210228D77E
:1010B60000C1814001C0804101C0804100C1814022
:1010C60001C0804100C1814000C1814001C0804112
:1010D60001C0804100C1814000C1814001C0804102
:1010E60000C1814001C0804101C0804100C18140F2
:1010F60001C0804100C1814000C1814001C08041E2
:1011060000C1814001C0804101C0804100C18140D1
:1011160000C1814001C0804101C0804100C18140C1
:1011260001C0804100C1814000C1814001C08041B1
:1011360001C0804100C1814000C1814001C08041A1
:1011460000C1814001C0804101C0804100C1814091
:1011560000C1814001C0804101C0804100C1814081
:1011660001C0804100C1814000C1814001C0804171
:1011760000C1814001C0804101C0804100C1814061
:1011860001C0804100C1814000C1814001C0804151
:1011960001C0804100C1814000C1814001C0804141
:1011A60000C1814001C0804101C0804100C1814031
:1011B60000C0C101C30302C2C60607C705C5C404F1
:1011C600CC0C0DCD0FCFCE0E0ACACB0BC90908C861
:1011D600D81819D91BDBDA1A1EDEDF1FDD1D1CDC51
:1011E60014D4D515D71716D6D21213D311D1D010C1
:1011F600F03031F133F3F23236F6F737F53534F4B1
:101206003CFCFD3DFF3F3EFEFA3A3BFB39F9F83820
:1012160028E8E929EB2B2AEAEE2E2FEF2DEDEC2C10
:10122600E42425E527E7E62622E2E323E12120E080
:10123600A06061A163A3A26266A6A767A56564A470
:101246006CACAD6DAF6F6EAEAA6A6BAB69A9A868E0
:1012560078B8B979BB7B7ABABE7E7FBF7DBDBC7CD0
:10126600B47475B577B7B67672B2B373B17170B040
:101276005090915193535292965657975595945430
:101286009C5C5D9D5F9F9E5E5A9A9B5B99595898A0
:10129600884849894B8B8A4A4E8E8F4F8D4D4C8C90
:1012A6004484854587474686824243834181804000
:102D090090029EEBF0A3EAF0A3E9F0A3ECF0A3EDA7
:012D1900F0C9
:102D1A007FFF7DFF9002A174FFF5F01219DB45F0E9
:102D2A00602590029EE0FBA3E475F0011219DBA96D
:102D3A00F0FA1218E46DFB7A009010B6936FFDEB6F
:0B2D4A009011B693FF80CDEFFEEDFF6F
:012D5500225B
:1031AD00000000100020060008000A000C000E00B0
:102FDE00E4F5C275C78375C501AF019002AEEAF084
:102FEE00A3EFF09002AEE0F5C3A3E0F5C475C65AA8
:092FFE0075C6A500123214AFC221
:0130070022A6
:1030320075C78375C502AF019002B0EAF0A3EFF045
:103042009002B0E0F5C3A3E0F5C4AF058FC275C628
:083052005A75C6A500023214F4
:1030A50075C78375C5039002B2EEF0A3EFF09002E9
:1030B500B2E0F5C3A3E0F5C475C65A75C6A500020E
:0230C5003214C3
:0C321400E4F5C7F5C5F5C6F5C3F5C42206
:0B2B2200900280EBF0A3EAF0A3E9F0C2
:102B2D00E4900287F0900286E0FFA3E0C39F503847
:102B3D00900283E0FBA3E0FAA3E0F9122FDE9002EE
:102B4D0080E0FBA3E0FAA3E0F9900287E0F582753F
:102B5D008300EF12193C900284E475F0011219C53F
:082B6D00900287E004F080BD36
:012B7500223D
:0B2C1C00900288EBF0A3EAF0A3E9F0BF
:102C2700E490028FF090028EE0FFA3E0FEC39F5076
:102C370034900288E0FBA3E0FAA3E0F98E82758363
:102C4700001218FDFD90028BE0FBA3E0FAA3E0F968
:102C570012303290028CE475F0011219C590028F80
:052C6700E004F080C054
:012C6C002245
:04003E001230A522B5
:101CE80090025BEFF0C3940540037FFF229031AD73
:101CF800E493FE740193AA06F9900283E4F0A3EA40
:101D0800F0A3E9F0A37405F07B017A02795C122B49
:101D1800229031AFE493FE740193AA06F9900283EE
:101D2800E4F0A3EAF0A3E9F0A37405F07B017A02DA
:101D38007961122B229031B1E493FE740193AA06C3
:101D4800F9900283E4F0A3EAF0A3E9F0A37405F0A4
:101D58007B017A027966122B2290025BE0FF2461F4
:101D6800F582E43402F583E0FE745C2FF582E434F6
:101D780002F583E0FFB5061C90025BE02466F5825D
:101D8800E43402F583EFF090025BE0245CF582E432
:101D98003402805290025BE0FF2466F582E434024C
:101DA800F583E0FD745C2FF582E43402F583E0FFEF
:101DB80090025BB50519E02461F582E43402F583ED
:101DC800EFF090025BE0245CF582E434028017E0D7
:101DD800245CF582E43402F583EEF090025BE024A3
:0A1DE80061F582E43402F583E0FFA8
:011DF20022CE
:10277500900188E075F00AA4FF900187E075F06488
:10278500A42FFF900189E02F900299F09000D4E0EA
:1027950090029AF0900186E090029BF09000D3E0C1
:1027A50090029CF0900155E090029DF09031ADE4CF
:1027B50093FE740193FF12003EE4900298F090029C
:1027C50098E0FFC394035035EF25E024ADF582E48E
:1027D5003431F583E493FE740193AA06F990028BD4
:1027E500E4F0A3EAF0A3E9F0A37405F07B017A0213
:0D27F5007999122C1C900298E004F080C12C
:0128020022B3
:1024A300E4FF121CE89002A3EFF07F01121CE890F6
:1024B30002A4EFF07F02121CE89002A5EFF07F0365
:1024C300121CE89002A6EFF07F04121CE89002A70A
:1024D300EFF09002A3E0D3940074809481400374DE
:1024E30001F09002A4E0D394034002E4F09002A52B
:1024F300E0D3940540037405F09002A6E0D3940161
:102503004002E4F09002A7E0D394014002E4F0908B
:1025130002A3E0FF75F06484900187F0EF75F06427
:1025230084E5F075F00A84A3F09002A3E075F00A45
:1025330084900189E5F0F09002A4E09000D4F0903B
:1025430002A5E0900186F09002A6E09000D3F090FF
:0725530002A7E0900155F022
:01255A00225E
:0C1DF3004102AC004102AD004102AB0017
:10000E00E49002BAF01232209002BAE004F0E0C39B
:04001E00940540F114
:0100220022BB
:102F4F00E49002ACF0A3E0B4010FA2A04003D38041
:102F5F0001C34005E49002ADF09002ADE070112086
:102F6F00A00E12000E20A0089002AC7401F0A3F086
:012F7F00222F
:070003009002AB7401F02232
:102C6D00E49002A8F0A3F0A3F09001B7E06006E4B1
:102C7D009002ACF022900191E0B401279001B0E0F8
:102C8D00900187F09001B1E0900188F09001B2E0E1
:102C9D00900189F01227759001917402F0900190C6
:0D2CAD0004F0229002ACE01470031200034A
:012CBA0022F7
:101DFF004100D400410186054100D3004101550047
:101E0F00608000D5C0F9A4B0999282F88090888341
:101E1F00C6A1868EFF8BFFF1FFC7FFABA38CFFFF21
:101E2F009287C1E3FF89FFFFBFDFFEFDFBF7EF8F57
:101E3F00BFBF7FFFC0F9A4B0999282F8809040791C
:101E4F0024301912FF8883C6A1868EC289F9E1BF9B
:101E5F00C78FABA38C98AF9287C1E39CFF91A4006F
:101E6F00FF027800108883A7A1868EC289FBE1BF8D
:101E7F00C78FABA38C98AF9287C1E39CFF91A4BF90
:041E8F00BFBFBFBF53
:0E31DD00D2A7C2A5C2A6C2A7E4900185F02227
:10308100900185E0FF7007C296D2B4D29422EFB4CA
:103091000107D296C2B4D29422EFB40206D296D2DC
:0330A100B4C29422
:0130A4002209
:1030C700C2A6E4FEEF30E704D2C48002C2C4C2A5A0
:1030D70000D2A5EF25E0FF0EEEB408E8D2A6023035
:0130E7008167
:102AC7009001BAE06054E49001BAF0900185E0FF0C
:102AD70025E02414F8E66401702BEF25E02413F8B1
:102AE700E6C394804008E025E02413F8767F900140
:102AF70085E025E02413F8E624D5F582E43400F5D3
:102B070083E0FD80027DFFAF051230C7900185E0AD
:0A2B170004F0E0C394034002E4F070
:012B21002291
:1022640090018CE0FEA3E0FFFDAC06900194E01425
:10227400B40700400302231F90228A75F003A4C50B
:102284008325F0C5837302229F0222A80222B6028C
:1022940022C40222D50222ED022305EEC313FCEF71
:1022A40013FD807790018CE0FEA3E0FF7C007D03AA
:1022B400801A90018CE0FEA3E0FF7C007D06800C78
:1022C40090018CE0FEA3E0FF7C007D0B121970806E
:1022D4004690018CE0FEA3E0FF7C007D03121970A0
:1022E400EF25E0FDEE33FC803290018CE0FEA3E0AC
:1022F400FF7C007D061219707C007D0512195E803A
:102304001690018CE0FEA3E0FF7C007D0B12197097
:0F2314007C007D0A12195EAC06AD07AE04AF0562
:012323002297
:1023240090018CE0FEA3E0FFFDAC06900194E01464
:10233400B4070040030223DF90234A75F003A4C5C9
:102344008325F0C5837302235F0223950223AD0224
:1023540023C5022368022376022384EEC313FCEF11
:1023640013FD807790018CE0FEA3E0FF7C007D03E9
:10237400801A90018CE0FEA3E0FF7C007D06800CB7
:1023840090018CE0FEA3E0FF7C007D0B12197080AD
:102394004690018CE0FEA3E0FF7C007D03121970DF
:1023A400EF25E0FDEE33FC803290018CE0FEA3E0EB
:1023B400FF7C007D061219707C007D0512195E8079
:1023C4001690018CE0FEA3E0FF7C007D0B121970D7
:0F23D4007C007D0A12195EAC06AD07AE04AF05A2
:0123E30022D7
:1015E60090015775F007EF121A10EE75F007A42553
:1015F60083F583E0FDA3E09002B4CDF0A3EDF09077
:10160600015975F007EF121A10EE75F007A425833D
:10161600F583E014B40700400302175C901630759A
:10162600F003A4C58325F0C583730216450216662A
:1016360002168C0216B20216D802170202172E9054
:10164600015775F007EF121A10EE75F007A42583FF
:10165600F583E0C313FFA3E0139002B4CF0217583B
:1016660090015775F007EF121A10EE75F007A425D2
:1016760083F583E0FEA3E0FF7C007D0312197090E2
:1016860002B4EE02175890015775F007EF121A10C0
:10169600EE75F007A42583F583E0FEA3E0FF7C004A
:1016A6007D061219709002B4EE0217589001577514
:1016B600F007EF121A10EE75F007A42583F583E004
:1016C600FEA3E0FF7C007D0B1219709002B4EE02BF
:1016D600175890015775F007EF121A10EE75F007BC
:1016E600A42583F583E0FEA3E0FF7C007D031219A9
:1016F60070EF25E0FFEE339002B4805690015775E7
:10170600F007EF121A10EE75F007A42583F583E0B3
:10171600FEA3E0FF7C007D061219707C007D051299
:10172600195E9002B4EE802A90015775F007EF1209
:101736001A10EE75F007A42583F583E0FEA3E0FFFB
:101746007C007D0B1219707C007D0A12195E9002D6
:0E175600B4EEF0A3EFF09002B4E0FEA3E0FFCB
:011764002262
:1017650090015775F007EF121A10EE75F007A425D2
:1017750083F583E0FDA3E09002B6CDF0A3EDF090F4
:10178500015975F007EF121A10EE75F007A42583BD
:10179500F583E014B4070040030218DB9017AF751A
:1017A500F003A4C58325F0C583730217C402185737
:1017B5000218810218AD0217E502180B02183190C4
:1017C500015775F007EF121A10EE75F007A425837F
:1017D500F583E0C313FFA3E0139002B6CF0218D739
:1017E50090015775F007EF121A10EE75F007A42552
:1017F50083F583E0FEA3E0FF7C007D031219709062
:1018050002B6EE0218D790015775F007EF121A10BD
:10181500EE75F007A42583F583E0FEA3E0FF7C00C9
:101825007D061219709002B6EE0218D79001577511
:10183500F007EF121A10EE75F007A42583F583E083
:10184500FEA3E0FF7C007D0B1219709002B6EE023C
:1018550018D790015775F007EF121A10EE75F007BB
:10186500A42583F583E0FEA3E0FF7C007D03121928
:1018750070EF25E0FFEE339002B680569001577564
:10188500F007EF121A10EE75F007A42583F583E033
:10189500FEA3E0FF7C007D061219707C007D051219
:1018A500195E9002B6EE802A90015775F007EF1287
:1018B5001A10EE75F007A42583F583E0FEA3E0FF7B
:1018C5007C007D0B1219707C007D0A12195E900256
:0E18D500B6EEF0A3EFF09002B6E0FEA3E0FF47
:0118E30022E2
:1029A8009000D1E0B401047F028053900190E0FFD1
:1029B800604A900194E070028044900195E0701D97
:1029C8009001B8E07002A3E07037900190E0FF1228
:1029D8002A0A9001957401F012226480169001B8B9
:1029E800E07002A3E0701AFF122A0AE4900195F041
:1029F8001223249001B8EEF0A3EFF022E4FF122A8C
:022A08000A22A0
:100E9E00900156E06401704C900159E07006D282C8
:100EAE00D2A2804490015AE07019A3E07002A3E030
:100EBE007036D282D2A290015A04F0E4FFFE1215CF
:100ECE00E6801790015BE07002A3E0701BC282C245
:100EDE00A290015AF0FFFE12176590015BEEF0A38F
:100EEE00EFF08004C282C2A290015DE06401704DF9
:100EFE00900160E07006D280D2B68045900161E02C
:100F0E007019A3E07002A3E07037D280D2B69001C0
:100F1E006104F0FF7E001215E68018900162E07009
:100F2E0002A3E0701CC280C2B6900161F07F01FE88
:100F3E00121765900162EEF0A3EFF08004C280C23A
:100F4E00B6900164E06401704E900167E07006D2C5
:100F5E0081D2A38046900168E0701AA3E07002A3CC
:100F6E00E07038D281D2A390016804F07F027E0037
:100F7E001215E68018900169E07002A3E0701CC2A1
:100F8E0081C2A3900168F07F02FE1217659001697D
:100F9E00EEF0A3EFF08004C281C2A390016BE06477
:100FAE0001704E90016EE07006D283D2B7804690EB
:100FBE00016FE0701AA3E07002A3E07038D283D202
:100FCE00B790016F04F07F037E001215E680189033
:100FDE000170E07002A3E0701CC283C2B790016F73
:100FEE00F07F03FE121765900170EEF0A3EFF08014
:100FFE0004C283C2B7900172E06401704E90017515
:10100E00E07006D290D2A18046900176E0701AA3CD
:10101E00E07002A3E07038D290D2A190017604F075
:10102E007F047E001215E68018900177E07002A30F
:10103E00E0701CC290C2A1900176F07F04FE1217E0
:10104E0065900177EEF0A3EFF08004C290C2A190FC
:10105E000179E06401704C90017CE07005D291D270
:10106E00972290017DE0701AA3E07002A3E0703722
:10107E00D291D29790017D04F07F057E001215E685
:10108E00801890017EE07002A3E0701BC291C2979F
:10109E0090017DF07F05FE12176590017EEEF0A3A4
:0810AE00EFF022C291C297226B
:102A0A00EF14B407005051902A1F75F003A4C58330
:102A1A0025F0C58373022A34022A3B022A42022A7B
:102A2A0049022A50022A57022A5BD285D286C284D8
:102A3A0022D284D286C28522D284D285C28622D26A
:102A4A0086C284C28522D285C284C28622D284806A
:0F2A5A0002C284C285C28622D284D285D286224D
:1030E800E490019AF0FFEF25E02413F8E4F6EF25C9
:1030F800E02414F8E4F60FEFB403EBE4900190F049
:0131080022A4
:100A3B00E4FFFEFDFCEF25E02414F8E4F60FBF0005
:100A4B00010EEF64034E70ED9000D1E06401600382
:100A5B00020B65FC7D0290009DE024FFFFE434FF58
:100A6B00FEC3EE648094805003020C76EC64809499
:100A7B00805003020C76749E2FF58274003EF58332
:100A8B00E0C39430401F749E2FF58274003EF583B3
:100A9B00E0D39439500F749E2FF58274003EF5838A
:100AAB00E024D0805C749E2FF58274003EF583E0C9
:100ABB00C39441401F749E2FF58274003EF583E072
:100ACB00D3945A500F749E2FF58274003EF583E039
:100ADB0024C9802D749E2FF58274003EF583E0C3EC
:100AEB009461402B749E2FF58274003EF583E0D306
:100AFB00947A501B749E2FF58274003EF583E0248C
:100B0B00A9FBAA05EA25E02413F8A603EA801974C9
:100B1B009E2FF58274003EF583E0B42D12AB05EBEE
:100B2B0025E02413F8767FEB25E02414F876017486
:100B3B009E2FF58274003EF583E0640D6014749E65
:100B4B002FF58274003EF583E0640A6005ED1D709D
:100B5B00011CEF1F70011E020A6C90019AE0D394E6
:100B6B00005003020C767C007D02E024FFFFE4348E
:100B7B00FFFEC3EE648094805003020C76EC64801D
:100B8B0094805003020C76749B2FF58274013EF512
:100B9B0083E0C39430401F749B2FF58274013EF5A4
:100BAB0083E0D39439500F749B2FF58274013EF57B
:100BBB0083E024D0805C749B2FF58274013EF58317
:100BCB00E0C39441401F749B2FF58274013EF58363
:100BDB00E0D3945A500F749B2FF58274013EF5832A
:100BEB00E024C9802D749B2FF58274013EF583E0C0
:100BFB00C39461402B749B2FF58274013EF583E007
:100C0B00D3947A501B749B2FF58274013EF583E0CD
:100C1B0024A9FBAA05EA25E02413F8A603EA801908
:100C2B00749B2FF58274013EF583E0B42D12AB0556
:100C3B00EB25E02413F8767FEB25E02414F87601FE
:100C4B00749E2FF58274003EF583E0640D6014747E
:100C5B009E2FF58274003EF583E0640A6005ED1D5E
:0B0C6B0070011CEF1F70011E020B7DCA
:010C7600225B
:103109009001B0E07813F6A3E07815F6A3E07817FC
:0E311900F67814760178167601781876012281
:03323B00C2852227
:03323E00D2852214
:102E710012323B7F1E7E0012312712323E7F237EAB
:102E81000012312712323B7F1E7E0012312712328F
:102E91003E7F197E0012312712323B7F1E7E0012C7
:0C2EA100312712323E7F197E00023127DB
:1031BD0012345678EDCBA9871234567801FE01FEF4
:101E93004601BFFFFFFFFFFFFF410198004101AF74
:101EA3000042019200004101990041019001420169
:101EB3008C03E8410194014101950041018E0141E8
:101EC30001910041019700410196004201DB0000AE
:101ED3004201BD00004201C5000041018F004201E3
:101EE300BB00004201B300004201B500004101B74D
:011EF30000EE
:0E31EB00122F1D122CBB12323412317980FECD
:102F1D007580FF7590FF75B0FF75A0FF538E7F759F
:102F2D008921759850758DFD758BFD758CFC758A95
:102F3D0066D28CD2A9D28ED299D2AFC28DD2ACD25A
:022F4D009822C8
:03000B000220D9F7
:1020D900C0E0C0F0C083C082C0D075D000C000C0CD
:1020E90001C002C003C004C005C006C007758CFC4E
:1020F900758A66900296E004F07006900295E004F5
:10210900F0D3900296E0940A900295E0940040176B
:102119009001E17401F0A37401F0A374BFF07B1086
:102129007D037F60121459D3900294E094009002C9
:1021390093E094004011A3E024FFF0900293E0346F
:10214900FFF012323B800312323E90018BE004F023
:10215900700690018AE004F090018AE0FEA3E0FF96
:10216900D394E8EE94034004D2848002C284D3EF6E
:1021790094D0EE9407400790018AE4F0A3F0D007C9
:10218900D006D005D004D003D002D001D000D0D0E1
:09219900D082D083D0F0D0E032F6
:101FF700E4FF900188E075F00AA4FE900187E07580
:10200700F064A42EFE900189E02EFE900000F0A35C
:102017007403F0900039E024FB60252402706F9070
:1020270000027401F09002ABE060089000037401B5
:10203700F08005E4900003F09000327404F0804EC5
:102047009000D1E06401703B90009DE0900002F0A9
:10205700E4FF90009DE0FEEFC39E501B749E2FF59A
:1020670082E43400F583E0FE74032FF582E4340044
:10207700F583EEF00F80DB90009DE02403900032A3
:10208700F0800BE4900002F09000327403F07B01C3
:102097007A007900900032E0FD7C00122D09900053
:1020A70032E02400F582E43400F583EFF0EEFF9090
:1020B7000032E02401F582E43400F583EFF090006C
:1020C70032E02402F07B017A007900E0FD7C000217
:0220D7003008CF
:102D5600900188E075F00AA4FF900187E075F064A1
:102D6600A42FFF900189E02FFF900000F0A37403C9
:102D7600F0E4A3F07B017A0079007D03FC122D09B3
:102D8600900003EFF0EEA3F09000327405F07B01A3
:0B2D96007A007900E0FD7C00023008AC
:1031CD007B017A007934900033E0FD7C00023008F9
:102B7600900188E075F00AA4FF900187E075F06483
:102B8600A42FFF900189E02FFF900000F0A374109E
:102B9600F0E4A3F0A3F0A3F0A37405F07B017A00A0
:102BA60079007D067C00122D09900006EFF0EEA359
:102BB600F09000327408F07B017A007900E0FD7C29
:042BC60000023008D1
:10315300122DE9E4900191F0900187F0A3F0A3F020
:03316300022775CB
:10004600900188E075F00AA4FF900187E075F064DE
:10005600A42FFF900189E02F90026BF0E4900270CC
:10006600F0A3F0A3F0A3F0A3F0A3F0900034E060B7
:10007600030203BBA3E0640660030203BB900033E4
:10008600E0640860030203BBC2C1C2C67B017A00FA
:100096007934E024FEFDE434FFFC122D0990026E53
:1000A600EEF0A3EFF0E490026EF0A3F0900033E0E0
:1000B6002432F582E43400F583E0FF90026CE4F02C
:1000C600A3EFF0900033E02433F582E43400F583A7
:1000D600E0FE90026DE02400F090026CE03EF0E05D
:1000E600FEA3E0FFA3E06E7003A3E06F60030206C9
:1000F600A3900037E070061231530206A390003732
:10010600E06401704D900191E0640270030206A361
:100116007401F0900039E075F064849001B0F090BD
:100126000039E075F06484E5F075F00A849001B159
:10013600F0900039E075F00A849001B2E5F0F0E441
:10014600900194F09001907402F09001AF14F002C7
:1001560006A3900037E0641060030202CFA3E0FE1E
:10016600A3E07C002400FFEC3E900274F0A3EFF0C5
:10017600900274E0FEA3E0FF4E700F900187E078D6
:1001860013F6A3E07815F6A38058BE2710BF110D0D
:100196007813760F781576019000D4804590027416
:1001A600E0FEA3E0FFBE2710BF120D7813760F788E
:1001B600157602900186802ABE2710BF130D78138C
:1001C600760F781576039000D38017900274E0B40A
:1001D6002716A3E0B414117813760F7815760490D9
:1001E6000155E07817F68052900274E0FAA3E0FB1E
:1001F6007C037DE8FFAE021219707E007F64CFCDCE
:10020600CFCECCCE1219707813A6077C007D64AFD2
:1002160003AE021219707E007F0ACFCDCFCECCCEB0
:100226001219707815A607900274E0FEA3E0FF7C11
:10023600007D0A1219707817A605781476017816CB
:100246007601781876017F05122A0A7FE87E031266
:100256003127E4900194F0900270F0900270E0FF74
:10026600C3940640030206A3EF75F007A42456F5CF
:1002760082E43401F5837401F0EF75F007A4245786
:10028600F582E43401F5837403F0A374E8F0EF75A6
:10029600F007A42459F582E43401F5837403F0EFE2
:1002A60075F007A4245AF582E43401F583E4F0EFEF
:1002B60075F007A4245BF582E43401F583E4F0A32A
:1002C600F0900270E004F08092900037E0B4110BD9
:1002D600122DE9E4900191F00206A3900037E06444
:1002E6002070377813760F78157601900039E0780C
:1002F60017F6781476017816760178187601E0906C
:100306000190F0E4900194F0900190E09000D4F018
:10031600D394034036E4F00203B5900037E064213D
:10032600702B7813760F78157602900039E07817DF
:10033600F6781476017816760178187601E0900141
:1003460086F0E0D3940540037405F0806290003790
:10035600E06422702A7813760F78157603900039B8
:10036600E07817F678147601781676017818760113
:10037600E09000D3F0E0D394014002E4F0803090A6
:100386000037E06423702B7813760F781576049087
:100396000039E07817F67814760178167601781821
:1003A6007601E0900155F0E0D394014002E4F012AA
:1003B60027750206A390026BE0FF900034E06F60A1
:1003C600030206A7C2C1C2C67B017A007934900037
:1003D60033E024FEFDE434FFFC122D0990026EEE9C
:1003E600F0A3EFF0900033E02432F582E43400F518
:1003F60083E0FF90026CE4F0A3EFF0900033E0247A
:1004060033F582E43400F583E0FE90026DE02400CB
:10041600F090026CE03EF0E0FEA3E0FFA3E06E7019
:1004260003A3E06F60030206A3900035E024FA60A0
:100436004424F670030205E2240D60030206A3902D
:100446000038E0700BA3E0B40106122D560206A395
:10045600900038E07007A3E0B403028012900038E1
:10046600E060030206A3A3E0640560030206A3128C
:100476001FF70206A3900033E0640860030206A398
:100486001231CD900037E07005122DE980349000CE
:1004960037E064016004E0B402051230E88023907E
:1004A6000037E0B40510E49000D1F090009DF09084
:1004B60001AF04F0800C900037E0B41005E4900220
:1004C600ABF0900037E0B42020900039E070079040
:1004D60001B7F00206A3900039E06401600302064A
:1004E600A39001B704F00206A3900037E0C394116D
:1004F60050030206A3E0D3941640030206A3E024A9
:10050600EF900270F0900039E0C413540790027126
:10051600F0E060047F0180027F00900270E0FE75CB
:10052600F007A42456F582E43401F583EFF0900039
:1005360039E0131313540314602014603314604716
:1005460024037058EE75F007A42457F582E43401AD
:10055600F583E4F0A37450F08042EE75F007A4240E
:1005660057F582E43401F583E4F0A374A0F0802CFF
:10057600EE75F007A42457F582E43401F58374017F
:10058600F0A37440F08015EE75F007A42457F582A9
:10059600E43401F5837402F0A37480F0900039E02E
:1005A6005407FF900270E0FE75F007A42459F58207
:1005B600E43401F583EFF0EE75F007A4245AF582D2
:1005C600E43401F583E4F0EE75F007A4245BF582CC
:1005D600E43401F583E4F0A3F00206A3900033E0CF
:1005E60024F5FF90003CE06F60030206A3E0D3947D
:1005F6001440030206A3122B7690003AE0C413546B
:1006060007900190F090003AE0131313540314601E
:100616001514601D1460262403702290018CE4F0EA
:10062600A37450F0802190018CE4F0A374A0F080B4
:100636001690018C7401F0A37440F0800A90018C2E
:100646007402F0A37480F090003AE054079001948D
:10065600F0E4900195F09001B8F0A3F090003CE032
:1006660090019AF0E4900272F090019AE0FF9002F5
:1006760072E0FEC39F5020743D2EF582E43400F5EF
:1006860083E0FF749B2EF582E43401F583EFF0904E
:100696000272E004F080D29001AF7401F0D2C1D2B0
:1006A600C6E4900273F0900273E0FFC394325014D4
:1006B60074342FF582E43400F583E4F0900273E09D
:0F06C60004F080E2E4900033F0900067F07F01D1
:0106D5002202
:10313F00E49002B8F0A3F0900033E0C3940640038C
:03314F0012004625
:01315200225A
:1000260075985053890F438920758DFD858D8BC238
:08003600ABD2ACD28ED29822AD
:10318B00120026E4900033F0900067F0900066F098
:01319B002211
:03002300022DA10A
:102DA100C0E0C083C082C0D075D000C00730982D6C
:102DB100C298900033E0C394325022900067E064DF
:102DC10001601A900033E0FF04F074342FF582E4BF
:102DD1003400F583E599F09000667402F0D007D0D5
:082DE100D0D082D083D0E03293
:10300800C2C6D2A4D3ED9400EC940040181218E480
:10301800F5993099FDC299740129F9E43AFAED1D40
:0A30280070E21C80DFC2A4D2C622B1
:102F8000759A5A900180E014601C14600C14601152
:102F900024037012759CB88010759CEE4387808066
:102FA00008759CF78003759CDC758E1475AF012243
:10319C00122F80E490009DF09000D1F09000D0F0C0
:0131AC002200
:03004300022A6925
:102A6900C0E0C083C082C0D075D000C0079000D13B
:102A7900E0B4010AE4F090009DF0900069F0E59A55
:102A890030E026539AFE90009DE0C3943250249082
:102A9900009DE0FF04F0749E2FF582E43400F58375
:102AA900E59BF09000D07402F0E59A30E105539A65
:0E2AB900FDC209D007D0D0D082D083D0E03249
:10316600E58954F04401F589758CFC758A66D2A907
:03317600D28C22D6
:09322000007F0B7EBEDEFEDFFC28
:013229002282
:10312700AD07AC06D3ED9400EC9400400A123220B0
:08313700ED1D70F01C80ED227B
:0A322A0025262728292A24563C32C5
:102EE800E4F591759280F59575960EF5B175B2C0B9
:102EF80075BB70C282C280C281C283C290C291C2B5
:102F0800A2C2B6C2A3C2B7C2A1C2979001BAF05377
:052F18008EDFF5972299
:1012B600E49002BBF09002BBE0FFC39403501FE032
:1012C600FE90323193FDEE25E02413F8A605EF25B6
:1012D600E02414F876019002BBE004F080D77F206A
:1012E6007E03123127E49002BBF0E4FF9002BBE0DC
:1012F60090322A93FEEF25E02413F8A6060FEFB4EA
:1013060003EA7F2C7E011231279002BBE004F0E055
:10131600C3940740D5E49002BBF09002BBE0FFC344
:1013260094035015EF25E02413F87608EF25E02402
:1013360014F87601E004F080E1E490019AF0900060
:10134600D1F090009DF0C2C1C2C6900187E078132B
:10135600F6A3E07815F6A3E07817F67F01122A0ABD
:101366007FF47E011231277F02122A0A7FF47E0162
:101376001231277F03122A0A7FF47E01123127E4F5
:101386009002BBF09002BBE0FFC39403500DEF2523
:10139600E02413F87620E004F080E97F04122A0A9C
:1013A6007FF47E011231277F05122A0A7FF47E011F
:1013B6001231277F06122A0A7FF47E01123127E4B2
:1013C600FF122A0AD282D2A2D283D2B77813760F1C
:1013D600781576019000D4E07817F67FE87E031240
:1013E6003127C282C2A2C283C2B7D280D2B6D290FD
:1013F600D2A17813760F78157602900186E07817D9
:10140600F67FE87E03123127C280C2B6C290C2A11F
:10141600D281D2A3D291D2977813760F781576031C
:101426009000D3E07817F67FE87E03123127C28159
:10143600C2A3C291C2977813760F781576049001ED
:1014460055E07817F67FE87E03123127D2C1D2C65F
:03145600022DE97B
:102DE900E490019AF0FFEF25E02413F8E4F6EF25CB
:102DF900E02414F8E4F60FEFB403EBE4900190F04B
:102E09009002ABF09000D1F090009DF0900156F047
:102E190090015DF0900164F090016BF0900172F007
:042E2900900179F0AB
:012E2D002282
:102FB000BFA8D0F2C1D0BAC53A002558000A00B364
:102FC000C9B9A6D0B4C8EBA3A10A00D6D0BBAAC881
:0E2FD000CBC3F1BEFCB6D3B9A4BAC5A3BA00F8
:101A6200900276EFF0A3EDF0A3EBF0A3EAF0A3E986
:011A7200F083
:101A7300E490027DF07B017A0179C77F521228033B
:101A830090027BEFF0E06003021B82900297F090DC
:101A93000291E06003021BA67B017A0179C7122140
:101AA300A290027BEFF0E06003021BA67BFF7A2F7C
:101AB30079B0120741E490027CF090027CE0FFC30E
:101AC3009404503474C72FF582E43401F583E0FFA6
:101AD30090027EE4F0A3EFF07BFF7A2F79BA9002B5
:101AE3007EE0FFA3E09001ECCFF0A3EFF0120741FB
:101AF30090027CE004F080C27BFF7A2F79BD12074D
:101B0300417B017A0179C712261390027BEFF0E043
:101B13006003021BA6900276E0FFA3E0FD9001EEB6
:101B23007401F0A37401F0A374C7F0900278122635
:101B3300C790027BEFF0706B900277E0121EF59076
:101B4300027BEFF0705D900277E004121EF59002C5
:101B53007BEFF0704E900277E02402121EF59002A4
:101B63007BEFF070097BFF7A2F79BF120741122BAD
:101B7300CA9002927401F0A3E4F0A37405F02290DA
:101B83000297E004F0E0B40109122CBB12323412C4
:101B93003179900297E0D3940540087405F0E490FE
:101BA3000291F090027DE004F0E0C394055003023B
:021BB3001A789E
:011BB500220D
:0B1459009001DEEFF0A3EDF0A3EBF03C
:10146400E49001E6F07B017A0179C77F52122803E8
:101474009001E4EFF0E060030215B2900290F09066
:101484000292E060030215D67B017A0179C712212A
:10149400A29001E4EFF0E060030215D67BFF7A2FFF
:1014A40079B0120741E49001E5F09001E5E0FFC353
:1014B4009404503474C72FF582E43401F583E0FFBB
:1014C4009001E7E4F0A3EFF07BFF7A2F79BA900163
:1014D400E7E0FFA3E09001ECCFF0A3EFF0120741A7
:1014E4009001E5E004F080C27BFF7A2F79BD1207FA
:1014F400417B017A0179C71226139001E4EFF0E0F1
:1015040060030215D69001DEE0FFA3E0FD9001EE3A
:101514007401F0A37401F0A374C7F09001E11226E2
:10152400C79001E4EFF060030215D69001DFE0FFFD
:101534007B017A0179C712291C9001E4EFF0E06085
:10154400030215D67BFF7A2F79CB120741E4900171
:10155400E5F09001E0E0FF9001E5E0FEC39F503428
:1015640074C72EF582E43401F583E0FF9001E7E4CB
:10157400F0A3EFF07BFF7A2F79BA9001E7E0FFA3A5
:10158400E09001ECCFF0A3EFF01207419001E5E009
:1015940004F080BE7BFF7A2F79BD120741122BCA5B
:1015A4009002927401F0A3E4F0A37405F022900277
:1015B40090E004F0E0B40109122CBB123234123171
:1015C40079900290E0D3940540087405F0E4900209
:1015D40092F09001E6E004F0E0C394055003021495
:0115E400699D
:0115E50022E3
:0E2803009001E9EFF0A3EBF0A3EAF0A3E9F0F7
:102811007D087F081231F97D077F0D122EAD7D03F2
:102821007F141232079001E9E09001EFF090020A63
:102831007401F0A3F0A37401F0A374EFF0A3740189
:10284100F0A37401F0A374EDF07A0179EF120C9901
:10285100EF70399001EDE07004A3E06410702D90E9
:1028610001EFE0FE9001EAE0FBA3E0FAA3E0F9EE5C
:1028710012192A9001F0E0FE9001EAE0FBA3E0FAD0
:0E288100A3E0F9900001EE12193C80027FFEE8
:01288F002226
:0B21A2009001E9EBF0A3EAF0A3E9F0E4
:1021AD00E49001EDF07D087F081231F9E4FD7F0D1B
:1021BD00122EAD7D807F0E1231F99001F07493F0E7
:1021CD00A37420F090020A7402F07B01A314F0A313
:1021DD007401F0A374F0F0A3EBF0A37401F0A374F9
:1021ED00EEF07A0179F07F0C120C9D9001ECEFF07E
:1021FD007058FC74F02CF582E43401F583E0FE9008
:10220D0001E9E0FBA3E0FAA3E0F9AF048F82758347
:10221D0000EE12193C9001EDE0FE74F02FF582E412
:10222D003401F583E0FDEE6D9001EDF00CECB4049E
:10223D00C274F02CF582E43401F583E0FF9001EDDA
:10224D00E06F60069001EC74FEF07D807F0E12321F
:06225D00079001ECE0FF18
:012263002258
:0B2613009001E9EBF0A3EAF0A3E9F06E
:10261E009001EE7493F0A37470F0E49001F4F0FC6A
:10262E009001E9E0FBA3E0FAA3E0F9AF048F827515
:10263E0083001218FDFE74F02FF582E43401F58349
:10264E00EEF09001F4E0FE8F827583001218FDFD0E
:10265E00EE6D9001F4F00CECB404C590020474011C
:10266E00F0A37401F0A374F5F07B017A0179EE7D8D
:10267E00071225727D087F081231F990020A74093B
:10268E00F0A37401F0A37401F0A374EEF0A374012F
:10269E00F0A37401F0A374ECF07B017A0179EE7F64
:1026AE000C120C9DEF700F9001ECE07004A3E0642F
:0826BE00187003FF80027FFE8B
:0126C60022F1
:0826C700E0FBA3E0FAA3E0F937
:0B26CF009001EBEBF0A3EAF0A3E9F0B0
:1026DA009001F4EFF0A3EDF0E4FF9001EBE0FBA32F
:1026EA00E0FAA3E0F98F827583001218FDFE74F6F2
:1026FA002FF582E43401F583EEF00FEFB406DBE444
:10270A00FF9001EEE0FBA3E0FAA3E0F98F82758364
:10271A00001218FDFE74FC2FF582E43401F583EEF5
:10272A00F00FEFB406DB90020A740CF0A37401F008
:10273A00A37401F0A374F4F0A37401F0A37401F07C
:10274A00A374F2F07B017A0179F47F0E120C9D904A
:10275A0001F1EFF070097F08122E34EF20E30690A2
:0A276A0001F174FEF09001F1E0FFB0
:012774002242
:0B291C009001E9EBF0A3EAF0A3E9F062
:102927009001EE7430F0A3EFF09002047401F0A36D
:102937007401F0A374F0F07A0179EE12256E90021B
:102947000A7404F0A37401F0A37401F0A374EEF009
:10295700A37401F0A37401F0A374ECF07B017A0176
:1029670079EE7F0C120C9DEF70349001ECE070044F
:10297700A3E064907028FE74EE2EF582E43401F52E
:1029870083E0FD9001E9E0FBA3E0FAA3E0F98E8282
:10299700758300ED12193C0EEEB410DB80027FFE4A
:0129A700220D
:071EF500FF7BFF7A3179BD8C
:0B1EFC0090022FEBF0A3EAF0A3E9F046
:101F070090023474A0F0A3EFF09002047401F0A3E0
:101F17007402F0A37436F07B017A0279347D0212E1
:101F2700257290020A7404F0A37401F0A37402F0FE
:101F3700A37434F0A37401F0A37402F0A37432F015
:101F47007B017A0279347F0C120C9DEF7016900298
:101F570032E07004A3E06404700A900234E0540F86
:101F6700640A60027FFEEF6003021FF6FE90022FF5
:101F7700E0FBA3E0FAA3E0F98E827583001218FD57
:101F8700FD74342EF582E43402F583EDF00EEEB4E1
:101F970010DB9002047401F0A37402F0A37444F000
:101FA7007B017A0279347D1012257290020A74122D
:101FB700F0A37401F0A37402F0A37434F0A37401C6
:101FC700F0A37402F0A37432F07B017A0279347FB4
:101FD7000C120C9DEF7016900232E07004A3E064BF
:0F1FE70004700A900234E0540F640A60027FFE17
:011FF60022C8
:1023E400900218EBF0A3EAF0A3E9F0900217EDF0E5
:1023F40090021DEFF0A3ED12255B120C77EF70161F
:1024040090021BE07004A3E06404700A90021DE0D3
:10241400540F640A60027FFEEF7052FE900218E0CF
:10242400FBA3E0FAA3E0F98E827583001218FDFD88
:10243400741D2EF582E43402F583EDF00EEEB41033
:10244400DB9002047401F0A37402F0A37421F07B06
:10245400017A02791D7D04122572E490021BF0A317
:10246400F07406120C79EF64FE6002E4FFEF702E44
:1024740090021D74B0F0900217E090021E12255BCA
:10248400120C77EF701690021BE07004A3E0640452
:0E249400700A90021DE0540F640A60027FFE81
:0124A2002217
:051BB600900246EDF075
:101BBB0090024974C2F0A3EFF09002047401F0A3F9
:101BCB007402F0A3744BF07B017A0279497D021207
:101BDB00257290020A7404F0A37401F0A37402F04E
:101BEB00A37449F0A37401F0A37402F0A37447F03B
:101BFB007B017A0279497F0C120C9DEF70169002D3
:101C0B0047E07004A3E06404700A900249E0540FAB
:101C1B00640A60027FFEEF7052900249F0A3F0A3BA
:101C2B00F0A3F07B0190020404F0A37402F0A37400
:101C3B004DF07A0279497D0412257290020A7406DE
:101C4B00F0A37401F0A37402F0A37449F0A3740120
:101C5B00F0A37402F0A37447F07B017A0279497FF9
:101C6B000C120C9DEF64FE6002E4FFEF60037FFE3D
:101C7B002290024974B0F0900246E090024AF09034
:101C8B0002047401F0A37402F0A3744BF07B017A8D
:101C9B000279497D0212257290020A7404F0A37432
:101CAB0001F0A37402F0A37449F0A37401F0A374C0
:101CBB0002F0A37447F07B017A0279497F0C120C76
:101CCB009DEF7016900247E07004A3E06404700A65
:0C1CDB00900249E0540F640A60027FFE92
:011CE70022DA
:102BCA009001EC7450F0E4A3F07B0190020404F04D
:102BDA00A37401F0A374EEF07A0179EC7D02122558
:102BEA007290020A7404F0A37401F0A37401F0A3B2
:102BFA0074ECF0A37401F0A37401F0A374EAF07BFF
:102C0A00017A0179EC7F0C120C9D9001E9EFF07FBB
:012C1A0000B9
:012C1B002296
:10255B00F09002047401F0A37402F0A3741FF07ADC
:07256B0002791D7B017D02D6
:0E257200900200EBF0A3EAF0A3E9F0A3EDF075
:102580007D047F051231F9E4FD7F01122EAD7D80BF
:102590007F0A123207E4900207F0900203E0FF90F6
:1025A0000207E0FEC39F5021900200E0FBA3E0FA87
:1025B000A3E0F98E827583001218FDFD7F09122EAB
:1025C000AD900207E004F080D17D037F01122EADB3
:1025D00090020774FFF07F05122E34900207E0147A
:1025E000F0E06004EF30E2EE7F22122E349002041D
:1025F000E0FBA3E0FAA3E0F9EF12192A7F21122EE3
:1026000034900204E0FBA3E0FAA3E0F9900001EFAC
:0326100002193C70
:102CBB00D29700C29700D2977F017E001231277DF9
:102CCB000F7F01122EAD007D3D7F11122EAD7D1EAB
:102CDB007F2D122EADE4FD7F2C122EAD7D8D7F2A24
:102CEB00122EAD7D3E7F2B122EAD7D407F15122E09
:0D2CFB00AD7F2D122E349001E9EFF07F0027
:012D080022A8
:100C7700740490020AF0A37401F0A37402F0A37441
:100C87001DF0A37401F0A37402F0A3741BF07A02A1
:060C9700791D7B017F0CBA
:100C9D00900207EBF0A3EAF0A3E9F0900206EFF063
:100CAD0090021174FEF0E4A3F0A3F0EF24F46010B1
:100CBD0024FE70169002127412F0A37410F0800AC4
:100CCD009002127477F0A37430F0900212E0448019
:100CDD00FD7F02122EAD7D807F041231F9E4FD7F80
:100CED0001122EAD7D807F0A123207E4900215F0BD
:100CFD00A3F090020AE0FF900215E0FCA3E0FDC313
:100D0D009FEC94005028900207E0FBA3E0FAA3E0CB
:100D1D00F98D828C831218FDFD7F09122EAD900284
:100D2D0016E004F070CC900215E004F080C490023F
:100D3D0006E0FD7F01122EAD900206E0B40C077D9A
:100D4D00807F0D1232079002157402F0A37458F0D3
:100D5D007F04122E34900214EFF0900216E024FF5F
:100D6D00F0900215E034FFF0E07002A3E060119006
:100D7D000214E0FF20E009900213E0FEEF5E60D068
:100D8D007D807F0D1231F9900215E07002A3E070A5
:100D9D0003020E8A7F06122E34EF541B6003020EDF
:100DAD0084900211F0A3E0FF900214E05F30E006A2
:100DBD0090021174FFF0900206E0640C6003020EC5
:100DCD008A7F0A122E34900214EFF07F0C122E340B
:100DDD00EF5407FD6029900214E024FFFFE434FF77
:100DED00FEEF7803C333CE33CED8F97C002DFFEC64
:100DFD003EF990020EE0FBA3E0FAA3E0C980169045
:100E0D000214E075F008A4FF90020EE0FBA3E0FAD7
:100E1D00A3E0F9E5F08FF01219F1900214E07002E1
:100E2D0004F0900214E0D3941240037412F0E49095
:100E3D000215F0A3F0900214E0FFC3900216E09F9C
:100E4D00900215E0940050357F09122E3490020B5C
:100E5D00E0FBA3E0FAA3E0F9900215E0FCA3E0F5B6
:100E6D00828C83EF12193C900216E004F070C6904C
:100E7D000215E004F080BE90021174FEF07D807FBB
:100E8D000C123207E4FD7F01122EAD900211E0FF2E
:010E9D002232
:103179007F14122E34EF540370077D037F1412322B
:01318900073E
:01318A002222
:073234007D037F140231F954
:102EAD00C2A1C2A2EF25E0547EFF7E08EF30E703FA
:102EBD00D38001C392B7D2A1EF25E0FFC2A1DEEC12
:102ECD007E08ED30E703D38001C392B7D2A1ED2583
:0A2EDD00E0FDC2A1DEECD2A2D2A1FA
:012EE70022C8
:062E2E00AC07AB05E4FE59
:102E3400E4FEC2A1C2A2EF25E0547E4480FF7D08D7
:102E4400EF30E703D38001C392B7D2A1EF25E0FFAF
:102E5400C2A1DDEC7D08D2A1EE25E0FEA2A3E433FD
:0C2E64004EFEC2A1DDF0D2A2D2A1AF064A
:012E7000223F
:0D320700122E2EAE07AF04EB4EFD022EADD1
:0E31F900122E2EAE07AF04EBF45EFD022EADDB
:10289C000231EBE493A3F8E493A34003F68001F236
:1028AC0008DFF48029E493A3F85407240CC8C3333D
:1028BC00C4540F4420C8834004F456800146F6DF0C
:1028CC00E4800B0102040810204080901DF3E47E8C
:1028DC00019360BCA3FF543F30E509541FFEE49301
:1028EC00A360010ECF54C025E060A840B8E493A3C8
:1028FC00FAE493A3F8E493A3C8C582C8CAC583CAF3
:10290C00F0A3C8C582C8CAC583CADFE9DEE780BEAA
:011EF40000ED
:1018E400BB010689828A83E0225002E722BBFE0202
:0918F400E32289828A83E4932235
:1018FD00BB010CE58229F582E5833AF583E02250A0
:10190D0006E92582F8E622BBFE06E92582F8E222E9
:0D191D00E58229F582E5833AF583E4932203
:10192A00BB010689828A83F0225002F722BBFE019C
:02193A00F32296
:10193C00F8BB010DE58229F582E5833AF583E8F0E1
:10194C00225006E92582C8F622BBFE05E92582C88D
:02195C00F22275
:10195E00EF8DF0A4A8F0CF8CF0A428CE8DF0A42E9D
:02196E00FE2257
:10197000BC000BBE0029EF8DF084FFADF022E4CC5B
:10198000F875F008EF2FFFEE33FEEC33FCEE9DEC24
:10199000984005FCEE9DFE0FD5F0E9E4CEFD22ED6A
:1019A000F8F5F0EE8420D21CFEADF075F008EF2FB4
:1019B000FFED33FD4007985006D5F0F222C398FDA5
:0519C0000FD5F0EA2242
:1019C500C5F0F8A3E028F0C5F0F8E58215827002AD
:0619D5001583E038F0224A
:1019DB00A3F8E0C5F025F0F0E582158270021583BF
:0619EB00E0C838F0E8221C
:1019F100BB010A89828A83F0E5F0A3F0225006F741
:0F1A010009A7F01922BBFE06F3E5F009F319223D
:0C1A1000A42582F582E5F03583F58322E1
:1006D600E50824ECF582E43401F583E00508229070
:1006E60001E93007039001ECE475F001121A1C02CF
:1006F60018E42000E97F2ED2008018EF540F2490D2
:10070600D43440D4FF30040BEF24BFB41A00500396
:100716002461FFE50960021509050CE50C70020568
:100726000B30070E9001E9E475F001121A1CEF0276
:10073600192A02305A7403D2078003E4C207F50867
:100746009001E9121A33E4F509F50BF50CE5096099
:10075600077F2012071980F5750AFFC201C200C281
:1007660002C203C205C206C2081206E5FF700D30BA
:1007760007057F0012072AAF0CAE0B22B4255FC215
:10078600D5C2041206E5FF24D0B40A00501A75F04B
:100796000A780930D50508B6FF0106C6A426F62054
:1007A600D5047002D20380D924CFB41A00EF5004C6
:1007B600C2E5D20402092BD20180C6D20080C0D283
:1007C6000280BCD2D580BAD20580B47F2012071928
:1007D6002002077401B5090040F11206D6FF120780
:1007E60019020753D208D20680951206D6FB1206C6
:1007F600D6FA1206D6F94A4B700679FC7A097BFFBF
:1008060020022EE509602A7E008E8275830012186A
:10081600FD60060EEE650A70F0C2D5EBC0E0EAC0D8
:10082600E0E9C0E0EE120972D0E0F9D0E0FAD0E0DB
:10083600FB1218E4FF60AAEBC0E0EAC0E0E9C0E002
:10084600120719D0E02401F9D0E03400FAD0E0FB19
:10085600E50A0460DCD50AD980877BFF7A09796EC0
:10086600D202809C791080027908C206C2088008EC
:10087600D2D5790A8004790AC2D5E50A047002F550
:100886000AE4FAFDFEFF1206D6FC7B0820011312CD
:1008960006D6FD7B1030000A1206D6FE1206D6FFDB
:1008A6007B20EC3382D592D55013C3E43000069FEB
:1008B600FFE49EFEE42001039DFDE49CFCE4CBF8EE
:1008C600C201EC700CCFCECDCCE824F8F870F380E2
:1008D60017C3EF33FFEE33FEED33FDEC33FCEB33A2
:1008E600FB994002FB0FD8E9EB300105F8D0E0C4D4
:1008F60048B201C0E00AEC4D4E4F78207B0070C232
:10090600EAB50A0040BCC0E0120974D0F0D0E0207D
:100916000104C4C0E0C4B201C0F0120702D0F0D591
:10092600F0EB020753121A3C07F053086A5807C146
:100936004C07BD42086E4F08764408764907D643F1
:08094600087C550860460860BA
:10094E00450860470A1C5007C52D07C92E07EC2B1A
:10095E0007CD2307EA200A052A078548000007E489
:10096E003F3F3F00790AA2D5200314300509B91084
:10097E00020404B9080104A2D52006025001042085
:10098E0002689202B509005034C0E07F203003198E
:10099E007F30A20272067205500F1209CBC202C23C
:1009AE0006C205C2087F30800F300503E9C0E01291
:1009BE000719300503D0E0F9D0E0B509CC300517A2
:1009CE007F30B9100C1207197F583004077F7880DA
:1009DE0003B908031207193002057F2D0207197F8C
:1009EE00202008F87F2B2006F322920280CF286E5B
:1009FE00756C6C2900D2011206D63001F8C201784E
:100A0E000930D50108F60207852D504349581206C4
:100A1E00D62403B405004001E4900A179312070A86
:0D0A2E00743A12070AD20375090402086A1F
:101A1C00F8E0FBA3A3E0F925F0F0E5821582700253
:071A2C001583E0FA38F022F7
:091A3300EBF0A3EAF0A3E9F022B4
:101A3C00D083D082F8E4937012740193700DA3A339
:101A4C0093F8740193F5828883E47374029368604D
:061A5C00EFA3A3A380DF4D
:10305A00EFB40A07740D123065740A309811A899F2
:10306A00B8130CC2983098FDA899C298B811F630D6
:07307A0099FDC299F59922AE
:00000001FF
