:100000000209C7752E04752F0075300075316B75A8
:1000100032007533007534697A00796B7B007F0C90
:100020008F2A8B2B8A2C892D7535FEE4F536F53712
:10003000E52A24F4600C24FE700E75361275371014
:100040008006753677753730E5364480FD7F0212BD
:1000500008CB7D807F0412099A1208C77D807F0A31
:100060001209BAE4F539F53AC3E53A952EE5399423
:1000700000501FAB2BAA2CA92D853A8285398312FB
:1000800004E2FD7F091208CB053AE53A70DA05393A
:1000900080D6AD2A7F011208CBE52AB40C077D80FB
:1000A0007F0D1209BA753902753A587F0412084F4C
:1000B0008F38E53A153A70021539E53A4539600945
:1000C000E53820E004553760E27D807F0D12099A03
:1000D000E53A453970030201857F0612084FEF5457
:1000E0001B6003020182F535E538553630E00375B3
:1000F00035FFE52A640C60030201857F0A12084F70
:100100008F387F0C12084FEF5407FD6021E538242B
:10011000FFFFE434FFFEEF7803C333CE33CED8F9CC
:100120007C002DFFEC3EAB32AA33A934800FE538BA
:1001300075F008A4FFAB32AA33A934E5F08FF012B2
:100140000543E5387003753801E538D39412400350
:10015000753812E4F539F53AC3E53A9538E539943E
:100160000050227F0912084FAB2FAA30A931853ADF
:1001700082853983EF120521053AE53A70DA0539AF
:1001800080D67535FE7D807F0C1209BA1208C7AF84
:1001900035221209021208051209DA1209A87B0099
:1001A0007A0079547F521207A48F08E50860111273
:1001B00009021208051209DA1209A81209D380DE11
:1001C00012098F7B007A0079541205628F08E508C6
:1001D00070CC7B007A0079541205DD8F08E5087039
:1001E000BD7512007513007514547BFF7A0979EC04
:1001F0007D017F601206588F08E50870A17BFF7AA9
:100200000979E17F011203A08F08E50870907B0057
:100210007A0079547F521207A48F08E508601D0503
:100220000AE50AD394054006750A15E4F553120948
:10023000021208051209DA1209A880D2E4F50AE5CB
:100240005370CBFB7A0079541205628F08E5087071
:10025000BD7B007A0079541205DD8F08E50870AE89
:100260007512007513007514547BFF7A0979EC7DC3
:10027000017F601206588F08E50870921209D37B3F
:10028000007A0079547F011207418F08E508600366
:1002900002020E12096A12088A75530102020E8DBB
:1002A0003B8B3C8A3D893E8F41853B4275280075DA
:1002B0002900752A437B007A0079417D0212046C83
:1002C000752E04752F00753000753141753200753B
:1002D000330075343F7B007A0079417F0C12002097
:1002E000EF7010E5406404453F7008E541540F6429
:1002F0000A60027FFEEF7057FEAB3CAA3DA93E8E1E
:10030000827583001204E2FD74412EF8A6050EBE2C
:1003100010E7752800752900752A457B007A007959
:10032000417D0412046CE4F53FF540752E06F52F6F
:10033000753000753141F53275330075343FFB7A05
:100340000079417F0C120020EF64FE6002E4FFEFB1
:10035000704D7541B0853B42F528752900752A43DB
:10036000FB7A0079417D0212046C752E04752F0012
:1003700075300075314175320075330075343F7B3F
:10038000007A0079417F0C120020EF7010E5406484
:1003900004453F7008E541540F640A60027FFE2265
:1003A0008B0D8A0E890F7512A08F13752800752981
:1003B00000752A147B007A0079127D0212046C7594
:1003C0002E04752F007530007531127532007533AB
:1003D000007534107B007A0079127F0C120020EF38
:1003E0007010E511640445107008E512540F640A9A
:1003F00060027FFEEF7063FEAB0DAA0EA90F8E8226
:100400007583001204E2FD74122EF8A6050EBE10CC
:10041000E7752800752900752A227B007A00791279
:100420007D1012046C752E12752F00753000753119
:10043000127532007533007534107B007A00791222
:100440007F0C120020EF7010E51164044510700855
:10045000E512540F640A60027FFE22752800752998
:1004600000752A6D7A00796B7B007D028B248A25CA
:1004700089268D277D047F0512099A1208C77D8081
:100480007F0A1209BAE4F52BE52BC395275019AB67
:1004900024AA25A926852B827583001204E2FD7FFC
:1004A000091208CB052B80E07D037F011208CB7574
:1004B0002BFF7F0512084F152BE52B6004EF30E270
:1004C000F17F2212084FAB28AA29A92AEF12050FA3
:1004D0007F2112084FAB28AA29A92A900001EF0218
:1004E0000521BB010CE58229F582E5833AF583E01D
:1004F000225006E92582F8E622BBFE06E92582F8AD
:10050000E222E58229F582E5833AF583E49322BB72
:10051000010689828A83F0225002F722BBFE01F392
:1005200022F8BB010DE58229F582E5833AF583E8DF
:10053000F0225006E92582C8F622BBFE05E9258295
:10054000C8F222BB010A89828A83F0E5F0A3F02277
:100550005006F709A7F01922BBFE06F3E5F009F3F0
:1005600019228B0D8A0E890FE4F511120996E4FD0C
:100570007F0D1208CB7D807F0E12099A751493753A
:100580001520752E02752F007530007531147532E7
:10059000007533007534127B007A0079147F0C12D9
:1005A00000208F10E510702BFF74142FF8E6AB0DB0
:1005B000AA0EA90F8F8275830012052174142FF8DB
:1005C000E662110FBF04E274142FF8E665116003B0
:1005D0007510FE7D807F0E1209BAAF10228B0D8A36
:1005E0000E890F751293751370E4F518FFAB0DAA01
:1005F0000EA90F8F827583001204E2FE74142FF887
:10060000A6068F827583001204E262180FBF04DD14
:10061000752800752900752A197B007A0079127DEA
:100620000712046C120996752E09752F007530009B
:100630007531127532007533007534107B007A0005
:1006400079127F0C120020EF700BE5116418451031
:100650007003FF80027FFE228B0F8A1089118F1892
:100660008D19E4FFAB0FAA10A9118F8275830012B8
:1006700004E2FE741A2FF8A6060FBF06E7E4FFABEC
:1006800012AA13A9148F827583001204E2FE74204B
:100690002FF8A6060FBF06E7752E0C752F007530D4
:1006A000007531187532007533007534167B007A89
:1006B0000079187F0E1200208F15E51570097F084C
:1006C00012084FEF20E3037515FEAF15228D6875F4
:1006D0006BC28F6C12045B120003EF7010E56A644A
:1006E0000445697008E56B540F640A60027FFEEFF1
:1006F0007027F56BF56CF56DF56EF52875290075AD
:100700002A6FFB7A00796B7D0412046C752E061239
:100710000006EF64FE6002E4FFEF60037FFE2275D7
:100720006BB085686C12045B120003EF7010E56A11
:10073000640445697008E56B540F640A60027FFE2B
:10074000228B0D8A0E890F7512308F137528007554
:100750002900752A147A007912120468752E04751E
:100760002F00753000753112753200753300753405
:10077000107B007A0079127F0C120020EF7022E5C6
:100780001164904510701AFE74122EF8E6AB0DAA93
:100790000EA90F8E827583001205210EBE10E9800E
:1007A000027FFE228F0D8B0E8A0F89101209967D13
:1007B000077F0D1208CB7D037F141209BA850D1334
:1007C000752E01752F007530007531137532007567
:1007D00033007534117A00791312001CEF7023E591
:1007E0001264104511701BAB0EAA0FA910E513126D
:1007F000050FAB0EAA0FA910900001E514120521F8
:1008000080027FFE22D2A500C2A500D2A57F0A7E6B
:100810000012094C7D0F7F011208CB007D3D7F1136
:100820001208CB7D1E7F2D1208CBE4FD7F2C120811
:10083000CB7D8D7F2A1208CB7D3E7F2B1208CB7D8E
:10084000407F151208CB7F0022AC07AB05E4FEE425
:10085000FEC2A6C2A4EF25E0547E4480FF7D08EFCF
:10086000C330E701D392A7D2A6EF25E0FFC2A6DDF1
:10087000EE7D08D2A6EE25E0FEA280E4334206C259
:10088000A6DDF0D2A4D2A6AF0622751050E4F51171
:10089000F528752900752A12FB7A0079107D02125D
:1008A000046C752E04752F0075300075311075328B
:1008B0000075330075340E7B007A0079107F0C12BE
:1008C00000208F0D7F0022E4FD7F01C2A6C2A4EFAD
:1008D00025E0547EFF7E08EFC330E701D392A7D214
:1008E000A6EF25E0FFC2A6DEEE7E08EDC330E701ED
:1008F000D392A7D2A6ED25E0FDC2A6DEEED2A4D209
:10090000A6227580FF7590FF75B0FF75A0FF7589F1
:1009100021759850758DFD758BFDE4F58CF58AD2A7
:100920008CD2A9D28ED299D2AFD2ACD29822D3EFA8
:100930009400EE940040147D7D7C00ED1D70011C40
:10094000ED4C70F7EF1F70E61E80E322D3EF9400AA
:10095000EE940040147D6E7C00ED1D70011CED4C8A
:1009600070F7EF1F70E61E80E3221209857F5E7E1E
:10097000011209827FFA7E001209827FFA7E00024C
:10098000092E12092E1209D37F2C7E0112092ED2B4
:10099000B3D2CFD2CD227D087F08120849AE07AF6F
:1009A00004EBF45EFD0208CB7F1412084FEF5403F2
:1009B00070077D037F141209BA22120849AE07AFEF
:1009C00004EB4EFD0208CB787FE4F6D8FD75817C00
:1009D000020192C2B3C2CFC2CD227D037F140209AD
:1009E0009A0102030405060700000001FFFFFFFF54
:0209F000FFFF07
:00000001FF
