:030000000227389C
:0C273800787FE4F6D8FD75812102277F30
:1010B60000C1814001C0804101C0804100C1814022
:1010C60001C0804100C1814000C1814001C0804112
:1010D60001C0804100C1814000C1814001C0804102
:1010E60000C1814001C0804101C0804100C18140F2
:1010F60001C0804100C1814000C1814001C08041E2
:1011060000C1814001C0804101C0804100C18140D1
:1011160000C1814001C0804101C0804100C18140C1
:1011260001C0804100C1814000C1814001C08041B1
:1011360001C0804100C1814000C1814001C08041A1
:1011460000C1814001C0804101C0804100C1814091
:1011560000C1814001C0804101C0804100C1814081
:1011660001C0804100C1814000C1814001C0804171
:1011760000C1814001C0804101C0804100C1814061
:1011860001C0804100C1814000C1814001C0804151
:1011960001C0804100C1814000C1814001C0804141
:1011A60000C1814001C0804101C0804100C1814031
:1011B60000C0C101C30302C2C60607C705C5C404F1
:1011C600CC0C0DCD0FCFCE0E0ACACB0BC90908C861
:1011D600D81819D91BDBDA1A1EDEDF1FDD1D1CDC51
:1011E60014D4D515D71716D6D21213D311D1D010C1
:1011F600F03031F133F3F23236F6F737F53534F4B1
:101206003CFCFD3DFF3F3EFEFA3A3BFB39F9F83820
:1012160028E8E929EB2B2AEAEE2E2FEF2DEDEC2C10
:10122600E42425E527E7E62622E2E323E12120E080
:10123600A06061A163A3A26266A6A767A56564A470
:101246006CACAD6DAF6F6EAEAA6A6BAB69A9A868E0
:1012560078B8B979BB7B7ABABE7E7FBF7DBDBC7CD0
:10126600B47475B577B7B67672B2B373B17170B040
:101276005090915193535292965657975595945430
:101286009C5C5D9D5F9F9E5E5A9A9B5B99595898A0
:10129600884849894B8B8A4A4E8E8F4F8D4D4C8C90
:1012A6004484854587474686824243834181804000
:102BB1009002B6EBF0A3EAF0A3E9F0A3ECF0A3EDE9
:012BC100F023
:102BC2007FFF7DFF9002B974FFF5F012155045F0BA
:102BD20060259002B6E0FBA3E475F001121550A93E
:102BE200F0FA1214596DFB7A009010B6936FFDEB58
:0B2BF2009011B693FF80CDEFFEEDFFC9
:012BFD0022B5
:10302700000000100020060008000A000C000E0037
:102E2600E4F5C275C78375C501AF019002CBEAF020
:102E3600A3EFF09002CBE0F5C3A3E0F5C475C65A44
:092E460075C6A500123070AFC280
:012E4F002260
:102E500075C78375C502AF019002CDEAF0A3EFF00C
:102E60009002CDE0F5C3A3E0F5C4AF058FC275C6EF
:082E70005A75C6A5000230707E
:102EEB0075C78375C5039002CFEEF0A3EFF0900288
:102EFB00CFE0F5C3A3E0F5C475C65A75C6A50002AD
:022F0B00307024
:0C307000E4F5C7F5C5F5C6F5C3F5C422AC
:0B29CA009002A0EBF0A3EAF0A3E9F0FC
:1029D500E49002A7F09002A6E0FFA3E0C39F503861
:1029E5009002A3E0FBA3E0FAA3E0F9122E269002E1
:1029F500A0E0FBA3E0FAA3E0F99002A7E0F5827559
:102A05008300EF1214B19002A4E475F00112153A97
:082A15009002A7E004F080BD6F
:012A1D002296
:0B2AC4009002A8EBF0A3EAF0A3E9F0F9
:102ACF00E49002AFF09002AEE0FFA3E0FEC39F5090
:102ADF00349002A8E0FBA3E0FAA3E0F98E8275839D
:102AEF0000121472FD9002ABE0FBA3E0FAA3E0F931
:102AFF00122E509002ACE475F00112153A9002AF0D
:052B0F00E004F080C0AD
:012B1400229E
:0430A700122EEB22D8
:101B1A0090027BEFF0C3940540037FFF22903027A9
:101B2A00E493FE740193AA06F99002A3E4F0A3EAEF
:101B3A00F0A3E9F0A37405F07B017A02797C1229FB
:101B4A00CA903029E493FE740193AA06F99002A37D
:101B5A00E4F0A3EAF0A3E9F0A37405F07B017A02AA
:101B6A0079811229CA90302BE493FE740193AA0654
:101B7A00F99002A3E4F0A3EAF0A3E9F0A37405F054
:101B8A007B017A0279861229CA90027BE0FF2481BE
:101B9A00F582E43402F583E0FE747C2FF582E434A6
:101BAA0002F583E0FFB5061C90027BE02486F582ED
:101BBA00E43402F583EFF090027BE0247CF582E4C2
:101BCA003402805290027BE0FF2486F582E43402DC
:101BDA00F583E0FD747C2FF582E43402F583E0FF9F
:101BEA0090027BB50519E02481F582E43402F5837D
:101BFA00EFF090027BE0247CF582E434028017E067
:101C0A00247CF582E43402F583EEF090027BE02432
:0A1C1A0081F582E43402F583E0FF57
:011C2400229D
:1026AA00900188E075F00AA4FF900187E075F06454
:1026BA00A42FFF900189E02F9002B1F09000D4E09E
:1026CA009002B2F0900186E09002B3F09000D3E05D
:1026DA009002B4F0900155E09002B5F0903027E4F2
:1026EA0093FE740193FF1230A7E49002B0F09002B7
:1026FA00B0E0FFC394035035EF25E02427F582E4C8
:10270A003430F583E493FE740193AA06F99002AB80
:10271A00E4F0A3EAF0A3E9F0A37405F07B017A02DE
:0D272A0079B1122AC49002B0E004F080C121
:01273700227F
:1022C300E4FF121B1A9002BBEFF07F01121B1A905E
:1022D30002BCEFF07F02121B1A9002BDEFF07F03E6
:1022E300121B1A9002BEEFF07F04121B1A9002BF5A
:1022F300EFF09002BBE0D3940074809481400374A8
:1023030001F09002BCE0D394034002E4F09002BDDC
:10231300E0D3940540037405F09002BEE0D394012A
:102323004002E4F09002BFE0D394014002E4F09055
:1023330002BBE0FF75F06484900187F0EF75F064F1
:1023430084E5F075F00A84A3F09002BBE075F00A0F
:1023530084900189E5F0F09002BCE09000D4F09005
:1023630002BDE0900186F09002BEE09000D3F090B1
:0723730002BFE0900155F0EC
:01237A002240
:0C1D27004102C9004102CA004102C8008C
:10000E00E49002D7F012307C9002D7E004F0E0C307
:04001E00940540F114
:0100220022BB
:102DC500E49002C9F0A3E0B4010FA2A04003D380B0
:102DD50001C34005E49002CAF09002CAE0701120D8
:102DE500A00E12000E20A0089002C97401F0A3F0F5
:012DF50022BB
:073099009002C87401F0224F
:102B1500E49002C5F0A3F0A3F09001B8E06006E4EC
:102B25009002C9F022900191E0B401279001B1E033
:102B3500900187F09001B2E0900188F09001B3E038
:102B4500900189F01226AA9001917402F0900190EB
:0D2B550004F0229002C9E0147003123099C0
:012B62002250
:101D33004100D400410186054100D3004101550013
:101D4300608000D5C0F9A4B0999282F8809088830E
:101D5300C6A1868EFF8BFFF1FFC7FFABA38CFFFFEE
:101D63009287C1E3FF89FFFFBFDFFEFDFBF7EF8F24
:101D7300BFBF7FFFC0F9A4B0999282F880904079E9
:101D830024301912FF8883C6A1868EC289F9E1BF68
:101D9300C78FABA38C98AF9287C1E39CFF91A4003C
:101DA300FF027800108883A7A1868EC289FBE1BF5A
:101DB300C78FABA38C98AF9287C1E39CFF91A4BF5D
:041DC300BFBFBFBF20
:0E304700D2A7C2A5C2A6C2A7E4900185F022BE
:102EC700900185E0FF7007C296D2B4D29422EFB486
:102ED7000107D296C2B4D29422EFB40206D296D298
:032EE700B4C294DE
:012EEA0022C5
:102F0D00C2A6E4FEEF30E704D2C48002C2C4C2A55B
:102F1D0000D2A5EF25E0FF0EEEB408E8D2A6022EF2
:012F2D00C7DC
:10296F009001BBE06054E49001BBF0900185E0FF63
:10297F0025E02414F8E66401702BEF25E02413F80A
:10298F00E6C394804008E025E02413F8767F900199
:10299F0085E025E02413F8E624D5F582E43400F52C
:1029AF0083E0FD80027DFFAF05122F0D900185E0C2
:0A29BF0004F0E0C394034002E4F0CA
:0129C90022EB
:101FCA0090018CE0FEA3E0FFFDAC06900194E014C2
:101FDA00B407004003022085901FF075F003A4C5E2
:101FEA008325F0C5837302200502200E02201C02FD
:101FFA00202A02203B02205302206BEEC313FCEF7F
:10200A0013FD807790018CE0FEA3E0FF7C007D0346
:10201A00801A90018CE0FEA3E0FF7C007D06800C14
:10202A0090018CE0FEA3E0FF7C007D0B1214E5809A
:10203A004690018CE0FEA3E0FF7C007D031214E5CC
:10204A00EF25E0FDEE33FC803290018CE0FEA3E048
:10205A00FF7C007D061214E57C007D051214D380F6
:10206A001690018CE0FEA3E0FF7C007D0B1214E5C4
:0F207A007C007D0A1214D3AC06AD07AE04AF058F
:012089002234
:10208A0090018CE0FEA3E0FFFDAC06900194E01401
:10209A00B4070040030221459020B075F003A4C59F
:1020AA008325F0C583730220C50220FB0221130297
:1020BA00212B0220CE0220DC0220EAEEC313FCEF21
:1020CA0013FD807790018CE0FEA3E0FF7C007D0386
:1020DA00801A90018CE0FEA3E0FF7C007D06800C54
:1020EA0090018CE0FEA3E0FF7C007D0B1214E580DA
:1020FA004690018CE0FEA3E0FF7C007D031214E50C
:10210A00EF25E0FDEE33FC803290018CE0FEA3E087
:10211A00FF7C007D061214E57C007D051214D38035
:10212A001690018CE0FEA3E0FF7C007D0B1214E503
:0F213A007C007D0A1214D3AC06AD07AE04AF05CE
:012149002273
:1015D70090015775F007EF121585EE75F007A425F2
:1015E70083F583E0FCA3E0FD9002D1ECF0A3EDF0DE
:1015F70090015975F007EF121585EE75F007A425D0
:1016070083F583E014B40700400302173A901622CB
:1016170075F003A4C58325F0C58373021637021638
:101627004402166A0216900216B60216E002170C5A
:10163700ECC313FFED139002D1CF02173690015779
:1016470075F007EF121585EE75F007A42583F5836E
:10165700E0FEA3E0FF7C007D031214E59002D1EECB
:1016670002173690015775F007EF121585EE75F0E2
:1016770007A42583F583E0FEA3E0FF7C007D061227
:1016870014E59002D1EE02173690015775F007EF77
:10169700121585EE75F007A42583F583E0FEA3E018
:1016A700FF7C007D0B1214E59002D1EE02173690F5
:1016B700015775F007EF121585EE75F007A425831E
:1016C700F583E0FEA3E0FF7C007D031214E5EF2520
:1016D700E0FFEE339002D1805690015775F007EF87
:1016E700121585EE75F007A42583F583E0FEA3E0C8
:1016F700FF7C007D061214E57C007D051214D39053
:1017070002D1EE802A90015775F007EF121585EE8A
:1017170075F007A42583F583E0FEA3E0FF7C007D39
:101727000B1214E57C007D0A1214D39002D1EEF05F
:0B173700A3EFF09002D1E0FEA3E0FF62
:011742002284
:1017430090015775F007EF121585EE75F007A42584
:1017530083F583E0FCA3E0FD9002D3ECF0A3EDF06E
:1017630090015975F007EF121585EE75F007A42562
:1017730083F583E014B4070040030218A690178E84
:1017830075F003A4C58325F0C583730217A302185C
:101793002202184C0218780217B00217D60217FC5F
:1017A300ECC313FFED139002D3CF0218A29001579D
:1017B30075F007EF121585EE75F007A42583F58301
:1017C300E0FEA3E0FF7C007D031214E59002D3EE5C
:1017D3000218A290015775F007EF121585EE75F008
:1017E30007A42583F583E0FEA3E0FF7C007D0612BA
:1017F30014E59002D3EE0218A290015775F007EF9B
:10180300121585EE75F007A42583F583E0FEA3E0AA
:10181300FF7C007D0B1214E59002D3EE0218A29018
:10182300015775F007EF121585EE75F007A42583B0
:10183300F583E0FEA3E0FF7C007D031214E5EF25B2
:10184300E0FFEE339002D3805690015775F007EF17
:10185300121585EE75F007A42583F583E0FEA3E05A
:10186300FF7C007D061214E57C007D051214D390E5
:1018730002D3EE802A90015775F007EF121585EE1B
:1018830075F007A42583F583E0FEA3E0FF7C007DCC
:101893000B1214E57C007D0A1214D39002D3EEF0F0
:0B18A300A3EFF09002D3E0FEA3E0FFF3
:0118AE002217
:102850009000D1E0B401047F028053900190E0FF2A
:10286000604A900194E070028044900195E0701DF0
:102870009001B9E07002A3E07037900190E0FF1280
:1028800028B29001957401F0121FCA80169001B908
:10289000E07002A3E0701AFF1228B2E4900195F0F4
:1028A00012208A9001B9EEF0A3EFF022E4FF122883
:0228B000B22252
:100E9E00900156E06401704C900159E07006D282C8
:100EAE00D2A2804490015AE07019A3E07002A3E030
:100EBE007036D282D2A290015A04F0E4FFFE1215CF
:100ECE00D7801790015BE07002A3E0701BC282C254
:100EDE00A290015AF0FFFE12174390015BEEF0A3B1
:100EEE00EFF08004C282C2A290015DE06401704DF9
:100EFE00900160E07006D280D2B68045900161E02C
:100F0E007019A3E07002A3E07037D280D2B69001C0
:100F1E006104F0FF7E001215D78018900162E07018
:100F2E0002A3E0701CC280C2B6900161F07F01FE88
:100F3E00121743900162EEF0A3EFF08004C280C25C
:100F4E00B6900164E06401704E900167E07006D2C5
:100F5E0081D2A38046900168E0701AA3E07002A3CC
:100F6E00E07038D281D2A390016804F07F027E0037
:100F7E001215D78018900169E07002A3E0701CC2B0
:100F8E0081C2A3900168F07F02FE1217439001699F
:100F9E00EEF0A3EFF08004C281C2A390016BE06477
:100FAE0001704E90016EE07006D283D2B7804690EB
:100FBE00016FE0701AA3E07002A3E07038D283D202
:100FCE00B790016F04F07F037E001215D780189042
:100FDE000170E07002A3E0701CC283C2B790016F73
:100FEE00F07F03FE121743900170EEF0A3EFF08036
:100FFE0004C283C2B7900172E06401704E90017515
:10100E00E07006D290D2A18046900176E0701AA3CD
:10101E00E07002A3E07038D290D2A190017604F075
:10102E007F047E001215D78018900177E07002A31E
:10103E00E0701CC290C2A1900176F07F04FE1217E0
:10104E0043900177EEF0A3EFF08004C290C2A1901E
:10105E000179E06401704C90017CE07005D291D270
:10106E00972290017DE0701AA3E07002A3E0703722
:10107E00D291D29790017D04F07F057E001215D794
:10108E00801890017EE07002A3E0701BC291C2979F
:10109E0090017DF07F05FE12174390017EEEF0A3C6
:0810AE00EFF022C291C297226B
:1028B200EF14B4070050519028C775F003A4C583E4
:1028C20025F0C583730228DC0228E30228EA0228E5
:1028D200F10228F80228FF022903D285D286C28497
:1028E20022D284D286C28522D284D285C28622D2C4
:1028F20086C284C28522D285C284C28622D28480C4
:0F29020002C284C285C28622D284D285D28622A6
:102F2E00E490019BF0FFEF25E02413F8E4F6EF2583
:102F3E00E02414F8E4F60FEFB403EBE4900190F004
:012F4E002260
:100A3B00E4FFFEFDFCEF25E02414F8E4F60FBF0005
:100A4B00010EEF64034E70ED9000D1E06401600382
:100A5B00020B65FC7D0290009DE024FFFFE434FF58
:100A6B00FEC3EE648094805003020C76EC64809499
:100A7B00805003020C76749E2FF58274003EF58332
:100A8B00E0C39430401F749E2FF58274003EF583B3
:100A9B00E0D39439500F749E2FF58274003EF5838A
:100AAB00E024D0805C749E2FF58274003EF583E0C9
:100ABB00C39441401F749E2FF58274003EF583E072
:100ACB00D3945A500F749E2FF58274003EF583E039
:100ADB0024C9802D749E2FF58274003EF583E0C3EC
:100AEB009461402B749E2FF58274003EF583E0D306
:100AFB00947A501B749E2FF58274003EF583E0248C
:100B0B00A9FBAA05EA25E02413F8A603EA801974C9
:100B1B009E2FF58274003EF583E0B42D12AB05EBEE
:100B2B0025E02413F8767FEB25E02414F876017486
:100B3B009E2FF58274003EF583E0640D6014749E65
:100B4B002FF58274003EF583E0640A6005ED1D709D
:100B5B00011CEF1F70011E020A6C90019BE0D394E5
:100B6B00005003020C767C007D02E024FFFFE4348E
:100B7B00FFFEC3EE648094805003020C76EC64801D
:100B8B0094805003020C76749C2FF58274013EF511
:100B9B0083E0C39430401F749C2FF58274013EF5A3
:100BAB0083E0D39439500F749C2FF58274013EF57A
:100BBB0083E024D0805C749C2FF58274013EF58316
:100BCB00E0C39441401F749C2FF58274013EF58362
:100BDB00E0D3945A500F749C2FF58274013EF58329
:100BEB00E024C9802D749C2FF58274013EF583E0BF
:100BFB00C39461402B749C2FF58274013EF583E006
:100C0B00D3947A501B749C2FF58274013EF583E0CC
:100C1B0024A9FBAA05EA25E02413F8A603EA801908
:100C2B00749C2FF58274013EF583E0B42D12AB0555
:100C3B00EB25E02413F8767FEB25E02414F87601FE
:100C4B00749E2FF58274003EF583E0640D6014747E
:100C5B009E2FF58274003EF583E0640A6005ED1D5E
:0B0C6B0070011CEF1F70011E020B7DCA
:010C7600225B
:102F4F009001B1E07813F6A3E07815F6A3E07817B7
:0E2F5F00F6781476017816760178187601223D
:0330AB00C2CD2271
:0330AE00D2CD225E
:102D19001230AB7F1E7E00122F881230AE7F237EC9
:102D290000122F881230AB7F1E7E00122F881230BE
:102D3900AE7F197E00122F881230AB7F1E7E0012E3
:0C2D49002F881230AE7F197E00022F8808
:102FA00012345678EDCBA9871234567801FE01FE13
:062FB000FFFFFFFFFFFF21
:101DC700410198004101B000420192000041019990
:101DD700004101900142018C03E841019401410156
:101DE700950041018E014101910041019700410198
:101DF70096004201D600004201BE00004201C00029
:101E07000041018F004201BC00004201B4000042C2
:081E170001B600004101B80012
:102E7800123005122FB6122B631230A0122FF390C6
:102E880001DB74FFF0A3742FF0A374B0F07B107D06
:082E9800037F601224E180E7D2
:03000B0002257E4D
:10257E00C0E0C0F0C083C082C0D075D000C000C023
:10258E0001C002C003C004C005C006C007758CFCA4
:10259E00758A6690018BE004F0700690018AE00463
:1025AE00F0D390018BE094E890018AE0940340040C
:1025BE00D2B38002C2B3D390018BE094D090018A43
:1025CE00E094074004E4F0A3F0D39002C3E094003B
:1025DE009002C2E094004011A3E024FFF09002C2EA
:1025EE00E034FFF01230AB80031230AED007D006CD
:1025FE00D005D004D003D002D001D000D0D0D082EC
:07260E00D083D0F0D0E032D0
:101E2000E4FF900188E075F00AA4FE900187E07558
:101E3000F064A42EFE900189E02EFE900000F0A335
:101E40007403F0900039E024FB60252402706F9049
:101E500000027401F09002C8E06008900003740171
:101E6000F08005E4900003F09000327404F0804E9E
:101E70009000D1E06401703B90009DE0900002F082
:101E8000E4FF90009DE0FEEFC39E501B749E2FF573
:101E900082E43400F583E0FE74032FF582E434001D
:101EA000F583EEF00F80DB90009DE024039000327C
:101EB000F0800BE4900002F09000327403F07B019C
:101EC0007A007900900032E0FD7C00122BB1900086
:101ED00032E02400F582E43400F583EFF0EEFF9069
:101EE0000032E02401F582E43400F583EFF0900045
:101EF00032E02402F07B017A007900E0FD7C0002F0
:021F00002C496A
:102BFE00900188E075F00AA4FF900187E075F064FB
:102C0E00A42FFF900189E02FFF900000F0A3740322
:102C1E00F0E4A3F07B017A0079007D03FC122BB166
:102C2E00900003EFF0EEA3F09000327405F07B01FC
:0B2C3E007A007900E0FD7C00022C49C8
:103037007B017A007934900033E0FD7C00022C4953
:102A1E00900188E075F00AA4FF900187E075F064DC
:102A2E00A42FFF900189E02FFF900000F0A37410F7
:102A3E00F0E4A3F0A3F0A3F0A37405F07B017A00F9
:102A4E0079007D067C00122BB1900006EFF0EEA30C
:102A5E00F09000327408F07B017A007900E0FD7C82
:042A6E0000022C49ED
:102FE000122C91E4900191F0900187F0A3F0A3F0EE
:032FF0000226AA0C
:10004600900188E075F00AA4FF900187E075F064DE
:10005600A42FFF900189E02F90028BF0E49002908C
:10006600F0A3F0A3F0A3F0A3F0A3F0900034E060B7
:10007600030203BBA3E0640660030203BB900033E4
:10008600E0640860030203BBC2C1C2C67B017A00FA
:100096007934E024FEFDE434FFFC122BB190028E8D
:1000A600EEF0A3EFF0E490028EF0A3F0900033E0C0
:1000B6002432F582E43400F583E0FF90028CE4F00C
:1000C600A3EFF0900033E02433F582E43400F583A7
:1000D600E0FE90028DE02400F090028CE03EF0E01D
:1000E600FEA3E0FFA3E06E7003A3E06F60030206C9
:1000F600A3900037E07006122FE00206A3900037A7
:10010600E06401704D900191E0640270030206A361
:100116007401F0900039E075F064849001B1F090BC
:100126000039E075F06484E5F075F00A849001B258
:10013600F0900039E075F00A849001B3E5F0F0E440
:10014600900194F09001907402F09001B014F002C6
:1001560006A3900037E0641060030202CFA3E0FE1E
:10016600A3E07C002400FFEC3E900294F0A3EFF0A5
:10017600900294E0FEA3E0FF4E700F900187E078B6
:1001860013F6A3E07815F6A38058BE2710BF110D0D
:100196007813760F781576019000D48045900294F6
:1001A600E0FEA3E0FFBE2710BF120D7813760F788E
:1001B600157602900186802ABE2710BF130D78138C
:1001C600760F781576039000D38017900294E0B4EA
:1001D6002716A3E0B414117813760F7815760490D9
:1001E6000155E07817F68052900294E0FAA3E0FBFE
:1001F6007C037DE8FFAE021214E57E007F64CFCD5E
:10020600CFCECCCE1214E57813A6077C007D64AF62
:1002160003AE021214E57E007F0ACFCDCFCECCCE40
:100226001214E57815A607900294E0FEA3E0FF7C81
:10023600007D0A1214E57817A6057814760178165B
:100246007601781876017F051228B27FE87E0312C0
:100256002F88E4900194F0900290F0900290E0FFD5
:10026600C3940640030206A3EF75F007A42456F5CF
:1002760082E43401F5837401F0EF75F007A4245786
:10028600F582E43401F5837403F0A374E8F0EF75A6
:10029600F007A42459F582E43401F5837403F0EFE2
:1002A60075F007A4245AF582E43401F583E4F0EFEF
:1002B60075F007A4245BF582E43401F583E4F0A32A
:1002C600F0900290E004F08092900037E0B4110BB9
:1002D600122C91E4900191F00206A3900037E0649D
:1002E6002070377813760F78157601900039E0780C
:1002F60017F6781476017816760178187601E0906C
:100306000190F0E4900194F0900190E09000D4F018
:10031600D394034036E4F00203B5900037E064213D
:10032600702B7813760F78157602900039E07817DF
:10033600F6781476017816760178187601E0900141
:1003460086F0E0D3940540037405F0806290003790
:10035600E06422702A7813760F78157603900039B8
:10036600E07817F678147601781676017818760113
:10037600E09000D3F0E0D394014002E4F0803090A6
:100386000037E06423702B7813760F781576049087
:100396000039E07817F67814760178167601781821
:1003A6007601E0900155F0E0D394014002E4F012AA
:1003B60026AA0206A390028BE0FF900034E06F604D
:1003C600030206A7C2C1C2C67B017A007934900037
:1003D60033E024FEFDE434FFFC122BB190028EEED6
:1003E600F0A3EFF0900033E02432F582E43400F518
:1003F60083E0FF90028CE4F0A3EFF0900033E0245A
:1004060033F582E43400F583E0FE90028DE02400AB
:10041600F090028CE03EF0E0FEA3E0FFA3E06E70F9
:1004260003A3E06F60030206A3900035E024FA60A0
:100436004424F670030205E2240D60030206A3902D
:100446000038E0700BA3E0B40106122BFE0206A3EF
:10045600900038E07007A3E0B403028012900038E1
:10046600E060030206A3A3E0640560030206A3128C
:100476001E200206A3900033E0640860030206A370
:10048600123037900037E07005122C9180349000BE
:1004960037E064016004E0B40205122F2E80239039
:1004A6000037E0B40510E49000D1F090009DF09084
:1004B60001B004F0800C900037E0B41005E490021F
:1004C600C8F0900037E0B42020900039E070079023
:1004D60001B8F00206A3900039E064016003020649
:1004E600A39001B804F00206A3900037E0C394116C
:1004F60050030206A3E0D3941640030206A3E024A9
:10050600EF900290F0900039E0C4135407900291E6
:10051600F0E060047F0180027F00900290E0FE75AB
:10052600F007A42456F582E43401F583EFF0900039
:1005360039E0131313540314602014603314604716
:1005460024037058EE75F007A42457F582E43401AD
:10055600F583E4F0A37450F08042EE75F007A4240E
:1005660057F582E43401F583E4F0A374A0F0802CFF
:10057600EE75F007A42457F582E43401F58374017F
:10058600F0A37440F08015EE75F007A42457F582A9
:10059600E43401F5837402F0A37480F0900039E02E
:1005A6005407FF900290E0FE75F007A42459F582E7
:1005B600E43401F583EFF0EE75F007A4245AF582D2
:1005C600E43401F583E4F0EE75F007A4245BF582CC
:1005D600E43401F583E4F0A3F00206A3900033E0CF
:1005E60024F5FF90003CE06F60030206A3E0D3947D
:1005F6001440030206A3122A1E90003AE0C41354C4
:1006060007900190F090003AE0131313540314601E
:100616001514601D1460262403702290018CE4F0EA
:10062600A37450F0802190018CE4F0A374A0F080B4
:100636001690018C7401F0A37440F0800A90018C2E
:100646007402F0A37480F090003AE054079001948D
:10065600F0E4900195F09001B9F0A3F090003CE031
:1006660090019BF0E4900292F090019BE0FF9002D3
:1006760092E0FEC39F5020743D2EF582E43400F5CF
:1006860083E0FF749C2EF582E43401F583EFF0904D
:100696000292E004F080D29001B07401F0D2C1D28F
:1006A600C6E4900293F0900293E0FFC39432501494
:1006B60074342FF582E43400F583E4F0900293E07D
:0F06C60004F080E2E4900033F0900067F07F01D1
:0106D5002202
:102FCC00E49002D5F0A3F0900033E0C394064003E4
:032FDC001200469A
:012FDF0022CF
:10002600759850538EBF538EFE53890F758BE875A6
:0B0036008DFFC2ABD28ED2ACD2AF2245
:10300500120026E4900033F0900067F0900066F01F
:013015002298
:0300230002309018
:09309000309805C2988599993227
:080003008F993099FDC299228A
:0B2C49009001E1EBF0A3EAF0A3E9F03A
:102C5400E4A3F09001E4E0C39DE49C502F9001E1D3
:102C6400E0FBA3E0FAA3E0F912145920D004C29BBC
:102C74008002D29B9001E4E0F58275830012147205
:0C2C8400FF1200039001E4E004F080C7A0
:012C90002221
:102DF600759A5A900180E014601C14600C146011DE
:102E060024037012759CB88010759CEE43878080F1
:102E160008759CF78003759CDC758E1475AF0122CE
:10301600122DF6E490009DF09000D1F09000D0F0D3
:013026002287
:030043000229117E
:10291100C0E0C083C082C0D075D000C0079000D194
:10292100E0B4010AE4F090009DF0900069F0E59AAE
:1029310030E026539AFE90009DE0C39432502490DB
:10294100009DE0FF04F0749E2FF582E43400F583CE
:10295100E59BF09000D07402F0E59A30E105539ABE
:0E296100FDC209D007D0D0D082D083D0E032A2
:102FB600538E7F5389F0438901758A66758CFCC2EE
:062FC6008DD28CD2A9227D
:09307C00007F0B7EBEDEFEDFFCCE
:013085002228
:102F8800AD07AC06D3ED9400EC9400400A12307CF7
:082F9800ED1D70F01C80ED221C
:0A30860025262728292A24563C326B
:102D9000E4F591759280F59575960EF5B175B2C012
:102DA00075BB70C282C280C281C283C290C291C20E
:102DB000A2C2B6C2A3C2B7C2A1C2979001BBF053D0
:052DC0008EDFF59722F3
:1012B600E49002D8F09002D8E0FFC39403501FE0F8
:1012C600FE90308D93FDEE25E02413F8A605EF255C
:1012D600E02414F876019002D8E004F080D77F204D
:1012E6007E03122F88E49002D8F0E4FF9002D8E043
:1012F60090308693FEEF25E02413F8A6060FEFB490
:1013060003EA7F2C7E01122F889002D8E004F0E0D9
:10131600C3940740D5E49002D8F09002D8E0FFC30A
:1013260094035015EF25E02413F87608EF25E02402
:1013360014F87601E004F080E1E490019BF090005F
:10134600D1F090009DF0C2C1C2C6900187E078132B
:10135600F6A3E07815F6A3E07817F67F011228B217
:101366007FF47E01122F887F021228B27FF47E015D
:10137600122F887F031228B27FF47E01122F88E491
:101386009002D8F09002D8E0FFC39403500DEF25E9
:10139600E02413F87620E004F080E97F041228B2F6
:1013A6007FF47E01122F887F051228B27FF47E011A
:1013B600122F887F061228B27FF47E01122F88E44E
:1013C600FF1228B2D282D2A2D283D2B77813760F76
:1013D600781576019000D4E07817F67FE87E031240
:1013E6002F88C282C2A2C283C2B7D280D2B6D2909E
:1013F600D2A17813760F78157602900186E07817D9
:10140600F67FE87E03122F88C280C2B6C290C2A1C0
:10141600D281D2A3D291D2977813760F781576031C
:101426009000D3E07817F67FE87E03122F88C281FA
:10143600C2A3C291C2977813760F781576049001ED
:1014460055E07817F67FE87E03122F88D2C1D2C600
:03145600022C91D4
:102C9100E490019BF0FFEF25E02413F8E4F6EF2523
:102CA100E02414F8E4F60FEFB403EBE4900190F0A4
:102CB1009002C8F09000D1F090009DF0900156F084
:102CC10090015DF0900164F090016BF0900172F061
:042CD100900179F005
:012CD50022DC
:102F6D00BFA8D0F2C1D0BAC53A002558000A00B3A7
:0B2F7D00C9B9A6D0B4C8EBA3A10A009C
:1018AF00900296EFF0A3EDF0A3EBF0A3EAF0A3E91B
:0118BF00F038
:1018C000E490029DF012261590029BEFF060030257
:1018D00019B49002C4F09002C1E060030219D8125A
:1018E0001F0290029BEFF060030219D87BFF7A2F52
:1018F000796D120741E490029CF090029CE0FFC3D6
:101900009404502F74C22FF582E43401F583E0FF74
:101910007E0090029EEEF0A3EFF07BFF7A2F7977A6
:10192000900212EEF0A3EFF012074190029CE00447
:10193000F080C77BFF7A2F797A1207411222099033
:10194000029BEFF060030219D8900296E0FFA3E03B
:10195000FD9001E67401F0A37401F0A374C2F0904D
:10196000029812243390029BEFF0706C900297E083
:10197000121C2590029BEFF0705E900297E004121B
:101980001C2590029BEFF0704F900297E02402120A
:101990001C2590029BEFF070097BFF7A2F797C1257
:1019A0000741122A7290019A7401F09002C2F0A3CA
:1019B00074F4F0229002C4E004F0E0B40109122BA8
:1019C000631230A0122FF39002C4E0D394054008B4
:1019D0007405F0E49002C1F090029DE004F0E0C3D1
:0719E000940550030218C535
:0119E70022DD
:0B24E1009001D8EFF0A3EDF0A3EBF0AA
:1024EC00122615EF70679002C0F090019AE060031D
:1024FC0002257D121F02EF7078122209EF70729084
:10250C0001D8E0FFA3E0FD9001E67401F0A3740193
:10251C00F0A374C2F09001DB122433EF70539001DE
:10252C00D9E0FF7B017A0179C21227C4EF70421205
:10253C002A7290019A7401F09002C2F0A374F4F024
:10254C007B017A0179C27D147C00022C499002C077
:10255C00E004F0E0B40109122B631230A0122FF347
:10256C009002C0E0D3940540087405F0E490019A01
:01257C00F06E
:01257D00223B
:082615007B017A0179C27F52BA
:0E261D009001E1EFF0A3EBF0A3EAF0A3E9F0E7
:10262B007D087F081230557D077F0D122D557D03D8
:10263B007F141230639001E1E09001E7F090020209
:10264B007401F0A3F0A37401F0A374E7F0A3740179
:10265B00F0A37401F0A374E5F07A0179E7120C99F9
:10266B00EF70399001E5E07004A3E06410702D90D9
:10267B0001E7E0FE9001E2E0FBA3E0FAA3E0F9EE54
:10268B0012149F9001E8E0FE9001E2E0FBA3E0FA58
:0E269B00A3E0F9900001EE1214B180027FFE60
:0126A900220E
:061F02007B017A0179C2A7
:0B1F08009001E1EBF0A3EAF0A3E9F088
:101F1300E49001E5F07D087F08123055E4FD7F0D64
:101F2300122D557D807F0E1230559001E87493F089
:101F3300A37420F09002027402F07B01A314F0A3B7
:101F43007401F0A374E8F0A3EBF0A37401F0A3749D
:101F5300E6F07A0179E87F0C120C9D9001E4EFF032
:101F63007058FC74E82CF582E43401F583E0FE90AC
:101F730001E1E0FBA3E0FAA3E0F9AF048F827583EC
:101F830000EE1214B19001E5E0FE74E82FF582E44F
:101F93003401F583E0FDEE6D9001E5F00CECB40443
:101FA300C274E82CF582E43401F583E0FF9001E587
:101FB300E06F60069001E474FEF07D807F0E1230C6
:061FC300639001E4E0FF61
:011FC90022F5
:062209007B017A0179C29D
:0B220F009001E1EBF0A3EAF0A3E9F07E
:10221A009001E67493F0A37470F0E49001ECF0FC82
:10222A009001E1E0FBA3E0FAA3E0F9AF048F827525
:10223A008300121472FE74E82FF582E43401F583E8
:10224A00EEF09001ECE0FE8F82758300121472FDAD
:10225A00EE6D9001ECF00CECB404C59001FC740135
:10226A00F0A37401F0A374EDF07B017A0179E67DA5
:10227A00071223927D087F081230559002027409D2
:10228A00F0A37401F0A37401F0A374E6F0A374013F
:10229A00F0A37401F0A374E4F07B017A0179E67F7C
:1022AA000C120C9DEF700F9001E4E07004A3E0643F
:0822BA00187003FF80027FFE93
:0122C20022F9
:08243300E0FBA3E0FAA3E0F9CD
:0B243B009001E3EBF0A3EAF0A3E9F04E
:102446009001ECEFF0A3EDF0E4FF9001E3E0FBA3D5
:10245600E0FAA3E0F98F82758300121472FE74EE1F
:102466002FF582E43401F583EEF00FEFB406DBE4DA
:10247600FF9001E6E0FBA3E0FAA3E0F98F82758303
:1024860000121472FE74F42FF582E43401F583EE23
:10249600F00FEFB406DB900202740CF0A37401F0A7
:1024A600A37401F0A374ECF0A37401F0A37401F01B
:1024B600A374EAF07B017A0179EC7F0E120C9D90F1
:1024C60001E9EFF070097F08122CDCEF20E306909B
:0A24D60001E974FEF09001E9E0FF57
:0124E00022D9
:0B27C4009001E1EBF0A3EAF0A3E9F0C4
:1027CF009001E67430F0A3EFF09001FC7401F0A3D8
:1027DF007401F0A374E8F07A0179E612238E900267
:1027EF00027404F0A37401F0A37401F0A374E6F073
:1027FF00A37401F0A37401F0A374E4F07B017A01D8
:10280F0079E67F0C120C9DEF70349001E4E07004B8
:10281F00A3E064907028FE74E62EF582E43401F58F
:10282F0083E0FD9001E1E0FBA3E0FAA3E0F98E82E3
:10283F00758300ED1214B10EEEB410DB80027FFE33
:01284F002266
:071C2500FF7BFF7A2F79A07D
:0B1C2C0090024FEBF0A3EAF0A3E9F0F8
:101C370090025474A0F0A3EFF09001FC7401F0A39C
:101C47007402F0A37456F07B017A0279547D021274
:101C570023929002027404F0A37401F0A37402F0BB
:101C6700A37454F0A37401F0A37402F0A37452F0A8
:101C77007B017A0279547F0C120C9DEF701690024B
:101C870052E07004A3E06404700A900254E0540F19
:101C9700640A60027FFEEF6003021D26FE90024F7A
:101CA700E0FBA3E0FAA3E0F98E82758300121472B9
:101CB700FD74542EF582E43402F583EDF00EEEB494
:101CC70010DB9001FC7401F0A37402F0A37464F0BC
:101CD7007B017A0279547D101223929002027412CA
:101CE700F0A37401F0A37402F0A37454F0A3740179
:101CF700F0A37402F0A37452F07B017A0279547F47
:101D07000C120C9DEF7016900252E07004A3E06471
:0F1D170004700A900254E0540F640A60027FFEC9
:011D2600229A
:10214A00900238EBF0A3EAF0A3E9F0900237EDF041
:10215A0090023DEFF0A3ED12237B120C77EF70167D
:10216A0090023BE07004A3E06404700A90023DE030
:10217A00540F640A60027FFEEF7052FE900238E04C
:10218A00FBA3E0FAA3E0F98E82758300121472FDB4
:10219A00743D2EF582E43402F583EDF00EEEB410B0
:1021AA00DB9001FC7401F0A37402F0A37441F07B8C
:1021BA00017A02793D7D04122392E490023BF0A356
:1021CA00F07406120C79EF64FE6002E4FFEF702EE1
:1021DA0090023D74B0F0900237E090023E12237BE9
:1021EA00120C77EF701690023BE07004A3E06404CF
:0E21FA00700A90023DE0540F640A60027FFEFE
:0122080022B3
:0519E800900266EDF025
:1019ED0090026974C2F0A3EFF09001FC7401F0A3B2
:1019FD007402F0A3746BF07B017A0279697D021297
:101A0D0023929002027404F0A37401F0A37402F007
:101A1D00A37469F0A37401F0A37402F0A37467F0CA
:101A2D007B017A0279697F0C120C9DEF7016900282
:101A3D0067E07004A3E06404700A900269E0540F3B
:101A4D00640A60027FFEEF7052900269F0A3F0A36A
:101A5D00F0A3F07B019001FC04F0A37402F0A374D9
:101A6D006DF07A0279697D04122392900202740658
:101A7D00F0A37401F0A37402F0A37469F0A37401D0
:101A8D00F0A37402F0A37467F07B017A0279697F89
:101A9D000C120C9DEF64FE6002E4FFEF60037FFE0D
:101AAD002290026974B0F0900266E090026AF090A4
:101ABD0001FC7401F0A37402F0A3746BF07B017A46
:101ACD000279697D021223929002027404F0A374CC
:101ADD0001F0A37402F0A37469F0A37401F0A37470
:101AED0002F0A37467F07B017A0279697F0C120C06
:101AFD009DEF7016900267E07004A3E06404700A15
:0C1B0D00900269E0540F640A60027FFE41
:011B190022A9
:102A72009001E47450F0E4A3F07B019001FC04F0B7
:102A8200A37401F0A374E6F07A0179E47D021223C3
:102A9200929002027404F0A37401F0A37401F0A3F3
:102AA20074E4F0A37401F0A37401F0A374E2F07B68
:102AB200017A0179E47F0C120C9D9001E1EFF07F25
:012AC2000013
:012AC30022F0
:10237B00F09001FC7401F0A37402F0A3743FF07AA7
:07238B0002793D7B017D0298
:0E2392009001F8EBF0A3EAF0A3E9F0A3EDF060
:1023A0007D047F05123055E4FD7F01122D557D809F
:1023B0007F0A123063E49001FFF09001FBE0FF9090
:1023C00001FFE0FEC39F50219001F8E0FBA3E0FA7B
:1023D000A3E0F98E82758300121472FD7F09122D1D
:1023E000559001FFE004F080D17D037F01122D554F
:1023F0009001FF74FFF07F05122CDC9001FFE014C8
:10240000F0E06004EF30E2EE7F22122CDC9001FC61
:10241000E0FBA3E0FAA3E0F9EF12149F7F21122C56
:10242000DC9001FCE0FBA3E0FAA3E0F9900001EFEF
:032430000214B1E2
:102B6300D2A500C2A500D2A57F017E00122F887DC9
:102B73000F7F01122D55007D3D7F11122D557D1EB6
:102B83007F2D122D55E4FD7F2C122D557D8D7F2A2F
:102B9300122D557D3E7F2B122D557D407F15122D15
:0D2BA300557F2D122CDC9001E1EFF07F003A
:012BB0002202
:100C77007404900202F0A37401F0A37402F0A37449
:100C87003DF0A37401F0A37402F0A3743BF07A0261
:060C9700793D7B017F0C9A
:100C9D009001FFEBF0A3EAF0A3E9F09001FEEFF075
:100CAD0090020974FEF0E4A3F0A3F0EF24F46010B9
:100CBD0024FE701690020A7412F0A37410F0800ACC
:100CCD0090020A7477F0A37430F090020AE0448029
:100CDD00FD7F02122D557D807F04123055E4FD7F7E
:100CED0001122D557D807F0A123063E490020DF0C4
:100CFD00A3F0900202E0FF90020DE0FCA3E0FDC323
:100D0D009FEC940050289001FFE0FBA3E0FAA3E0D4
:100D1D00F98D828C83121472FD7F09122D5590026C
:100D2D000EE004F070CC90020DE004F080C4900150
:100D3D00FEE0FD7F01122D559001FEE0B40C077D04
:100D4D00807F0D12306390020D7402F0A37458F081
:100D5D007F04122CDC90020CEFF090020EE024FFC9
:100D6D00F090020DE034FFF0E07002A3E06011900E
:100D7D00020CE0FF20E00990020BE0FEEF5E60D078
:100D8D007D807F0D12305590020DE07002A3E07052
:100D9D0003020E8A7F06122CDCEF541B6003020E39
:100DAD0084900209F0A3E0FF90020CE05F30E006B2
:100DBD0090020974FFF09001FEE0640C6003020ED6
:100DCD008A7F0A122CDC90020CEFF07F0C122CDCC7
:100DDD00EF5407FD602990020CE024FFFFE434FF7F
:100DED00FEEF7803C333CE33CED8F97C002DFFEC64
:100DFD003EF9900206E0FBA3E0FAA3E0C98016904D
:100E0D00020CE075F008A4FF900206E0FBA3E0FAE7
:100E1D00A3E0F9E5F08FF012156690020CE0700278
:100E2D0004F090020CE0D3941240037412F0E4909D
:100E3D00020DF0A3F090020CE0FFC390020EE09FB4
:100E4D0090020DE0940050357F09122CDC900203C6
:100E5D00E0FBA3E0FAA3E0F990020DE0FCA3E0F5BE
:100E6D00828C83EF1214B190020EE004F070C690E4
:100E7D00020DE004F080BE90020974FEF07D807FCB
:100E8D000C123063E4FD7F01122D55900209E0FF35
:010E9D002232
:102FF3007F14122CDCEF540370077D037F1412300F
:013003006369
:0130040022A9
:0730A0007D037F140230558F
:102D5500C2A6C2A4EF25E0547EFF7E08EF30E7034C
:102D6500D38001C392A7D2A6EF25E0FFC2A6DEEC71
:102D75007E08ED30E703D38001C392A7D2A6ED25E7
:0A2D8500E0FDC2A6DEECD2A4D2A647
:012D8F002221
:062CD600AC07AB05E4FEB3
:102CDC00E4FEC2A6C2A4EF25E0547E4480FF7D082A
:102CEC00EF30E703D38001C392A7D2A6EF25E0FF14
:102CFC00C2A6DDEC7D08D2A6EE25E0FEA280E43370
:0C2D0C004EFEC2A6DDF0D2A4D2A6AF0697
:012D18002298
:0D306300122CD6AE07AF04EB4EFD022D552A
:0E305500122CD6AE07AF04EBF45EFD022D5533
:10274400022E78E493A3F8E493A34003F68001F205
:1027540008DFF48029E493A3F85407240CC8C33396
:10276400C4540F4420C8834004F456800146F6DF65
:10277400E4800B0102040810204080901D27E47EB1
:10278400019360BCA3FF543F30E509541FFEE4935A
:10279400A360010ECF54C025E060A840B8E493A321
:1027A400FAE493A3F8E493A3C8C582C8CAC583CA4C
:1027B400F0A3C8C582C8CAC583CADFE9DEE780BE04
:011E1F0000C2
:10145900BB010689828A83E0225002E722BBFE0291
:09146900E32289828A83E49322C4
:10147200BB010CE58229F582E5833AF583E022502F
:1014820006E92582F8E622BBFE06E92582F8E22279
:0D149200E58229F582E5833AF583E4932293
:10149F00BB010689828A83F0225002F722BBFE012C
:0214AF00F32226
:1014B100F8BB010DE58229F582E5833AF583E8F071
:1014C100225006E92582C8F622BBFE05E92582C81D
:0214D100F22205
:1014D300EF8DF0A4A8F0CF8CF0A428CE8DF0A42E2D
:0214E300FE22E7
:1014E500BC000BBE0029EF8DF084FFADF022E4CCEB
:1014F500F875F008EF2FFFEE33FEEC33FCEE9DECB4
:10150500984005FCEE9DFE0FD5F0E9E4CEFD22EDF9
:10151500F8F5F0EE8420D21CFEADF075F008EF2F43
:10152500FFED33FD4007985006D5F0F222C398FD34
:051535000FD5F0EA22D1
:10153A00C5F0F8A3E028F0C5F0F8E582158270023C
:06154A001583E038F022D9
:10155000A3F8E0C5F025F0F0E5821582700215834E
:06156000E0C838F0E822AB
:10156600BB010A89828A83F0E5F0A3F0225006F7D0
:0F15760009A7F01922BBFE06F3E5F009F31922CD
:0C158500A42582F582E5F03583F5832271
:1006D600E5082412F582E43402F583E00508229049
:1006E600020F300703900212E475F0011215910211
:1006F60014592000E97F2ED2008018EF540F249061
:10070600D43440D4FF30040BEF24BFB41A00500396
:100716002461FFE50960021509050CE50C70020568
:100726000B30070E90020FE475F001121591EF02DF
:10073600149F022EA07403D2078003E4C207F508B3
:1007460090020F1215A8E4F509F50BF50CE5096002
:10075600077F2012071980F5750AFFC201C200C281
:1007660002C203C205C206C2081206E5FF700D30BA
:1007760007057F0012072AAF0CAE0B22B4255FC215
:10078600D5C2041206E5FF24D0B40A00501A75F04B
:100796000A780930D50508B6FF0106C6A426F62054
:1007A600D5047002D20380D924CFB41A00EF5004C6
:1007B600C2E5D20402092BD20180C6D20080C0D283
:1007C6000280BCD2D580BAD20580B47F2012071928
:1007D6002002077401B5090040F11206D6FF120780
:1007E60019020753D208D20680951206D6FB1206C6
:1007F600D6FA1206D6F94A4B700679FC7A097BFFBF
:1008060020022EE509602A7E008E8275830012146E
:100816007260060EEE650A70F0C2D5EBC0E0EAC063
:10082600E0E9C0E0EE120972D0E0F9D0E0FAD0E0DB
:10083600FB121459FF60AAEBC0E0EAC0E0E9C0E091
:10084600120719D0E02401F9D0E03400FAD0E0FB19
:10085600E50A0460DCD50AD980877BFF7A09796EC0
:10086600D202809C791080027908C206C2088008EC
:10087600D2D5790A8004790AC2D5E50A047002F550
:100886000AE4FAFDFEFF1206D6FC7B0820011312CD
:1008960006D6FD7B1030000A1206D6FE1206D6FFDB
:1008A6007B20EC3382D592D55013C3E43000069FEB
:1008B600FFE49EFEE42001039DFDE49CFCE4CBF8EE
:1008C600C201EC700CCFCECDCCE824F8F870F380E2
:1008D60017C3EF33FFEE33FEED33FDEC33FCEB33A2
:1008E600FB994002FB0FD8E9EB300105F8D0E0C4D4
:1008F60048B201C0E00AEC4D4E4F78207B0070C232
:10090600EAB50A0040BCC0E0120974D0F0D0E0207D
:100916000104C4C0E0C4B201C0F0120702D0F0D591
:10092600F0EB0207531215B107F053086A5807C1D6
:100936004C07BD42086E4F08764408764907D643F1
:08094600087C550860460860BA
:10094E00450860470A1C5007C52D07C92E07EC2B1A
:10095E0007CD2307EA200A052A078548000007E489
:10096E003F3F3F00790AA2D5200314300509B91084
:10097E00020404B9080104A2D52006025001042085
:10098E0002689202B509005034C0E07F203003198E
:10099E007F30A20272067205500F1209CBC202C23C
:1009AE0006C205C2087F30800F300503E9C0E01291
:1009BE000719300503D0E0F9D0E0B509CC300517A2
:1009CE007F30B9100C1207197F583004077F7880DA
:1009DE0003B908031207193002057F2D0207197F8C
:1009EE00202008F87F2B2006F322920280CF286E5B
:1009FE00756C6C2900D2011206D63001F8C201784E
:100A0E000930D50108F60207852D504349581206C4
:100A1E00D62403B405004001E4900A179312070A86
:0D0A2E00743A12070AD20375090402086A1F
:10159100F8E0FBA3A3E0F925F0F0E58215827002E3
:0715A1001583E0FA38F02287
:0915A800EBF0A3EAF0A3E9F02244
:1015B100D083D082F8E4937012740193700DA3A3C9
:1015C10093F8740193F5828883E4737402936860DD
:0615D100EFA3A3A380DFDD
:102EA000EFB40A07740D122EAB740A309811A8996A
:102EB000B8130CC2983098FDA899C298B811F63092
:072EC00099FDC299F599226A
:00000001FF
