:100000000219F7E49000FBF0D2B422020DBDE49097
:1000100000B0F01221749000B0E004F0E0C3940549
:1000200040F122021E9090006AE064017046900048
:100030006DE07004D282803E90006EE07017A3E005
:100040007002A3E07030D28290006E04F0E4FFFEF4
:1000500012087C801590006FE07002A3E07017C258
:100060008290006EF0FFFE1209FB90006FEEF0A38D
:10007000EFF08002C282900071E06401704790004E
:1000800074E07004D283803F900075E07017A3E0A5
:100090007002A3E07031D28390007504F0FF7E00FF
:1000A00012087C8016900076E07002A3E07018C2FF
:1000B00083900075F07F01FE1209FB900076EEF050
:1000C000A3EFF08002C283900078E0640170489052
:1000D000007BE07004D290804090007CE07018A318
:1000E000E07002A3E07032D29090007C04F07F02B6
:1000F0007E0012087C801690007DE07002A3E07004
:1001000018C29090007CF07F02FE1209FB90007DE7
:10011000EEF0A3EFF08002C29090007FE0640170E7
:1001200048900082E07004D2918040900083E0709B
:1001300018A3E07002A3E07032D29190008304F023
:100140007F037E0012087C8016900084E07002A37A
:10015000E07018C291900083F07F03FE1209FB90BB
:100160000084EEF0A3EFF08002C291900086E0647C
:10017000017048900089E07004D292804090008A1B
:10018000E07018A3E07002A3E07032D29290008A6F
:1001900004F07F047E0012087C801690008BE070D3
:1001A00002A3E07018C29290008AF07F04FE120948
:1001B000FB90008BEEF0A3EFF08002C29290008DD6
:1001C000E064017048900090E07004D29380409009
:1001D0000091E07018A3E07002A3E07032D2939017
:1001E000009104F07F057E0012087C80169000923A
:1001F000E07002A3E07018C293900091F07F05FEBA
:100200001209FB900092EEF0A3EFF08002C29390EF
:100210000094E064017048900097E07004D29480EC
:1002200040900098E07018A3E07002A3E07032D212
:100230009490009804F07F067E0012087C8016904F
:100240000099E07002A3E07018C294900098F07FCB
:1002500006FE1209FB900099EEF0A3EFF08002C2B7
:100260009490009BE06401704890009EE07004D27E
:1002700095804090009FE07018A3E07002A3E070AA
:1002800032D29590009F04F07F077E0012087C8098
:10029000169000A0E07002A3E07018C29590009F35
:1002A000F07F07FE1209FB9000A0EEF0A3EFF080B4
:1002B00002C2959000A2E0640170489000A5E07031
:1002C00004D29680409000A6E07018A3E07002A3CC
:1002D000E07032D2969000A604F07F087E001208EB
:1002E0007C80169000A7E07002A3E07018C2969080
:1002F00000A6F07F08FE1209FB9000A7EEF0A3EF26
:10030000F08002C2969000A9E0640170469000ACB3
:10031000E07003D297229000ADE07018A3E0700265
:10032000A3E07031D2979000AD04F07F097E0012F7
:10033000087C80169000AEE07002A3E07017C297B0
:100340009000ADF07F09FE1209FB9000AEEEF0A325
:10035000EFF022C29722900120E075F00AA4FF90EE
:10036000011FE075F064A42FFF900121E02F9000A1
:10037000B0F0E49000B5F0A3F0A3F0A3F0A3F0A3D5
:10038000F0900034E06003020475A3E064066003AB
:10039000020475900033E064086003020475C2A192
:1003A000C2A17B017A007934E024FEFDE434FFFC35
:1003B000121C049000B3EEF0A3EFF0E49000B3F051
:1003C000A3F0900033E02432F582E43400F583E0BA
:1003D000FF9000B1E4F0A3EFF0900033E02433F598
:1003E00082E43400F583E0FE9000B2E02400F09057
:1003F00000B1E03EF0E0FEA3E0FFA3E06E7003A3D7
:10040000E06F6003020624900037E070061220DDE2
:10041000020624900037E0640170489000FCE0641C
:100420000270030206247401F0900039E075F06454
:10043000849000FFF0900039E075F06484E5F07579
:10044000F00A84900100F0900039E075F00A849081
:100450000101E5F0F0E49000FDF09000FB7402F083
:10046000020624900037E0B41108122125E4900020
:10047000FCF00206249000B0E0FF900034E06F60D2
:1004800003020628C2A1C2A17B017A007934900040
:1004900033E024FEFDE434FFFC121C049000B3EEB4
:1004A000F0A3EFF0E49000B3F0A3F0900033E02469
:1004B00032F582E43400F583E0FF9000B1E4F0A36C
:1004C000EFF0900033E02433F582E43400F583E06C
:1004D000FE9000B2E02400F09000B1E03EF0E0FEBB
:1004E000A3E0FFA3E06E7003A3E06F6003020624A5
:1004F000900035E024FA604424F670030205AA2433
:100500000D6003020624900038E0700BA3E0B401F4
:1005100006121E45020624900038E07007A3E0B4DE
:1005200003028012900038E06003020624A3E06416
:10053000056003020624121060020624900033E0D6
:1005400064086003020624122115900037E070054C
:10055000122125802B900037E064016004E0B40292
:1005600005120003801A900037E0B40507E49001FB
:1005700022F0800C900037E0B41005E490012BF0DD
:10058000900037E064206003020624900039E07098
:1005900007900102F0020624900039E06401600334
:1005A00002062490010204F0807A900033E024F5E2
:1005B000FF90003CE06F706CE0D394145066121C06
:1005C000B390003AE0C41354079000FBF090003A57
:1005D000E0131313540314601514601D14602624D3
:1005E0000370229000F8E4F0A37450F08021900092
:1005F000F8E4F0A374A0F080169000F87401F0A362
:100600007440F0800A9000F87402F0A37480F090B7
:10061000003AE054079000FDF0E49000FEF09001F5
:1006200003F0A3F0D2A1D2A1E49000B8F09000B8FA
:10063000E0FFC39432501474342FF582E43400F593
:1006400083E4F09000B8E004F080E2E4900033F03E
:10065000900067F07F01229000E7F0A37401F0A3FF
:100660007400F0A374C6F0A37401F0A37400F0A3A7
:1006700074C4F07A0079C67B017F0C9000E4EBF043
:10068000A3EAF0A3E9F09000E3EFF09000EE74FE2F
:10069000F0E4A3F0A3F0EF24F4601024FE701690B1
:1006A00000EF7412F0A37410F0800A9000EF7477DA
:1006B000F0A37430F09000EFE04480FD7F02121F41
:1006C0008B7D807F04122135E4FD7F01121F8B7D1D
:1006D000807F0A122150E49000F2F0A3F09000E72E
:1006E000E0FF9000F2E0FCA3E0FDC39FEC9400501B
:1006F000289000E4E0FBA3E0FAA3E0F98D828C836C
:10070000120B93FD7F09121F8B9000F3E004F07031
:10071000CC9000F2E004F080C49000E3E0FD7F01A3
:10072000121F8B9000E3E0B40C077D807F0D122137
:10073000509000F27402F0A37458F07F04121EDA95
:100740009000F1EFF09000F3E024FFF09000F2E071
:1007500034FFF0E07002A3E060119000F1E0FF20B0
:10076000E0099000F0E0FEEF5E60D07D807F0D122A
:1007700021359000F2E07002A3E070030208687F68
:1007800006121EDAEF541B60030208629000EEF0BE
:10079000A3E0FF9000F1E05F30E0069000EE74FF10
:1007A000F09000E3E0640C60030208687F0A121E08
:1007B000DA9000F1EFF07F0C121EDAEF5407FD60C3
:1007C000299000F1E024FFFFE434FFFEEF7803C33B
:1007D00033CE33CED8F97C002DFFEC3EF99000EB00
:1007E000E0FBA3E0FAA3E0C980169000F1E075F009
:1007F00008A4FF9000EBE0FBA3E0FAA3E0F9E5F02A
:100800008FF0120C879000F1E0700204F09000F17C
:10081000E0D3941240037412F0E49000F2F0A3F0DD
:100820009000F1E0FFC39000F3E09F9000F2E094AD
:100830000050357F09121EDA9000E8E0FBA3E0FAD1
:10084000A3E0F99000F2E0FCA3E0F5828C83EF12C4
:100850000BD29000F3E004F070C69000F2E004F0D8
:1008600080BE9000EE74FEF07D807F0C122150E47B
:10087000FD7F01121F8B9000EEE0FF2290006B7550
:10088000F007EF120CA6EE75F007A42583F583E0C0
:10089000FDA3E09000B0CDF0A3EDF090006D75F0F9
:1008A00007EF120CA6EE75F007A42583F583E0147C
:1008B000B4070040030209F29008C675F003A4C50E
:1008C0008325F0C583730208DB0208FC02092202BB
:1008D000094802096E0209980209C490006B75F07C
:1008E00007EF120CA6EE75F007A42583F583E0C38D
:1008F00013FFA3E0139000B0CF0209EE90006B75D8
:10090000F007EF120CA6EE75F007A42583F583E03F
:10091000FEA3E0FF7C007D03120C069000B0EE0207
:1009200009EE90006B75F007EF120CA6EE75F0075C
:10093000A42583F583E0FEA3E0FF7C007D06120C76
:10094000069000B0EE0209EE90006B75F007EF1212
:100950000CA6EE75F007A42583F583E0FEA3E0FF67
:100960007C007D0B120C069000B0EE0209EE9000A8
:100970006B75F007EF120CA6EE75F007A42583F552
:1009800083E0FEA3E0FF7C007D03120C06EF25E070
:10099000FFEE339000B0805690006B75F007EF12B9
:1009A0000CA6EE75F007A42583F583E0FEA3E0FF17
:1009B0007C007D06120C067C007D05120BF4900075
:1009C000B0EE802A90006B75F007EF120CA6EE7562
:1009D000F007A42583F583E0FEA3E0FF7C007D0BF8
:1009E000120C067C007D0A120BF49000B0EEF0A30E
:1009F000EFF09000B0E0FEA3E0FF2290006B75F0F6
:100A000007EF120CA6EE75F007A42583F583E0FD31
:100A1000A3E09000B0CDF0A3EDF090006D75F0076D
:100A2000EF120CA6EE75F007A42583F583E014B44D
:100A300007004003020B71900A4575F003A4C583BB
:100A400025F0C58373020A5A020AED020B17020B46
:100A500043020A7B020AA1020AC790006B75F007E5
:100A6000EF120CA6EE75F007A42583F583E0C313FF
:100A7000FFA3E0139000B0CF020B6D90006B75F0F8
:100A800007EF120CA6EE75F007A42583F583E0FEB0
:100A9000A3E0FF7C007D03120C069000B0EE020B79
:100AA0006D90006B75F007EF120CA6EE75F007A4C1
:100AB0002583F583E0FEA3E0FF7C007D06120C0693
:100AC0009000B0EE020B6D90006B75F007EF120C0A
:100AD000A6EE75F007A42583F583E0FEA3E0FF7C76
:100AE000007D0B120C069000B0EE020B6D90006BB7
:100AF00075F007EF120CA6EE75F007A42583F583B9
:100B0000E0FEA3E0FF7C007D03120C06EF25E0FF72
:100B1000EE339000B0805690006B75F007EF120C2A
:100B2000A6EE75F007A42583F583E0FEA3E0FF7C25
:100B3000007D06120C067C007D05120BF49000B0BF
:100B4000EE802A90006B75F007EF120CA6EE75F0A0
:100B500007A42583F583E0FEA3E0FF7C007D0B1254
:100B60000C067C007D0A120BF49000B0EEF0A3EFAF
:100B7000F09000B0E0FEA3E0FF22BB010689828A6C
:100B800083E0225002E722BBFE02E32289828A83AD
:100B9000E49322BB010CE58229F582E5833AF583D3
:100BA000E0225006E92582F8E622BBFE06E925820E
:100BB000F8E222E58229F582E5833AF583E493227F
:100BC000BB010689828A83F0225002F722BBFE0114
:100BD000F322F8BB010DE58229F582E5833AF5831E
:100BE000E8F0225006E92582C8F622BBFE05E92579
:100BF00082C8F222EF8DF0A4A8F0CF8CF0A428CE0A
:100C00008DF0A42EFE22BC000BBE0029EF8DF084D7
:100C1000FFADF022E4CCF875F008EF2FFFEE33FEC5
:100C2000EC33FCEE9DEC984005FCEE9DFE0FD5F0FC
:100C3000E9E4CEFD22EDF8F5F0EE8420D21CFEAD05
:100C4000F075F008EF2FFFED33FD4007985006D503
:100C5000F0F222C398FD0FD5F0EA22C5F0F8A3E028
:100C600028F0C5F0F8E582158270021583E038F0AF
:100C700022A3F8E0C5F025F0F0E582158270021598
:100C800083E0C838F0E822BB010A89828A83F0E554
:100C9000F0A3F0225006F709A7F01922BBFE06F3D5
:100CA000E5F009F31922A42582F582E5F03583F5F4
:100CB00083229000B5EFF0C3940540037FFF22909C
:100CC00023DCE493FE740193AA06F99000C8E4F0D3
:100CD000A3EAF0A3E9F0A37405F07B017A0079B6EA
:100CE000121C5F9023DEE493FE740193AA06F99030
:100CF00000C8E4F0A3EAF0A3E9F0A37405F07B01D7
:100D00007A0079BB121C5F9023E0E493FE74019398
:100D1000AA06F99000C8E4F0A3EAF0A3E9F0A374EE
:100D200005F07B017A0079C0121C5F9000B5E0FFEE
:100D300024BBF582E43400F583E0FE74B62FF5821F
:100D4000E43400F583E0FFB5061C9000B5E024C054
:100D5000F582E43400F583EFF09000B5E024B6F5B9
:100D600082E4340080529000B5E0FF24C0F582E4B4
:100D70003400F583E0FD74B62FF582E43400F5838A
:100D8000E0FF9000B5B50519E024BBF582E434001E
:100D9000F583EFF09000B5E024B6F582E4340080EE
:100DA00017E024B6F582E43400F583EEF09000B548
:100DB000E024BBF582E43400F583E0FF22C0E0C00C
:100DC000F0C083C082C0D075D000C000C001C00296
:100DD000C003C004C005C006C0079000F4E4F0756D
:100DE0008CFC758A66900126E0B40127D390012817
:100DF000E09400900127E094004013A3E024FFF06A
:100E0000900127E034FFF0122197C2B4800512212F
:100E100085D2B4900033E0600D900066E0FF14F0DE
:100E2000EF7003A304F0900103E07002A3E0600EF2
:100E3000900104E024FFF0900103E034FFF0900003
:100E4000F4E4F09000F4E0FFC36480948A5046EF2D
:100E50003395E0FE90006F75F007EF120CA6EE756B
:100E6000F007A42583F583E0FCA3E0D39400EC9481
:100E700000401A90006F75F007EF120CA6EE75F0A7
:100E800007A42583F58374FFF5F0120C5B9000F442
:100E9000E004F080AED007D006D005D004D003D057
:100EA00002D001D000D0D0D082D083D0F0D0E032B8
:100EB0009000B0EFF0A3EDF0A3EBF07B017A0079A6
:100EC000B67F521218DAEF6003020F64900124F02B
:100ED000900126E06003020F887B017A0079B61248
:100EE0001134EF6003020F887B017A0079B6121487
:100EF000E3EF6003020F889000B0E0FFA3E0FD90F5
:100F000000CB7401F0A37400F0A374B6F09000B3AA
:100F1000121649EF70729000B1E0FF7B017A007900
:100F2000B6121967EF7061FF9000B2E0FEEFC39E4A
:100F3000501B74B62FF582E43400F583E0FE74068E
:100F40002FF582E43401F583EEF00F80DB121D07EC
:100F50009001267401F0900122F0900127E4F0A3A3
:100F60007464F022900124E004F0E0B40109121D41
:100F7000F812218C122103900124E0D3940540083B
:100F80007405F0E4900126F0229000B0EFF07A00B2
:100F900079B11218D6EF600302103B900124F09053
:100FA0000126E0600302105F7B017A0079B1121123
:100FB00034EF600302105F7B017A0079B11214E311
:100FC000EF600302105F9000B0E0FD9000CB740171
:100FD000F0A37400F0A374B1F07BFF7A2379AA7FA9
:100FE00060121651EF70789000B0E0FF7BFF7A231B
:100FF00079BC1215A5EF70679000B0E0FD9000CBB2
:101000007401F0A37400F0A374B1F07BFF7A23792C
:10101000AA7F61121651EF70469000B0E0FF7BFF8F
:101020007A2379CC1215A5EF7035121D0790012691
:101030007401F0A3E4F0A37464F022900124E004AE
:10104000F0E0B40109121DF812218C122103900165
:1010500024E0D3940540087405F0E4900126F022C2
:10106000E4FF900120E075F00AA4FE90011FE075F6
:10107000F064A42EFE900121E02EFE900000F0A36B
:101080007403F0900039E024FB6025240270619025
:1010900000027401F090012BE060089000037401DD
:1010A000F08005E4900003F09000327404F080407A
:1010B000900122E06401702D9000027410F0E4FFB2
:1010C00074062FF582E43401F583E0FE74032FF5F6
:1010D00082E43400F583EEF00FEFB410E3900032B9
:1010E0007413F0800BE4900002F09000327403F06F
:1010F0007B017A007900900032E0FD7C00121C0434
:10110000900032E02400F582E43400F583EFF0EE45
:10111000FF900032E02401F582E43400F583EFF023
:10112000900032E02402F07B017A007900E0FD7C3F
:1011300000021A839000C6EBF0A3EAF0A3E9F0E402
:101140009000CAF07D087F08122135E4FD7F0D1262
:101150001F8B7D807F0E1221359000CD7493F0A3FC
:101160007420F09000E77402F07B01A314F0A374E4
:1011700000F0A374CDF0A3EBF0A37400F0A374CB44
:10118000F07A0079CD7F0C12067B9000C9EFF070E9
:1011900058FC74CD2CF582E43400F583E0FE900019
:1011A000C6E0FBA3E0FAA3E0F9AF048F82758300E9
:1011B000EE120BD29000CAE0FE74CD2FF582E4341B
:1011C00000F583E0FDEE6D9000CAF00CECB404C2B3
:1011D00074CD2CF582E43400F583E0FF9000CAE082
:1011E0006F60069000C974FEF07D807F0E12215062
:1011F0009000C9E0FF229000F8E0FEA3E0FFFDAC04
:10120000069000FDE014B4070040030212B19012F2
:101210001C75F003A4C58325F0C583730212310247
:10122000123A02124802125602126702127F02128A
:1012300097EEC313FCEF13FD80779000F8E0FEA358
:10124000E0FF7C007D03801A9000F8E0FEA3E0FF41
:101250007C007D06800C9000F8E0FEA3E0FF7C009F
:101260007D0B120C0680469000F8E0FEA3E0FF7CA8
:10127000007D03120C06EF25E0FDEE33FC8032907A
:1012800000F8E0FEA3E0FF7C007D06120C067C0067
:101290007D05120BF480169000F8E0FEA3E0FF7CC1
:1012A000007D0B120C067C007D0A120BF4AC06AD1F
:1012B00007AE04AF05229000F8E0FEA3E0FFFDAC0E
:1012C000069000FDE014B407004003021371901271
:1012D000DC75F003A4C58325F0C583730212F10207
:1012E000132702133F0213570212FA0213080213C4
:1012F00016EEC313FCEF13FD80779000F8E0FEA319
:10130000E0FF7C007D03801A9000F8E0FEA3E0FF80
:101310007C007D06800C9000F8E0FEA3E0FF7C00DE
:101320007D0B120C0680469000F8E0FEA3E0FF7CE7
:10133000007D03120C06EF25E0FDEE33FC803290B9
:1013400000F8E0FEA3E0FF7C007D06120C067C00A6
:101350007D05120BF480169000F8E0FEA3E0FF7C00
:10136000007D0B120C067C007D0A120BF4AC06AD5E
:1013700007AE04AF0522E4FF120CB29000B0EFF00C
:101380007F01120CB29000B1EFF07F02120CB2900C
:1013900000B2EFF07F03120CB29000B3EFF07F04C5
:1013A000120CB29000B4EFF09000B0E0D39400744F
:1013B00080948140037401F09000B1E0D394034025
:1013C00002E4F09000B2E0D3940540037405F0907D
:1013D00000B3E0D394014002E4F09000B4E0D39471
:1013E000014002E4F09000B0E0FF75F064849001E9
:1013F0001FF0EF75F06484E5F075F00A84A3F090B7
:1014000000B0E075F00A84900121E5F0F09000B1A1
:10141000E0900117F09000B2E090011EF09000B350
:10142000E0900116F09000B4E0900118F0227F14D3
:101430007E001220AFC2AF121FF31220C712137624
:101440009001197401F01220F0121DF812218C1273
:101450002103121BA7D2AFE49000F7F09000F7E051
:10146000B4011D9000B574FFF0A37423F0A374AA17
:10147000F07BFF7A23799A7D087F601216F7802B24
:101480009000F7E070199000B374FFF0A37423F09C
:10149000A374AAF07B107D077F60120EB0800C90C1
:1014A00000F7E0B402057F07120F89121AE6120056
:1014B00026121FC290012CE06003121DAA90006743
:1014C000E0B401987B017A007934900033E0FD7C30
:1014D00000121A83122143E4900067F0900033F069
:1014E00002145C9000C6EBF0A3EAF0A3E9F09000D0
:1014F000CB7493F0A37470F0E49000D1F0FC9000F2
:10150000C6E0FBA3E0FAA3E0F9AF048F8275830085
:10151000120B93FE74CD2FF582E43400F583EEF0C8
:101520009000D1E0FE8F82758300120B93FDEE6D6B
:101530009000D1F00CECB404C59000E17401F0A36C
:101540007400F0A374D2F07B017A0079CB7D07128E
:1015500017A47D087F081221359000E77409F0A3D5
:101560007401F0A37400F0A374CBF0A37401F0A392
:101570007400F0A374C9F07B017A0079CB7F0C1260
:10158000067BEF700F9000C9E07004A3E064187050
:1015900003FF80027FFE229000B1E0FFA3E0FBA3E7
:1015A000E0FAA3E0F99000C1EBF0A3EAF0A3E9F0C0
:1015B0009000C674A0F0A3EFF09000E17401F0A3D6
:1015C0007400F0A374C8F07D0212179E7404120612
:1015D00057EF70169000C4E07004A3E06404700A32
:1015E0009000C6E0540F640A60027FFEEF7059FE5F
:1015F0009000C1E0FBA3E0FAA3E0F98E82758300BE
:10160000120B93FD74C62EF582E43400F583EDF0E1
:101610000EEEB410DB9000E17401F0A37400F0A3AF
:1016200074D6F07D1012179E7412120657EF7016C2
:101630009000C4E07004A3E06404700A9000C6E067
:10164000540F640A60027FFE22E0FBA3E0FAA3E0ED
:10165000F99000C8EBF0A3EAF0A3E9F09000D1EF15
:10166000F0A3EDF0E4FF9000C8E0FBA3E0FAA3E0F4
:10167000F98F82758300120B93FE74D32FF582E4E9
:101680003400F583EEF00FEFB406DBE4FF9000CBFF
:10169000E0FBA3E0FAA3E0F98F82758300120B93BD
:1016A000FE74D92FF582E43400F583EEF00FEFB429
:1016B00006DB9000E7740CF0A37401F0A37400F053
:1016C000A374D1F0A37401F0A37400F0A374CFF05D
:1016D0007B017A0079D17F0E12067B9000CEEFF06D
:1016E00070097F08121EDAEF20E3069000CE74FE28
:1016F000F09000CEE0FF229000B0EFF0A3EDF0A359
:10170000EBF0A3EAF0A3E9F07A0179061218D6EF1C
:10171000706790012AF0900125E0600302179D7B1D
:10172000017A017906121134EF70727B017A017926
:10173000061214E3EF70669000B0E0FFA3E0FD90A6
:1017400000CB7401F0A37401F0A37406F09000B50F
:10175000121649EF7047121597EF7041121597EF67
:10176000703B121597EF7003121D0790012674014C
:10177000F0A3E4F0A37464F02290012AE004F0E006
:10178000B40109121DF812218C12210390012AE0E4
:10179000D3940540087405F0E4900125F0227B0104
:1017A0007A0079C69000DDEBF0A3EAF0A3E9F0A39C
:1017B000EDF07D047F05122135E4FD7F01121F8BC2
:1017C0007D807F0A122150E49000E4F09000E0E078
:1017D000FF9000E4E0FEC39F50219000DDE0FBA3FA
:1017E000E0FAA3E0F98E82758300120B93FD7F0966
:1017F000121F8B9000E4E004F080D17D037F011282
:101800001F8B9000E474FFF07F05121EDA9000E455
:10181000E014F0E06004EF30E2EE7F22121EDA9076
:1018200000E1E0FBA3E0FAA3E0F9EF120BC07F2197
:10183000121EDA9000E1E0FBA3E0FAA3E0F99000C9
:1018400001EF020BD2900120E075F00AA4FF900195
:101850001FE075F064A42FFF900121E02F9000BCE1
:10186000F0900117E09000BDF090011EE09000BEE6
:10187000F0900116E09000BFF0900118E09000C0D9
:10188000F09023DCE493FE740193FF122193E49023
:1018900000BBF09000BBE0FFC394035038EF25E09D
:1018A00024DCF582E43423F583E493FE740193AAE7
:1018B00006F99000C4E4F0A3EAF0A3E9F0A37405EC
:1018C000F07B017A0079BC121D59121F159000BBE4
:1018D000E004F080BE227B017F529000C6EFF0A3AF
:1018E000EBF0A3EAF0A3E9F07D087F081221357D33
:1018F000077F0D121F8B7D037F141221509000C6AD
:10190000E09000CCF09000E77401F0A3F0A3740025
:10191000F0A374CCF0A37401F0A37400F0A374CA14
:10192000F07A0079CC120677EF70399000CAE07037
:1019300004A3E06410702D9000CCE0FE9000C7E09E
:10194000FBA3E0FAA3E0F9EE120BC09000CDE0FE9D
:101950009000C7E0FBA3E0FAA3E0F9900001EE12CB
:101960000BD280027FFE229000C6EBF0A3EAF0A328
:10197000E9F09000CB7430F0A3EFF09000E1740137
:10198000F0A37400F0A374CDF07B017A0079CB7DD5
:10199000021217A49000E77404F0A37401F0A3747A
:1019A00000F0A374CBF0A37401F0A37400F0A3744F
:1019B000C9F07B017A0079CB7F0C12067BEF703483
:1019C0009000C9E07004A3E064907028FE74CB2EF0
:1019D000F582E43400F583E0FD9000C6E0FBA3E06F
:1019E000FAA3E0F98E82758300ED120BD20EEEB4ED
:1019F00010DB80027FFE22787FE4F6D8FD7581201F
:101A0000021A3E02142EE493A3F8E493A34003F6D3
:101A10008001F208DFF48029E493A3F85407240C32
:101A2000C8C333C4540F4420C8834004F456800113
:101A300046F6DFE4800B0102040810204080901F6E
:101A400051E47E019360BCA3FF543F30E509541F6D
:101A5000FEE493A360010ECF54C025E060A840B817
:101A6000E493A3FAE493A3F8E493A3C8C582C8CA95
:101A7000C583CAF0A3C8C582C8CAC583CADFE9DE68
:101A8000E780BE9000BBEBF0A3EAF0A3E9F0A3EC83
:101A9000F0A3EDF0D281C2A17F027E001220AFE45C
:101AA0009000C0F09000C0E0FFD39000BFE09F9096
:101AB00000BEE0940040239000BBE0FBA3E0FAA34B
:101AC000E0F99000C0E0F582758300120B93FF12DD
:101AD00021699000C0E004F080CA7F027E001220DD
:101AE000AFC281D2A122900122E0B401047F028022
:101AF000539000FBE0FF604A9000FDE070028044DC
:101B00009000FEE0701D900103E07002A3E07037CA
:101B10009000FBE0FF121B489000FE7401F01211D0
:101B2000F68016900103E07002A3E0701AFF121B0A
:101B300048E49000FEF01212B6900103EEF0A3EF1D
:101B4000F022E4FF121B4822EF14B407005051901A
:101B50001B5D75F003A4C58325F0C58373021B725A
:101B6000021B79021B80021B87021B8E021B95023F
:101B70001B99D2CCD2CDC2B322D2B3D2CDC2CC2209
:101B8000D2B3D2CCC2CD22D2CDC2B3C2CC22D2CC1F
:101B9000C2B3C2CD22D2B38002C2B3C2CCC2CD2264
:101BA000D2B3D2CCD2CD22E4900122F0C2A1C2A104
:101BB0007F03121B487FF47E011220AF7F02121BAD
:101BC000487FF47E011220AF7F01121B487FF47E14
:101BD000011220AF7F04121B487FF47E011220AF58
:101BE0007F05121B487FF47E011220AF7F06121B77
:101BF000487FF47E011220AFE4FF121B48D2A1D22D
:101C0000A10221259000BBEBF0A3EAF0A3E9F0A329
:101C1000ECF0A3EDF07FFF7DFF9000BE74FFF5F0C8
:101C2000120C7145F060339000BBE0FBA3E475F04B
:101C300001120C71A9F0FA120B7A6DFB7A00249A4A
:101C4000F582EA3421F583E4936FFD749A2BF582D3
:101C5000EA3422F583E493FF80BFEFFEEDFF22908C
:101C600000C5EBF0A3EAF0A3E9F0E49000CCF0901B
:101C700000CBE0FFA3E0C39F50389000C8E0FBA377
:101C8000E0FAA3E0F91220209000C5E0FBA3E0FAFF
:101C9000A3E0F99000CCE0F582758300EF120BD23F
:101CA0009000C9E475F001120C5B9000CCE004F0E8
:101CB00080BD22900120E075F00AA4FF90011FE092
:101CC00075F064A42FFF900121E02FFF900000F039
:101CD000A37410F0E4A3F0A3F0A3F0A37405F07BC9
:101CE000017A0079007D067C00121C04900006EF4A
:101CF000F0EEA3F09000327408F07B017A007900D6
:101D0000E0FD7C00021A839000C97450F0E4A3F057
:101D10007B019000E104F0A37400F0A374CBF07A8F
:101D20000079C97D021217A49000E77404F0A3742F
:101D300001F0A37400F0A374C9F0A37401F0A374BC
:101D400000F0A374C7F07B017A0079C97F0C1206FA
:101D50007B9000C6EFF07F00229000C1EBF0A3EA79
:101D6000F0A3E9F0E49000C8F09000C7E0FFA3E022
:101D7000FEC39F50349000C1E0FBA3E0FAA3E0F95A
:101D80008E82758300120B93FD9000C4E0FBA3E0EC
:101D9000FAA3E0F912204A9000C5E475F001120C94
:101DA0005B9000C8E004F080C022E49000B0F0A393
:101DB000F0A3F0900102E06006E490012CF0229084
:101DC00000FCE0B401279000FFE090011FF09001BB
:101DD00000E0900120F0900101E0900121F0121844
:101DE000459000FC7402F0E49000FBF02290012C7E
:101DF000E014700312217E22D2A500C2A500D2A554
:101E00007F017E001220AF7D0F7F01121F8B007DAE
:101E10003D7F11121F8B7D1E7F2D121F8BE4FD7FD6
:101E20002C121F8B7D8D7F2A121F8B7D3E7F2B12E4
:101E30001F8B7D407F15121F8B7F2D121EDAEFB492
:101E40001EFC7F0022900120E075F00AA4FF9001A3
:101E50001FE075F064A42FFF900121E02FFF900098
:101E600000F0A37403F0E4A3F07B017A0079007D15
:101E700003FC121C04900003EFF0EEA3F09000327C
:101E80007405F07B017A007900E0FD7C00021A8382
:101E9000C0E0C083C082C0D075D00830982DC298F1
:101EA000900033E0C394325022900067E0640160F8
:101EB0001A900033E0FF04F074342FF582E434000C
:101EC000F583E599F09000667402F0D0D0D082D00E
:101ED00083D0E032AC07AB05E4FEE4FEC2A6C2A4A8
:101EE000EF25E0547E4480FF7D08EFC330E701D347
:101EF00092A7D2A6EF25E0FFC2A6DDEE7D08D2A60E
:101F0000EE25E0FEA280E4334EFEC2A6DDF0D2A4B0
:101F1000D2A6AF06221221977F1E7E001220AF129A
:101F200021857F237E001220AF1221977F1E7E0025
:101F30001220AF1221857F197E001220AF12219747
:101F40007F1E7E001220AF1221857F197E000220A5
:101F5000AF41012C0041012D0041012B004101172F
:101F60000041011E0541011600410118004100FB1E
:101F7000014200F803E84100FD014100FE0041007C
:101F8000FA014100FC004101020000C2A6C2A4EF18
:101F900025E0547EFF7E08EFC330E701D392A7D23D
:101FA000A6EF25E0FFC2A6DEEE7E08EDC330E70116
:101FB000D392A7D2A6ED25E0FDC2A6DEEED2A4D232
:101FC000A622E490012CF0A3E0B4010FA2B54003D7
:101FD000D38001C34005E490012DF090012DE07005
:101FE0001120B50E12000E20B50890012C7401F0DE
:101FF000A3F02243940C7591007592FFC282C283B4
:10200000C290C291C292C293C294C295C296C29724
:10201000122185D2B4E4900105F0538EDFF59722AA
:10202000E4F5C275C78375C501AF019000CDEAF034
:10203000A3EFF09000CDE0F5C3A3E0F5C475C65A58
:1020400075C6A50012215DAFC22275C78375C50292
:10205000AF019000C9EAF0A3EFF09000C9E0F5C32A
:10206000A3E0F5C4AF058FC275C65A75C6A50002B8
:10207000215D75C78375C5039000C1EEF0A3EFF035
:102080009000C1E0F5C3A3E0F5C475C65A75C6A5B6
:102090000002215D759850538EBF538EFE53890FF9
:1020A000758BE8758DFFC2ABD28ED2ACD2AF22ADAC
:1020B00007AC06D3ED9400EC9400400A122174EDB5
:1020C0001D70F01C80ED22538E7F5389F0438901EF
:1020D000758A66758CFCC28DD28CD2A922122125FC
:1020E000E49000FCF090011FF0A3F0A3F00218456B
:1020F000122094C281E4900033F0900067F09000C9
:1021000066F0227F14121EDAEF540370077D037FFE
:1021100014122150227B017A007934900033E0FDC3
:102120007C00021A83E49000FBF0D2B490012BF003
:10213000900122F022121ED4AE07AF04EBF45EFD34
:10214000021F8B900033E0C3940640031203562213
:10215000121ED4AE07AF04EB4EFD021F8BE4F5C791
:10216000F5C5F5C6F5C3F5C4222099FD8F993099C0
:10217000FDC29922007F0B7EBEDEFEDFFC229001B5
:102180002B7401F022D2B3D2CCD2CD227D037F14A6
:1021900002213512207222C2CD2200C1814001C02D
:1021A000804101C0804100C1814001C0804100C127
:1021B000814000C1814001C0804101C0804100C117
:1021C000814000C1814001C0804100C1814001C007
:1021D000804101C0804100C1814001C0804100C1F7
:1021E000814000C1814001C0804100C1814001C0E7
:1021F000804101C0804100C1814000C1814001C0D7
:10220000804101C0804100C1814001C0804100C1C6
:10221000814000C1814001C0804101C0804100C1B6
:10222000814000C1814001C0804100C1814001C0A6
:10223000804101C0804100C1814000C1814001C096
:10224000804101C0804100C1814001C0804100C186
:10225000814000C1814001C0804100C1814001C076
:10226000804101C0804100C1814001C0804100C166
:10227000814000C1814001C0804101C0804100C156
:10228000814000C1814001C0804100C1814001C046
:10229000804101C0804100C1814000C0C101C30331
:1022A00002C2C60607C705C5C404CC0C0DCD0FCFAE
:1022B000CE0E0ACACB0BC90908C8D81819D91BDB1E
:1022C000DA1A1EDEDF1FDD1D1CDC14D4D515D7176E
:1022D00016D6D21213D311D1D010F03031F133F31E
:1022E000F23236F6F737F53534F43CFCFD3DFF3F6E
:1022F0003EFEFA3A3BFB39F9F83828E8E929EB2B9E
:102300002AEAEE2E2FEF2DEDEC2CE42425E527E72D
:10231000E62622E2E323E12120E0A06061A163A39D
:10232000A26266A6A767A56564A46CACAD6DAF6F2D
:102330006EAEAA6A6BAB69A9A86878B8B979BB7B9D
:102340007ABABE7E7FBF7DBDBC7CB47475B577B7ED
:10235000B67672B2B373B17170B05090915193531D
:10236000529296565797559594549C5C5D9D5F9FED
:102370009E5E5A9A9B5B99595898884849894B8B1D
:102380008A4A4E8E8F4F8D4D4C8C448485458747AD
:102390004686824243834181804012345678EDCB99
:1023A000A9871234567801FE01FEFFFFFFFFFFFFF1
:1023B000070707070707080808080808FFFFFFFFC7
:1023C000FFFF08778F69FFFFFFFFFFFF0707070782
:1023D000070708778F690808080808080000001038
:0C23E0000020060008000A000C000E009F
:00000001FF
