:10000000020E8DE536242AF8E605362278273007D9
:1000100002782AE475F00112083A0208212000EB68
:100020007F2ED2008018EF540F2490D43440D4FF98
:1000300030040BEF24BFB41A0050032461FFE537EE
:1000400060021537053AE53A7002053930070D7838
:1000500027E475F00112083AEF0207CE020DCD74C5
:1000600003D2078003E4C207F5368B278A28892943
:10007000E4F537F539F53AE53760077F2012003EA1
:1000800080F57538FFC201C200C202C203C205C2B8
:1000900006C20812000CFF700D3007057F00120029
:1000A0004FAF3AAE3922B4255FC2D5C20412000C5C
:1000B000FF24D0B40A00501A75F00A783730D505FD
:1000C00008B6FF0106C6A426F620D5047002D203A6
:1000D00080D924CFB41A00EF5004C2E5D204020242
:1000E0004FD20180C6D20080C0D20280BCD2D5805F
:1000F000BAD20580B47F2012003E2002077401B5F9
:10010000370040F1120003FF12003E020077D208D0
:10011000D2068095120003FB120003FA120003F9C5
:100120004A4B700679207A037BFF20022EE5376068
:100130002A7E008E827583001207A160060EEE658E
:100140003870F0C2D5EBC0E0EAC0E0E9C0E0EE12E2
:100150000296D0E0F9D0E0FAD0E0FB120821FF606F
:10016000AAEBC0E0EAC0E0E9C0E012003ED0E02423
:1001700001F9D0E03400FAD0E0FBE5380460DCD5CA
:1001800038D980877BFF7A027992D202809C7910DD
:1001900080027908C206C2088008D2D5790A800494
:1001A000790AC2D5E538047002F538E4FAFDFEFF9D
:1001B000120003FC7B08200113120003FD7B1030AA
:1001C000000A120003FE120003FF7B20EC3382D5ED
:1001D00092D55013C3E43000069FFFE49EFEE42056
:1001E00001039DFDE49CFCE4CBF8C201EC700CCF54
:1001F000CECDCCE824F8F870F38017C3EF33FFEED0
:1002000033FEED33FDEC33FCEB33FB994002FB0F87
:10021000D8E9EB300105F8D0E0C448B201C0E00AEB
:10022000EC4D4E4F78207B0070C2EAB5380040BCE0
:10023000C0E0120298D0F0D0E0200104C4C0E0C4B5
:10024000B201C0F0120027D0F0D5F0EB0200771217
:10025000084A011453018E5800E54C00E142019216
:100260004F019A44019A4900FA4301A0550184467E
:1002700001844501844703405000E92D00ED2E0123
:10028000102B00F123010E2003292A00A9480000A9
:1002900001083F3F3F00790AA2D520031430050929
:1002A000B910020404B9080104A2D52006025001C5
:1002B000042002689202B537005034C0E07F20303D
:1002C00003197F30A20272067205500F1202EFC2AC
:1002D00002C206C205C2087F30800F300503E9C0A4
:1002E000E012003E300503D0E0F9D0E0B537CC3065
:1002F00005177F30B9100C12003E7F583004077F7D
:10030000788003B9080312003E3002057F2D0200F9
:100310003E7F202008F87F2B2006F322920280CF18
:10032000286E756C6C2900D2011200033001F8C2EE
:1003300001783730D50108F60200A92D50434958FD
:100340001200032403B405004001E490033B931220
:10035000002F743A12002FD20375370402018E1257
:100360000DA1120C55120EA0120E6E7B007A0079B0
:10037000567F52120BF48F22E5226011120DA1124A
:100380000C55120EA0120E6E120E9980DE7BFF7AB3
:100390000C79A2120065E4F52374562523F8E6755E
:1003A0002500F5267BFF7A0C79AC85252AF52B12E2
:1003B00000650523E523C3940240DE7B007A0079C3
:1003C000561209B28F22E52270A17BFF7A0C79AF19
:1003D000120065E4F52374562523F8E6752500F52B
:1003E000267BFF7A0C79AC85252AF52B1200650552
:1003F00023E523C3940440DE7B007A007956120A79
:100400002D8F22E522600302036B752C00752D00F1
:10041000752E567BFF7A0C79DC7D087F61120AA865
:100420008F22E522600302036B7BFF7A0C79C87F81
:10043000081208708F22E522600302036B7BFF7AAB
:100440000C79BA1200657BFF7A0C79BC1200657BCF
:10045000007A0079567F52120BF48F22E522601D3C
:100460000524E524D394054006752415E4F55512BA
:100470000DA1120C55120EA0120E6E80D2E4F524BE
:10048000E55570CBFB7A0079561209B28F22E5222E
:1004900070BD7B007A007956120A2D8F22E52270FA
:1004A000AE752C00752D00752E567BFF7A0C79DC0D
:1004B0007D087F61120AA88F22E52270927B007A64
:1004C0000079567F08120B918F22E52270817BFF05
:1004D0007A0C79BF120065E4F52374562523F8E6FB
:1004E000752500F5267BFF7A0C79AC85252AF52B3E
:1004F0001200650523E523C3941040DE7BFF7A0CD0
:1005000079BA120065120E30120D297555010204D8
:100510004F754804754900754A00754B6D754C0060
:10052000754D00754E6B7A00796D7B007F0C8F44A2
:100530008B458A468947754FFEE4F550F551E544F1
:1005400024F4600C24FE700E755012755110800654
:10055000755077755130E5504480FD7F02120D6A69
:100560007D807F04120E60120D667D807F0A120E60
:1005700080E4F553F554C3E5549548E55394005091
:100580001FAB45AA46A9478554828553831207A10C
:10059000FD7F09120D6A0554E55470DA055380D6C3
:1005A000AD447F01120D6AE544B40C077D807F0DD8
:1005B000120E807553027554587F04120CEE8F5240
:1005C000E554155470021553E55445536009E5523E
:1005D00020E004555160E27D807F0D120E60E554ED
:1005E000455370030206937F06120CEEEF541B6016
:1005F00003020690F54FE552555030E003754FFF6A
:10060000E544640C60030206937F0A120CEE8F52DD
:100610007F0C120CEEEF5407FD6021E55224FFFF22
:10062000E434FFFEEF7803C333CE33CED8F97C0039
:100630002DFFEC3EAB4CAA4DA94E800FE55275F054
:1006400008A4FFAB4CAA4DA94EE5F08FF0120802AA
:10065000E5527003755201E552D39412400375526E
:1006600012E4F553F554C3E5549552E55394005004
:10067000227F09120CEEAB49AA4AA94B8554828508
:100680005383EF1207E00554E55470DA055380D622
:10069000754FFE7D807F0C120E80120D66AF4F22CB
:1006A0008D088B098A0A890B8F0E85080F75420009
:1006B0007543007544107B007A00790E7D021209A3
:1006C0003C754804754900754A00754B0E754C0021
:1006D000754D00754E0C7B007A00790E7F0C12056B
:1006E0002EEF7010E50D6404450C7008E50E540FF4
:1006F000640A60027FFEEF7057FEAB09AA0AA90BDD
:100700008E827583001207A1FD740E2EF8A6050EC9
:10071000BE10E77542007543007544127B007A00F5
:10072000790E7D0412093CE4F50CF50D754806F5CB
:1007300049754A00754B0EF54C754D00754E0CFB16
:100740007A00790E7F0C12052EEF64FE6002E4FF42
:10075000EF704D750EB085080FF542754300754476
:1007600010FB7A00790E7D0212093C754804754928
:1007700000754A00754B0E754C00754D00754E0C9A
:100780007B007A00790E7F0C12052EEF7010E50DBC
:100790006404450C7008E50E540F640A60027FFE85
:1007A00022BB010CE58229F582E5833AF583E0223C
:1007B0005006E92582F8E622BBFE06E92582F8E22A
:1007C00022E58229F582E5833AF583E49322BB0191
:1007D0000689828A83F0225002F722BBFE01F322AF
:1007E000F8BB010DE58229F582E5833AF583E8F04F
:1007F000225006E92582C8F622BBFE05E92582C8FB
:10080000F222BB010A89828A83F0E5F0A3F022502C
:1008100006F709A7F01922BBFE06F3E5F009F31964
:1008200022BB010689828A83E0225002E722BBFEB6
:1008300002E32289828A83E49322FAE6FB0808E62F
:10084000F925F0F618E6CA3AF622D083D082F8E409
:10085000937012740193700DA3A393F8740193F530
:10086000828883E4737402936860EFA3A3A380DF9C
:100870008B278A288929752CA08F2D7542007543F6
:100880000075442E7B007A00792C7D0212093C759C
:100890004804754900754A00754B2C754C00754D20
:1008A00000754E2A7B007A00792C7F0C12052EEF02
:1008B0007010E52B6404452A7008E52C540F640A77
:1008C00060027FFEEF7063FEAB27AA28A9298E8203
:1008D0007583001207A1FD742C2EF8A6050EBE101C
:1008E000E775420075430075443C7B007A00792C23
:1008F0007D1012093C754812754900754A00754B08
:100900002C754C00754D00754E2A7B007A00792CB1
:100910007F0C12052EEF7010E52B6404452A700839
:10092000E52C540F640A60027FFE22754200754375
:100930000075446F7A00796D7B007D028B3E8A3FA3
:1009400089408D417D047F05120E60120D667D8009
:100950007F0A120E80E4F545E545C395415019AB79
:100960003EAA3FA9408545827583001207A1FD7FFD
:1009700009120D6A054580E07D037F01120D6A753D
:1009800045FF7F05120CEE1545E5456004EF30E2AA
:10099000F17F22120CEEAB42AA43A944EF1207CE1C
:1009A0007F21120CEEAB42AA43A944900001EF0252
:1009B00007E08B278A288929E4F52B120E5CE4FDD9
:1009C0007F0D120D6A7D807F0E120E60752E93755D
:1009D0002F20754802754900754A00754B2E754CDD
:1009E00000754D00754E2C7B007A00792E7F0C121D
:1009F000052E8F2AE52A702BFF742E2FF8E6AB27E1
:100A0000AA28A9298F827583001207E0742E2FF877
:100A1000E6622B0FBF04E2742E2FF8E6652B60030D
:100A2000752AFE7D807F0E120E80AF2A228B278AC8
:100A3000288929752C93752D70E4F532FFAB27AA10
:100A400028A9298F827583001207A1FE742E2FF822
:100A5000A6068F827583001207A162320FBF04DDE4
:100A60007542007543007544337B007A00792C7D14
:100A70000712093C120E5C754809754900754A0059
:100A8000754B2C754C00754D00754E2A7B007A0015
:100A9000792C7F0C12052EEF700BE52B6418452A7C
:100AA0007003FF80027FFE228B298A2A892B8F32D6
:100AB0008D33E4FFAB29AA2AA92B8F8275830012FC
:100AC00007A1FE74342FF8A6060FBF06E7E4FFABBC
:100AD0002CAA2DA92E8F827583001207A1FE743ACD
:100AE0002FF8A6060FBF06E775480C754900754A32
:100AF00000754B32754C00754D00754E307B007A99
:100B00000079327F0E12052E8F2FE52F70097F0896
:100B1000120CEEEF20E303752FFEAF2F228D6A75C6
:100B20006DC28F6E12092B120511EF7010E56C6407
:100B300004456B7008E56D540F640A60027FFEEF98
:100B40007027F56DF56EF56FF570F542754300751C
:100B50004471FB7A00796D7D0412093C75480612D8
:100B60000514EF64FE6002E4FFEF60037FFE227570
:100B70006DB0856A6E12092B120511EF7010E56CCD
:100B80006404456B7008E56D540F640A60027FFED3
:100B9000228B278A288929752C308F2D7542007564
:100BA000430075442E7A00792C1209387548047573
:100BB0004900754A00754B2C754C00754D00754EFB
:100BC0002A7B007A00792C7F0C12052EEF7022E52B
:100BD0002B6490452A701AFE742C2EF8E6AB27AAD7
:100BE00028A9298E827583001207E00EBE10E980C5
:100BF000027FFE228F278B288A29892A120E5C7D8C
:100C0000077F0D120D6A7D037F14120E8085272D3C
:100C1000754801754900754A00754B2D754C007576
:100C20004D00754E2B7A00792D12052AEF7023E5C1
:100C30002C6410452B701BAB28AA29A92AE52D127C
:100C400007CEAB28AA29A92A900001E52E1207E0B9
:100C500080027FFE22D2A400C2A400D2A47F0A7E1A
:100C600000120E127D0F7F01120D6A007D3D7F1173
:100C7000120D6A7D1E7F2D120D6AE4FD7F2C120D70
:100C80006A7D8D7F2A120D6A7D3E7F2B120D6A7D53
:100C9000407F15120D6A7F15120CEEEF30E6FC7FD7
:100CA0000022BFA8B5C4C0E0D0CD3A00255800BF8F
:100CB000A8D0F2C1D0BAC5A3BA000A006F6B00BFBA
:100CC000A8B6C1BFE9A3BA00FFFFFFFFFFFF087787
:100CD0008F6977777777777700000001FFFFFFFF55
:100CE000FFFF777777777777AC07AB05E4FEE4FE15
:100CF000C2A1C2A2EF25E0547E4480FF7D08EFC36D
:100D000030E701D392A0D2A1EF25E0FFC2A1DDEE32
:100D10007D08D2A1EE25E0FEA2A3E4334206C2A1E3
:100D2000DDF0D2A2D2A1AF0622752A50E4F52BF550
:100D30004275430075442CFB7A00792A7D02120922
:100D40003C754804754900754A00754B2A754C007E
:100D5000754D00754E287B007A00792A7F0C1205AC
:100D60002E8F277F0022E4FD7F01C2A1C2A2EF25C2
:100D7000E0547EFF7E08EFC330E701D392A0D2A1FA
:100D8000EF25E0FFC2A1DEEE7E08EDC330E701D320
:100D900092A0D2A1ED25E0FDC2A1DEEED2A2D2A1A9
:100DA000227580FF7590FF75B0FF75A0FF758921D2
:100DB000759850758DFD758BFDE4F58CF58AD28C98
:100DC000D2A9D28ED299D2AFD2ACD29822EFB40AA5
:100DD00007740D120DD8740A309811A899B8130C25
:100DE000C2983098FDA899C298B811F63099FDC202
:100DF00099F59922D3EF9400EE940040147D7D7C08
:100E000000ED1D70011CED4C70F7EF1F70E61E80A9
:100E1000E322D3EF9400EE940040147D6E7C00ED4D
:100E20001D70011CED4C70F7EF1F70E61E80E32271
:100E3000120E4B7F5E7E01120E487FFA7E00120E6C
:100E4000487FFA7E00020DF4120DF4120E997F2CE9
:100E50007E01120DF4D284D286D285227D087F08CD
:100E6000120CE8AE07AF04EBF45EFD020D6A7F14CE
:100E7000120CEEEF540370077D037F14120E8022D4
:100E8000120CE8AE07AF04EB4EFD020D6A787FE46A
:100E9000F6D8FD75817E02035FC284C286C28522B8
:070EA0007D037F14020E60C8
:00000001FF
